:020000040800F2
:10000000D03800209D010008571300084512000851
:1000100055130008010700089D14000800000000A7
:1000200000000000000000000000000005010008C2
:1000300003070008000000004901000859130008E8
:10004000B7010008B7010008B7010008B7010008B0
:10005000B7010008B7010008B7010008B7010008A0
:10006000B7010008B701000805070008B70100083C
:10007000B7010008B7010008B7010008B701000880
:10008000B7010008B7010008B7010008B701000870
:10009000B7010008B7010008B70100082D070008E4
:1000A000B7010008B7010008B7010008B701000850
:1000B000E5130008B7010008B7010008B701000800
:1000C000B7010008B7010008B7010008B701000830
:1000D000B7010008B7010008B7010008B701000820
:1000E000B7010008B7010008B7010008DFF810D019
:1000F00000F076F900480047551B0008AFF3008078
:10010000D0380020224B19680868B0E8F00F80F35F
:100110000988BFF36F8F4FF0000080F311884EF015
:100120000D0E70470000000006480068006880F36C
:10013000088862B661B6BFF34F8FBFF36F8F00DFE1
:1001400000BF00BF08ED00E0EFF30980BFF36F8F41
:100150000F4B1A6820E9F00F106008B54FF05000FF
:1001600080F31188BFF34F8FBFF36F8F02F06CFDE8
:100170004FF0000080F31188BDE808401968086856
:10018000B0E8F00F80F30988BFF36F8F704700BFAE
:1001900028000020EFF305807047000006488047E4
:1001A00006480047FEE7FEE7FEE7FEE7FEE7FEE75C
:1001B000FEE7FEE7FEE7FEE7E3130008ED000008B8
:1001C000202A04DB203A21FA02F00021704721FAAC
:1001D00002F3D040C2F12002914008431946704713
:1001E00040EA01039B0703D009E008C9121F08C0B9
:1001F000042AFAD203E011F8013B00F8013B521E39
:10020000F9D27047D2B201E000F8012B491EFBD2AF
:1002100070470022F6E710B513460A460446194611
:10022000FFF7F0FF204610BD2DE9FE4F81EA0304E1
:1002300004F0004421F0004100944FF0000B23F043
:10024000004350EA01045ED052EA03045BD0C3F3DA
:100250000A54C1F30A552C44A4F2F3340194A0FBD0
:100260000254C1F3130141F48011C3F3130343F4A7
:10027000801301FB024400FB034E840A970A44EA00
:10028000815447EA8357A4FB076802958D0A05FB52
:1002900007854FEA932C04FB0C542705029D4FEA77
:1002A000065847EA1637B5EB08056EEB070C870EC4
:1002B000920E47EA811742EA8312A7FB0201B6EBCE
:1002C0000B0164EB00042B0D43EA0C335E1844EB86
:1002D0001C50DA465146E7FB0201C5F313044FEA0E
:1002E0000B3343EA14534FEA0432019C43EA0603FA
:1002F000A4F10C040294009CCDE900B400F022F8B3
:1003000003B0BDE8F08F00200146F9E70EB540F2DA
:10031000334102910021CDE900110A460B4600F05D
:1003200011F803B000BD10B5141E73F1000408DA13
:10033000401C41F1000192185B411A4301D120F0A9
:10034000010010BD2DE9F04D92469B4611B1B1FA66
:1003500081F202E0B0FA80F22032904600F052F8CA
:1003600004460F4640EA0A0041EA0B0153465A464A
:10037000084313D0114653EA010019D0C8F14002D6
:100380005046FFF71DFF05460E4650465946424669
:1003900000F038F8084305D0012004E02046394633
:1003A000BDE8F08D0020054346EAE0762C43374354
:1003B0000A986305E40AA0EB08000022FD0A44EA5B
:1003C00047540A3002D500200146E9E7010510191B
:1003D0006941DDE9084500196941BDE8F04DA2E732
:1003E000064C074D06E0E06840F0010394E8070082
:1003F00098471034AC42F6D3FFF77CFED83B000898
:10040000F83B0008202A04DB203A00FA02F1002021
:1004100070479140C2F1200320FA03F31943904042
:1004200070472DE9FE4F804681EA0300C00F0C465D
:10043000009021F0004123F00045B8EB0200A941F3
:1004400005D24046214690461C460B46024623F004
:100450000040104347D0270DC7F30A00C3F30A51E9
:100460000290401A019040286BDAC3F3130040F465
:10047000801B0098924620B10023D2EB030A63EB65
:100480000B0B01985946C0F140025046FFF7BAFFE6
:1004900006460D4650465946019A00F01FF910EBEA
:1004A00008006141002487EA115284EAE7731A4385
:1004B00040D0009A62B3019A012A4FEA075215DC34
:1004C000001B61EB02014FF0004202EA0752CDE946
:1004D0000042001C41F5801132462B46FFF732FFE7
:1004E00003B0BDE8F08F40462146F9E7001B61EB01
:1004F0000201001C41F5801300185B412018A2F591
:10050000001747EB030140EAD570B6196D4111E0C1
:100510006D084FEA360645EAC0754FEA0752001BE0
:1005200061EB0201001C41F5801149084FEA3000DF
:100530000019514132462B4603B0BDE8F04FFFF79A
:10054000F2BE0098012240000023D0EB020263EBD0
:10055000E073009821464FEAE074B8EB000061EBCD
:100560000401E9E783F000435BE781F0004158E7CD
:100570002DE9F04D81EA030404F0004B21F0004521
:1005800014464FF0000A23F0004150EA050220D043
:1005900054EA01021DD0C5F30A570246C5F31303FE
:1005A000C1F31300C1F30A5640F4801543F48013DD
:1005B000A7EB0608101BD64608F2FD3873EB0500C2
:1005C00002D308F1010801E092185B41B8F1000F75
:1005D00003DA00200146BDE8F08D00204FF48011C1
:1005E000064684460EE0171B73EB050705D3121B66
:1005F00063EB050306434CEA010C49084FEA30005F
:1006000092185B4150EA0107EDD152EA030012D083
:1006100082EA040083EA0501084305D0101BAB41C0
:1006200006D20122002306E000224FF0004302E040
:100630006FF0010253101AEB06004CEB085110EB5F
:100640000A0041EB0B01BDE8F04DFFF76CBE70B541
:1006500021F0004303430CD0C1F30A550024D5EB2D
:10066000040564EB0403D617AD1AB34102DB002086
:10067000014670BD201841EB025170BD0EB5C10F8F
:1006800080EAE0700844CA07002140F233438DE855
:100690000E000A460B46FFF755FE03B000BD70B5CD
:1006A000C1F30A5201F000450024C1F3130140F2E6
:1006B000FF3341F480119A4201DA002070BD40F20C
:1006C00033439A42A2F2334203DC5242FFF778FDF1
:1006D00000E090402C43F1D0404270BD202A06DB60
:1006E000CB17203A41FA02F043EAE07306E041FA00
:1006F00002F3D040C2F120029140084319467047EE
:10070000FEE77047074810B50168C90605D51021F6
:1007100001600548006801F013FBBDE8104010209F
:1007200000F024B814040140080000200C4810B563
:100730000168890609D520210160402101608021DE
:1007400001600848006801F0FBFA202000F00EF874
:10075000402000F00BF8BDE81040802000F006B803
:10076000140401400800002070470000044910B53F
:100770000A68024202D00860FFF7F6FF10BD0000D1
:10078000140401402DE9F84FDFF8B8910024A9F1D5
:10079000040B23460F2709F1040AABF1040EC9E04C
:1007A0000125A5402A40AA427DD1674ED1F804C058
:1007B000ACEB0608B44532D014DCBCF1030F3AD0E0
:1007C00009DCBCF1000F2AD0BCF1010F1CD0BCF138
:1007D000020F31D11DE0BCF1110F17D0BCF1120F87
:1007E0002AD119E0B8F5881F19D006DCB8F5803F8A
:1007F00015D0B8F5801F1FD111E0B8F5001F0ED03D
:10080000B8F5041F18D10AE0CB6815E0CB681B1DB2
:1008100012E0CB6808330FE0CB680C330CE08B6838
:100820002BB1012B4FF0080303D0456104E00423F2
:1008300002E0056100E00023FF2A01D8064601E03E
:1008400000F104064FEA840501D9A5F12005D6F888
:10085000008007FA05FC28EA0C0803FA05F548EAC7
:100860000508C6F800804D68ED0062D5374DAE69C9
:1008700046F00106AE61AD6924F0030605F00105FE
:100880000095334D06EB050CDCF80850A607360F33
:1008900007FA06F825EA0805DFF8B880404503D1D5
:1008A0004FF0000817E044E0DFF8AC80404502D18B
:1008B0004FF001080FE0DFF8A480404502D14FF06F
:1008C000020808E0DFF89880404502D14FF00308A5
:1008D00001E04FF0040808FA06F848EA0508CCF8E9
:1008E00008804D68D9F80060ED024D4601D51643E9
:1008F00000E096432E604D68DAF80060AD02554680
:1009000001D5164300E096432E604D68DBF8006089
:10091000AD035D4601D5164300E096432E604D6859
:10092000DEF80060ED03754601D5164300E09643FE
:100930002E60641C0D682A46E5407FF431AFBDE8A7
:10094000F88F000008040140000011100010024060
:100950000000014000080140000C0140001001406F
:10096000001401408068084000D0012070470AB19F
:10097000016170470904FBE7014880687047000087
:100980001800002002488168027811448160704795
:1009900018000020074810B5016841F010010160FF
:1009A000032000F0A7F80F2000F006F800F050F840
:1009B000002010BD0020024030B50546204887B019
:1009C000C16941F00101C161C06906A900F00100DF
:1009D000009001A800F036F90498B8B100F052F97F
:1009E000400018494FF08042B0FBF1F11648491E13
:1009F0000260416040F2E7320021C0E903218160DA
:100A0000816100F007FB040003D015E000F03AF923
:100A1000E7E70D4800F02CFB04000DD11C2000F08E
:100A20003BF8102D07D2002229461C2000F042F886
:100A30000648056000E0012407B0204630BD0000F4
:100A40000010024040420F00A40000201C000020C3
:100A50000F4808B5816941F001018161816901F0A8
:100A600001010091C16941F08051C161C06900225A
:100A700000F0805000900F21901E00F01BF80548F8
:100A8000416821F0E06141F00071416008BD000063
:100A90000010024000000140002809DB00F01F02A6
:100AA000012191404009800000F1E020C0F80011D0
:100AB00070470000F0B40E4B1B680C46C3F30223D2
:100AC000C3F10705042D00D90425191D072901D2FA
:100AD000002300E0DB1E012606FA05F1491E214035
:100AE00099409E40761E16403143F0BC00F0EBBCAE
:100AF0000CED00E0064900F0070208684FF6FF031E
:100B0000184040EA0220034A104308607047000082
:100B10000CED00E00000FA052DE9F0470F46050056
:100B200061D0434E306800F00700B84209D2306807
:100B300020F0070038433060306800F00700B8420A
:100B400051D128683B4C810712D5400703D5606816
:100B500040F4E06060602878000703D5606840F4E6
:100B6000605060606068A96820F0F0000843606031
:100B70002878C00728D06868012810D0216802288A
:100B800010D0890700292EDA616821F003010143A2
:100B90006160FFF7F1FE804641F288390DE021687F
:100BA0008903EFE78901EDE7FFF7E6FEA0EB080117
:100BB000494502D90320BDE8F0876068696800F004
:100BC0000C00B0EB810FEFD1306800F00700B842A5
:100BD0000BD9306820F0070038433060306800F0EF
:100BE0000700B84201D00120E5E72878400705D585
:100BF0006068E96820F4E0600843606028780007D6
:100C000006D56068296920F4605040EAC100606040
:100C100000F048F86168084AC1F30311515CC8400C
:100C20000649086006480068FFF7C6FE0020C2E7D4
:100C300000200240001002407A3A00082400002000
:100C40001C0000200F2202600C4A536803F00303CB
:100C50004360536803F0F0038360536803F4E06378
:100C6000C36052684FF4E06303EAD20202610448B1
:100C7000006800F0070008607047000000100240A4
:100C8000002002400448054900684968044AC1F34D
:100C90000221515CC840704724000020001002402F
:100CA0008A3A00080E4A51680E4801F00C03042BE2
:100CB00011D0082B0FD10C48C1F38343C903C05C8A
:100CC0000AD55168084AC1F34041921E515C054A59
:100CD0005043B0FBF1F070470449484370470000AF
:100CE0000010024000127A006A3A000800093D0034
:100CF0002DE9F84F040070D02078C04DC00749D0CE
:100D00006868C0F38100012807D06868C0F38100DB
:100D1000022809D16868C00306D52868800339D540
:100D200060680028E7D035E06068B0F5803F0BD000
:100D300010B1B0F5A02F11D0286820F480302860C1
:100D4000286820F4802002E0286840F48030286081
:100D5000606890B1FFF710FE06460AE0286840F48C
:100D600080202860F0E700BFFFF706FE801B6428A4
:100D700073D828688003F7D50CE0FFF7FDFD064621
:100D800005E000BFFFF7F8FD801B6428F0D8286855
:100D90008003F7D420789A4E80074FF001094FF076
:100DA000000839D5686810F00C0F07D06868C0F3E8
:100DB0008100022809D16868C00306D4286880072A
:100DC00014D52069012808D110E02069B0B1C6F817
:100DD0000090FFF7D1FD074605E00AE1FFF7CCFDE3
:100DE000C01B0228C4D828688007F7D52868616925
:100DF00020F0F80040EAC10028600DE0C6F800804D
:100E0000FFF7BAFD074604E0FFF7B6FDC01B022856
:100E100023D828688007F7D4207800072CD5794894
:100E2000A169D9B1C0F80090FFF7A6FD074604E01C
:100E3000FFF7A2FDC01B02280FD8686A8007F7D50C
:100E400071484FF4FA510068B0FBF1F0009000BF18
:100E50000098411E0091FAD20EE080E0C0F80080B8
:100E6000FFF78AFD074604E0FFF786FDC01B022856
:100E700075D8686A8007F7D42078400760D5E8699C
:100E80000027C00008D4E86940F08050E861E869B4
:100E9000012700F0805000905C480168C90513D418
:100EA0000168834641F480710160FFF765FD824669
:100EB00006E000BFFFF760FDA0EB0A0064284ED8F3
:100EC000DBF80000C005F5D5E06801280AD008B1BC
:100ED000052813D0286A20F001002862286A20F033
:100EE000040002E0286A40F001002862E06841F254
:100EF000883B98B1FFF740FD82460BE0286A40F03E
:100F000004002862EEE700BFFFF736FDA0EB0A0100
:100F100059455AD8286A8007F6D50CE0FFF72CFD12
:100F2000824605E0FFF728FDA0EB0A0159454CD8A1
:100F3000286A8007F6D41FB1E86920F08050E86184
:100F4000E06988B36968C1F38101022944D00228AD
:100F5000C6F8608004D0FFF70FFD044638E034E0A7
:100F6000FFF70AFD074604E0FFF706FDC01B022855
:100F70002BD828688001F7D4206AB0F5803F05D1CE
:100F80006868A16820F4003008436860D4E908016B
:100F90000843696821F4741108436860C6F86090DA
:100FA000FFF7EAFC044606E025E000BFFFF7E4FC9B
:100FB000001B022809D828688001F7D51BE000BF74
:100FC000FFF7DAFC001B022802D90320BDE8F88FE6
:100FD00028688001F4D40EE00128F7D06868226AFE
:100FE00000F48031914204D1616A00F470108842AB
:100FF00001D00120EAE70020E8E7000000100240ED
:101000000000424280044242240000200070004060
:101010007047704710B5040003D094F83D0010B13C
:1010200007E0012010BD002084F83C00204600F0BD
:101030001EF8022084F83D00211D206800F0D8F938
:10104000012084F8460084F83E0084F83F0084F8CC
:10105000400084F8410084F8420084F8430084F89A
:10106000440084F8450084F83D00002010BD70471E
:1010700090F83D10012901D001207047022180F82D
:101080003D100168CA6842F00102CA6000680B495D
:10109000884208D0B0F1804F05D00949884202D07B
:1010A0000849884204D1816801F00701062903D06C
:1010B000016841F00101016000207047002C0140EF
:1010C0000004004000080040704770B50446006806
:1010D00001694FF00005C943890715D4C168C943A8
:1010E000890711D4E91E01610120207720688069F9
:1010F0008007204602D0FFF7E7FF04E000F098F8F1
:10110000204600F096F8257720680169C943490711
:1011100017D4C168C943490713D46FF004010161B2
:10112000022020772068806910F4407F204602D09A
:10113000FFF7CAFF04E000F07BF8204600F079F8E2
:10114000257720680169C943090716D4C168C943D6
:10115000090712D46FF0080101610420207720688C
:10116000C0698007204602D0FFF7AEFF04E000F020
:101170005FF8204600F05DF8257720680169C943D3
:10118000C90617D4C168C943C90613D46FF010014A
:101190000161082020772068C06910F4407F204654
:1011A00002D0FFF791FF04E000F042F8204600F083
:1011B00040F8257720680169C943C90708D1C1688B
:1011C000C943C90704D1891E0161204600F032F8E5
:1011D00020680169C943090609D4C168C9430906E1
:1011E00005D46FF0800101612046FFF711FF2068F0
:1011F0000169C943490609D4C168C943490605D4F0
:101200006FF040010161204600F01BF82068016981
:10121000C94389060BD4C168C943890607D46FF056
:10122000200101612046BDE87040FFF7F2BE70BDAD
:10123000704770470068B0F1804F01D1FFF7A2BB43
:1012400070477047FEE7000010B501210A4A0846C2
:1012500000F01EFD094C084A0021A060483A0848E9
:1012600000F0A6FD044A2060243A0021054800F061
:101270009FFD606010BD0000583A0008000000208B
:101280005D140008612B00082DE9F04186B00024B0
:101290002C480094019402940394816941F0100158
:1012A0008161816901F010010491816941F020019F
:1012B0008161816901F020010491816941F004019B
:1012C00081618069012200F004001F4F55030490E2
:1012D00029463846FFF74BFBDFF8708001220F21CB
:1012E0004046FFF744FB0126CDE90056022569463A
:1012F0003846CDE90245FFF745FA0F20CDE9000653
:1013000069464046CDE90245FFF73CFAF0200090DF
:101310000F48CDE9010569464046FFF733FA002240
:1013200005210A20FFF7C6FB0A20FFF7B5FB0022C4
:1013300005211720FFF7BEFB1720FFF7ADFB06B016
:10134000BDE8F0810010024000100140000801409B
:1013500000001110FEE7FEE710B5502080F3118861
:10136000BFF34F8FBFF36F8F02F074F918B10449C8
:101370004FF080500860002080F3118810BD0000FD
:1013800004ED00E030B58FB028216846FEF741FF3C
:1013900014210AA8FEF73DFF01210804CDE9001041
:1013A0000024029402250491CDE907504FF4E01087
:1013B00009906846FFF79CFC08B172B6FEE70F2063
:1013C000CDE90A054FF48060CDE90C4002210AA85E
:1013D0000E94FFF7A1FB002801D072B6FEE70FB014
:1013E00030BD70470148FFF770BE0000A400002028
:1013F000F0B50268164B174C174D4FF080479842D6
:1014000005D0B84203D0A04201D0A84203D122F0B7
:1014100070064A683243984205D0B84203D0A042D1
:1014200001D0A84203D122F44074CA6822434C6917
:1014300022F08002224302608A68C2620A688262E5
:10144000984201D10969016301214161F0BD0000A9
:10145000002C014000040040000800400C4E0D4FDD
:101460000D4D00243C2000F083FB2046FEF74EFF8C
:1014700032463B46FEF7D8FE01F016F9641CE4B292
:10148000642CC5E90401EDD3012000F071FBE8E70D
:101490005D36C891BF15A03F00000020FEE749005F
:1014A00050EAC12018BF04204A0D18BF40F00100C7
:1014B00040F2FF72B2EB515F08BF40F0020001281A
:1014C00008BF052070470907090E002804DB00F15A
:1014D000E02080F80014704700F00F0000F1E020D9
:1014E00080F8141D704700002DE9F74F144694B0A2
:1014F0000021C4E902111599079121F00045C9495D
:101500008D4206DC1599C4E9000117B00020BDE842
:10151000F08FC549DFF814A3A9423CDD0799C44EFA
:101520000029C44FC44A1599534619DDFFF71AF82C
:10153000554506D0C14AC24BFFF714F8C4E9000173
:101540000AE04FF0D352BE4BFFF70CF832463B4651
:10155000FFF708F8C4E9000117B00120BDE8F08FDB
:10156000FEF75FFF554506D0B44AB54BFEF759FF6D
:10157000C4E900010AE04FF0D352B14BFEF751FF2E
:1015800032463B46FEF74DFFC4E9000117B04FF06D
:10159000FF30BDE8F08FAB49A942159978DB21F007
:1015A000004183468846A84AA84BFEF73DFE00222C
:1015B000A74BFEF736FFFFF772F80990FFF75EF8CA
:1015C00006460F469C4A5346FEF72EFE43465A46B1
:1015D000FEF7CBFF80468A46984A994B30463946FB
:1015E000FEF722FE2A0D01250B9242465346FEF7D6
:1015F000BCFF032DC4E9000139D00B98C1F30A5197
:10160000401A05EB45111139814230DA9148C34641
:10161000784400EB0510CDF80CA00C90D0E9002325
:1016200030463946FEF700FE02460B46049106900E
:1016300058460399FEF796FF80468A4602460B46B7
:1016400058460399FEF78EFF049B069AFEF78AFF21
:1016500083460C9803913946D0E902233046FEF7C1
:10166000E3FD5A46039BFEF77DFF6D1CBDE707981F
:101670000028A2BF099817B0BDE8F08F616881F01B
:1016800000416160099817B04042BDE8F08FFFE764
:1016900084461598C1F31301C0F30A50A0F2F53047
:1016A0004FEA601800F01F06C6F1200013900020DA
:1016B0000690079041F4801E05206D4676B1664A7B
:1016C00008EB00017A4452F8213002EB8101B3406B
:1016D0004A68139922FA01F1194305E05F4908EBC2
:1016E0000002794451F82210A1FB0E27A1FB0C1334
:1016F0001A449A4234BF0123002303EB070A05EB87
:101700008003D3E901B70F448F4234BF0121002188
:1017100093448B4411B1934502D903E0934501D220
:10172000012100E00021C3E901B7514445F8201030
:10173000011EA0F10100C1DC0298059F00F10050DC
:10174000800F12900298DDE903568000FEF796FFA5
:10175000834628460D91FEF7D9FD6FF01D02FEF776
:1017600076FFCDE90E013046FEF7D0FD6FF03D0269
:10177000FEF76DFF80468A463846FEF7C7FD6FF0DC
:101780005D02FEF764FF0746424653461191FEF79D
:1017900048FEDDE90E23FEF744FE5A460D9BFEF798
:1017A00040FE00250E465A4628460D9BFEF7DAFEFF
:1017B000DDE90E23FEF7D6FE42465346FEF7D2FE83
:1017C0003A46119BFEF7D1FEDFF898A0244A534613
:1017D000FEF72AFD07468846234A244B3146284611
:1017E000FEF722FD3A464346FEF71BFE07468846B3
:1017F0004FF0A842534631462846FEF715FD3A46BB
:101800004346FEF70EFE159A12F0004F04D0129ACE
:1018100081F0004152421292C4E90001129817B0BF
:10182000BDE8F08FFB21E93F7CD90240FB21F93F65
:101830007370032E8A19A33B000040543163621A6F
:1018400061B4D03DFB21394183C8C96D305FE43FAD
:101850000000E03FB4240000302400001224000007
:10186000182D4454FB21F93D3326A611460B113C9B
:101870002DE9FF4D21F0004807460C46B8F1795F8D
:1018800008DAFEF70CFF002801BF0020324904B03F
:10189000BDE8F08D3A46234610461946FEF7C4FCD3
:1018A000054602462D480E460B460621784400F0B8
:1018B0005DF82A463346FEF7B7FCDDE9022382468F
:1018C0008B4638462146FEF7AFFC04460F4652468B
:1018D0005B4628463146FEF7A7FC22463B46FEF70C
:1018E00041FE07468A464FF0FF3228463146FEF752
:1018F000AEFE1B4A90450ADA3A465346FEF732FEE0
:1019000004B00022BDE8F04D134BFEF72EBE154A81
:101910004245A8BFA8F500154FF00004B8BF124D0E
:1019200022462B46FEF71EFE0646884622462B46DA
:1019300000200949FEF716FE04460D463A46534676
:1019400030464146FEF70EFE04B022462B46BDE867
:10195000F04DFEF70ABE00000000F03FE821000055
:101960003333D33F0000E93F0000D23F2DE9F0417F
:101970004F1E00EBC7010446D1E9000115461E4683
:1019800037F006020DD02A463346FEF74DFC7F1E87
:1019900004EBC703D3E90023FEF743FD37F006024B
:1019A000F1D1022F25D0042F13D0062F18BFBDE888
:1019B000F0812A463346FEF737FCD4E90A23FEF7C6
:1019C00030FD2A463346FEF72FFCD4E90823FEF704
:1019D00028FD2A463346FEF727FCD4E90623FEF706
:1019E00020FD2A463346FEF71FFCD4E90423FEF708
:1019F00018FD2A463346FEF717FCD4E90223FEF70A
:101A000010FD2A463346FEF70FFCD4E90023BDE85B
:101A1000F041FEF706BD00002DE9FF4D054621F01F
:101A2000004084B00C46B0F1795F0BDA2846FFF72E
:101A300036FD042808BF00F06FF8284608B021469C
:101A4000BDE8F08D2A460B461046FEF7EDFB064634
:101A50000F462A462346FEF7E7FB804626488A467D
:101A600032463B4605217844FFF780FF83461098B5
:101A7000029160B3214A224B40465146FEF7D4FB07
:101A8000CDE900015A4640465146029BFEF7CCFB89
:101A900082468846DDE906014FF0FF32FEF7D7FDAA
:101AA00052464346FEF75EFD32463B46FEF7BCFB20
:101AB000DDE90623FEF756FDDDE90023FEF752FDC2
:101AC00008B02A462346BDE8F04DFEF74EBD0B4652
:101AD0005A4630463946FEF7A7FB084A084BFEF740
:101AE000A0FC42465346FEF79FFB08B02A46234619
:101AF000BDE8F04DFEF795BC26210000495555552F
:101B00005555C5BF0122FEF7A2BD0022134610465F
:101B10001146FEF72DBD0000024A00201107FEF716
:101B200096BD000001FDFFFF02E008C8121F08C1BA
:101B3000002AFAD170477047002001E001C1121F4E
:101B4000002AFBD17047000001490860704700007F
:101B5000A0000020FEF71EFFFFF714FCFFF794FB28
:101B600000F020F8FFF770FB00F038F8FEE7000007
:101B700010B5EFF3058149B9EFF3108131B9084988
:101B80000968022905D1EFF3118111B16FF0050445
:101B900003E0002408B100F033FF204610BD000030
:101BA00078000020EFF3058058B9EFF3108040B9BA
:101BB00009490868022801D030B109E0EFF311802B
:101BC00030B16FF0050070470120086000207047B9
:101BD0004FF0FF30704700007800002010B5EFF3A1
:101BE000058060B9EFF3108048B90B4908680228F6
:101BF00002D0012806D00BE0EFF3118040B16FF066
:101C0000050010BD0220086000F0D2FF002010BDCA
:101C10004FF0FF3010BD000078000020F8B50D46F1
:101C20000024211F4E1C00280ED000BFEFF30582B8
:101C30004AB9EFF3108232B9134A1268022A17D157
:101C4000EFF31182A2B10DB10C461BE000216A46F0
:101C5000009101F04FFB012813D1009890B10B497E
:101C60004FF080500860BFF34F8FBFF36F8F09E0D4
:101C7000294601F08DFB012804D015B16FF0010455
:101C800000E034462046F8BD7800002004ED00E076
:101C9000F8B5144603460E464FF00005EFF30580F5
:101CA000E8BBEFF31080D0BB24480068022802D1C3
:101CB000EFF3118098BB93B39E423DD84CB1A0681E
:101CC0000028E06803D0502836D3012002E008B194
:101CD00032E00020012B05D010B31846A26801F0B5
:101CE00056F820E040B10320009000221146012068
:101CF000A36801F090F804E003220021012001F024
:101D000066F8050018D086B100231A46194601F07E
:101D1000F9F8012809D0284600F024FE00250BE040
:101D2000184601F017F8050006D00CB1216800E054
:101D30000021284600F002FE2846F8BD7800002069
:101D400038B50024E51E002804D000BFEFF305815C
:101D500069B902E06FF0030423E0EFF3108131B9B9
:101D600011490968022914D1EFF3118189B10021C9
:101D70000091694601F0D4F9012811D1009880B191
:101D80000A494FF080500860BFF34F8FBFF36F8F49
:101D900007E000231A46194601F0B4F8012800D0E4
:101DA0002C46204638BD00007800002004ED00E0FD
:101DB000F0B585B04FEA01034FF00004EFF3058161
:101DC0000394A1BBEFF3108189BB21490968022963
:101DD00002D1EFF3118151BB48B3802618218DF851
:101DE000104004AD42B3176807B13D4697691FB173
:101DF00039467F1E382F02D21779FF0702D0002004
:101E000005B0F0BD576907B1BE08D2F808C0BCF1F3
:101E1000000F0DD0D4685C2C18D312693AB137B1D9
:101E20008DE806103246294601F0D5FB03900DE0FF
:101E3000D7685FB912694AB903AACDE90012B2B2F4
:101E4000294601F09BFB012800D003940398D7E7B3
:101E5000780000202DE9F041134C0F4605466669D5
:101E60002068001D00F070FC681C07D137B12168A4
:101E7000BDE8F0410D48091D00F0B6BC20683544AE
:101E8000B5424560216805D2A068BDE8F041091D52
:101E900000F092BC6068091D00F08EFC206B85424A
:101EA00000D22563BDE8F08128000020DC05002079
:101EB0002DE9F041054600F0A3FC2D4C2069401CA3
:101EC000206120682B4F10B1E06930B32BE0256012
:101ED0002069012827D1002606EB860007EB800049
:101EE00000F05CFC761C382EF6D3234800F056FC3C
:101EF0002148143000F052FC1F48283000F04EFCFE
:101F00001D483C3000F04AFC1B48503000F046FCB5
:101F1000194860601430A06005E02068E96AC06A72
:101F2000884200D82560E06A401CE0626864E86A84
:101F3000A169884200D9A06100EB800007EB800016
:101F4000291D00F051FC00F07BFCE06900280CD05A
:101F50002068E96AC06A884207D208494FF0805079
:101F60000860BFF34F8FBFF36F8FBDE8F0810000B3
:101F7000280000202C0100208C05002004ED00E04A
:101F800038B500F03DFC104CA068C8B90F4800F00F
:101F900005FC0E48143000F001FC0C4820601430A1
:101FA00060600A4B00202833009003F1500210219A
:101FB0000A2000F030FFA06010B105A100F0BEFCC7
:101FC000BDE8384000F03CBC64000020F005002073
:101FD000546D72510000000030B4026C0B46002AB0
:101FE0000BD0C1681144C1604468A14201D30168AB
:101FF000C16030BC1846FEF7F3B830BC70472DE91D
:10200000F041856B174604460026026C82B1C7B1C9
:10201000E068FEF7E5F8E168206C091AE1602268E3
:10202000914202D26168081AE060022F16D017E0D0
:102030002068A8B9606801F071FB06460020606066
:102040000EE0A068FEF7CCF8216CA0680844A06000
:102050006168884204D32068A06001E005B16D1E6C
:102060006D1CA5633046BDE8F08110B5044690F8BC
:10207000590058B101280CD002280FD0502080F30D
:102080001188BFF34F8FBFF36F8FFEE7206B00F017
:10209000EBFB2046BDE8104000F0E6BB10BD0000A1
:1020A0000F4842F21071420705D0C01D0C4A20F0C3
:1020B0000700821A891A0B4A00230144C2E900036F
:1020C0000839103A21F0070111604B600B600B1AC0
:1020D000C0E9001393604FF000405360D060704738
:1020E000C00D00208C000020144E154CA6F29C4719
:1020F0004FF08058DFF84C9012E000BF00F080FBFA
:10210000F068C568281D00F01FFB2069401E206193
:10211000E068401EE06000F093FB2846FFF7A5FF53
:10212000E0680028EAD138680128F9D9C9F80080A8
:10213000BFF34F8FBFF36F8FF2E70000C805002099
:102140002800002004ED00E070B51D46049C51B14C
:10215000C4F80020C4E90F010121204600F08EFEE2
:1021600084F84C5070BD2460F4E72DE9F0470E462A
:10217000DDE909841746824691009946089DA5220B
:10218000206BFEF73FF86FF00301206B01EB870136
:10219000084420F00707780707D0502080F3118803
:1021A000BFF34F8FBFF36F8FFEE72218315C82F8C9
:1021B0003410315C11B1401C1028F6D3002684F88D
:1021C0004360382D00D33725E562C4E91356201D3E
:1021D00000F0EFFA04F1180000F0EBFA2461C5F109
:1021E00038006462A061666584F858604A465146CA
:1021F000384600F047FA2060B8F1000F01D0C8F867
:102200000040BDE8F087000030B5114900E01146FC
:102210000A688242FBD34B685C18844203D1406851
:1022200018444860084643681C18944209D1084C79
:10223000103C2468A24209D052681A4442600A68DD
:1022400012680260814200D0086030BD0460F9E786
:102250008C00002070B5002441600B4D006191425C
:1022600006D8D11A8269914206D2011D686807E03A
:102270009A4203D2994201D3012403E0011D286848
:1022800000F09AFA204670BD6400002010B50446A4
:1022900000F0B6FAA06B28B15FF0000400F0D0FAAD
:1022A000204610BD0124F9E730B589B0304D55E026
:1022B0000498002806DADDE90601059A904704989B
:1022C00000284BDB069C606910B1201D00F03CFA31
:1022D00002A800F0B9F8024604980A283ED2DFE8C6
:1022E00000F00505053D263705053D260598A16941
:1022F000034601442046FFF7ADFF00B3616A204664
:102300008847E069012829D1002000900598A1693B
:10231000002342181946204601F046FB78B95020A8
:1023200080F31188BFF34F8FBFF36F8FFEE70598DF
:10233000A06128B1811813462046FFF78BFF0DE0FE
:10234000502080F31188BFF34F8FBFF36F8FFEE7EC
:1023500094F82C0010B9204600F086FA002204A957
:10236000A86800F02BFF0028A2D109B030BD000002
:10237000640000202DE9FC410F46054600F05CFC9E
:1023800001A800F061F80446019818B101F07AFA4A
:10239000BDE8FC81224EAFB170680068A8B3002789
:1023A000291B3A46B06800F009FB01F06BFA0028DF
:1023B000EED11C494FF080500860BFF34F8FBFF340
:1023C0006F8FE5E7A542EBD801F05CFA306827464D
:1023D000C068C468201D00F0B7F9E069012810D179
:1023E000A0692B4641193A462046FFF733FF40B11A
:1023F00000200346014600902A46204601F0D4FA08
:1024000020B1616A20468847C2E707E0502080F388
:102410001188BFF34F8FBFF36F8FFEE70127BFE730
:102420006400002004ED00E006484168096829B115
:102430004168C968C9684968016370474FF0FF3156
:10244000FAE700002800002070B5054601F0FCF80E
:10245000064E04463069844203D200F009F8012098
:1024600000E0002028602046346170BD6400002038
:10247000F8B5194D1FE0C068C4680668201D00F05B
:1024800063F9616A20468847E069012813D1A06991
:102490003044B04206D924616060211D286800F0F4
:1024A0008BF908E0002003460146009032462046A2
:1024B00001F07AFA38B1286801680029DBD169682F
:1024C000C5E90010F8BD502080F31188BFF34F8F8D
:1024D000BFF36F8FFEE700006400002008484068EB
:1024E000401C4FF0500080F3118804D0BFF34F8F91
:1024F000BFF36F8FFEE7BFF34F8FBFF36F8FFEE722
:1025000094000020074C2068016841B1C068002198
:10251000D0F80000FFF72EFFFFF7C6FEF3E701211A
:102520000020F7E7640000202DE9F041044600F0A8
:1025300067F994F9455004F1240609E0606A48B14E
:10254000304601F067F908B100F088FA6D1E6DB2EF
:10255000002DF3DC4FF0FF3684F8456000F070F991
:1025600000F04EF994F9445004F1100709E0206995
:1025700048B1384601F04EF908B100F06FFA6D1E0F
:102580006DB2002DF3DC84F84460BDE8F04100F04A
:1025900057B900002DE9F0410546002700F04CFB3B
:1025A000314E306808B9FFF77BFDF06805424BD12A
:1025B000C5B3083568070ED005F00700C0F1080064
:1025C0000544680707D0502080F31188BFF34F8F70
:1025D000BFF36F8FFEE72DB37068854234D8224871
:1025E000103001460C6801E020460C466168A942A3
:1025F00002D221680029F7D131688C4224D00768C3
:102600002168016060680837411B10290FD96019E3
:10261000420708D0502080F31188BFF34F8FBFF3DB
:102620006F8FFEE710E041606560FFF7EDFD6168C8
:102630007068401A7060B268904200D2B060F06872
:1026400001430020C4E9000101F01CF9780707D01C
:10265000502080F31188BFF34F8FBFF36F8FFEE7D9
:102660003846BDE8F08100007C000020044908687D
:1026700018B10868026D521C0265086870470000B6
:102680002800002010B5031F4FF080741C601B1F32
:1026900021F001011960191F024B0B6014394038F9
:1026A0000A6010BDDD24000800B5254B21F0004272
:1026B00087B09A4203DC0022134600922BE0214BA4
:1026C0009A4208D140B94FF00100FFF73DFAFFF7F9
:1026D0001CFA07B000BD03DBFFF714FA07B000BD1A
:1026E00002AAFEF701FF10F003014FF001000DD028
:1026F000012914D002291AD00DF1080C9CE80F0012
:10270000FFF7B6F807B081F0004100BD0DF1080CED
:1027100000909CE80F00FFF77FF907B000BD0DF1B6
:10272000080C9CE80F00FFF7A3F807B000BD0DF1FF
:10273000080C00909CE80F00FFF76EF9E2E700003C
:10274000FB21E93F0000F07FD0E9013201699A6086
:10275000D0E901235A604A68824201D182684A6006
:10276000002202610868401E086008687047000087
:10277000034B036003F15C00086080201060704729
:1027800008070020044B036003F15C0008604FF46D
:1027900080701060704700006409002000F108019B
:1027A0004FF0FF32C0E90112C160016100210160F8
:1027B000704700210161704730B50B685A1C02D088
:1027C00000F1080202E0026904E02246546825682C
:1027D0009D42FAD953684B6099608A6051600861E4
:1027E0000168491C016030BD42684A6093688B6093
:1027F00093685960916008610168491C01607047E5
:10280000502080F31188BFF34F8FBFF36F8F0A49B9
:102810004868401C486001280CD10848006810F046
:10282000FF0F07D0502080F31188BFF34F8FBFF305
:102830006F8FFEE7704700009400002004ED00E079
:102840000849486828B1401E486001D180F31188CA
:102850007047502080F31188BFF34F8FBFF36F8F05
:10286000FEE700009400002070B5002827D0144D2A
:10287000A0F108046168E868014207D1502080F3A4
:102880001188BFF34F8FBFF36F8FFEE722683AB115
:10289000502080F31188BFF34F8FBFF36F8FFEE797
:1028A0008143616000F0C8F9606869680844686045
:1028B0002046FFF7A9FCBDE8704000F0E3BF70BD03
:1028C0007C0000204FF0E02000210161816105497A
:1028D0004FF47A720968B1FBF2F1491E4161072198
:1028E000016170472400002010B5FDF753FC114929
:1028F00010280ED300F1E02090F8F0030A789042FF
:1029000007D2502080F31188BFF34F8FBFF36F8F32
:10291000FEE709480068896800F4E060884207D94A
:10292000502080F31188BFF34F8FBFF36F8FFEE706
:1029300010BD0000940000200CED00E010B5084B25
:10294000002200BF53F832401CB1521C082AF9D3B0
:1029500010BD43F8321003EBC201486010BD000007
:10296000EC00002010B504000AD000F013F894F831
:10297000460000280CD12046BDE81040FFF774BF88
:10298000502080F31188BFF34F8FBFF36F8FFEE7A6
:1029900010BD0000084A002102EBC1035B688342BE
:1029A00006D1002042F8310002EBC10148607047B7
:1029B000491C0829F0D37047EC00002070B515467B
:1029C0000E460446FFF71CFF94F944100020491CF2
:1029D00001D184F8440094F94510491C01D184F8D0
:1029E0004500FFF72DFFA06B28B92A46314604F1B8
:1029F000240000F051F82046BDE87040FFF794BD78
:102A000010B5020014D00F48806B38B1502080F30D
:102A10001188BFF34F8FBFF36F8FFEE700F00CF903
:102A200000211046FFF716FA00F02CFF002807D10E
:102A300005494FF080500860BFF34F8FBFF36F8F91
:102A400010BD00002800002004ED00E002498A6A61
:102A50000260496941607047280000200149012057
:102A6000486270472800002010B50C4650B1094953
:102A700009681831FFF7A0FE2046BDE8104001218B
:102A8000FFF7E8B9502080F31188BFF34F8FBFF3F1
:102A90006F8FFEE72800002070B514460D4668B120
:102AA0000A4909681831FFF79FFE0CB14FF0FF3556
:102AB00021462846BDE87040FFF7CCB9502080F38E
:102AC0001188BFF34F8FBFF36F8FFEE72800002000
:102AD00070B504003ED0226DA2B1E06C884200D3F4
:102AE0000146E06A884235D0012A33D11A4D2A685E
:102AF00094420FD1502080F31188BFF34F8FBFF362
:102B00006F8FFEE7502080F31188BFF34F8FBFF324
:102B10006F8FFEE7E162A269002A02DBC1F1380192
:102B2000A1610E4E00EB8000616906EB80008142DE
:102B300010D1201DFFF708FEE06AA969884200D97C
:102B4000A86100EB800006EB8000211DBDE870400D
:102B5000FFF74ABE70BD0000280000202C010020B5
:102B6000104E114DDFF844904FF0FF374FF40058EE
:102B70003946B068FFF752F850B9002410212846B2
:102B8000FDF7F0FE012807D0641CE4B2042CF5D355
:102B90000120FEF7EDFFEBE7002241464846FDF736
:102BA000E6FEF5E7000000200008014000100140AB
:102BB00030B587B00024039405AA04A903A804949F
:102BC000FFF7D6FDDDE903010094CDE901100023F4
:102BD00015A11748059A00F0FEFC164D0028686301
:102BE0001FD000F0B1FE012809D0401C19D150209F
:102BF00080F31188BFF34F8FBFF36F8FFEE7502034
:102C000080F31188BFF34F8FBFF36F8F4FF0FF300A
:102C100028630120E8616C6107B0BDE8304000F036
:102C200045B807B030BD000049444C4500000000E5
:102C3000E9200008280000200248816B491C8163BC
:102C40007047000028000020164810B5816B11B1B4
:102C50000121416210BD002141628169124A01E0F7
:102C6000B9B1491E01EB810352F82330002BF7D094
:102C700001EB810302EB830202F1080453685B68F5
:102C80005360A34201D15B685360DA6802608161DE
:102C900010BD502080F31188BFF34F8FBFF36F8FAB
:102CA000FEE70000280000202C0100201CB526496A
:102CB00008780190FF20087008788DF800009DF8D2
:102CC00000009DF8002000F0F000904207D0502056
:102CD00080F31188BFF34F8FBFF36F8FFEE79DF82E
:102CE00000001A4B00F0500018700720986005E0B3
:102CF0009DF8002052008DF80020401E9DF8002015
:102D00001206F5D49860032807D0502080F311886C
:102D1000BFF34F8FBFF36F8FFEE74FF440709860A3
:102D2000019808700A48016841F470010160016867
:102D300041F070410160FFF7C5FD00205860FDF7CC
:102D4000F3F900201CBD000000E400E09400002026
:102D500020ED00E010B50C4648B184420FD9502058
:102D600080F31188BFF34F8FBFF36F8FFEE75020C2
:102D700080F31188BFF34F8FBFF36F8FFEE70222FE
:102D8000002100F024F8002800D0846310BD38B57D
:102D90000C4648B184420FD9502080F31188BFF30C
:102DA0004F8FBFF36F8FFEE7502080F31188BFF382
:102DB0004F8FBFF36F8FFEE7022113460022009171
:102DC000114600F028F8002800D0846338BDF8B51B
:102DD00017460E46050014D0DEB105FB06F0503054
:102DE000FFF7D8FB04000AD0002084F8460004F165
:102DF00050023B46314628460094FFF7A5F920468D
:102E0000F8BD502080F31188BFF34F8FBFF36F8F51
:102E1000FEE70020E3E738B5049D18B153B1CAB10D
:102E200081B120E0502080F31188BFF34F8FBFF3B2
:102E30006F8FFEE7502080F31188BFF34F8FBFF3F1
:102E40006F8FFEE7502080F31188BFF34F8FBFF3E1
:102E50006F8FFEE739B1502080F31188BFF34F8F99
:102E6000BFF36F8FFEE750241C46012384F84630E1
:102E70002B460094FFF768F9204638BD70B50D4623
:102E8000040025D0FFF7BCFCD4E90F20216802FB29
:102E9000001161600021A1632168A1600A46D4E9A4
:102EA0000F01401E00FB0121E16021464FF0FF3081
:102EB00001F8440F487004F110008DB1FFF76EFC6B
:102EC00004F12400FFF76AFCFFF7BAFC012070BD93
:102ED000502080F31188BFF34F8FBFF36F8FFEE751
:102EE00021690029F0D000F095FC0028ECD00449BD
:102EF0004FF080500860BFF34F8FBFF36F8FE3E751
:102F000004ED00E02DE9FF4782B01D468A464FF0F0
:102F10000008040003D0BAF1000F08D011E05020DF
:102F200080F31188BFF34F8FBFF36F8FFEE7206CE4
:102F300038B1502080F31188BFF34F8FBFF36F8FEC
:102F4000FEE7022D0AD1E06B012807D0502080F364
:102F50001188BFF34F8FBFF36F8FFEE700F066FB62
:102F60003F4F4FF000094FF0805648B9049838B1F0
:102F7000502080F31188BFF34F8FBFF36F8FFEE7B0
:102F8000FFF73EFCA06BE16B884207D3022D05D012
:102F90000498D0B1B8F1000F1AD01EE02A4651466D
:102FA0002046FFF72CF8616A19B104F1240000F003
:102FB00031FC20B13E60BFF34F8FBFF36F8FFFF73F
:102FC0003FFC012006B0BDE8F087FFF739FC22E0A6
:102FD0006846FFF73BFD4FF00108FFF731FCFFF7B4
:102FE0002BFEFFF70DFC94F94400401C01D184F83E
:102FF000449094F94500401C01D184F84590FFF7B6
:103000001FFC04A9684600F07FFA30B12046FFF7A4
:103010008BFA00F037FC0020D4E7FFF7F1FBA06B40
:10302000E16B884213D1FFF70BFC04F11000049907
:10303000FFF71AFD2046FFF777FA00F023FC00287F
:103040009ED13E60BFF34F8FBFF36F8F98E7FFF7BE
:10305000F7FB2046FFF768FA00F014FC90E7000049
:1030600004ED00E02DE9F0471F4690468946040034
:1030700003D0B9F1000F08D011E0502080F311887F
:10308000BFF34F8FBFF36F8FFEE7206C38B1502036
:1030900080F31188BFF34F8FBFF36F8FFEE7022FCE
:1030A0000AD1E06B012807D0502080F31188BFF3CC
:1030B0004F8FBFF36F8FFEE7FFF716FC5020EFF343
:1030C000118680F31188BFF34F8FBFF36F8FA06B12
:1030D000E16B884206D3022F04D0002086F31188CA
:1030E000BDE8F08794F945503A4649462046FEF738
:1030F00086FF681C04D06D1C84F845500120EDE764
:10310000606A0028FAD004F1240000F083FB002854
:10311000F4D0B8F1000FF1D00121C8F80010EDE7AC
:1031200070B50E46040009D0206C78B1502080F3B1
:103130001188BFF34F8FBFF36F8FFEE7502080F3EE
:103140001188BFF34F8FBFF36F8FFEE7206848B938
:10315000606838B1502080F31188BFF34F8FBFF300
:103160006F8FFEE7FFF7C0FB5020EFF3118580F370
:103170001188BFF34F8FBFF36F8FA16BE06B884255
:1031800018D994F94500491CA163411C04D0401C86
:1031900084F8450001200EE0606A0028FAD004F1AE
:1031A000240000F037FB0028F4D0002EF2D00120DC
:1031B0003060EFE7002085F3118870BD2DE9F747F7
:1031C000002683B08A46040003D0BAF1000F08D06D
:1031D00011E0502080F31188BFF34F8FBFF36F8F42
:1031E000FEE7206C38B1502080F31188BFF34F8F79
:1031F000BFF36F8FFEE700F019FADFF8F4804FF0AD
:1032000000094FF0805748B9059838B1502080F335
:103210001188BFF34F8FBFF36F8FFEE7FFF7F0FA10
:10322000A56BC5B151462046FEF7D6FE6D1EA563BF
:10323000206950B104F1100000F0ECFA28B1C8F890
:103240000070BFF34F8FBFF36F8FFFF7F9FA0120C4
:1032500006B0BDE8F087059808B11EB106E0FFF79B
:10326000EFFA27E06846FFF7F1FB0126FFF7E8FADF
:10327000FFF7E2FCFFF7C4FA94F94400401C01D1C7
:1032800084F8449094F94500401C01D184F845909D
:10329000FFF7D6FA05A9684600F036F9002820465F
:1032A0000AD0FFF741F900F0EDFA2046FEF7EEFFF5
:1032B0000028B3D00020CBE7FEF7E8FF90B104F17F
:1032C00024000599FFF7D0FB2046FFF72DF900F009
:1032D000D9FA0028A2D1C8F80070BFF34F8FBFF30E
:1032E0006F8F9BE72046FFF71FF900F0CBFA95E7B9
:1032F00004ED00E02DE9F04790468946040003D034
:10330000B9F1000F08D011E0502080F31188BFF30D
:103310004F8FBFF36F8FFEE7206C38B1502080F3E2
:103320001188BFF34F8FBFF36F8FFEE7FFF7DCFA13
:103330005020EFF3118680F31188BFF34F8FBFF356
:103340006F8FA76BF7B194F9445049462046FEF7BA
:1033500043FE7F1EA763681C04D06D1C84F8445094
:10336000012010E020690028FAD004F1100000F0DC
:1033700051FA0028F4D0B8F1000FF1D00121C8F8BB
:103380000010EDE7002086F31188BDE8F08700000B
:103390002DE9F343002683B00400354609D0206CA4
:1033A00078B1502080F31188BFF34F8FBFF36F8F38
:1033B000FEE7502080F31188BFF34F8FBFF36F8F6C
:1033C000FEE700F033F9DFF83C814FF000094FF0E1
:1033D000805748B9049838B1502080F31188BFF362
:1033E0004F8FBFF36F8FFEE7FFF70AFAA06BC8B1EC
:1033F000401EA063206810B9FFF738F960602069AB
:1034000050B104F1100000F005FA28B1C8F80070BE
:10341000BFF34F8FBFF36F8FFFF712FA012005B094
:10342000BDE8F083049808B166B10FE03DB15020CB
:1034300080F31188BFF34F8FBFF36F8FFEE7FFF765
:10344000FFF95DE06846FFF701FB0126FFF7F8F999
:10345000FFF7F2FBFFF7D4F994F94400401C01D1C7
:1034600084F8449094F94500401C01D184F84590BB
:10347000FFF7E6F904A9684600F046F80028204660
:1034800012D0FFF751F800F0FDF92046FEF7FEFEDE
:103490000028A9D09DB3FFF7B3F9606A50B3206B41
:1034A0000068C0F1380126E0FEF7F0FEE0B12068C8
:1034B00038B9FFF7A5F9606800F070F90546FFF725
:1034C000BFF904F124000499FFF7CEFA2046FFF774
:1034D0002BF800F0D7F9002886D1C8F80070BFF3A8
:1034E0004F8FBFF36F8F7FE72046FFF71DF800F087
:1034F000C9F979E700216068FFF7EAFA9FE7FFE77B
:1035000000208CE704ED00E02DE9F0410C460500B9
:1035100011D0C4B1FFF774F9174B5A696E6820686F
:10352000911B471C17D02F689B6A9F4219D0964267
:1035300017D8012410E0502080F31188BFF34F8F7B
:10354000BFF36F8FFEE7502080F31188BFF34F8FDA
:10355000BFF36F8FFEE70024FFF772F92046BDE846
:10356000F081884205D9401A20602846FFF76EFA9C
:10357000F1E700202060DCE7280000202DE9FF5F54
:103580008346DDE90E87994616468A469000FFF786
:1035900001F805001CD05C20FEF7FCFF040014D0ED
:1035A0000020256384F85900CDE90240CDE9008769
:1035B0004B46324651465846FEF7D7FD2046FEF7A9
:1035C00077FC012004B0BDE8F09F2846FFF74CF9D6
:1035D0004FF0FF30F6E7F0B585B0DDE90B640A9DEA
:1035E000A6B1DCB15C2700972663022684F85960F7
:1035F000002604AFCDE90246CDE90057FEF7B5FD40
:103600002046FEF755FC049805B0F0BD502080F32D
:103610001188BFF34F8FBFF36F8FFEE7502080F309
:103620001188BFF34F8FBFF36F8FFEE70548C16965
:1036300019B1806B18B1002070470120704702203B
:1036400070470000280000200148406970470000D2
:10365000280000202DE9F0412E4C0027A06B40B13E
:10366000206A401C2062606A00B101273846BDE82C
:10367000F0816669761C666113D16068006838B1B4
:10368000502080F31188BFF34F8FBFF36F8FFEE799
:103690006068A1686160A060A06A401CA062FEF73B
:1036A000C3FE206BDFF87080864209D36068006833
:1036B00080B16068C068C568686886420DD22063C2
:1036C0002068C06A00EB800158F821000128CAD99F
:1036D0000127C8E74FF0FF30F1E7281DFFF734F866
:1036E000A86A18B105F11800FFF72EF8E86AA16979
:1036F000884200D9A06100EB800108EB8100291D00
:10370000FFF772F8E86A2168C96A8842CED30127B8
:10371000CCE70000280000202C01002070B5040038
:103720004FF0000133D01B4D2868844207D0502051
:1037300080F31188BFF34F8FBFF36F8FFEE7206DCB
:1037400038B1401E2065E36CE26A9A421FD040B156
:103750001DE0502080F31188BFF34F8FBFF36F8FB0
:10376000FEE7201DFEF7F0FFE06CE062C0F13800DC
:10377000A061E06AA969884200D9A861064900EB06
:10378000800001EB8000211DFFF72EF80121084683
:1037900070BD0000280000202C01002070B504003E
:1037A0004FF000002BD0194DE16A2A68D26A91428D
:1037B00026D2A069002804DB2868C06AC0F138005E
:1037C000A061134E01EB8101606906EB8101884223
:1037D00011D1201DFEF7B8FF2868C06AE062A96910
:1037E000884200D9A86100EB800006EB8000211D13
:1037F000FEF7FAFF02E02868C06AE062012070BDAF
:10380000E16C2A68D26A9142F8D370BD280000208A
:103810002C01002070B5C068C46854B104F11800D0
:103820000646FEF791FF144DA86B50B13146134880
:1038300015E0502080F31188BFF34F8FBFF36F8FD7
:10384000FEE7201DFEF780FFE06AA969884200D9E3
:10385000A8610B4900EB800001EB8000211DFEF701
:10386000C3FFE06A2968C96A884202D901206862F8
:1038700070BD002070BD000028000020B4050020AD
:103880002C0100202DE9F0472C4D00242746A86B81
:1038900038B1FEF7B5FFA86B401EA863A86B40B116
:1038A00046E0502080F31188BFF34F8FBFF36F8F36
:1038B000FEE72969224E0120D1B3A6F59169804621
:1038C0003068E0B1F068C46804F11800FEF73CFF0E
:1038D000201DFEF739FFE06AA969884200D9A86176
:1038E00000EB800109EB8100211DFEF77DFFE06AFE
:1038F0002968C96A8842E3D3C5F82480E0E70CB19F
:10390000FEF792FD2C6A4CB14FEA0806FFF7A2FEC3
:1039100000B16E62641EF9D100202862686A38B175
:103920000849012738070860BFF34F8FBFF36F8F37
:10393000FEF786FF3846BDE8F0870000280000202B
:10394000B405002004ED00E010B586B0FEF718FBCA
:10395000114CA068B8B100200390049005AA04A9F6
:1039600003A8FEF70FFFDDE9032102208DE8070021
:1039700000230AA10B48059AFFF72DFEE06010B165
:1039800006B0012010BD502080F31188BFF34F8F87
:10399000BFF36F8FFEE7000064000020546D7220BB
:1039A00053766300052500082DE9FF411E461346A6
:1039B00002000A9D4FF0000016D0144CA768002F9B
:1039C0000FD0CDE900130292062917DAFFF72EFE79
:1039D00002284FF000030FD000226946A068FFF7CD
:1039E00091FA04B0BDE8F081502080F31188BFF354
:1039F0004F8FBFF36F8FFEE72A46EEE70023324674
:103A000069463846FFF72EFBEBE700006400002014
:103A1000CC3B000800000000000000000000000097
:103A20000000000000020000200000000000000074
:103A300000000000C43B000800000000000000007F
:103A40000000000000000000000200001000000064
:103A50000000000000000000B83B0008000000006B
:103A60000000000000000000010202030405060738
:103A700008090A0B0C0D0E0F1010000000000000CA
:103A8000000001020304060708090000000001020B
:103A900003040000000000004C5555555555A53F46
:103AA0007751C1166CC156BF9015CB19A001FA3ED3
:103AB000AD529C804F7E92BEC4B1B4BD9EEE213EFD
:103AC000D43888BEE9FAA8BD00004054FB21F93F74
:103AD0003163621A61B4D03D0000601A61B4D03D18
:103AE0007370032E8A19A33B0000002E8A19A33B92
:103AF000C14920259A837B390000000000000000A6
:103B00006E83F9A22915444ED15727FCC0DD34F548
:103B1000999562DB4190433CAB6351FE61C5BBDECE
:103B20003A6E24B7E0D24D42EA2E49061C92D109E2
:103B30001CEB1DFE3EA729B1F53582E88444BB2E5F
:103B400026709CE9417E5FB439D69139F4395383AC
:103B50008B5F849C3B28F9BDFF97F81F0F9805DE0B
:103B60008B112FEF1F6D0A5ACF7E366DB709CB2709
:103B7000663F464F2DEA5F9EC7BA27757BF1E5EB9E
:103B8000F739073DEA92528AB15FFB6B085D8D1FE2
:103B9000A6F810111111813FD561C119A0012ABFEA
:103BA0007DFEB157E31DC73EEB9C2B8AE6E55ABE6E
:103BB0007CD5CF5A3AD9E53D62696E617279536519
:103BC0006D0000005363616E000000005461736B70
:103BD0005F6D61696E000000F83B00080000002086
:103BE000A4000000281B00089C3C0008A400002042
:103BF0002C380000381B0008000000000000000006
:103C000000000000000000000000000000000000B4
:103C100001000000100000000000000000127A0007
:103C20000000000000000000000000000000000094
:103C30000000000000000000000000000000000084
:103C40000000000000000000000000000000000074
:103C50000000000000000000000000000000000064
:103C60000000000000000000000000000000000054
:103C70000000000000000000000000000000000044
:103C80000000000000000000000000000000000034
:0C3C9000AAAAAAAA000000000000000080
:04000005080000ED02
:00000001FF
