:020000040800F2
:10000000803B00202102000803160008B9140008F4
:1000100001160008C7040008A51900080000000028
:10002000000000000000000000000000890100083E
:10003000C904000800000000CD01000805160008F2
:100040003B0200083B0200083B0200083B0200089C
:100050003B0200083B0200083B0200083B0200088C
:100060003B0200083B0200083B0200083B0200087C
:100070003B0200083B0200083B0200083B0200086C
:100080003B0200083B0200083B0200083B0200085C
:100090003B0200083B0200083B0200083B0200084C
:1000A0003B0200083B0200083B0200083B0200083C
:1000B000911600083B0200083B0200083B020008C2
:1000C0003B0200083B0200083B0200083B0200081C
:1000D0003B0200083B0200083B0200089919000897
:1000E0003B0200083B0200083B02000800F002F857
:1000F00000F03AF80AA090E8000C82448344AAF188
:100100000107DA4501D100F02FF8AFF2090EBAE885
:100110000F0013F0010F18BFFB1A43F0010318473B
:100120007C4800009C480000103A24BF78C878C181
:10013000FAD8520724BF30C830C144BF04680C60ED
:10014000704700000023002400250026103A28BF35
:1001500078C1FBD8520728BF30C148BF0B60704739
:100160001FB51FBD10B510BD00F078F91146FFF79F
:10017000F7FF01F05DFF00F096F903B4FFF7F2FF1F
:1001800003BC00F099F90000224B19680868B0E838
:10019000F00F80F30988BFF36F8F4FF0000080F3FA
:1001A00011884EF00D0E70470000000006480068F0
:1001B000006880F3088862B661B6BFF34F8FBFF363
:1001C0006F8F00DF00BF00BF08ED00E0EFF3098094
:1001D000BFF36F8F0F4B1A6820E9F00F106008B55E
:1001E0004FF0500080F31188BFF34F8FBFF36F8F34
:1001F00002F05CFF4FF0000080F31188BDE808407A
:1002000019680868B0E8F00F80F30988BFF36F8FB2
:10021000704700BF30000020EFF3058070470000FA
:100220000948804709480047FEE7FEE7FEE7FEE78A
:10023000FEE7FEE7FEE7FEE7FEE7FEE704480549C6
:10024000054A064B704700008F160008ED000008B5
:1002500080350020803B0020803700208037002040
:1002600010B5431C02E010F8011B71B18107FAD1EF
:100270004FF0013202C88C1A8C4314EAC211F9D033
:10028000C01A0A0603D0C01E10BDC01A10BD0A0451
:1002900001D0801E10BD0902FCD0401E10BD032AF3
:1002A00040F2308010F0030C00F0158011F8013B93
:1002B000BCF1020F624498BF11F801CB00F8013B7A
:1002C00038BF11F8013BA2F1040298BF00F801CB3E
:1002D00038BF00F8013B11F0030300F06280083AD8
:1002E000C0F0088051F8043B083A51F804CBA0E86C
:1002F0000810F5E7121D5CBF51F8043B40F8043BC1
:10030000AFF30080D20724BF11F8013B11F801CBF5
:1003100048BF11F8012B24BF00F8013B00F801CBC6
:1003200048BF00F8012B704702F0FF0343EA0322A5
:1003300042EA024200F069B84FF0000200B51346ED
:1003400094469646203922BFA0E80C50A0E80C50F5
:10035000B1F12001BFF4F7AF090728BFA0E80C50A6
:1003600048BF0CC05DF804EB890028BF40F8042B9F
:1003700008BF704748BF20F8022B11F0804F18BF0C
:1003800000F8012B704770477047704710B500F0B8
:100390005DF8006810BD10B5044600F057F8046021
:1003A00010BD10B5203AC0F00B80B1E81850203ACB
:1003B000A0E81850B1E81850A0E81850BFF4F5AF05
:1003C0005FEA027C24BFB1E81850A0E8185044BF8F
:1003D00018C918C0BDE810405FEA827C24BF51F8FC
:1003E000043B40F8043B08BF7047D20728BF31F8F0
:1003F000023B48BF11F8012B28BF20F8023B48BF41
:1004000000F8012B70474FF000020429C0F0128061
:1004100010F0030C3FF492AFCCF1040CBCF1020FCE
:1004200018BF00F8012BA8BF20F8022BA1EB0C018C
:10043000FFF784BF5FEAC17C24BF00F8012B00F8FE
:10044000012B48BF00F8012B70470000004870479F
:100450001C350020004870471C3500207546FFF70A
:10046000F9FFAE4605006946534620F00700854671
:1004700018B020B5FFF7E2FEBDE820404FF00006BF
:100480004FF000074FF000084FF0000B21F007017C
:10049000AC46ACE8C009ACE8C009ACE8C009ACE8BF
:1004A000C0098D46704710B50446AFF30080204662
:1004B000BDE81040FFF761BE01491820ABBEFEE762
:1004C000260002007047FEE7704772B6FEE710B5DF
:1004D00090F821100022022905D00421816380F8C0
:1004E0002020012010BD01680B6823F00E030B6073
:1004F00001680B6823F001030B6090F84030C46B77
:10050000012101FA03F3636080F8211080F82020B4
:10051000104610BD10B590F821100024022903D018
:100520000421816301243DE001680A6822F00E0283
:100530000A6001680A6822F001020A601A4A01682A
:10054000914201D1012121E0174A1432914201D197
:1005500010211BE0144A2832914201D1891515E07F
:10056000114A3C32914201D189140FE00E4A5032B7
:10057000914202D14FF4803108E00B4A643291423B
:1005800002D14FF4801101E04FF08071064A083A21
:100590005160012180F82110002180F82010416B6A
:1005A00001B18847204610BD080002402DE9F84FF0
:1005B000DFF8B8910024A9F1040B23460F2709F1B5
:1005C000040AABF1040EC9E00125A5402A40AA4265
:1005D0007DD1674ED1F804C0ACEB0608B44532D0EB
:1005E00014DCBCF1030F3AD009DCBCF1000F2AD0B7
:1005F000BCF1010F1CD0BCF1020F31D11DE0BCF1E8
:10060000110F17D0BCF1120F2AD119E0B8F5881FCD
:1006100019D006DCB8F5803F15D0B8F5801F1FD182
:1006200011E0B8F5001F0ED0B8F5041F18D10AE08C
:10063000CB6815E0CB681B1D12E0CB6808330FE0D8
:10064000CB680C330CE08B682BB1012B4FF0080307
:1006500003D0456104E0042302E0056100E00023CB
:10066000FF2A01D8064601E000F104064FEA84059E
:1006700001D9A5F12005D6F8008007FA05FC28EA83
:100680000C0803FA05F548EA0508C6F800804D682D
:10069000ED0062D5374DAE6946F00106AE61AD6939
:1006A00024F0030605F001050095334D06EB050C1B
:1006B000DCF80850A607360F07FA06F825EA080501
:1006C000DFF8B880404503D14FF0000817E044E060
:1006D000DFF8AC80404502D14FF001080FE0DFF8B1
:1006E000A480404502D14FF0020808E0DFF898806E
:1006F000404502D14FF0030801E04FF0040808FA2A
:1007000006F848EA0508CCF808804D68D9F800607A
:10071000ED024D4601D5164300E096432E604D682C
:10072000DAF80060AD02554601D5164300E0964365
:100730002E604D68DBF80060AD035D4601D51643C1
:1007400000E096432E604D68DEF80060ED037546CC
:1007500001D5164300E096432E60641C0D682A46BE
:10076000E5407FF431AFBDE8F88F00000804014098
:10077000000011100010024000000140000801407C
:10078000000C014000100140001401408068084046
:1007900000D0012070470AB1016170470904FBE7EE
:1007A00001488068704700002000002002488168EE
:1007B000027811448160704720000020074810B57E
:1007C000016841F010010160032000F0A7F80F203C
:1007D00000F006F800F050F8002010BD00200240A4
:1007E00030B50546204887B0C16941F00101C161BB
:1007F000C06906A900F00100009001A800F036F9D8
:100800000498B8B100F052F9400018494FF0804206
:10081000B0FBF1F11648491E0260416040F2E73238
:100820000021C0E903218160816100F017FB040011
:1008300003D015E000F03AF9E7E70D4800F03CFB83
:1008400004000DD11C2000F03BF8102D07D200222F
:1008500029461C2000F042F80648056000E001240B
:1008600007B0204630BD00000010024040420F009B
:10087000F0000020240000200F4808B5816941F0F5
:1008800001018161816901F001010091C16941F0BB
:100890008051C161C069002200F0805000900F219A
:1008A000901E00F01BF80548416821F0E06141F01E
:1008B0000071416008BD00000010024000000140CE
:1008C000002809DB00F01F0201219140400980004F
:1008D00000F1E020C0F8001170470000F0B40E4BAA
:1008E0001B680C46C3F30223C3F10705042D00D98E
:1008F0000425191D072901D2002300E0DB1E012673
:1009000006FA05F1491E214099409E40761E164088
:100910003143F0BC01F05BB80CED00E0064900F09B
:10092000070208684FF6FF03184040EA0220034A16
:1009300010430860704700000CED00E00000FA056D
:100940002DE9F0470F46050061D0434E306800F0B6
:100950000700B84209D2306820F007003843306001
:10096000306800F00700B84251D128683B4C81073D
:1009700012D5400703D5606840F4E06060602878D5
:10098000000703D5606840F4605060606068A96843
:1009900020F0F000084360602878C00728D068681D
:1009A000012810D02168022810D0890700292EDAEA
:1009B000616821F0030101436160FFF7F1FE8046A9
:1009C00041F288390DE021688903EFE78901EDE7FD
:1009D000FFF7E6FEA0EB0801494502D90320BDE878
:1009E000F0876068696800F00C00B0EB810FEFD110
:1009F000306800F00700B8420BD9306820F00700DB
:100A000038433060306800F00700B84201D0012060
:100A1000E5E72878400705D56068E96820F4E060DC
:100A2000084360602878000706D56068296920F4CB
:100A3000605040EAC100606000F058F86168084A00
:100A4000C1F30311515CC8400649086006480068BC
:100A5000FFF7C6FE0020C2E700200240001002405F
:100A6000324800082C000020240000200F220260E1
:100A70000C4A536803F003034360536803F0F00328
:100A80008360536803F4E063C36052684FF4E0632B
:100A900003EAD20202610448006800F0070008601F
:100AA0007047000000100240002002400448054941
:100AB00000684968044AC1F30221515CC84070478C
:100AC0002C0000200010024042480008044805495C
:100AD00000684968044AC1F3C221515CC8407047AC
:100AE0002C00002000100240424800080E4A5168C5
:100AF0000E4801F00C03042B11D0082B0FD10C4829
:100B0000C1F38343C903C05C0AD55168084AC1F3E5
:100B10004041921E515C054A5043B0FBF1F07047D2
:100B200004494843704700000010024000127A0058
:100B30002248000800093D002DE9F84F040070D05C
:100B40002078C04DC00749D06868C0F381000128F3
:100B500007D06868C0F38100022809D16868C00323
:100B600006D52868800339D560680028E7D035E0CD
:100B70006068B0F5803F0BD010B1B0F5A02F11D058
:100B8000286820F480302860286820F4802002E063
:100B9000286840F480302860606890B1FFF700FE5C
:100BA00006460AE0286840F480202860F0E700BF8D
:100BB000FFF7F6FD801B642873D828688003F7D5FB
:100BC0000CE0FFF7EDFD064605E000BFFFF7E8FD8E
:100BD000801B6428F0D828688003F7D420789A4EC8
:100BE00080074FF001094FF0000839D5686810F010
:100BF0000C0F07D06868C0F38100022809D168682B
:100C0000C00306D42868800714D52069012808D1BC
:100C100010E02069B0B1C6F80090FFF7C1FD0746AB
:100C200005E00AE1FFF7BCFDC01B0228C4D8286814
:100C30008007F7D52868616920F0F80040EAC10014
:100C400028600DE0C6F80080FFF7AAFD074604E023
:100C5000FFF7A6FDC01B022823D828688007F7D419
:100C6000207800072CD57948A169D9B1C0F8009047
:100C7000FFF796FD074604E0FFF792FDC01B022830
:100C80000FD8686A8007F7D571484FF4FA510068A9
:100C9000B0FBF1F0009000BF0098411E0091FAD225
:100CA0000EE080E0C0F80080FFF77AFD074604E020
:100CB000FFF776FDC01B022875D8686A8007F7D455
:100CC0002078400760D5E8690027C00008D4E869AB
:100CD00040F08050E861E869012700F08050009002
:100CE0005C480168C90513D40168834641F48071EA
:100CF0000160FFF755FD824606E000BFFFF750FD9B
:100D0000A0EB0A0064284ED8DBF80000C005F5D53A
:100D1000E06801280AD008B1052813D0286A20F01D
:100D200001002862286A20F0040002E0286A40F0EE
:100D300001002862E06841F2883B98B1FFF730FD7E
:100D400082460BE0286A40F004002862EEE700BF0C
:100D5000FFF726FDA0EB0A0159455AD8286A8007FB
:100D6000F6D50CE0FFF71CFD824605E0FFF718FD05
:100D7000A0EB0A0159454CD8286A8007F6D41FB168
:100D8000E86920F08050E861E06988B36968C1F3E0
:100D90008101022944D00228C6F8608004D0FFF700
:100DA000FFFC044638E034E0FFF7FAFC074604E0B5
:100DB000FFF7F6FCC01B02282BD828688001F7D467
:100DC000206AB0F5803F05D16868A16820F4003042
:100DD00008436860D4E908010843696821F4741184
:100DE00008436860C6F86090FFF7DAFC044606E046
:100DF00025E000BFFFF7D4FC001B022809D82868B3
:100E00008001F7D51BE000BFFFF7CAFC001B0228DA
:100E100002D90320BDE8F88F28688001F4D40EE0E1
:100E20000128F7D06868226A00F48031914204D129
:100E3000616A00F47010884201D00120EAE70020C6
:100E4000E8E70000001002400000424280044242F5
:100E50002C000020007000407047704710B504005F
:100E600003D094F83D0010B107E0012010BD002030
:100E700084F83C00204600F01EF8022084F83D0073
:100E8000211D206800F00AFC012084F8460084F847
:100E90003E0084F83F0084F8400084F8410084F864
:100EA000420084F8430084F8440084F8450084F844
:100EB0003D00002010BD704790F83D10012901D081
:100EC00001207047022180F83D100168CA6842F095
:100ED0000102CA6000680B49884208D0B0F1804F17
:100EE00005D00949884202D00849884204D1816866
:100EF00001F00701062903D0016841F001010160FA
:100F000000207047002C0140000400400008004011
:100F1000704770B50446006801694FF00005C94389
:100F2000890715D4C168C943890711D4E91E016135
:100F300001202077206880698007204602D0FFF7D3
:100F4000E7FF04E000F098F8204600F096F82577D7
:100F500020680169C943490717D4C168C9434907D3
:100F600013D46FF0040101610220207720688069AA
:100F700010F4407F204602D0FFF7CAFF04E000F0E3
:100F80007BF8204600F079F8257720680169C9438D
:100F9000090716D4C168C943090712D46FF00801C4
:100FA0000161042020772068C0698007204602D0B4
:100FB000FFF7AEFF04E000F05FF8204600F05DF8B8
:100FC000257720680169C943C90617D4C168C94398
:100FD000C90613D46FF01001016108202077206842
:100FE000C06910F4407F204602D0FFF791FF04E073
:100FF00000F042F8204600F040F8257720680169AB
:10100000C943C90708D1C168C943C90704D1891EAA
:101010000161204600F032F820680169C9430906E1
:1010200009D4C168C943090605D46FF08001016184
:101030002046FFF711FF20680169C943490609D41A
:10104000C168C943490605D46FF0400101612046DB
:1010500000F01BF820680169C94389060BD4C168F8
:10106000C943890607D46FF0200101612046BDE81D
:101070007040FFF7F2BE70BD704770470068B0F176
:10108000804F01D1FFF792BB7047704770477047A0
:10109000F8B5016804460868CA684B6910F00F0F7C
:1010A0004FF0000559D003F0010602F49077374362
:1010B00065D0C10705D0D10503D5616C41F00101B0
:1010C0006164410705D5D90703D0616C41F0020185
:1010D0006164810705D5D90703D0616C41F0040133
:1010E0006164010707D502F02001314303D0616C30
:1010F00041F008016164616C00293AD0800604D592
:10110000900602D5204600F04EFB20684069616CD5
:10111000C0F38010090700D460B3204600F01CFB28
:1011200020684069400621D52068143050E8001F2F
:1011300021F0400140E80012002AF5D1E06BA8B18F
:101140006D494163E06BFFF7E5F9002811D0E06BD2
:10115000416B01B0BDE8F040084783060FD5930608
:101160000DD52046BDE8F84000F01DBB2046FFF736
:101170008EFFF8BD2046FFF78AFF6564F8BD266B39
:101180002023012E7CD1C6067AD5D60678D50868EC
:101190004868009048694FF00206400640D5E16B70
:1011A000086840680004000CE8D0A28D8242E5D9AE
:1011B000E085886920282DD020680C3050E8001F79
:1011C00021F4807140E80012002AF5D12068143023
:1011D00050E8001F21F0010140E80012002AF5D17B
:1011E0002068143050E8001F21F0400140E8001250
:1011F000002AF5D184F84230256320680C3050E88D
:10120000001F21F0100140E80012002AF5D1E06B28
:10121000FFF75DF96663A08DE18D401A81B22AE087
:10122000A08DE18D401A81B2E08D0028A6D0002962
:10123000A4D022680C3252E8000F20F4907042E8EB
:101240000007002FF5D12068143050E8002F22F05D
:10125000010240E80027002FF5D184F842302563D1
:1012600020680C3050E8002F22F0100240E80023E4
:10127000002BF5D166632046FFF708FFF8BDFFE7B6
:1012800005062BD5150629D594F841002128F5D15E
:10129000A068B0F5805F01D12069B0B1206A411C1F
:1012A0002162216800784860E08C401E0004000C38
:1012B000E084E3D12068C16821F08001C16020682A
:1012C000C16841F04001C160D8E7206A0088C0F3DE
:1012D00008004860206A801C2062E5E74006CDD502
:1012E0005006CBD5CA68204622F04002CA6084F876
:1012F000413000F0C3F8C1E74917000870B5040099
:1013000004D094F84100002510B106E0012070BD22
:1013100084F84050204600F023F8242084F841004F
:101320002068C16821F40051C160204600F09CFA99
:101330002068016921F4904101612068416921F030
:101340002A0141612068C16841F40051C1606564AF
:10135000202084F8410084F842006563002070BDBD
:1013600030B585B000240094019402940394006881
:10137000184988422CD11848C16941F48021C161C3
:10138000C16901F480210491816941F00801816102
:101390008069124D00F0080004904FF480600090C6
:1013A000022001900320039069462846FFF7FEF8CB
:1013B000E814CDE90004694628460294FFF7F6F8E0
:1013C000002205212720FFF789FA2720FFF778FA66
:1013D00005B030BD0048004000100240000C014044
:1013E00070472DE9F843044690F841001F46164621
:1013F0000D46202802D00220BDE8F8837DB176B1E9
:1014000000206064212084F84100FFF7C9F9A68418
:101410008046E684A068B0F5805F02D003E001203A
:10142000EAE7206910B12E4600250EE000260CE008
:101430008021204600F074FAA0B9AEB116F8010B75
:1014400021684860E08C401EE084E08C43464FF009
:10145000000200970028EBD14FF04001204600F039
:101460005FFA30B10320C7E735F8020BC0F308007C
:10147000E6E7202084F841000020BDE77047000027
:1014800001490860704700000000002070B5094C59
:101490000546206800280BD02846FEF7E1FE82B200
:1014A00029462068BDE870404FF0FF33FFF799BF31
:1014B00070BD000000000020FEE7000010B5012113
:1014C0000D4A084600F054FE0C4C0B4A0021E06027
:1014D0006C3A0B4800F0A4FE074A2060483A00210D
:1014E000084800F09DFE044A6060243A0021064846
:1014F00000F096FEA06010BD104800080800002013
:1015000009170008D12F0008113100082DE9F0411A
:1015100086B00024284800940194029403948169C1
:1015200041F010018161816901F01001049181692C
:1015300041F020018161816901F0200104918169FC
:1015400041F004018161816901F004010491816924
:1015500041F0080181618069012200F00800174F05
:101560005503049029463846FFF715F9DFF85080F7
:1015700001220F214046FFF70EF90126CDE9005662
:10158000022569463846CDE90245FFF70FF80F20DE
:10159000CDE9000669464046CDE90245FFF706F869
:1015A000F02000900748CDE9010569464046FEF766
:1015B000FDFF06B0BDE8F0810010024000100140C0
:1015C00000080140000011100C4810B50A490160E4
:1015D0004FF4E1314160002181600C22C160C0E91B
:1015E00004128161C161FFF789FE002803D0BDE8C4
:1015F0001040FEF76ABF10BD00480040A800002060
:10160000FEE7FEE710B5502080F31188BFF34F8F3F
:10161000BFF36F8F02F01AFA18B104494FF08050EF
:101620000860002080F3118810BD000004ED00E088
:1016300030B58FB028216846FEF77EFE14210AA837
:10164000FEF77AFE01210804CDE90010002402947F
:1016500002250491CDE907504FF4E0100990684647
:10166000FFF76AFA08B172B6FEE70F20CDE90A0566
:101670004FF48060CDE90C4002210AA80E94FFF7D8
:101680005FF9002801D072B6FEE70FB030BD704799
:101690000148FFF73EBC0000F0000020F0B50268F2
:1016A000164B174C174D4FF08047984205D0B84263
:1016B00003D0A04201D0A84203D122F070064A68AC
:1016C0003243984205D0B84203D0A04201D0A8428C
:1016D00003D122F44074CA6822434C6922F080028C
:1016E000224302608A68C2620A688262984201D11B
:1016F0000969016301214161F0BD0000002C014036
:1017000000040040000800400C4E0D4F0D4D002419
:101710003C2000F09DFC204602F0C4FD32463B46D2
:1017200002F0D4FD01F0F8F9641CE4B2642CC5E9C0
:101730000401EDD3012000F08BFCE8E75D36C89191
:10174000BF15A03F0800002010B5406A0021C185E8
:10175000C184FFF79CFC10BD01680C3151E8002FDB
:1017600022F4907241E80023002BF5D10168143176
:1017700051E8002F22F0010241E80023002BF5D1AF
:10178000016B012909D101680C3151E8002F22F0C9
:10179000100241E80023002BF5D1202180F84210EF
:1017A00000210163704708B590F84210222901D04A
:1017B000022008BD82684FF480539A4201D101692A
:1017C00021B1816A9A421BD04AB10AE00268816A5B
:1017D0005268C2F308020A80816A891C08E0026923
:1017E00072B10268526802F07F020A70816A491C75
:1017F0008162C18D491E0904090CC18503D01BE01B
:1018000002685268F1E70168CA6822F02002CA60E3
:101810000168CA6822F48072CA6001684A6922F0CD
:1018200001024A61202180F8421000214163026BCD
:10183000012A03D0FFF7D4FD002008BD0163016831
:101840000C3151E8002F22F0100241E80023002B58
:10185000F5D101680A68D20602D50A684968009184
:10186000818DFFF713FCE7E770B504460068016956
:10187000E26821F44051114301612169A0680843E5
:10188000616908432168CA6841F20C639A430243C4
:10189000CA6020684169A26921F440711143416125
:1018A0001E492068884202D1FFF710F901E0FFF7D6
:1018B000FDF800EBC00101EB0012606864218000BC
:1018C000B2FBF0F3B3FBF1F36FF018067343B2FB16
:1018D000F0F5B2FBF0F605EB8305322303EB0515BB
:1018E000B5FBF1F5B6FBF1F605F0F00505EB0615D5
:1018F000B2FBF0F6B2FBF0F0B0FBF1F06FF01802C3
:10190000504306EB800003EB0010B0FBF1F02168C0
:1019100000F00F002844886070BD000000380140CE
:101920002DE9F041984617460E460446069D27E0ED
:10193000681C25D02DB1FEF733FFA0EB0800A842AC
:101940001ED920680C3050E8001F21F4D07140E807
:101950000012002AF5D12068143050E8001F21F051
:10196000010140E80012002AF5D1202084F841004E
:1019700084F84200002084F840000320BDE8F08194
:101980002068006836EA000004D00020B842CFD0BA
:101990000020F3E70120F9E70148FFF779BB0000D9
:1019A000A8000020FEE7490050EAC12018BF04202B
:1019B0004A0D18BF40F0010040F2FF72B2EB515FD8
:1019C00008BF40F00200012808BF05207047090742
:1019D000090E002804DB00F1E02080F800147047B5
:1019E00000F00F0000F1E02080F8141D70470000A7
:1019F0002DE9F74F144694B00021C4E9021115995E
:101A0000079121F00045C9498D4206DC1599C4E9CA
:101A1000000117B00020BDE8F08FC549DFF814A31E
:101A2000A9423CDD0799C44E0029C44FC44A159908
:101A3000534619DD02F054FD554506D0C14AC24B4C
:101A400002F04EFDC4E900010AE04FF0D352BE4B54
:101A500002F046FD32463B4602F042FDC4E9000179
:101A600017B00120BDE8F08F02F0CEF9554506D041
:101A7000B44AB54B02F0C8F9C4E900010AE04FF0DE
:101A8000D352B14B02F0C0F932463B4602F0BCF9EA
:101A9000C4E9000117B04FF0FF30BDE8F08FAB494B
:101AA000A942159978DB21F0004183468846A84A6F
:101AB000A84B02F00BFC0022A74B02F0A5F902F0A4
:101AC000ABFB099002F0D7FB06460F469C4A5346F3
:101AD00002F0FCFB43465A4602F0F6FC80468A467A
:101AE000984A994B3046394602F0F0FB2A0D012501
:101AF0000B924246534602F0E7FC032DC4E9000175
:101B000039D00B98C1F30A51401A05EB4511113930
:101B1000814230DA9148C346784400EB0510CDF895
:101B20000CA00C90D0E900233046394602F0CEFBE1
:101B300002460B46049106905846039902F0D0FCE9
:101B400080468A4602460B465846039902F0C8FC76
:101B5000049B069A02F0C4FC83460C980391394614
:101B6000D0E90223304602F0B1FB5A46039B02F053
:101B7000B7FC6D1CBDE707980028A2BF099817B0F5
:101B8000BDE8F08F616881F000416160099817B08D
:101B90004042BDE8F08FFFE784461598C1F313017A
:101BA000C0F30A50A0F2F5304FEA601800F01F06AB
:101BB000C6F12000139000200690079041F4801E8B
:101BC00005206D4676B1664A08EB00017A4452F86A
:101BD000213002EB8101B3404A68139922FA01F1E6
:101BE000194305E05F4908EB0002794451F82210DF
:101BF000A1FB0E27A1FB0C131A449A4234BF012308
:101C0000002303EB070A05EB8003D3E901B70F4478
:101C10008F4234BF0121002193448B4411B193457D
:101C200002D903E0934501D2012100E00021C3E97C
:101C300001B7514445F82010011EA0F10100C1DC9C
:101C40000298059F00F10050800F12900298DDE984
:101C50000356800002F00FFB834628460D9102F0E8
:101C600021FB6FF01D0202F057FDCDE90E01304659
:101C700002F018FB6FF03D0202F04EFD80468A46EE
:101C8000384602F00FFB6FF05D0202F045FD07469B
:101C900042465346119102F0B7F8DDE90E2302F0F7
:101CA000B3F85A460D9B02F0AFF800250E465A468F
:101CB00028460D9B02F014FCDDE90E2302F010FC17
:101CC0004246534602F00CFC3A46119B02F0FCFBE4
:101CD000DFF898A0244A534602F0F8FA07468846EF
:101CE000234A244B3146284602F0F0FA3A4643464E
:101CF00002F08AF8074688464FF0A842534631461C
:101D0000284602F0E3FA3A46434602F07DF8159A77
:101D100012F0004F04D0129A81F000415242129208
:101D2000C4E90001129817B0BDE8F08FFB21E93F2C
:101D30007CD90240FB21F93F7370032E8A19A33B23
:101D4000000040543163621A61B4D03DFB21394137
:101D500083C8C96D305FE43F0000E03F642D0000A0
:101D6000E02C0000C22C0000182D4454FB21F93D4A
:101D70003326A611460B113C2DE9FF4D21F00048FA
:101D800007460C46B8F1795F08DA02F045FA0028F8
:101D900001BF0020324904B0BDE8F08D3A46234629
:101DA0001046194602F092FA054602462D480E46A4
:101DB0000B460621784400F05DF82A46334602F0CF
:101DC00085FADDE9022382468B463846214602F039
:101DD0007DFA04460F4652465B462846314602F0DD
:101DE00075FA22463B4602F07BFB07468A464FF0D7
:101DF000FF322846314602F08FFC1B4A90450ADA32
:101E00003A46534602F06CFB04B00022BDE8F04DA8
:101E1000134B02F059BB154A4245A8BFA8F500155F
:101E20004FF00004B8BF124D22462B4602F058FB7B
:101E30000646884622462B460020094902F050FB00
:101E400004460D463A4653463046414602F048FBAA
:101E500004B022462B46BDE8F04D02F035BB000031
:101E60000000F03F982A00003333D33F0000E93FE1
:101E70000000D23F2DE9F0414F1E00EBC7010446A0
:101E8000D1E9000115461E4637F006020DD02A465C
:101E9000334602F01BFA7F1E04EBC703D3E900238D
:101EA00001F0B2FF37F00602F1D1022F25D0042F46
:101EB00013D0062F18BFBDE8F0812A46334602F042
:101EC00005FAD4E90A2301F09FFF2A46334602F0BF
:101ED000FDF9D4E9082301F097FF2A46334602F0C2
:101EE000F5F9D4E9062301F08FFF2A46334602F0C4
:101EF000EDF9D4E9042301F087FF2A46334602F0C6
:101F0000E5F9D4E9022301F07FFF2A46334602F0C7
:101F1000DDF9D4E90023BDE8F04101F075BF000010
:101F20002DE9FF4D054621F0004084B00C46B0F18C
:101F3000795F0BDA2846FFF736FD042808BF00F06A
:101F40006FF8284608B02146BDE8F08D2A460B46BA
:101F5000104602F0BBF906460F462A46234602F019
:101F6000B5F9804626488A4632463B4605217844E4
:101F7000FFF780FF83461098029160B3214A224BFD
:101F80004046514602F0A2F9CDE900015A464046CA
:101F90005146029B02F09AF982468846DDE9060125
:101FA0004FF0FF3202F0B8FB5246434602F098FA77
:101FB00032463B4602F08AF9DDE9062302F090FA48
:101FC000DDE9002302F08CFA08B02A462346BDE87A
:101FD000F04D02F079BA0B465A463046394602F0C7
:101FE00075F9084A084B01F00FFF4246534602F0CC
:101FF0006DF908B02A462346BDE8F04D01F004BF54
:10200000D6290000495555555555C5BF012202F046
:1020100083BB002213461046114601F0A5BF000005
:10202000024A0020110702F077BB000001FDFFFF0C
:10203000FEF7C4FBFFF7FCFAFFF768FAFFF7C4FAF4
:1020400000F020F8FFF73AFA00F038F8FEE7000059
:1020500010B5EFF3058149B9EFF3108131B90849A3
:102060000968022905D1EFF3118111B16FF0050460
:1020700003E0002408B100F0FBFE204610BD000084
:1020800080000020EFF3058058B9EFF3108040B9CD
:1020900009490868022801D030B109E0EFF3118046
:1020A00030B16FF0050070470120086000207047D4
:1020B0004FF0FF30704700008000002010B5EFF3B4
:1020C000058060B9EFF3108048B90B490868022811
:1020D00002D0012806D00BE0EFF3118040B16FF081
:1020E000050010BD0220086000F094FF002010BD24
:1020F0004FF0FF3010BD000080000020F8B50D4605
:102100000024211F4E1C00280ED000BFEFF30582D3
:102110004AB9EFF3108232B9134A1268022A17D172
:10212000EFF31182A2B10DB10C461BE000216A460B
:10213000009101F0DBFA012813D1009890B10B490E
:102140004FF080500860BFF34F8FBFF36F8F09E0EF
:10215000294601F019FB012804D015B16FF00104E4
:1021600000E034462046F8BD8000002004ED00E089
:10217000F8B5144603460E464FF00005EFF3058010
:10218000E8BBEFF31080D0BB24480068022802D1DE
:10219000EFF3118098BB93B39E423DD84CB1A06839
:1021A0000028E06803D0502836D3012002E008B1AF
:1021B00032E00020012B05D010B31846A26801F0D0
:1021C00030F820E040B103200090002211460120A9
:1021D000A36801F06AF804E003220021012001F065
:1021E00040F8050018D086B100231A46194601F0C0
:1021F000D3F8012809D0284600F0ECFD00250BE0BB
:10220000184600F0F1FF050006D00CB1216800E08F
:102210000021284600F0CAFD2846F8BD80000020B5
:10222000F0B585B04FEA01034FF00004EFF30581EC
:102230000394A1BBEFF3108189BB214909680229EE
:1022400002D1EFF3118151BB48B3802618218DF8DC
:10225000104004AD42B3176807B13D4697691FB1FE
:1022600039467F1E382F02D21779FF0702D000208F
:1022700005B0F0BD576907B1BE08D2F808C0BCF17F
:10228000000F0DD0D4685C2C18D312693AB137B165
:102290008DE806103246294601F099FB03900DE0C7
:1022A000D7685FB912694AB903AACDE90012B2B280
:1022B000294601F05FFB012800D003940398D7E77B
:1022C000800000202DE9F041134C0F460546666959
:1022D0002068001D00F070FC681C07D137B1216830
:1022E000BDE8F0410D48091D00F0B6BC206835443A
:1022F000B5424560216805D2A068BDE8F041091DDE
:1023000000F092BC6068091D00F08EFC206B8542D5
:1023100000D22563BDE8F0813000002028060020AF
:102320002DE9F041054600F0A3FC2D4C2069401C2E
:10233000206120682B4F10B1E06930B32BE025609D
:102340002069012827D1002606EB860007EB8000D4
:1023500000F05CFC761C382EF6D3234800F056FCC7
:102360002148143000F052FC1F48283000F04EFC89
:102370001D483C3000F04AFC1B48503000F046FC41
:10238000194860601430A06005E02068E96AC06AFE
:10239000884200D82560E06A401CE0626864E86A10
:1023A000A169884200D9A06100EB800007EB8000A2
:1023B000291D00F051FC00F07BFCE06900280CD0E6
:1023C0002068E96AC06A884207D208494FF0805005
:1023D0000860BFF34F8FBFF36F8FBDE8F08100003F
:1023E0003000002078010020D805002004ED00E036
:1023F00038B500F03DFC104CA068C8B90F4800F09B
:1024000005FC0E48143000F001FC0C48206014302C
:1024100060600A4B00202833009003F15002102125
:102420000A2000F042FFA06010B105A100F0BEFC40
:10243000BDE8384000F03CBC6C0000203C060020A9
:10244000546D72510000000030B4026C0B46002A3B
:102450000BD0C1681144C1604468A14201D3016836
:10246000C16030BC1846FDF71ABF30BC70472DE97B
:10247000F041856B174604460026026C82B1C7B155
:10248000E068FDF70CFFE168206C091AE160226842
:10249000914202D26168081AE060022F16D017E05C
:1024A0002068A8B9606801F035FB0646002060602E
:1024B0000EE0A068FDF7F3FE216CA0680844A06060
:1024C0006168884204D32068A06001E005B16D1EF8
:1024D0006D1CA5633046BDE8F08110B5044690F848
:1024E000590058B101280CD002280FD0502080F399
:1024F0001188BFF34F8FBFF36F8FFEE7206B00F0A3
:10250000EBFB2046BDE8104000F0E6BB10BD00002C
:102510000F4842F21071420705D0C01D0C4A20F04E
:102520000700821A891A0B4A00230144C2E90003FA
:102530000839103A21F0070111604B600B600B1A4B
:10254000C0E9001393604FF000405360D0607047C3
:102550000C0E002094000020144E154CA6F29C474F
:102560004FF08058DFF84C9012E000BF00F080FB85
:10257000F068C568281D00F01FFB2069401E20611F
:10258000E068401EE06000F093FB2846FFF7A5FFDF
:10259000E0680028EAD138680128F9D9C9F8008034
:1025A000BFF34F8FBFF36F8FF2E7000014060020D8
:1025B0003000002004ED00E070B51D46049C51B1D0
:1025C000C4F80020C4E90F010121204600F0A0FE5C
:1025D00084F84C5070BD2460F4E72DE9F0470E46B6
:1025E000DDE909841746824691009946089DA52297
:1025F000206BFDF799FE6FF00301206B01EB870163
:10260000084420F00707780707D0502080F311888E
:10261000BFF34F8FBFF36F8FFEE72218315C82F854
:102620003410315C11B1401C1028F6D3002684F818
:102630004360382D00D33725E562C4E91356201DC9
:1026400000F0EFFA04F1180000F0EBFA2461C5F194
:1026500038006462A061666584F858604A46514655
:10266000384600F047FA2060B8F1000F01D0C8F8F2
:102670000040BDE8F087000030B5114900E0114688
:102680000A688242FBD34B685C18844203D14068DD
:1026900018444860084643681C18944209D1084C05
:1026A000103C2468A24209D052681A4442600A6869
:1026B00012680260814200D0086030BD0460F9E712
:1026C0009400002070B5002441600B4D00619142E0
:1026D00006D8D11A8269914206D2011D686807E0C6
:1026E0009A4203D2994201D3012403E0011D2868D4
:1026F00000F09AFA204670BD6C00002010B5044628
:1027000000F0B6FAA06B28B15FF0000400F0D0FA38
:10271000204610BD0124F9E730B589B0304D55E0B1
:102720000498002806DADDE90601059A9047049826
:1027300000284BDB069C606910B1201D00F03CFABC
:1027400002A800F0B9F8024604980A283ED2DFE851
:1027500000F00505053D263705053D260598A169CC
:10276000034601442046FFF7ADFF00B3616A2046EF
:102770008847E069012829D1002000900598A169C7
:10278000002342181946204601F00AFB78B9502070
:1027900080F31188BFF34F8FBFF36F8FFEE705986B
:1027A000A06128B1811813462046FFF78BFF0DE08A
:1027B000502080F31188BFF34F8FBFF36F8FFEE778
:1027C00094F82C0010B9204600F086FA002204A9E3
:1027D000A86800F0EFFE0028A2D109B030BD0000CB
:1027E0006C0000202DE9FC410F46054600F056FC28
:1027F00001A800F061F80446019818B101F03EFA12
:10280000BDE8FC81224EAFB170680068A8B3002714
:10281000291B3A46B06800F009FB01F02FFA0028A6
:10282000EED11C494FF080500860BFF34F8FBFF3CB
:102830006F8FE5E7A542EBD801F020FA3068274614
:10284000C068C468201D00F0B7F9E069012810D104
:10285000A0692B4641193A462046FFF733FF40B1A5
:1028600000200346014600902A46204601F098FACF
:1028700020B1616A20468847C2E707E0502080F314
:102880001188BFF34F8FBFF36F8FFEE70127BFE7BC
:102890006C00002004ED00E006484168096829B199
:1028A0004168C968C9684968016370474FF0FF31E2
:1028B000FAE700003000002070B5054601F0C0F8CE
:1028C000064E04463069844203D200F009F8012024
:1028D00000E0002028602046346170BD6C000020BC
:1028E000F8B5194D1FE0C068C4680668201D00F0E7
:1028F00063F9616A20468847E069012813D1A0691D
:102900003044B04206D924616060211D286800F07F
:102910008BF908E00020034601460090324620462D
:1029200001F03EFA38B1286801680029DBD16968F6
:10293000C5E90010F8BD502080F31188BFF34F8F18
:10294000BFF36F8FFEE700006C000020084840686E
:10295000401C4FF0500080F3118804D0BFF34F8F1C
:10296000BFF36F8FFEE7BFF34F8FBFF36F8FFEE7AD
:102970009C000020074C2068016841B1C06800211C
:10298000D0F80000FFF72EFFFFF7C6FEF3E70121A6
:102990000020F7E76C0000202DE9F041044600F02C
:1029A00067F994F9455004F1240609E0606A48B1DA
:1029B000304601F02BF908B100F088FA6D1E6DB2B7
:1029C000002DF3DC4FF0FF3684F8456000F070F91D
:1029D00000F04EF994F9445004F1100709E0206921
:1029E00048B1384601F012F908B100F06FFA6D1ED7
:1029F0006DB2002DF3DC84F84460BDE8F04100F0D6
:102A000057B900002DE9F0410546002700F046FBCC
:102A1000314E306808B9FFF77BFDF06805424BD1B5
:102A2000C5B3083568070ED005F00700C0F10800EF
:102A30000544680707D0502080F31188BFF34F8FFB
:102A4000BFF36F8FFEE72DB37068854234D82248FC
:102A5000103001460C6801E020460C466168A9422E
:102A600002D221680029F7D131688C4224D007684E
:102A70002168016060680837411B10290FD960196F
:102A8000420708D0502080F31188BFF34F8FBFF367
:102A90006F8FFEE710E041606560FFF7EDFD616854
:102AA0007068401A7060B268904200D2B060F068FE
:102AB00001430020C4E9000101F0E0F8780707D0E5
:102AC000502080F31188BFF34F8FBFF36F8FFEE765
:102AD0003846BDE8F0810000840000200449086801
:102AE00018B10868026D521C026508687047000042
:102AF0003000002010B5031F4FF080741C601B1FB6
:102B000021F001011960191F024B0B601439403884
:102B10000A6010BD4D29000800B5254B21F0004288
:102B200087B09A4203DC0022134600922BE0214B2F
:102B30009A4208D140B94FF00100FDF72CFCFFF795
:102B400068FA07B000BD03DBFFF760FA07B000BD0D
:102B500002AAFEF74DFF10F003014FF001000DD067
:102B6000012914D002291AD00DF1080C9CE80F009D
:102B7000FFF702F907B081F0004100BD0DF1080C2C
:102B800000909CE80F00FFF7CBF907B000BD0DF1F6
:102B9000080C9CE80F00FFF7EFF807B000BD0DF13F
:102BA000080C00909CE80F00FFF7BAF9E2E700007C
:102BB000FB21E93F0000F07FD0E9013201699A6012
:102BC000D0E901235A604A68824201D182684A6092
:102BD000002202610868401E086008687047000013
:102BE000034B036003F15C000860802010607047B5
:102BF00054070020044B036003F15C0008604FF4AD
:102C00008070106070470000B009002000F10801DA
:102C10004FF0FF32C0E90112C16001610021016083
:102C2000704700210161704730B50B685A1C02D013
:102C300000F1080202E0026904E0224654682568B7
:102C40009D42FAD953684B6099608A60516008616F
:102C50000168491C016030BD42684A6093688B601E
:102C600093685960916008610168491C0160704770
:102C7000502080F31188BFF34F8FBFF36F8F0A4945
:102C80004868401C486001280CD10848006810F0D2
:102C9000FF0F07D0502080F31188BFF34F8FBFF391
:102CA0006F8FFEE7704700009C00002004ED00E0FD
:102CB0000849486828B1401E486001D180F3118856
:102CC0007047502080F31188BFF34F8FBFF36F8F91
:102CD000FEE700009C00002070B5002827D0144DAE
:102CE000A0F108046168E868014207D1502080F330
:102CF0001188BFF34F8FBFF36F8FFEE722683AB1A1
:102D0000502080F31188BFF34F8FBFF36F8FFEE722
:102D10008143616000F0C2F96068696808446860D6
:102D20002046FFF7A9FCBDE8704000F0A7BF70BDCA
:102D3000840000204FF0E0200021016181610549FD
:102D40004FF47A720968B1FBF2F1491E4161072123
:102D5000016170472C00002010B5FDF75DFA1149A4
:102D600010280ED300F1E02090F8F0030A7890428A
:102D700007D2502080F31188BFF34F8FBFF36F8FBE
:102D8000FEE709480068896800F4E060884207D9D6
:102D9000502080F31188BFF34F8FBFF36F8FFEE792
:102DA00010BD00009C0000200CED00E010B5084BA9
:102DB000002200BF53F832401CB1521C082AF9D33C
:102DC00010BD43F8321003EBC201486010BD000093
:102DD0003801002010B504000AD000F013F894F870
:102DE000460000280CD12046BDE81040FFF774BF14
:102DF000502080F31188BFF34F8FBFF36F8FFEE732
:102E000010BD0000084A002102EBC1035B68834249
:102E100006D1002042F8310002EBC1014860704742
:102E2000491C0829F0D370473801002070B51546B9
:102E30000E460446FFF71CFF94F944100020491C7D
:102E400001D184F8440094F94510491C01D184F85B
:102E50004500FFF72DFFA06B28B92A46314604F143
:102E6000240000F051F82046BDE87040FFF794BD03
:102E700010B5020014D00F48806B38B1502080F399
:102E80001188BFF34F8FBFF36F8FFEE700F006F995
:102E900000211046FFF716FA00F0F0FE002807D1D7
:102EA00005494FF080500860BFF34F8FBFF36F8F1D
:102EB00010BD00003000002004ED00E002498A6AE5
:102EC00002604969416070473000002001490120DB
:102ED000486270473000002010B50C4650B10949D7
:102EE00009681831FFF7A0FE2046BDE81040012117
:102EF000FFF7E8B9502080F31188BFF34F8FBFF37D
:102F00006F8FFEE73000002070B514460D4668B1A3
:102F10000A4909681831FFF79FFE0CB14FF0FF35E1
:102F200021462846BDE87040FFF7CCB9502080F319
:102F30001188BFF34F8FBFF36F8FFEE73000002083
:102F400070B504003ED0226DA2B1E06C884200D37F
:102F50000146E06A884235D0012A33D11A4D2A68E9
:102F600094420FD1502080F31188BFF34F8FBFF3ED
:102F70006F8FFEE7502080F31188BFF34F8FBFF3B0
:102F80006F8FFEE7E162A269002A02DBC1F138011E
:102F9000A1610E4E00EB8000616906EB800081426A
:102FA00010D1201DFFF708FEE06AA969884200D908
:102FB000A86100EB800006EB8000211DBDE8704099
:102FC000FFF74ABE70BD00003000002078010020ED
:102FD0000E4E0D4CDFF838804FF0FF357714294640
:102FE000E068FFF78BF850B902213046FDF7CEFBC1
:102FF000012804D1002239464046FDF7CCFB0120D0
:10300000FFF726F8EBE70000080000200008014069
:103010000010014030B587B00024039405AA04A92C
:1030200003A80494FFF7DCFDDDE903010094CDE97A
:103030000110002315A11748059A00F0C8FC164D91
:10304000002868631FD000F07BFE012809D0401CD7
:1030500019D1502080F31188BFF34F8FBFF36F8FCA
:10306000FEE7502080F31188BFF34F8FBFF36F8FBF
:103070004FF0FF3028630120E8616C6107B0BDE8C4
:10308000304000F05DB807B030BD000049444C4509
:103090000000000059250008300000200248816B24
:1030A000491C81637047000030000020164810B5AD
:1030B000816B11B10121416210BD00214162816922
:1030C000124A01E0B9B1491E01EB810352F82330E5
:1030D000002BF7D001EB810302EB830202F108041D
:1030E00053685B685360A34201D15B685360DA6840
:1030F0000260816110BD502080F31188BFF34F8FB3
:10310000BFF36F8FFEE70000300000207801002041
:103110000548FEF7B5F94FF47A7404A0FEF7B6F946
:103120002046FEF795FFF8E7A800002048656C6C84
:103130006F204672656552544F53210D0A000000FE
:103140001CB5264908780190FF20087008788DF892
:1031500000009DF800009DF8002000F0F000904273
:1031600007D0502080F31188BFF34F8FBFF36F8FCC
:10317000FEE79DF800001A4B00F050001870072081
:10318000986005E09DF8002052008DF80020401E58
:103190009DF800201206F5D49860032807D050202F
:1031A00080F31188BFF34F8FBFF36F8FFEE74FF4AB
:1031B00040709860019808700A48016841F47001F5
:1031C0000160016841F070410160FFF7B3FD00202C
:1031D0005860FCF7EBFF00201CBD000000E400E09D
:1031E0009C00002020ED00E010B50C4648B1844260
:1031F0000FD9502080F31188BFF34F8FBFF36F8F2B
:10320000FEE7502080F31188BFF34F8FBFF36F8F1D
:10321000FEE70222002100F024F8002800D0846399
:1032200010BD38B50C4648B184420FD9502080F308
:103230001188BFF34F8FBFF36F8FFEE7502080F3ED
:103240001188BFF34F8FBFF36F8FFEE70221134644
:1032500000220091114600F028F8002800D0846375
:1032600038BDF8B517460E46050014D0DEB105FB93
:1032700006F05030FFF7C6FB04000AD0002084F8A7
:10328000460004F150023B46314628460094FFF7C1
:1032900093F92046F8BD502080F31188BFF34F8F7B
:1032A000BFF36F8FFEE70020E3E738B5049D18B148
:1032B00053B1CAB181B120E0502080F31188BFF32F
:1032C0004F8FBFF36F8FFEE7502080F31188BFF35D
:1032D0004F8FBFF36F8FFEE7502080F31188BFF34D
:1032E0004F8FBFF36F8FFEE739B1502080F3118805
:1032F000BFF34F8FBFF36F8FFEE750241C460123AF
:1033000084F846302B460094FFF756F9204638BD26
:1033100070B50D46040025D0FFF7AAFCD4E90F20B4
:10332000216802FB001161600021A1632168A16096
:103330000A46D4E90F01401E00FB0121E16021464D
:103340004FF0FF3001F8440F487004F110008DB1C8
:10335000FFF75CFC04F12400FFF758FCFFF7A8FC22
:10336000012070BD502080F31188BFF34F8FBFF351
:103370006F8FFEE721690029F0D000F047FC00289C
:10338000ECD004494FF080500860BFF34F8FBFF37B
:103390006F8FE3E704ED00E02DE9FF4782B01D46A3
:1033A0008A464FF00008040003D0BAF1000F08D09D
:1033B00011E0502080F31188BFF34F8FBFF36F8F60
:1033C000FEE7206C38B1502080F31188BFF34F8F97
:1033D000BFF36F8FFEE7022D0AD1E06B012807D003
:1033E000502080F31188BFF34F8FBFF36F8FFEE73C
:1033F00000F018FB3F4F4FF000094FF0805648B9DE
:10340000049838B1502080F31188BFF34F8FBFF379
:103410006F8FFEE7FFF72CFCA06BE16B884207D3B0
:10342000022D05D00498D0B1B8F1000F1AD01EE0DB
:103430002A4651462046FFF71AF8616A19B104F18D
:10344000240000F0E3FB20B13E60BFF34F8FBFF3D9
:103450006F8FFFF72DFC012006B0BDE8F087FFF766
:1034600027FC22E06846FFF729FD4FF00108FFF72F
:103470001FFCFFF713FEFFF7FBFB94F94400401C11
:1034800001D184F8449094F94500401C01D184F89E
:103490004590FFF70DFC04A9684600F031FA30B101
:1034A0002046FFF779FA00F0E9FB0020D4E7FFF7A8
:1034B000DFFBA06BE16B884213D1FFF7F9FB04F14E
:1034C00010000499FFF708FD2046FFF765FA00F0A9
:1034D000D5FB00289ED13E60BFF34F8FBFF36F8FA7
:1034E00098E7FFF7E5FB2046FFF756FA00F0C6FB2A
:1034F00090E7000004ED00E02DE9F0471F469046FC
:103500008946040003D0B9F1000F08D011E0502023
:1035100080F31188BFF34F8FBFF36F8FFEE7206CEE
:1035200038B1502080F31188BFF34F8FBFF36F8FF6
:10353000FEE7022F0AD1E06B012807D0502080F36C
:103540001188BFF34F8FBFF36F8FFEE7FFF704FCC7
:103550005020EFF3118680F31188BFF34F8FBFF334
:103560006F8FA06BE16B884206D3022F04D000203E
:1035700086F31188BDE8F08794F945503A464946EC
:103580002046FEF774FF681C04D06D1C84F845507B
:103590000120EDE7606A0028FAD004F1240000F071
:1035A00035FB0028F4D0B8F1000FF1D00121C8F8A4
:1035B0000010EDE72DE9F747002683B08A460400A6
:1035C00003D0BAF1000F08D011E0502080F3118829
:1035D000BFF34F8FBFF36F8FFEE7206C38B15020E1
:1035E00080F31188BFF34F8FBFF36F8FFEE700F0BA
:1035F00019FADFF8F4804FF000094FF0805748B90E
:10360000059838B1502080F31188BFF34F8FBFF376
:103610006F8FFEE7FFF72CFBA56BC5B15146204627
:10362000FEF712FF6D1EA563206950B104F1100072
:1036300000F0ECFA28B1C8F80070BFF34F8FBFF369
:103640006F8FFFF735FB012006B0BDE8F0870598C6
:1036500008B11EB106E0FFF72BFB27E06846FFF735
:103660002DFC0126FFF724FBFFF718FDFFF700FBF9
:1036700094F94400401C01D184F8449094F9450029
:10368000401C01D184F84590FFF712FB05A968465C
:1036900000F036F9002820460AD0FFF77DF900F047
:1036A000EDFA2046FFF72AF80028B3D00020CBE738
:1036B000FFF724F890B104F124000599FFF70CFC02
:1036C0002046FFF769F900F0D9FA0028A2D1C8F81E
:1036D0000070BFF34F8FBFF36F8F9BE72046FFF75C
:1036E0005BF900F0CBFA95E704ED00E02DE9F04737
:1036F00090468946040003D0B9F1000F08D011E0CC
:10370000502080F31188BFF34F8FBFF36F8FFEE718
:10371000206C38B1502080F31188BFF34F8FBFF376
:103720006F8FFEE7FFF718FB5020EFF3118680F351
:103730001188BFF34F8FBFF36F8FA76BF7B194F969
:10374000445049462046FEF77FFE7F1EA763681C53
:1037500004D06D1C84F84450012010E0206900283A
:10376000FAD004F1100000F051FA0028F4D0B8F1BA
:10377000000FF1D00121C8F80010EDE7002086F31A
:103780001188BDE8F08700002DE9F343002683B0DF
:103790000400354609D0206C78B1502080F31188A0
:1037A000BFF34F8FBFF36F8FFEE7502080F3118878
:1037B000BFF34F8FBFF36F8FFEE700F033F9DFF8F1
:1037C0003C814FF000094FF0805748B9049838B158
:1037D000502080F31188BFF34F8FBFF36F8FFEE748
:1037E000FFF746FAA06BC8B1401EA063206810B96D
:1037F000FFF774F96060206950B104F1100000F027
:1038000005FA28B1C8F80070BFF34F8FBFF36F8F70
:10381000FFF74EFA012005B0BDE8F083049808B127
:1038200066B10FE03DB1502080F31188BFF34F8F98
:10383000BFF36F8FFEE7FFF73BFA5DE06846FFF7E7
:103840003DFB0126FFF734FAFFF728FCFFF710FADB
:1038500094F94400401C01D184F8449094F9450047
:10386000401C01D184F84590FFF722FA04A968466C
:1038700000F046F80028204612D0FFF78DF800F03F
:10388000FDF92046FEF73AFF0028A9D09DB3FFF7C7
:10389000EFF9606A50B3206B0068C0F1380126E090
:1038A000FEF72CFFE0B1206838B9FFF7E1F9606856
:1038B00000F070F90546FFF7FBF904F124000499C4
:1038C000FFF70AFB2046FFF767F800F0D7F900285A
:1038D00086D1C8F80070BFF34F8FBFF36F8F7FE7BB
:1038E0002046FFF759F800F0C9F979E70021606830
:1038F000FFF726FB9FE7FFE700208CE704ED00E0E1
:103900002DE9F0410C46050011D0C4B1FFF7B0F924
:10391000174B5A696E682068911B471C17D02F6897
:103920009B6A9F4219D0964217D8012410E050207C
:1039300080F31188BFF34F8FBFF36F8FFEE75020E6
:1039400080F31188BFF34F8FBFF36F8FFEE7002422
:10395000FFF7AEF92046BDE8F081884205D9401A4C
:1039600020602846FFF7AAFAF1E700202060DCE794
:10397000300000202DE9FF5F8346DDE90E87994680
:1039800016468A469000FFF73DF805001CD05C20E3
:10399000FFF738F8040014D00020256384F859009C
:1039A000CDE90240CDE900874B46324651465846A4
:1039B000FEF713FE2046FEF7B3FC012004B0BDE87D
:1039C000F09F2846FFF788F94FF0FF30F6E7F0B593
:1039D00085B0DDE90B640A9DA6B1DCB15C270097D8
:1039E0002663022684F85960002604AFCDE902461A
:1039F000CDE90057FEF7F1FD2046FEF791FC049853
:103A000005B0F0BD502080F31188BFF34F8FBFF396
:103A10006F8FFEE7502080F31188BFF34F8FBFF305
:103A20006F8FFEE70548C16919B1806B18B100209E
:103A300070470120704702207047000030000020CE
:103A40000148406970470000300000202DE9F04136
:103A50002E4C0027A06B40B1206A401C2062606A97
:103A600000B101273846BDE8F0816669761C6661C1
:103A700013D16068006838B1502080F31188BFF31B
:103A80004F8FBFF36F8FFEE76068A1686160A06031
:103A9000A06A401CA062FEF7FFFE206BDFF870807A
:103AA000864209D36068006880B16068C068C568F4
:103AB000686886420DD220632068C06A00EB8001EE
:103AC00058F821000128CAD90127C8E74FF0FF3074
:103AD000F1E7281DFFF770F8A86A18B105F1180082
:103AE000FFF76AF8E86AA169884200D9A06100EB93
:103AF000800108EB8100291DFFF7AEF8E86A216814
:103B0000C96A8842CED30127CCE7000030000020EC
:103B10007801002070B504004FF0000133D01B4D38
:103B20002868844207D0502080F31188BFF34F8F5C
:103B3000BFF36F8FFEE7206D38B1401E2065E36C48
:103B4000E26A9A421FD040B11DE0502080F31188F4
:103B5000BFF34F8FBFF36F8FFEE7201DFFF72CF8E9
:103B6000E06CE062C0F13800A061E06AA9698842B7
:103B700000D9A861064900EB800001EB8000211DFF
:103B8000FFF76AF80121084670BD000030000020F0
:103B90007801002070B504004FF000002BD0194DC3
:103BA000E16A2A68D26A914226D2A069002804DB21
:103BB0002868C06AC0F13800A061134E01EB810192
:103BC000606906EB8101884211D1201DFEF7F4FFE8
:103BD0002868C06AE062A969884200D9A86100EB40
:103BE000800006EB8000211DFFF736F802E0286810
:103BF000C06AE062012070BDE16C2A68D26A91421D
:103C0000F8D370BD300000207801002070B5C06886
:103C1000C46854B104F118000646FEF7CDFF144DF8
:103C2000A86B50B13146134815E0502080F311883D
:103C3000BFF34F8FBFF36F8FFEE7201DFEF7BCFF72
:103C4000E06AA969884200D9A8610B4900EB8000AD
:103C500001EB8000211DFEF7FFFFE06A2968C96AB9
:103C6000884202D90120686270BD002070BD00004A
:103C70003000002000060020780100202DE9F047E8
:103C80002C4D00242746A86B38B1FEF7F1FFA86B36
:103C9000401EA863A86B40B146E0502080F3118815
:103CA000BFF34F8FBFF36F8FFEE72969224E0120CC
:103CB000D1B3A6F5916980463068E0B1F068C46878
:103CC00004F11800FEF778FF201DFEF775FFE06A8B
:103CD000A969884200D9A86100EB800109EB810045
:103CE000211DFEF7B9FFE06A2968C96A8842E3D35B
:103CF000C5F82480E0E70CB1FEF7CEFD2C6A4CB18C
:103D00004FEA0806FFF7A2FE00B16E62641EF9D109
:103D100000202862686A38B108490127380708601E
:103D2000BFF34F8FBFF36F8FFEF7C2FF3846BDE87A
:103D3000F0870000300000200006002004ED00E0C5
:103D400010B586B0FEF754FB114CA068B8B1002046
:103D50000390049005AA04A903A8FEF74BFFDDE930
:103D6000032102208DE8070000230AA10B48059AD1
:103D7000FFF72DFEE06010B106B0012010BD50200D
:103D800080F31188BFF34F8FBFF36F8FFEE7000002
:103D90006C000020546D7220537663007529000872
:103DA0002DE9FF411E46134602000A9D4FF0000018
:103DB00016D0144CA768002F0FD0CDE90013029243
:103DC000062917DAFFF72EFE02284FF000030FD066
:103DD00000226946A068FFF7DFFA04B0BDE8F08171
:103DE000502080F31188BFF34F8FBFF36F8FFEE732
:103DF0002A46EEE70023324669463846FFF77CFB49
:103E0000EBE700006C00002010B591EA030F48BFFB
:103E100083F0004300F16C83841A71EB030C05D22C
:103E2000121943EB0C03001B61EB0C01DFF824E1DA
:103E30004FEA1154A4EB135C1EEA430F18BF9EEA2D
:103E4000445F73D023EA0E03DCF1200E21EA045113
:103E500043F4801332D322FA0CFE10EB0E0023FA47
:103E60000CFE41EB0E01CCF1200E03FA0EFE10EB1E
:103E70000E0051F10001B1F5801FCCF1200E32D2BD
:103E800001EB045112FA0EF2BDE8104058BF704722
:103E9000401C38BF5FEA420218BF7047002814BFB9
:103EA00020F0010041F100014FEA410313F5001F2A
:103EB00038BF7047A1F1C04100F000BB012A43EBBD
:103EC0000302ACF1200CDCF11F0E32BF4FF0000EEC
:103ED00023FA0CF310EB030041EB0451B4EB115F38
:103EE000D0D0A1EB045101F5801149085FEA300000
:103EF00001EB04510ED350F1000038BF12FA0EFE50
:103F000008D1BDE81040C9E7401C38BF5FEA420253
:103F1000CAD1C3E7BDE810404FEA410313F5001FC3
:103F200038BF7047A1F1C04100F0C8BA9EEA445FB3
:103F300008D011EA5E0FBDE8104004BF01F0004157
:103F400000207047BDE8104070B500F069FA00BF6E
:103F500064FBBE3E0000E0FF02494FF0000000F0AD
:103F6000A9BB00BF0000F87F2DE9C04130B4DFF8E5
:103F7000A0C23CEA111418BF3CEA131400F0EC8014
:103F800081EA03051CEA111444EAD57418BF1CEA3F
:103F9000131500F0C780A4EB05044FF0004545EA77
:103FA000C12145EAC32341EA505143EA525304F187
:103FB0007F74994204F500344FEAC0204FEAC222D0
:103FC00008BF904200F09C804FEA13650FF2401644
:103FD000765D4FEA134506FB05F7C7F1807706FBD0
:103FE00007F74FEAD737A7FB03687642C8F5803852
:103FF000A7FB06CE38BFA8F1010807FB08E64FF083
:10400000000EA6FB028CE6FB03CEDCF1000CCEF129
:10401000004E38BFAEF1010EA6FB0C584FF0000762
:104020004FF00005E6FB0E87A1FB08C6A0FB07CEFC
:1040300016EB0E0645F10005E1FB076515F1E04EB4
:104040007EBFA4F580345FEA46066D4116F1800715
:1040500045F100054FEA17274FEA066647EA05676C
:10406000A6F1DE46B6F1805F4FEA15251FD9384626
:1040700024F0010C05EBC471BCF1FE6F01EB0C11D7
:1040800002D8F0BCBDE8008124425CBF01F5801E6F
:104090009EEAC47F02D4F0BCBDE80081244238D43B
:1040A000F0BCA1F1C041BDE8004100F007BA4FEA01
:1040B000D22242EA43524FEAD323A7FB02864FEAB9
:1040C000D02040EA415007FB03661EEA0E0F4FEA7C
:1040D000D12105FB026658BFA6EB0056B6EB005691
:1040E0004FEA520E4EEAC37E18EB0E0E56EB530EFD
:1040F000BDD518EB02085E417F1C55F10005B6E7FF
:104100004FF480154FF000074FF000064FF0000805
:10411000ADE7F0BC4FF0000001F1C04101F00041FB
:10412000BDE8008111EA0C1F0CEA131500D00CE069
:1041300013EA0C1F00F025804FF00000F0BC81EA6C
:10414000030101F00041BDE80081F0BCBDE8004181
:1041500081EA030100F0B2B9F0BCBDE8004170B5DE
:1041600000F05EF9097EFC3E00F007B881EA030129
:104170004FF0000001F00041704781EA030100F0B8
:104180009DB9F0BCBDE800414FF0000021497047E7
:10419000FFFDFBF9F7F5F4F2F0EEEDEBE9E8E6E40C
:1041A000E3E1E0DEDDDBDAD8D7D5D4D3D1D0CFCD93
:1041B000CCCBCAC8C7C6C5C4C2C1C0BFBEBDBCBBCC
:1041C000BAB9B8B7B6B5B4B3B2B1B0AFAEADACABC7
:1041D000AAA9A8A8A7A6A5A4A3A3A2A1A09F9F9EA1
:1041E0009D9C9C9B9A999998979796959594939353
:1041F000929191908F8F8E8E8D8C8C8B8B8A8989EA
:10420000888887878685858484838382828181806C
:104210000000FF070000F87F4FEA41034FEA5353C5
:10422000A3F58063D3F11E03C8BFD3F1210C0CDDCD
:104230004FF0004242EAC12242EA505232FA03FCF5
:104240008CEAE17CACEBE1707047102BC4BF00201E
:10425000704703F5787CBCF1FF3F04D06FF000425B
:1042600082EA2100704770B500F0DAF849922480A4
:1042700000207047F2E710F0004248BF4042B0FA19
:1042800080F310FA03F10AD0C3F11D0303F5806334
:104290004FEA415002EB035202EBD12170474FF03D
:1042A00000007047B0FA80F310FA03F10AD0C3F1AE
:1042B0001D0303F580634FEA41504FEA035202EBBE
:1042C000D12170474FF0000070470000DFF848C16F
:1042D00070B51CEA111E1EBF1CEA13159EEA0C0FD6
:1042E00095EA0C0F00F06F8081EA030423EA4C1377
:1042F0004EEAD47E21EA4C1141F4801143F480133C
:10430000AE44A1FB024CA0FB0365AEF17F7E3619E3
:1043100055EB0C05A1FB034C4CF10003A0FB021C68
:1043200016EB0C06654153F10003094218BF46F035
:10433000010613F4007F0BD14FEA03314FEA053039
:10434000340341EA155140EA16506FF003020AE0C7
:104350004FEAC3214FEAC520F40241EA555140EA31
:1043600056506FF0020202EB2E4201EB025585EA35
:10437000CE710AD05FEA440C18BF24F0004450F11B
:10438000000041F1000120EAD47040F2FE7C624559
:1043900000D270BDA84214BF4FF080444FF040449B
:1043A000002E08BF0024BEF1806FA8BFA1F1C0415C
:1043B000BDE8704080F282804FF0000001F1C04102
:1043C00001F0004170479EEA0C0F0CEA131518BF6C
:1043D00095EA0C0F06D04FF0000081EA030E0EF0B4
:1043E000004170BD00F01CF88900013E00F007B8E4
:1043F00000F009B84FEA430C5FEA5C5C08D081EA40
:10440000030100F05BB84FEA410C5FEA5C5CF6D157
:104410004FF00000014970470000FF070000F87FDF
:104420000EF1020E2EF0030E5EF8046B364205D438
:10443000012A43EB030515F5001F12D8012841EBB3
:10444000010C1CF5001F0CD80ED14FEAD17C15F5DC
:10445000001F0CEB4C0C0CF1020C08BF4CEBD37C96
:1044600004E04FF0080C01E04FEAD37C0CEB4C0564
:1044700026FA05F606F00706B6F1040C06D20EEB96
:10448000860CBDE870404CF0010C6047DFE80CF092
:10449000090B02024FF000414FF00000A1F500218E
:1044A00070BD19461046012851EB010418BFD4F520
:1044B000001484BF002001F0004170BD0808A0F581
:1044C00000114FEA3101704791EA030F10B581F0F6
:1044D00000413FF5A1AC83F0004300F009B80000B3
:1044E00010B591EA030F48BF83F000433FF594AC49
:1044F000841A71EB030C07D212198CF0004C43EBB9
:104500000C03001B61EB0C01DFF8A4E14FEA11542E
:10451000A4EB135C1EEA430F18BF9EEA445F00F051
:10452000B08023EA6E03524221EA0451C3EB6E03CA
:1045300038BF5B1EDCF1200E25D322FA0CFE10EBF7
:104540000E0043FA0CFE41EB0E01CCF1200E03FAF3
:104550000EFE10EB0E0051F10001CCF1200E29D41B
:1045600012FA0EF201EB0451BDE8104058BF70473B
:10457000401C1CBFB2F1004F704700280CBF491C03
:1045800020F00100704712EB020E43EB030218BF4C
:104590004FF0010E4EEA4202ACF1200CDCF11E0E8F
:1045A00054D943FA0CFE10EB0E0051F1FF31CCF15F
:1045B0001E0ED5D50EF1010E12FA0EFE404141EB52
:1045C000010101EB445C5FEA5C5C10D910EBDE702A
:1045D00001EB045138BFBEF1004FBDE8104018BFD9
:1045E000704700280CBF491C20F00100704730D2F2
:1045F0004FEAD42C11F5001124F400641BD0B1FA59
:1046000081F20B3AA41AA41ED2F12003914030FA91
:1046100003F31943904001EBCC71002C01EB0451E2
:10462000BDE81040A8BF704701F1C0414FF0000045
:1046300001F000417047B0FA80F310FA03F100D1A5
:1046400010BDE41A173C4805C90AE4E701EB045120
:1046500010BD491001EB0451BDE810404FEA300095
:1046600002E04FF0000170474A0008BF0042F8D056
:10467000B2F5001F28BF704701F000414FF0000065
:1046800070479EEA445F07D011EA5E0FBDE8104014
:1046900004BF002100207047BDE8104070B5FFF74F
:1046A000BFFE00BF40DFF63E83F00041104670477A
:1046B0000000E0FF0CF00F03092B08BF082000F0FA
:1046C00059800A2B0BD0082B18BF704708BF1CF06D
:1046D000400F0AD04FF000004FF0000170471CF06F
:1046E000400F18BF4FF0004070471CF0100F08D06B
:1046F00020F0704300F07F4242EAD3014FEA43705A
:10470000704700F0604021F07F4242EA000201F071
:104710007F4040EA727070474FF0FF0C4CF4E06C41
:104720001CEA11531CBF9CEA030C9445C2BFDA4239
:1047300001EB02517047002B0DD0BCF1000F0FD0E0
:10474000002A01F00041A4BF41F0E04141F07F6147
:104750004FF00000704701F000414FF0000070473B
:1047600050EA01334FF09B0C18BF4CF0806C7FF483
:10477000F3AB70471CF4801F11D01CF4E02F03D062
:104780006FEACC31490070474FF04050EFF30082A0
:1047900022F0704242EA000282F3008870474FF034
:1047A0000000704790490008000000000000000071
:1047B00000000000000000000002000020000000D7
:1047C0000000000000000000884900080000000010
:1047D00000000000000000000000000000020000D7
:1047E00010000000000000000000000070490008F8
:1047F00000000000000000000000000000000000B9
:10480000000200000800000000000000000000009E
:104810007C490008000000000000000000000000CB
:10482000010202030405060708090A0B0C0D0E0F0E
:104830001010000000000000000001020304060741
:10484000080900000000010203040000000000004D
:104850004C5555555555A53F7751C1166CC156BF9E
:104860009015CB19A001FA3EAD529C804F7E92BEAE
:10487000C4B1B4BD9EEE213ED43888BEE9FAA8BDCD
:1048800000004054FB21F93F3163621A61B4D03D0E
:104890000000601A61B4D03D7370032E8A19A33BE7
:1048A0000000002E8A19A33BC14920259A837B3939
:1048B00000000000000000006E83F9A22915444E9C
:1048C000D15727FCC0DD34F5999562DB4190433C1C
:1048D000AB6351FE61C5BBDE3A6E24B7E0D24D42F8
:1048E000EA2E49061C92D1091CEB1DFE3EA729B1F8
:1048F000F53582E88444BB2E26709CE9417E5FB486
:1049000039D69139F43953838B5F849C3B28F9BDA8
:10491000FF97F81F0F9805DE8B112FEF1F6D0A5AB6
:10492000CF7E366DB709CB27663F464F2DEA5F9E97
:10493000C7BA27757BF1E5EBF739073DEA92528A52
:10494000B15FFB6B085D8D1FA6F810111111813F3F
:10495000D561C119A0012ABF7DFEB157E31DC73E35
:10496000EB9C2B8AE6E55ABE7CD5CF5A3AD9E53D79
:1049700075736172745461736B00000062696E61DB
:10498000727953656D0000005363616E0000000092
:104990005461736B5F6D61696E000000BC49000873
:1049A00000000020A800000028010008644A000858
:1049B000A8000020D83A00004401000800000000D0
:1049C00000000000000000000000000000000000E7
:1049D00000000000000000000000000001000000D6
:1049E000100000000000000000127A00000000002B
:1049F00000000000000000000000000000000000B7
:104A000000000000000000000000000000000000A6
:104A10000000000000000000000000000000000096
:104A20000000000000000000000000000000000086
:104A30000000000000000000000000000000000076
:104A40000000000000000000000000000000000066
:104A5000000000000000000000000000AAAAAAAAAE
:044A60000000000052
:04000005080000ED02
:00000001FF
