:020000040800F2
:10000000783B002021020008871600081D15000813
:1000100085160008A7040008291A0008000000003F
:10002000000000000000000000000000890100083E
:10003000A904000800000000CD010008891600088E
:100040003B0200083B0200083B0200083B0200089C
:100050003B0200083B0200083B0200083B0200088C
:100060003B0200083B020008AD0400083B02000808
:100070003B0200083B0200083B0200083B0200086C
:100080003B0200083B0200083B0200083B0200085C
:100090003B0200083B0200083B020008D5040008B0
:1000A0003B0200083B0200083B0200083B0200083C
:1000B000151700083B0200083B0200083B0200083D
:1000C0003B0200083B0200083B0200083B0200081C
:1000D0003B0200083B0200083B0200081D1A000812
:1000E0003B0200083B0200083B02000800F002F857
:1000F00000F03AF80AA090E8000C82448344AAF188
:100100000107DA4501D100F02FF8AFF2090EBAE885
:100110000F0013F0010F18BFFB1A43F0010318473B
:10012000A0380000C0380000103A24BF78C878C159
:10013000FAD8520724BF30C830C144BF04680C60ED
:10014000704700000023002400250026103A28BF35
:1001500078C1FBD8520728BF30C148BF0B60704739
:100160001FB51FBD10B510BD00F064F91146FFF7B3
:10017000F7FF01F06AFC00F082F903B4FFF7F2FF29
:1001800003BC00F089F90000224B19680868B0E848
:10019000F00F80F30988BFF36F8F4FF0000080F3FA
:1001A00011884EF00D0E70470000000006480068F0
:1001B000006880F3088862B661B6BFF34F8FBFF363
:1001C0006F8F00DF00BF00BF08ED00E0EFF3098094
:1001D000BFF36F8F0F4B1A6820E9F00F106008B55E
:1001E0004FF0500080F31188BFF34F8FBFF36F8F34
:1001F00002F078FC4FF0000080F31188BDE8084061
:1002000019680868B0E8F00F80F30988BFF36F8FB2
:10021000704700BF2C000020EFF3058070470000FE
:100220000948804709480047FEE7FEE7FEE7FEE78A
:10023000FEE7FEE7FEE7FEE7FEE7FEE704480549C6
:10024000054A064B7047000013170008ED00000830
:1002500078350020783B0020783700207837002060
:1002600010B5431C02E010F8011B71B18107FAD1EF
:100270004FF0013202C88C1A8C4314EAC211F9D033
:10028000C01A0A0603D0C01E10BDC01A10BD0A0451
:1002900001D0801E10BD0902FCD0401E10BD032AF3
:1002A00040F2308010F0030C00F0158011F8013B93
:1002B000BCF1020F624498BF11F801CB00F8013B7A
:1002C00038BF11F8013BA2F1040298BF00F801CB3E
:1002D00038BF00F8013B11F0030300F05780083AE3
:1002E000C0F0088051F8043B083A51F804CBA0E86C
:1002F0000810F5E7121D5CBF51F8043B40F8043BC1
:10030000AFF30080D20724BF11F8013B11F801CBF5
:1003100048BF11F8012B24BF00F8013B00F801CBC6
:1003200048BF00F8012B704702F0FF0343EA0322A5
:1003300042EA024200F05EB84FF0000200B51346F8
:1003400094469646203922BFA0E80C50A0E80C50F5
:10035000B1F12001BFF4F7AF090728BFA0E80C50A6
:1003600048BF0CC05DF804EB890028BF40F8042B9F
:1003700008BF704748BF20F8022B11F0804F18BF0C
:1003800000F8012B704770477047704710B5203A4E
:10039000C0F00B80B1E81850203AA0E81850B1E83E
:1003A0001850A0E81850BFF4F5AF5FEA027C24BFF4
:1003B000B1E81850A0E8185044BF18C918C0BDE8EB
:1003C00010405FEA827C24BF51F8043B40F8043BB4
:1003D00008BF7047D20728BF31F8023B48BF11F869
:1003E000012B28BF20F8023B48BF00F8012B7047C3
:1003F0004FF000020429C0F0128010F0030C3FF40B
:100400009DAFCCF1040CBCF1020F18BF00F8012B1A
:10041000A8BF20F8022BA1EB0C01FFF78FBF5FEA0A
:10042000C17C24BF00F8012B00F8012B48BF00F865
:10043000012B7047754600F02BF8AE460500694663
:10044000534620F00700854618B020B5FFF7F6FEAA
:10045000BDE820404FF000064FF000074FF00008C5
:100460004FF0000B21F00701AC46ACE8C009ACE846
:10047000C009ACE8C009ACE8C0098D46704710B5AA
:100480000446AFF300802046BDE81040FFF775BE7C
:10049000004870471835002001491820ABBEFEE720
:1004A000260002007047FEE770470000074810B5BD
:1004B0000168C90605D5102101600548006801F0F2
:1004C000BBFBBDE81040102000F096B814040140BA
:1004D000180000200C4810B50168890609D52021B4
:1004E000016040210160802101600848006801F03E
:1004F000A3FB202000F080F8402000F07DF8BDE84C
:100500001040802000F078B814040140180000204A
:1005100072B6FEE710B590F821100022022905D02E
:100520000421816380F82020012010BD01680B6840
:1005300023F00E030B6001680B6823F001030B60CE
:1005400090F84030C46B012101FA03F3636080F836
:10055000211080F82020104610BD000010B590F842
:1005600021100024022903D00421816301243DE0ED
:1005700001680A6822F00E020A6001680A6822F027
:1005800001020A601A4A0168914201D1012121E069
:10059000174A1432914201D110211BE0144A28322B
:1005A000914201D1891515E0114A3C32914201D1A5
:1005B00089140FE00E4A5032914202D14FF480313B
:1005C00008E00B4A6432914202D14FF4801101E0FD
:1005D0004FF08071064A083A5160012180F82110DD
:1005E000002180F82010416B01B18847204610BDE2
:1005F0000800024070470000044910B50A68024232
:1006000002D00860FFF7F6FF10BD0000140401409F
:100610002DE9F84FDFF8B8910024A9F1040B234627
:100620000F2709F1040AABF1040EC9E00125A5402A
:100630002A40AA427DD1674ED1F804C0ACEB06082F
:10064000B44532D014DCBCF1030F3AD009DCBCF164
:10065000000F2AD0BCF1010F1CD0BCF1020F31D128
:100660001DE0BCF1110F17D0BCF1120F2AD119E017
:10067000B8F5881F19D006DCB8F5803F15D0B8F55D
:10068000801F1FD111E0B8F5001F0ED0B8F5041F70
:1006900018D10AE0CB6815E0CB681B1D12E0CB68CF
:1006A00008330FE0CB680C330CE08B682BB1012BC7
:1006B0004FF0080303D0456104E0042302E0056124
:1006C00000E00023FF2A01D8064601E000F10406FD
:1006D0004FEA840501D9A5F12005D6F8008007FA74
:1006E00005FC28EA0C0803FA05F548EA0508C6F8EF
:1006F00000804D68ED0062D5374DAE6946F00106C9
:10070000AE61AD6924F0030605F001050095334D97
:1007100006EB050CDCF80850A607360F07FA06F8BA
:1007200025EA0805DFF8B880404503D14FF00008FE
:1007300017E044E0DFF8AC80404502D14FF00108FB
:100740000FE0DFF8A480404502D14FF0020808E036
:10075000DFF89880404502D14FF0030801E04FF0E8
:10076000040808FA06F848EA0508CCF808804D683D
:10077000D9F80060ED024D4601D5164300E09643DE
:100780002E604D68DAF80060AD02554601D516437B
:1007900000E096432E604D68DBF80060AD035D46D7
:1007A00001D5164300E096432E604D68DEF80060E8
:1007B000ED03754601D5164300E096432E60641C98
:1007C0000D682A46E5407FF431AFBDE8F88F0000A0
:1007D0000804014000001110001002400000014018
:1007E00000080140000C01400010014000140140CD
:1007F0008068084000D0012070470AB1016170474D
:100800000904FBE701488068704700001C000020D5
:100810000248816802781144816070471C00002002
:10082000074810B5016841F010010160032000F095
:10083000A7F80F2000F006F800F050F8002010BDD7
:100840000020024030B50546204887B0C16941F01C
:100850000101C161C06906A900F00100009001A872
:1008600000F036F90498B8B100F052F94000184988
:100870004FF08042B0FBF1F11648491E0260416022
:1008800040F2E7320021C0E903218160816100F07C
:1008900017FB040003D015E000F03AF9E7E70D4834
:1008A00000F03CFB04000DD11C2000F03BF8102DA3
:1008B00007D2002229461C2000F042F806480560B5
:1008C00000E0012407B0204630BD000000100240C7
:1008D00040420F00EC000020200000200F4808B527
:1008E000816941F001018161816901F0010100919B
:1008F000C16941F08051C161C069002200F080509F
:1009000000900F21901E00F01BF80548416821F06F
:10091000E06141F00071416008BD0000001002403C
:1009200000000140002809DB00F01F020121914076
:100930004009800000F1E020C0F80011704700007D
:10094000F0B40E4B1B680C46C3F30223C3F107053A
:10095000042D00D90425191D072901D2002300E028
:10096000DB1E012606FA05F1491E214099409E40F2
:10097000761E16403143F0BC01F057B80CED00E094
:10098000064900F0070208684FF6FF03184040EAE6
:100990000220034A10430860704700000CED00E09D
:1009A0000000FA052DE9F0470F46050061D0434EDF
:1009B000306800F00700B84209D2306820F0070024
:1009C00038433060306800F00700B84251D12868E1
:1009D0003B4C810712D5400703D5606840F4E060C6
:1009E00060602878000703D5606840F4605060605C
:1009F0006068A96820F0F000084360602878C007AC
:100A000028D06868012810D02168022810D08907F2
:100A100000292EDA616821F0030101436160FFF7CC
:100A2000F1FE804641F288390DE021688903EFE745
:100A30008901EDE7FFF7E6FEA0EB0801494502D981
:100A40000320BDE8F0876068696800F00C00B0EB37
:100A5000810FEFD1306800F00700B8420BD9306841
:100A600020F0070038433060306800F00700B842DB
:100A700001D00120E5E72878400705D56068E968DE
:100A800020F4E060084360602878000706D56068BD
:100A9000296920F4605040EAC100606000F058F815
:100AA0006168084AC1F30311515CC84006490860F7
:100AB00006480068FFF7C6FE0020C2E7002002409B
:100AC000001002407A390008280000202000002091
:100AD0000F2202600C4A536803F00303436053681B
:100AE00003F0F0038360536803F4E063C36052686B
:100AF0004FF4E06303EAD20202610448006800F0A8
:100B0000070008607047000000100240002002400B
:100B10000448054900684968044AC1F30221515C50
:100B2000C840704728000020001002408A390008A1
:100B30000448054900684968044AC1F3C221515C70
:100B4000C840704728000020001002408A39000881
:100B50000E4A51680E4801F00C03042B11D0082BEB
:100B60000FD10C48C1F38343C903C05C0AD5516857
:100B7000084AC1F34041921E515C054A5043B0FB04
:100B8000F1F07047044948437047000000100240EC
:100B900000127A006A39000800093D002DE9F84F7B
:100BA000040070D02078C04DC00749D06868C0F3F9
:100BB0008100012807D06868C0F38100022809D1AC
:100BC0006868C00306D52868800339D560680028A6
:100BD000E7D035E06068B0F5803F0BD010B1B0F5DC
:100BE000A02F11D0286820F480302860286820F4D5
:100BF000802002E0286840F480302860606890B16E
:100C0000FFF700FE06460AE0286840F480202860CE
:100C1000F0E700BFFFF7F6FD801B642873D8286853
:100C20008003F7D50CE0FFF7EDFD064605E000BFB9
:100C3000FFF7E8FD801B6428F0D828688003F7D40C
:100C400020789A4E80074FF001094FF0000839D5FF
:100C5000686810F00C0F07D06868C0F381000228A4
:100C600009D16868C00306D42868800714D52069B4
:100C7000012808D110E02069B0B1C6F80090FFF754
:100C8000C1FD074605E00AE1FFF7BCFDC01B0228D5
:100C9000C4D828688007F7D52868616920F0F80073
:100CA00040EAC10028600DE0C6F80080FFF7AAFD09
:100CB000074604E0FFF7A6FDC01B022823D82868DA
:100CC0008007F7D4207800072CD57948A169D9B1DD
:100CD000C0F80090FFF796FD074604E0FFF792FD8D
:100CE000C01B02280FD8686A8007F7D571484FF4F7
:100CF000FA510068B0FBF1F0009000BF0098411E6F
:100D00000091FAD20EE080E0C0F80080FFF77AFD93
:100D1000074604E0FFF776FDC01B022875D8686A15
:100D20008007F7D42078400760D5E8690027C00025
:100D300008D4E86940F08050E861E869012700F0D4
:100D4000805000905C480168C90513D4016883464F
:100D500041F480710160FFF755FD824606E000BF57
:100D6000FFF750FDA0EB0A0064284ED8DBF8000026
:100D7000C005F5D5E06801280AD008B1052813D0D0
:100D8000286A20F001002862286A20F0040002E0AE
:100D9000286A40F001002862E06841F2883B98B17F
:100DA000FFF730FD82460BE0286A40F0040028621D
:100DB000EEE700BFFFF726FDA0EB0A0159455AD820
:100DC000286A8007F6D50CE0FFF71CFD824605E097
:100DD000FFF718FDA0EB0A0159454CD8286A800797
:100DE000F6D41FB1E86920F08050E861E06988B36B
:100DF0006968C1F38101022944D00228C6F86080E5
:100E000004D0FFF7FFFC044638E034E0FFF7FAFCBB
:100E1000074604E0FFF7F6FCC01B02282BD8286821
:100E20008001F7D4206AB0F5803F05D16868A168D9
:100E300020F4003008436860D4E908010843696879
:100E400021F4741108436860C6F86090FFF7DAFC7B
:100E5000044606E025E000BFFFF7D4FC001B022893
:100E600009D828688001F7D51BE000BFFFF7CAFC4E
:100E7000001B022802D90320BDE8F88F28688001F2
:100E8000F4D40EE00128F7D06868226A00F48031BB
:100E9000914204D1616A00F47010884201D00120AF
:100EA000EAE70020E8E700000010024000004242AC
:100EB00080044242280000200070004070477047C4
:100EC00010B5040003D094F83D0010B107E00120F4
:100ED00010BD002084F83C00204600F01EF80220DF
:100EE00084F83D00211D206800F01AFC012084F8E0
:100EF000460084F83E0084F83F0084F8400084F8FF
:100F0000410084F8420084F8430084F8440084F8E7
:100F1000450084F83D00002010BD704790F83D105A
:100F2000012901D001207047022180F83D1001689D
:100F3000CA6842F00102CA6000680B49884208D0C2
:100F4000B0F1804F05D00949884202D00849884253
:100F500004D1816801F00701062903D0016841F03E
:100F60000101016000207047002C01400004004096
:100F700000080040704770B50446006801694FF0F2
:100F80000005C943890715D4C168C943890711D42D
:100F9000E91E0161012020772068806980072046D2
:100FA00002D0FFF7E7FF04E000F098F8204600F0D9
:100FB00096F8257720680169C943490717D4C168A5
:100FC000C943490713D46FF004010161022020775F
:100FD0002068806910F4407F204602D0FFF7CAFFE6
:100FE00004E000F07BF8204600F079F825772068CF
:100FF0000169C943090716D4C168C943090712D456
:101000006FF008010161042020772068C069800723
:10101000204602D0FFF7AEFF04E000F05FF8204664
:1010200000F05DF8257720680169C943C90617D427
:10103000C168C943C90613D46FF0100101610820CB
:1010400020772068C06910F4407F204602D0FFF767
:1010500091FF04E000F042F8204600F040F82577C8
:1010600020680169C943C90708D1C168C943C907D4
:1010700004D1891E0161204600F032F82068016920
:10108000C943090609D4C168C943090605D46FF0EC
:10109000800101612046FFF711FF20680169C94303
:1010A000490609D4C168C943490605D46FF0400117
:1010B0000161204600F01BF820680169C9438906D8
:1010C0000BD4C168C943890607D46FF020010161C0
:1010D0002046BDE87040FFF7F2BE70BD7047704714
:1010E0000068B0F1804F01D1FFF792BB70477047A5
:1010F00070477047F8B5016804460868CA684B69CC
:1011000010F00F0F4FF0000559D003F0010602F464
:101110009077374365D0C10705D0D10503D5616C01
:1011200041F001016164410705D5D90703D0616C25
:1011300041F002016164810705D5D90703D0616CD4
:1011400041F004016164010707D502F02001314339
:1011500003D0616C41F008016164616C00293AD0F0
:10116000800604D5900602D5204600F05EFB20687C
:101170004069616CC0F38010090700D460B3204659
:1011800000F02CFB20684069400621D5206814300F
:1011900050E8001F21F0400140E80012002AF5D17C
:1011A000E06BA8B16D494163E06BFFF7D7F9002808
:1011B00011D0E06B416B01B0BDE8F04008478306F9
:1011C0000FD593060DD52046BDE8F84000F02DBBA5
:1011D0002046FFF78EFFF8BD2046FFF78AFF6564C3
:1011E000F8BD266B2023012E7CD1C6067AD5D60603
:1011F00078D508684868009048694FF002064006B4
:1012000040D5E16B086840680004000CE8D0A28D6E
:101210008242E5D9E085886920282DD020680C30ED
:1012200050E8001F21F4807140E80012002AF5D137
:101230002068143050E8001F21F0010140E800123E
:10124000002AF5D12068143050E8001F21F0400139
:1012500040E80012002AF5D184F842302563206866
:101260000C3050E8001F21F0100140E80012002A65
:10127000F5D1E06BFFF74EF96663A08DE18D401A62
:1012800081B22AE0A08DE18D401A81B2E08D002864
:10129000A6D00029A4D022680C3252E8000F20F416
:1012A000907042E80007002FF5D12068143050E814
:1012B000002F22F0010240E80027002FF5D184F82A
:1012C0004230256320680C3050E8002F22F01002D5
:1012D00040E80023002BF5D166632046FFF708FFA6
:1012E000F8BDFFE705062BD5150629D594F8410072
:1012F0002128F5D1A068B0F5805F01D12069B0B197
:10130000206A411C2162216800784860E08C401E00
:101310000004000CE084E3D12068C16821F0800162
:10132000C1602068C16841F04001C160D8E7206A0F
:101330000088C0F308004860206A801C2062E5E74E
:101340004006CDD55006CBD5CA68204622F04002D3
:10135000CA6084F8413000F0C3F8C1E7CD17000837
:1013600070B5040004D094F84100002510B106E0E7
:10137000012070BD84F84050204600F023F824205E
:1013800084F841002068C16821F40051C160204602
:1013900000F0ACFA2068016921F4904101612068F5
:1013A000416921F02A0141612068C16841F400517E
:1013B000C1606564202084F8410084F842006563C0
:1013C000002070BD30B585B00024009401940294D3
:1013D00003940068184988422CD11848C16941F427
:1013E0008021C161C16901F480210491816941F0CA
:1013F000080181618069124D00F0080004904FF4EB
:1014000080600090022001900320039069462846E6
:10141000FFF7FEF8E814CDE9000469462846029477
:10142000FFF7F6F8002205212720FFF789FA272089
:10143000FFF778FA05B030BD0048004000100240C8
:10144000000C014070472DE9F843044690F8410034
:101450001F4616460D46202802D00220BDE8F8831C
:101460007DB176B100206064212084F84100FFF74F
:10147000C9F9A6848046E684A068B0F5805F02D0F2
:1014800003E00120EAE7206910B12E4600250EE0B6
:1014900000260CE08021204600F084FAA0B9AEB10D
:1014A00016F8010B21684860E08C401EE084E08C57
:1014B00043464FF0000200970028EBD14FF0400167
:1014C000204600F06FFA30B10320C7E735F8020B71
:1014D000C0F30800E6E7202084F841000020BDE7C3
:1014E00070470000014908607047000000000020BC
:1014F00070B5094C0546206800280BD02846FEF739
:10150000AFFE82B229462068BDE870404FF0FF333D
:10151000FFF799BF70BD000000000020FEE700004B
:1015200010B501210D4A084600F02EFB0C4C0B4A69
:10153000002160616C3A0B4800F0B6FB074AA060DE
:10154000483A0021084800F0AFFB044AE060243A22
:101550000021064800F0A8FB206110BD58390008A2
:10156000040000208D170008B9290008492B000845
:101570002DE9F04186B00024304800940194029493
:101580000394816941F010018161816901F01001CA
:101590000491816941F020018161816901F020019C
:1015A0000491816941F004018161816901F00401C4
:1015B0000491816941F0080181618069012200F094
:1015C00008001F4F5503049029463846FFF715F9C8
:1015D000DFF8708001220F214046FFF70EF9012647
:1015E000CDE90056022569463846CDE90245FFF7A8
:1015F0000FF80F20CDE9000669464046CDE90245C7
:10160000FFF706F8F02000900F48CDE90105694684
:101610004046FEF7FDFF002205210A20FFF790F962
:101620000A20FFF77FF9002205211720FFF788F92C
:101630001720FFF777F906B0BDE8F08100100240EF
:101640000010014000080140000011100C4810B5C6
:101650000A4901604FF4E1314160002181600C22B0
:10166000C160C0E904128161C161FFF779FE002801
:1016700003D0BDE81040FEF74BBF10BD004800404E
:10168000A4000020FEE7FEE710B5502080F311888B
:10169000BFF34F8FBFF36F8F01F042FF18B10449C2
:1016A0004FF080500860002080F3118810BD0000CA
:1016B00004ED00E030B58FB028216846FEF73CFE0F
:1016C00014210AA8FEF738FE01210804CDE9001014
:1016D0000024029402250491CDE907504FF4E01054
:1016E00009906846FFF75AFA08B172B6FEE70F2074
:1016F000CDE90A054FF48060CDE90C4002210AA82B
:101700000E94FFF74FF9002801D072B6FEE70FB034
:1017100030BD70470148FFF72EBC0000EC000020F0
:10172000F0B50268164B174C174D4FF080479842A2
:1017300005D0B84203D0A04201D0A84203D122F084
:1017400070064A683243984205D0B84203D0A0429E
:1017500001D0A84203D122F44074CA6822434C69E4
:1017600022F08002224302608A68C2620A688262B2
:10177000984201D10969016301214161F0BD000076
:10178000002C014000040040000800400D4F0E4CAA
:101790004FF400560A25608801280AD00A2804D090
:1017A000A0880A2801D06580A580012000F05CF99E
:1017B000F1E7A0880128F3D1002231463846FFF72F
:1017C0001CF8F0E7001001400400002010B5406A4A
:1017D0000021C185C184FFF78CFC10BD01680C316C
:1017E00051E8002F22F4907241E80023002BF5D13C
:1017F0000168143151E8002F22F0010241E8002372
:10180000002BF5D1016B012909D101680C3151E898
:10181000002F22F0100241E80023002BF5D12021F7
:1018200080F8421000210163704708B590F842101B
:10183000222901D0022008BD82684FF480539A42C9
:1018400001D1016921B1816A9A421BD04AB10AE0F3
:101850000268816A5268C2F308020A80816A891CA0
:1018600008E0026972B10268526802F07F020A70F1
:10187000816A491C8162C18D491E0904090CC18518
:1018800003D01BE002685268F1E70168CA6822F0E1
:101890002002CA600168CA6822F48072CA600168C6
:1018A0004A6922F001024A61202180F84210002199
:1018B0004163026B012A03D0FFF7C4FD002008BD7D
:1018C000016301680C3151E8002F22F0100241E859
:1018D0000023002BF5D101680A68D20602D50A68F8
:1018E00049680091818DFFF703FCE7E770B5044676
:1018F00000680169E26821F44051114301612169E6
:10190000A0680843616908432168CA6841F20C6312
:101910009A430243CA6020684169A26921F4407178
:10192000114341611E492068884202D1FFF700F946
:1019300001E0FFF7EDF800EBC00101EB0012606879
:1019400064218000B2FBF0F3B3FBF1F36FF01806F3
:101950007343B2FBF0F5B2FBF0F605EB83053223DF
:1019600003EB0515B5FBF1F5B6FBF1F605F0F00557
:1019700005EB0615B2FBF0F6B2FBF0F0B0FBF1F0B0
:101980006FF01802504306EB800003EB0010B0FB31
:10199000F1F0216800F00F002844886070BD00005D
:1019A000003801402DE9F041984617460E4604469E
:1019B000069D27E0681C25D02DB1FEF723FFA0EB84
:1019C0000800A8421ED920680C3050E8001F21F4FE
:1019D000D07140E80012002AF5D12068143050E898
:1019E000001F21F0010140E80012002AF5D120205B
:1019F00084F8410084F84200002084F8400003206D
:101A0000BDE8F0812068006836EA000004D00020BC
:101A1000B842CFD00020F3E70120F9E70148FFF7F3
:101A200069BB0000A4000020FEE70907090E00289A
:101A300004DB00F1E02080F80014704700F00F0094
:101A400000F1E02080F8141D7047FEF7E9FEFFF773
:101A500031FEFFF78DFDFFF7F9FD00F01FF8FFF7EE
:101A60005FFD00F037F8FEE710B5EFF3058149B9E7
:101A7000EFF3108131B908490968022905D1EFF364
:101A8000118111B16FF0050403E0002408B100F0EA
:101A9000E3FE204610BD00007C000020EFF305802F
:101AA00058B9EFF3108040B909490868022801D0FD
:101AB00030B109E0EFF3118030B16FF005007047ED
:101AC00001200860002070474FF0FF307047000091
:101AD0007C00002010B5EFF3058060B9EFF31080B3
:101AE00048B90B490868022802D0012806D00BE04B
:101AF000EFF3118040B16FF0050010BD02200860C7
:101B000000F0A4FF002010BD4FF0FF3010BD00001A
:101B10007C000020F8B50D460024211F4E1C002833
:101B20000ED000BFEFF305824AB9EFF3108232B94D
:101B3000134A1268022A17D1EFF31182A2B10DB134
:101B40000C461BE000216A46009101F039FB012898
:101B500013D1009890B10B494FF080500860BFF34B
:101B60004F8FBFF36F8F09E0294601F077FB012803
:101B700004D015B16FF0010400E034462046F8BDF2
:101B80007C00002004ED00E0F8B5144603460E4644
:101B90004FF00005EFF30580E8BBEFF31080D0BBFA
:101BA00024480068022802D1EFF3118098BB93B358
:101BB0009E423DD84CB1A0680028E06803D0502870
:101BC00036D3012002E008B132E00020012B05D01D
:101BD00010B31846A26801F040F820E040B103209D
:101BE0000090002211460120A36801F07AF804E079
:101BF00003220021012001F050F8050018D086B121
:101C000000231A46194601F0E3F8012809D02846B6
:101C100000F0D4FD00250BE0184601F001F80500A6
:101C200006D00CB1216800E00021284600F0B2FD8A
:101C30002846F8BD7C00002038B50024E51E0028A9
:101C400004D000BFEFF3058169B902E06FF003042F
:101C500023E0EFF3108131B911490968022914D149
:101C6000EFF3118189B100210091694601F0BEF9BD
:101C7000012811D1009880B10A494FF080500860C6
:101C8000BFF34F8FBFF36F8F07E000231A4619464B
:101C900001F09EF8012800D02C46204638BD0000F7
:101CA0007C00002004ED00E0F0B585B04FEA0103B0
:101CB0004FF00004EFF305810394A1BBEFF3108113
:101CC00089BB21490968022902D1EFF3118151BB77
:101CD00048B3802618218DF8104004AD42B3176830
:101CE00007B13D4697691FB139467F1E382F02D292
:101CF0001779FF0702D0002005B0F0BD576907B182
:101D0000BE08D2F808C0BCF1000F0DD0D4685C2C1E
:101D100018D312693AB137B18DE806103246294618
:101D200001F0BFFB03900DE0D7685FB912694AB9B3
:101D300003AACDE90012B2B2294601F085FB0128C1
:101D400000D003940398D7E77C0000202DE9F041F0
:101D5000134C0F46054666692068001D00F020FC04
:101D6000681C07D137B12168BDE8F0410D48091D55
:101D700000F066BC20683544B5424560216805D254
:101D8000A068BDE8F041091D00F042BC6068091D73
:101D900000F03EFC206B854200D22563BDE8F08157
:101DA0002C000020240600202DE9F041054600F01B
:101DB00053FC2D4C2069401C206120682B4F10B132
:101DC000E06930B32BE025602069012827D1002687
:101DD00006EB860007EB800000F00CFC761C382E2A
:101DE000F6D3234800F006FC2148143000F002FC32
:101DF0001F48283000F0FEFB1D483C3000F0FAFB85
:101E00001B48503000F0F6FB194860601430A060A9
:101E100005E02068E96AC06A884200D82560E06A67
:101E2000401CE0626864E86AA169884200D9A06148
:101E300000EB800007EB8000291D00F001FC00F0A2
:101E40002BFCE06900280CD02068E96AC06A88424F
:101E500007D208494FF080500860BFF34F8FBFF39F
:101E60006F8FBDE8F08100002C000020740100207D
:101E7000D405002004ED00E038B500F0EDFB104C77
:101E8000A068C8B90F4800F0B5FB0E48143000F048
:101E9000B1FB0C482060143060600A4B00202833EE
:101EA000009003F1500210210A2000F01AFFA060F8
:101EB00010B105A100F06EFCBDE8384000F0ECBBAD
:101EC0006800002038060020546D725100000000A8
:101ED00030B4026C0B46002A0BD0C1681144C160BB
:101EE0004468A14201D30168C16030BC1846FEF7C6
:101EF000D6B930BC70472DE9F041856B17460446D2
:101F00000026026C82B1C7B1E068FEF7C8F9E1684B
:101F1000206C091AE1602268914202D26168081AB5
:101F2000E060022F16D017E02068A8B9606801F0C1
:101F30005BFB0646002060600EE0A068FEF7AFF98C
:101F4000216CA0680844A0606168884204D32068BE
:101F5000A06001E005B16D1E6D1CA5633046BDE8B3
:101F6000F08110B5044690F8590058B101280CD002
:101F700002280FD0502080F31188BFF34F8FBFF39A
:101F80006F8FFEE7206B00F09BFB2046BDE8104002
:101F900000F096BB10BD00000F4842F210714207DE
:101FA00005D0C01D0C4A20F00700821A891A0B4A7E
:101FB00000230144C2E900030839103A21F0070167
:101FC00011604B600B600B1AC0E9001393604FF077
:101FD00000405360D0607047080E00209000002041
:101FE000144E154CA6F29C474FF08058DFF84C90E9
:101FF00012E000BF00F030FBF068C568281D00F05B
:10200000CFFA2069401E2061E068401EE06000F0C9
:1020100043FB2846FFF7A5FFE0680028EAD13868AF
:102020000128F9D9C9F80080BFF34F8FBFF36F8F34
:10203000F2E70000100600202C00002004ED00E074
:1020400070B51D46049C51B1C4F80020C4E90F01CD
:102050000121204600F078FE84F84C5070BD2460C9
:10206000F4E72DE9F0470E46DDE90984174682467C
:1020700091009946089DA522206BFEF755F96FF057
:102080000301206B01EB8701084420F00707780764
:1020900007D0502080F31188BFF34F8FBFF36F8FAD
:1020A000FEE72218315C82F83410315C11B1401C1B
:1020B0001028F6D3002684F84360382D00D3372546
:1020C000E562C4E91356201D00F09FFA04F11800E0
:1020D00000F09BFA2461C5F138006462A061666576
:1020E00084F858604A465146384600F047FA206066
:1020F000B8F1000F01D0C8F80040BDE8F08700003B
:1021000030B5114900E011460A688242FBD34B68A2
:102110005C18844203D1406818444860084643680C
:102120001C18944209D1084C103C2468A24209D0E2
:1021300052681A4442600A6812680260814200D004
:10214000086030BD0460F9E79000002070B50024FD
:1021500041600B4D0061914206D8D11A82699142CB
:1021600006D2011D686807E09A4203D2994201D362
:10217000012403E0011D286800F04AFA204670BDE2
:102180006800002010B5044600F066FAA06B28B184
:102190005FF0000400F080FA204610BD0124F9E74A
:1021A00030B589B0304D55E00498002806DADDE9F5
:1021B0000601059A9047049800284BDB069C60694D
:1021C00010B1201D00F0ECF902A800F0B9F80246A9
:1021D00004980A283ED2DFE800F00505053D2637C1
:1021E00005053D260598A169034601442046FFF7F1
:1021F000ADFF00B3616A20468847E069012829D114
:10220000002000900598A169002342181946204635
:1022100001F030FB78B9502080F31188BFF34F8F65
:10222000BFF36F8FFEE70598A06128B181181346B0
:102230002046FFF78BFF0DE0502080F31188BFF39D
:102240004F8FBFF36F8FFEE794F82C0010B9204634
:1022500000F036FA002204A9A86800F015FF002853
:10226000A2D109B030BD0000680000202DE9FC417A
:102270000F46054600F02EFC01A800F061F8044668
:10228000019818B101F064FABDE8FC81224EAFB1AB
:1022900070680068A8B30027291B3A46B06800F0B0
:1022A000B9FA01F055FA0028EED11C494FF08050E0
:1022B0000860BFF34F8FBFF36F8FE5E7A542EBD800
:1022C00001F046FA30682746C068C468201D00F057
:1022D00067F9E069012810D1A0692B4641193A46F7
:1022E0002046FFF733FF40B100200346014600902F
:1022F0002A46204601F0BEFA20B1616A204688478E
:10230000C2E707E0502080F31188BFF34F8FBFF37F
:102310006F8FFEE70127BFE76800002004ED00E0B3
:1023200006484168096829B14168C968C9684968AF
:10233000016370474FF0FF31FAE700002C000020E6
:1023400070B5054601F0E6F8064E04463069844251
:1023500003D200F009F8012000E0002028602046A8
:10236000346170BD68000020F8B5194D1FE0C068E9
:10237000C4680668201D00F013F9616A204688478A
:10238000E069012813D1A0693044B04206D9246124
:102390006060211D286800F03BF908E0002003463A
:1023A000014600903246204601F064FA38B12868B0
:1023B00001680029DBD16968C5E90010F8BD50202B
:1023C00080F31188BFF34F8FBFF36F8FFEE70000DC
:1023D0006800002008484068401C4FF0500080F31F
:1023E000118804D0BFF34F8FBFF36F8FFEE7BFF3A9
:1023F0004F8FBFF36F8FFEE798000020074C2068D7
:10240000016841B1C0680021D0F80000FFF72EFF3D
:10241000FFF7C6FEF3E701210020F7E76800002080
:102420002DE9F041044600F017F994F9455004F104
:10243000240609E0606A48B1304601F051F908B15C
:1024400000F038FA6D1E6DB2002DF3DC4FF0FF3650
:1024500084F8456000F020F900F0FEF894F944504B
:1024600004F1100709E0206948B1384601F038F955
:1024700008B100F01FFA6D1E6DB2002DF3DC84F878
:102480004460BDE8F04100F007B900002DE9F041DB
:102490000546002700F01EFB314E306808B9FFF7F3
:1024A0007BFDF06805424BD1C5B3083568070ED0F7
:1024B00005F00700C0F108000544680707D0502068
:1024C00080F31188BFF34F8FBFF36F8FFEE72DB3FB
:1024D0007068854234D82248103001460C6801E00B
:1024E00020460C466168A94202D221680029F7D132
:1024F00031688C4224D00768216801606068083721
:10250000411B10290FD96019420708D0502080F3D1
:102510001188BFF34F8FBFF36F8FFEE710E041606C
:102520006560FFF7EDFD61687068401A7060B26821
:10253000904200D2B060F06801430020C4E900017D
:1025400001F006F9780707D0502080F31188BFF317
:102550004F8FBFF36F8FFEE73846BDE8F081000074
:10256000800000200449086818B10868026D521CF8
:1025700002650868704700002C00002010B5031F9A
:102580004FF080741C601B1F21F001011960191F9E
:10259000024B0B60143940380A6010BDD523000887
:1025A000D0E9013201699A60D0E901235A604A6892
:1025B000824201D182684A60002202610868401E9E
:1025C0000860086870470000034B036003F15C007B
:1025D000086080201060704750070020044B0360A3
:1025E00003F15C0008604FF48070106070470000D9
:1025F000AC09002000F108014FF0FF32C0E90112E0
:10260000C1600161002101607047002101617047D4
:1026100030B50B685A1C02D000F1080202E00269D2
:1026200004E02246546825689D42FAD953684B60FD
:1026300099608A60516008610168491C016030BD81
:1026400042684A6093688B60936859609160086142
:102650000168491C01607047502080F31188BFF366
:102660004F8FBFF36F8F0A494868401C48600128AC
:102670000CD10848006810F0FF0F07D0502080F3FD
:102680001188BFF34F8FBFF36F8FFEE770470000D5
:102690009800002004ED00E00849486828B1401E79
:1026A000486001D180F311887047502080F3118871
:1026B000BFF34F8FBFF36F8FFEE70000980000203D
:1026C00070B5002827D0144DA0F108046168E868AF
:1026D000014207D1502080F31188BFF34F8FBFF321
:1026E0006F8FFEE722683AB1502080F31188BFF364
:1026F0004F8FBFF36F8FFEE78143616000F0EAF90F
:1027000060686968084468602046FFF7F9FCBDE826
:10271000704001F01DB870BD800000204FF0E02037
:1027200000210161816105494FF47A720968B1FBAA
:10273000F2F1491E41610721016170472800002024
:1027400010B5FDF769FD114910280ED300F1E02006
:1027500090F8F0030A78904207D2502080F3118855
:10276000BFF34F8FBFF36F8FFEE70948006889689A
:1027700000F4E060884207D9502080F31188BFF34D
:102780004F8FBFF36F8FFEE710BD00009800002051
:102790000CED00E010B5084B002200BF53F83240AA
:1027A0001CB1521C082AF9D310BD43F8321003EBB8
:1027B000C201486010BD00003401002010B50400C3
:1027C0000AD000F013F894F8460000280CD12046F7
:1027D000BDE81040FFF774BF502080F31188BFF3AD
:1027E0004F8FBFF36F8FFEE710BD0000084A002136
:1027F00002EBC1035B68834206D1002042F831003E
:1028000002EBC10148607047491C0829F0D37047AA
:102810003401002070B515460E460446FFF71CFF34
:1028200094F944100020491C01D184F8440094F923
:102830004510491C01D184F84500FFF72DFFA06B1E
:1028400028B92A46314604F1240000F051F8204608
:10285000BDE87040FFF7E4BD10B5020014D00F488A
:10286000806B38B1502080F31188BFF34F8FBFF3D6
:102870006F8FFEE700F02EF900211046FFF766FA91
:1028800000F066FF002807D105494FF0805008602E
:10289000BFF34F8FBFF36F8F10BD00002C000020DF
:1028A00004ED00E002498A6A0260496941607047AC
:1028B0002C00002001490120486270472C000020B4
:1028C00010B50C4650B1094909681831FFF7A0FE50
:1028D0002046BDE810400121FFF738BA502080F3B0
:1028E0001188BFF34F8FBFF36F8FFEE72C000020DE
:1028F00070B514460D4668B10A4909681831FFF7EA
:102900009FFE0CB14FF0FF3521462846BDE87040D0
:10291000FFF71CBA502080F31188BFF34F8FBFF32D
:102920006F8FFEE72C00002070B504003ED0226DB2
:10293000A2B1E06C884200D30146E06A884235D0FB
:10294000012A33D11A4D2A6894420FD1502080F3C6
:102950001188BFF34F8FBFF36F8FFEE7502080F3D6
:102960001188BFF34F8FBFF36F8FFEE7E162A2695B
:10297000002A02DBC1F13801A1610E4E00EB80009C
:10298000616906EB8000814210D1201DFFF708FE2F
:10299000E06AA969884200D9A86100EB800006EBD3
:1029A0008000211DBDE87040FFF74ABE70BD0000E9
:1029B0002C00002074010020214886B0214ED0E96F
:1029C0000012CDE90312D0E90210CDE900101E4C2F
:1029D0004FF0FF3A51466069FFF79CF80028F9D1A3
:1029E00000220F213046FDF708FF0025A8460DF113
:1029F0000C096F4639F8151001223046FDF7FDFE2F
:102A00000120FFF731F8404684F80080C0B237F863
:102A100010103046FDF7ECFE01280DD02078401C48
:102A2000C0B220700428F1D360880A28D2D16D1C6E
:102A3000EDB2042DDED3CDE765802078A080F3E7EA
:102A4000DC380008000801400400002030B587B0E1
:102A50000024039405AA04A903A80494FFF7B4FD75
:102A6000DDE903010094CDE90110002315A1174809
:102A7000059A00F016FD164D002868631FD000F07F
:102A8000C9FE012809D0401C19D1502080F31188BB
:102A9000BFF34F8FBFF36F8FFEE7502080F3118895
:102AA000BFF34F8FBFF36F8F4FF0FF3028630120CC
:102AB000E8616C6107B0BDE8304000F05DB807B078
:102AC00030BD000049444C4500000000E11F0008F3
:102AD0002C0000200248816B491C81637047000074
:102AE0002C000020164810B5816B11B10121416204
:102AF00010BD002141628169124A01E0B9B1491E4D
:102B000001EB810352F82330002BF7D001EB810356
:102B100002EB830202F1080453685B685360A3422E
:102B200001D15B685360DA680260816110BD50209A
:102B300080F31188BFF34F8FBFF36F8FFEE7000064
:102B40002C000020740100200548FEF7CBFC4FF458
:102B50007A7404A0FEF7CCFC2046FEF785FFF8E768
:102B6000A400002048656C6C6F2046726565525465
:102B70004F53210D0A0000001CB52649087801902A
:102B8000FF20087008788DF800009DF800009DF87F
:102B9000002000F0F000904207D0502080F3118810
:102BA000BFF34F8FBFF36F8FFEE79DF800001A4B06
:102BB00000F0500018700720986005E09DF8002094
:102BC00052008DF80020401E9DF800201206F5D41A
:102BD0009860032807D0502080F31188BFF34F8FEF
:102BE000BFF36F8FFEE74FF4407098600198087054
:102BF0000A48016841F470010160016841F07041C8
:102C00000160FFF78BFD00205860FDF7CFFA002030
:102C10001CBD000000E400E09800002020ED00E072
:102C200010B50C4648B184420FD9502080F311886A
:102C3000BFF34F8FBFF36F8FFEE7502080F31188F3
:102C4000BFF34F8FBFF36F8FFEE70222002100F02A
:102C500024F8002800D0846310BD38B50C4648B174
:102C600084420FD9502080F31188BFF34F8FBFF3F8
:102C70006F8FFEE7502080F31188BFF34F8FBFF3B3
:102C80006F8FFEE70221134600220091114600F0EB
:102C900028F8002800D0846338BDF8B517460E46E2
:102CA000050014D0DEB105FB06F05030FFF7EEFB57
:102CB00004000AD0002084F8460004F150023B468C
:102CC000314628460094FFF7BBF92046F8BD502056
:102CD00080F31188BFF34F8FBFF36F8FFEE70020A3
:102CE000E3E738B5049D18B153B1CAB181B120E012
:102CF000502080F31188BFF34F8FBFF36F8FFEE733
:102D0000502080F31188BFF34F8FBFF36F8FFEE722
:102D1000502080F31188BFF34F8FBFF36F8FFEE712
:102D200039B1502080F31188BFF34F8FBFF36F8FFD
:102D3000FEE750241C46012384F846302B460094BD
:102D4000FFF77EF9204638BD70B50D46040025D04A
:102D5000FFF782FCD4E90F20216802FB00116160BB
:102D60000021A1632168A1600A46D4E90F01401E39
:102D700000FB0121E16021464FF0FF3001F8440FD4
:102D8000487004F110008DB1FFF734FC04F1240009
:102D9000FFF730FCFFF780FC012070BD502080F36E
:102DA0001188BFF34F8FBFF36F8FFEE721690029B2
:102DB000F0D000F095FC0028ECD004494FF0805092
:102DC0000860BFF34F8FBFF36F8FE3E704ED00E0C0
:102DD0002DE9FF4782B01D468A464FF000080400E7
:102DE00003D0BAF1000F08D011E0502080F3118811
:102DF000BFF34F8FBFF36F8FFEE7206C38B15020C9
:102E000080F31188BFF34F8FBFF36F8FFEE7022D62
:102E10000AD1E06B012807D0502080F31188BFF35E
:102E20004F8FBFF36F8FFEE700F066FB3F4F4FF011
:102E300000094FF0805648B9049838B1502080F30B
:102E40001188BFF34F8FBFF36F8FFEE7FFF704FCCE
:102E5000A06BE16B884207D3022D05D00498D0B156
:102E6000B8F1000F1AD01EE02A4651462046FFF75F
:102E700042F8616A19B104F1240000F031FC20B17C
:102E80003E60BFF34F8FBFF36F8FFFF705FC01204C
:102E900006B0BDE8F087FFF7FFFB22E06846FFF7CA
:102EA00001FD4FF00108FFF7F7FBFFF713FEFFF7F7
:102EB000D3FB94F94400401C01D184F8449094F968
:102EC0004500401C01D184F84590FFF7E5FB04A9BB
:102ED000684600F07FFA30B12046FFF7A1FA00F013
:102EE00037FC0020D4E7FFF7B7FBA06BE16B88420B
:102EF00013D1FFF7D1FB04F110000499FFF7E0FCB8
:102F00002046FFF78DFA00F023FC00289ED13E609A
:102F1000BFF34F8FBFF36F8F98E7FFF7BDFB2046DE
:102F2000FFF77EFA00F014FC90E7000004ED00E0EB
:102F30002DE9F0471F4690468946040003D0B9F1B9
:102F4000000F08D011E0502080F31188BFF34F8F9D
:102F5000BFF36F8FFEE7206C38B1502080F31188EB
:102F6000BFF34F8FBFF36F8FFEE7022F0AD1E06BE5
:102F7000012807D0502080F31188BFF34F8FBFF393
:102F80006F8FFEE7FFF7DCFB5020EFF3118680F335
:102F90001188BFF34F8FBFF36F8FA06BE16B884237
:102FA00006D3022F04D0002086F31188BDE8F087F5
:102FB00094F945503A4649462046FEF79CFF681C66
:102FC00004D06D1C84F845500120EDE7606A0028AC
:102FD000FAD004F1240000F083FB0028F4D0B8F10B
:102FE000000FF1D00121C8F80010EDE770B50E46D2
:102FF000040009D0206C78B1502080F31188BFF311
:103000004F8FBFF36F8FFEE7502080F31188BFF31F
:103010004F8FBFF36F8FFEE7206848B9606838B103
:10302000502080F31188BFF34F8FBFF36F8FFEE7FF
:10303000FFF786FB5020EFF3118580F31188BFF373
:103040004F8FBFF36F8FA16BE06B884218D994F953
:103050004500491CA163411C04D0401C84F8450074
:1030600001200EE0606A0028FAD004F1240000F08C
:1030700037FB0028F4D0002EF2D001203060EFE7BB
:10308000002085F3118870BD2DE9F747002683B035
:103090008A46040003D0BAF1000F08D011E0502096
:1030A00080F31188BFF34F8FBFF36F8FFEE7206C63
:1030B00038B1502080F31188BFF34F8FBFF36F8F6B
:1030C000FEE700F019FADFF8F4804FF000094FF046
:1030D000805748B9059838B1502080F31188BFF364
:1030E0004F8FBFF36F8FFEE7FFF7B6FAA56BC5B141
:1030F00051462046FEF7ECFE6D1EA563206950B1D7
:1031000004F1100000F0ECFA28B1C8F80070BFF329
:103110004F8FBFF36F8FFFF7BFFA012006B0BDE8F6
:10312000F087059808B11EB106E0FFF7B5FA27E071
:103130006846FFF7B7FB0126FFF7AEFAFFF7CAFCB8
:10314000FFF78AFA94F94400401C01D184F84490B6
:1031500094F94500401C01D184F84590FFF79CFA92
:1031600005A9684600F036F9002820460AD0FFF786
:1031700057F900F0EDFA2046FFF704F80028B3D025
:103180000020CBE7FEF7FEFF90B104F12400059983
:10319000FFF796FB2046FFF743F900F0D9FA002825
:1031A000A2D1C8F80070BFF34F8FBFF36F8F9BE7BA
:1031B0002046FFF735F900F0CBFA95E704ED00E083
:1031C0002DE9F04790468946040003D0B9F1000F7D
:1031D00008D011E0502080F31188BFF34F8FBFF368
:1031E0006F8FFEE7206C38B1502080F31188BFF359
:1031F0004F8FBFF36F8FFEE7FFF7A2FA5020EFF378
:10320000118680F31188BFF34F8FBFF36F8FA76BC9
:10321000F7B194F9445049462046FEF759FE7F1E07
:10322000A763681C04D06D1C84F84450012010E092
:1032300020690028FAD004F1100000F051FA0028AB
:10324000F4D0B8F1000FF1D00121C8F80010EDE77B
:10325000002086F31188BDE8F08700002DE9F343D4
:10326000002683B00400354609D0206C78B1502088
:1032700080F31188BFF34F8FBFF36F8FFEE75020AD
:1032800080F31188BFF34F8FBFF36F8FFEE700F01D
:1032900033F9DFF83C814FF000094FF0805748B90F
:1032A000049838B1502080F31188BFF34F8FBFF3DB
:1032B0006F8FFEE7FFF7D0F9A06BC8B1401EA06387
:1032C000206810B9FFF74EF96060206950B104F131
:1032D000100000F005FA28B1C8F80070BFF34F8F56
:1032E000BFF36F8FFFF7D8F9012005B0BDE8F08379
:1032F000049808B166B10FE03DB1502080F3118809
:10330000BFF34F8FBFF36F8FFEE7FFF7C5F95DE0A7
:103310006846FFF7C7FA0126FFF7BEF9FFF7DAFBA9
:10332000FFF79AF994F94400401C01D184F84490C5
:1033300094F94500401C01D184F84590FFF7ACF9A1
:1033400004A9684600F046F80028204612D0FFF78E
:1033500067F800F0FDF92046FEF714FF0028A9D019
:103360009DB3FFF779F9606A50B3206B0068C0F134
:10337000380126E0FEF706FFE0B1206838B9FFF714
:103380006BF9606800F070F90546FFF785F904F104
:1033900024000499FFF794FA2046FFF741F800F063
:1033A000D7F9002886D1C8F80070BFF34F8FBFF35C
:1033B0006F8F7FE72046FFF733F800F0C9F979E710
:1033C00000216068FFF7B0FA9FE7FFE700208CE775
:1033D00004ED00E02DE9F0410C46050011D0C4B128
:1033E000FFF73AF9174B5A696E682068911B471C22
:1033F00017D02F689B6A9F4219D0964217D8012494
:1034000010E0502080F31188BFF34F8FBFF36F8F10
:10341000FEE7502080F31188BFF34F8FBFF36F8F0B
:10342000FEE70024FFF738F92046BDE8F081884226
:1034300005D9401A20602846FFF734FAF1E700204A
:103440002060DCE72C0000202DE9FF5F8346DDE9EA
:103450000E87994616468A469000FFF717F8050032
:103460001CD05C20FFF712F8040014D00020256364
:1034700084F85900CDE90240CDE900874B46324639
:1034800051465846FEF7EDFD2046FEF78DFC012023
:1034900004B0BDE8F09F2846FFF712F94FF0FF3067
:1034A000F6E7F0B585B0DDE90B640A9DA6B1DCB1A5
:1034B0005C2700972663022684F85960002604AF33
:1034C000CDE90246CDE90057FEF7CBFD2046FEF7D9
:1034D0006BFC049805B0F0BD502080F31188BFF359
:1034E0004F8FBFF36F8FFEE7502080F31188BFF33B
:1034F0004F8FBFF36F8FFEE70548C16919B1806B2D
:1035000018B100207047012070470220704700006A
:103510002C00002001484069704700002C0000206A
:103520002DE9F0412E4C0027A06B40B1206A401CD1
:103530002062606A00B101273846BDE8F081666903
:10354000761C666113D16068006838B1502080F342
:103550001188BFF34F8FBFF36F8FFEE76068A168DC
:103560006160A060A06A401CA062FEF7D9FE206BDB
:10357000DFF87080864209D36068006880B16068B7
:10358000C068C568686886420DD220632068C06A3A
:1035900000EB800158F821000128CAD90127C8E7AB
:1035A0004FF0FF30F1E7281DFEF7FAFFA86A18B1C7
:1035B00005F11800FEF7F4FFE86AA169884200D916
:1035C000A06100EB800108EB8100291DFFF738F8AE
:1035D000E86A2168C96A8842CED30127CCE7000097
:1035E0002C0000207401002070B504004FF0000191
:1035F00033D01B4D2868844207D0502080F31188B7
:10360000BFF34F8FBFF36F8FFEE7206D38B1401EC1
:103610002065E36CE26A9A421FD040B11DE0502061
:1036200080F31188BFF34F8FBFF36F8FFEE7201D2C
:10363000FEF7B6FFE06CE062C0F13800A061E06A1E
:10364000A969884200D9A861064900EB800001EB16
:103650008000211DFEF7F4FF0121084670BD000027
:103660002C0000207401002070B504004FF0000011
:103670002BD0194DE16A2A68D26A914226D2A069FC
:10368000002804DB2868C06AC0F13800A061134E2E
:1036900001EB8101606906EB8101884211D1201D97
:1036A000FEF77EFF2868C06AE062A969884200D9F7
:1036B000A86100EB800006EB8000211DFEF7C0FF33
:1036C00002E02868C06AE062012070BDE16C2A68EF
:1036D000D26A9142F8D370BD2C0000207401002002
:1036E00070B5C068C46854B104F118000646FEF70E
:1036F00057FF144DA86B50B13146134815E05020C8
:1037000080F31188BFF34F8FBFF36F8FFEE7201D4B
:10371000FEF746FFE06AA969884200D9A8610B4913
:1037200000EB800001EB8000211DFEF789FFE06ABD
:103730002968C96A884202D90120686270BD0020E8
:1037400070BD00002C000020FC050020740100204A
:103750002DE9F0472C4D00242746A86B38B1FEF721
:103760007BFFA86B401EA863A86B40B146E05020C9
:1037700080F31188BFF34F8FBFF36F8FFEE7296986
:10378000224E0120D1B3A6F5916980463068E0B1A0
:10379000F068C46804F11800FEF702FF201DFEF770
:1037A000FFFEE06AA969884200D9A86100EB8001A8
:1037B00009EB8100211DFEF743FFE06A2968C96A11
:1037C0008842E3D3C5F82480E0E70CB1FEF7A8FDFA
:1037D0002C6A4CB14FEA0806FFF7A2FE00B16E62F8
:1037E000641EF9D100202862686A38B108490127AF
:1037F00038070860BFF34F8FBFF36F8FFEF74CFFA2
:103800003846BDE8F08700002C000020FC050020B1
:1038100004ED00E010B586B0FEF72EFB114CA06859
:10382000B8B100200390049005AA04A903A8FEF7EC
:10383000D5FEDDE9032102208DE8070000230AA15F
:103840000B48059AFFF72DFEE06010B106B001208D
:1038500010BD502080F31188BFF34F8FBFF36F8FDF
:10386000FEE7000068000020546D7220537663006C
:10387000FD2300082DE9FF411E46134602000A9D64
:103880004FF0000016D0144CA768002F0FD0CDE9E0
:1038900000130292062917DAFFF72EFE02284FF0D6
:1038A00000030FD000226946A068FFF791FA04B028
:1038B000BDE8F081502080F31188BFF34F8FBFF334
:1038C0006F8FFEE72A46EEE7002332466946384608
:1038D000FFF72EFBEBE7000068000020010002006C
:1038E000040008001000200040008000B4390008E7
:1038F00000000000000000000000000000000000C8
:103900000002000020000000000000000000000095
:10391000AC390008000000000000000000000000BA
:103920000000000000020000100000000000000085
:1039300000000000943900080000000000000000B2
:10394000000000000000000000020000080000006D
:103950000000000000000000A03900080000000086
:103960000000000000000000010202030405060739
:1039700008090A0B0C0D0E0F1010000000000000CB
:10398000000001020304060708090000000001020C
:103990000304000075736172745461736B0000005E
:1039A00062696E61727953656D0000005363616EE8
:1039B000000000005461736B5F6D61696E00000070
:1039C000E039000800000020A400000028010008E1
:1039D000843A0008A4000020D43A00004401000802
:1039E0000000000000000A000A00000000000000C3
:1039F00000000000000000000000000001000000C6
:103A0000100000000000000000127A00000000001A
:103A100000000000000000000000000000000000A6
:103A20000000000000000000000000000000000096
:103A30000000000000000000000000000000000086
:103A40000000000000000000000000000000000076
:103A50000000000000000000000000000000000066
:103A60000000000000000000000000000000000056
:103A7000000000000000000000000000AAAAAAAA9E
:043A80000000000042
:04000005080000ED02
:00000001FF
