:020000040800F2
:10000000D03E00203D02000827250008391E0008C8
:1000100025250008B10A0008F52B000800000000A3
:10002000000000000000000000000000A501000822
:10003000B30A000800000000E901000811280008C8
:10004000570200085702000857020008570200082C
:10005000570200085702000857020008570200081C
:10006000570200085702000857020008570200080C
:1000700057020008570200085702000857020008FC
:1000800057020008570200085702000857020008EC
:1000900057020008570200085702000857020008DC
:1000A00057020008570200085702000857020008CC
:1000B0009D28000857020008570200085702000850
:1000C00057020008570200085702000857020008AC
:1000D0005702000857020008DD2B0008E92B000832
:1000E00057020008570200085702000800F002F803
:1000F00000F049F80AA090E8000C82448344AAF179
:100100000107DA4501D100F03EF8AFF2090EBAE876
:100110000F0013F0010F18BFFB1A43F0010318473B
:10012000D05D0000F05D0000103A24BF78C878C1AF
:10013000FAD8520724BF30C830C144BF04680C60ED
:10014000704700000023002400250026103A28BF35
:1001500078C1FBD8520728BF30C148BF0B60704739
:10016000642900F01F81752900F01C81732900F0BB
:10017000EE83002070471FB59DE8030000F01EFBD2
:100180001FBD10B510BD00F011FC1146FFF7F3FFC5
:1001900003F07DF800F02FFC03B4FFF7F2FF03BC7F
:1001A00000F060FC224B19680868B0E8F00F80F39B
:1001B0000988BFF36F8F4FF0000080F311884EF075
:1001C0000D0E70470000000006480068006880F3CC
:1001D000088862B661B6BFF34F8FBFF36F8F00DF41
:1001E00000BF00BF08ED00E0EFF30980BFF36F8FA1
:1001F0000F4B1A6820E9F00F106008B54FF050005F
:1002000080F31188BFF34F8FBFF36F8F04F09CF919
:100210004FF0000080F31188BDE8084019680868B5
:10022000B0E8F00F80F30988BFF36F8F704700BF0D
:1002300038000020EFF30580704700000948804730
:1002400009480047FEE7FEE7FEE7FEE7FEE7FEE7B8
:10025000FEE7FEE7FEE7FEE704480549054A064BD0
:10026000704700009B280008ED000008D0380020EF
:10027000D03E0020D03A0020D03A002070B506468B
:1002800000F080FA056806F10B0020F00704B44284
:100290009CBF002070BD2B466A68BAB11068A042AE
:1002A00010D304F1080188423CBF5068586007D35E
:1002B0005168101941601168091B01605860146091
:1002C000101D70BD13465268002AE7D1214628460A
:1002D00000F060FA0028DED170BD70B50446051F3D
:1002E00000F050FA0068002C14BF446870BD002C68
:1002F00018BFAC423CBF20466468F8D301680A18B6
:10030000AA4218BF456003D12A680546114401601E
:1003100028684119A1421CBF6C6070BD61686960AA
:1003200021680844286070BD0FB41CB5074B06AAAD
:100330007B4469460090059800F0DFFA002069468A
:1003400000F0EEFA1CBC5DF814FB0000ED050000A7
:1003500070B50C460546012A05D02878800600D5E0
:10036000EA69002302E0012305E05B1C934202D20C
:10037000E05C0028F9D1A869E618C01AA861286ACB
:10038000184428622846AFF3008004E0D5E9012133
:1003900014F8010B9047B442F8D32846AFF300801D
:1003A00070BD00002DE9F041064600241068752953
:1003B000314616A510D0AFF30080002802DA404283
:1003C00013A507E031688A0701D512A502E04907A5
:1003D00004D511A5012401E0AFF3008000210A2219
:1003E00006F1240709E0B0FBF2FCB0FBF2F302FBDC
:1003F0001C00303078541846491C0028F3D123469D
:100400002A463046BDE8F04100F019BA000000006D
:100410002D0000002B000000200000002DE9F05FFF
:10042000894604464FF0000ADFF824B1FB44C0F8C7
:1004300020A02046E168884700287DD0252806D0E6
:10044000D4E901219047206A401C2062F1E7002591
:100450005F462046E16888472028064607DB312EA4
:1004600005D2B81910F8200C08B10543F1E7A80728
:1004700001D525F00405C4F81CA00027C4F818A075
:100480002A2E09D0304602F0FBFE38B304EB870871
:10049000303EC8F8186019E059F8041B204604EBF8
:1004A00087029161E1688847012F064618D1E0690B
:1004B000002820DA25F020051DE0D8F8180000EB10
:1004C000800006EB40003038C8F818002046E1688C
:1004D0008847064602F0D4FE0028EED1012F0AD04C
:1004E0002E2E08D12046E16888477F1C0646022F41
:1004F00045F02005C4DBA069002803DA404245F03E
:100500000105A061E80701D025F01005A6B1A6F10C
:100510004100192802D8203645F400654A46314684
:10052000204625604D46FFF71BFE60B1012807D02D
:10053000ED1D25F0070000E007E000F1080978E76D
:1005400005F1040975E730467AE7206ABDE8F09FB7
:10055000DE580000401ECAB210F8011F8A4202D0C5
:100560000029F9D10020704710B5431E13F8014F40
:10057000002CFBD105E011F8014B002C03F8014BD6
:1005800003D0521EF7D20021197010BD30B50546B8
:100590000B462A4613F8014B12F8010B08B1A04292
:1005A000F8D01CB1002802D06D1CF1E7284630BD00
:1005B00010B5431C02E010F8011B71B18107FAD19C
:1005C0004FF0013202C88C1A8C4314EAC211F9D0E0
:1005D000C01A0A0603D0C01E10BDC01A10BD0A04FE
:1005E00001D0801E10BD0902FCD0401E10BD032AA0
:1005F00040F2308010F0030C00F0158011F8013B40
:10060000BCF1020F624498BF11F801CB00F8013B26
:1006100038BF11F8013BA2F1040298BF00F801CBEA
:1006200038BF00F8013B11F0030300F02580083AC1
:10063000C0F0088051F8043B083A51F804CBA0E818
:100640000810F5E7121D5CBF51F8043B40F8043B6D
:10065000AFF30080D20724BF11F8013B11F801CBA2
:1006600048BF11F8012B24BF00F8013B00F801CB73
:1006700048BF00F8012B704710B5203AC0F00B803E
:10068000B1E81850203AA0E81850B1E81850A0E896
:100690001850BFF4F5AF5FEA027C24BFB1E81850F0
:1006A000A0E8185044BF18C918C0BDE810405FEA60
:1006B000827C24BF51F8043B40F8043B08BF7047DC
:1006C000D20728BF31F8023B48BF11F8012B28BFE1
:1006D00020F8023B48BF00F8012B704702F0FF03EF
:1006E00043EA032242EA024200F002B84FF000025D
:1006F0000429C0F0128010F0030C00F01B80CCF134
:10070000040CBCF1020F18BF00F8012BA8BF20F8A1
:10071000022BA1EB0C0100F00DB85FEAC17C24BFF5
:1007200000F8012B00F8012B48BF00F8012B70479F
:100730004FF0000200B5134694469646203922BF7A
:10074000A0E80C50A0E80C50B1F12001BFF4F7AFC5
:10075000090728BFA0E80C5048BF0CC05DF804EBA7
:10076000890028BF40F8042B08BF704748BF20F815
:10077000022B11F0804F18BF00F8012B7047704713
:1007800070477047004870477438002070477047C2
:100790007047704738B504460A4600206946AFF3F3
:1007A0000080002808BF38BD02460099204600F0AE
:1007B000DBF8012038BD012000F0F0B8F8B5AFF348
:1007C0000080054600200C46102000BF0646A819F0
:1007D000A0420DD9324669460020AFF300800700E1
:1007E00008BF00F0DBF80098A04218BF0546C41906
:1007F000FFF7C8FF05600746F01D20F00700461907
:10080000284600F00AF8B44208BFF8BDA21B3146E2
:100810003868BDE8F84000F0A7B800210160C0E9E1
:10082000011070471020704710B500F099F800686B
:1008300010BD10B5044600F093F8046010BD2DE91A
:10084000F0470D4699469246044600F12408016897
:10085000880604D5E06921F01001216000E0012044
:10086000A84201DD471B00E00027A1697A1902EBCD
:100870000900081AA0612078C00602D42046AFF310
:100880000080002608E0D4E901211AF8060090470C
:10089000206A401C761C20624E45F4DB2078C0069E
:1008A0000AD52046AFF3008006E0D4E901213020CC
:1008B0009047206A401C2062381EA7F10107F4DC33
:1008C00007E0D4E9012118F805009047206A401C90
:1008D0002062281EA5F10105F3DC2046AFF300805D
:1008E0002078000602D50220BDE8F0870120FBE752
:1008F00001694A1C02610878704700B58FB0CDE9E4
:1009000001310021059105497944CDE903101146D3
:100910006846FFF783FD0FB000BD0000E5FFFFFF55
:100920000A6802F8010B0A60704710B5436913B1F9
:10093000AFF3008001E0FFF70BFD012010BD12783E
:1009400000F124010A7000224A700122EDE71168CB
:100950004FF0FF32E9E70000004870476C38002094
:10096000004870476C380020034640688C460028D9
:1009700018BF88423CBF03464068F8D31868184443
:10098000884207D00CF1030020F00700001D411A37
:10099000521A0146081D0A60FFF79FBC10B500F00F
:1009A00039F8BDE8104000F02FB870477546FFF7E2
:1009B000D3FFAE4605006946534620F00700854642
:1009C00018B020B5FFF748FCBDE820404FF0000606
:1009D0004FF000074FF000084FF0000B21F0070127
:1009E000AC46ACE8C009ACE8C009ACE8C009ACE86A
:1009F000C0098D46704710B50446AFF3008020460D
:100A0000BDE81040FFF7C8BB002801D000F02AB8AD
:100A10007047000010B5012805D0002103A000F0A8
:100A200027F8012010BD09A1F8E7000053494752FB
:100A3000544D454D3A204F7574206F6620686561AE
:100A400070206D656D6F7279000000003A20486576
:100A50006170206D656D6F727920636F7272757051
:100A60007465640001491820ABBEFEE72600020051
:100A700070B505460C460A2000E06D1C00F011F828
:100A800035B128780028F8D102E0641C00F009F89C
:100A900014B120780028F8D1BDE870400A20AFF3E7
:100AA000008008B569468DF800000320ABBE08BD84
:100AB000FEE7704710B54FF400710348FFF716FECC
:100AC00002490020488010BDB00000200000002036
:100AD00010B50446FFF7EEFF00F046F978B90CA117
:100AE0000D48FFF753FD30B13A21FFF733FD0028E1
:100AF00000D0401C10BD09A10D4801F08DF9052062
:100B000000F0B4F9641E2404240CE5D1002010BDCB
:100B10004950442C00000000B000002022495044FD
:100B200022206E6F7420666F756E640D0A000000DF
:100B3000F803002010B5012229492A4801F0F0F8F5
:100B4000FFF7B8FF28A12A4801F066F94FF4FA74BC
:100B500002E0204602F0ACFB26A127A000F0BEF880
:100B60000028F6D126A1224801F056F902E02046DD
:100B700000F07CF91FA125A000F0B0F80028F6D104
:100B800026A11B4801F048F902E0204600F06EF96A
:100B900018A126A000F0A2F80028F6D127A1144839
:100BA00001F03AF902E0204600F060F926A128A001
:100BB00000F094F80028F6D130A10D4801F02CF98E
:100BC00002E0204600F052F930A132A000F086F891
:100BD0000028F6D1BDE810403AA1054801F01CB943
:100BE00000000020B0030020312E2041540D0A00E7
:100BF000F80300204F4B000041540D0A0000000094
:100C0000322E2043574D4F44450D0A0041542B438B
:100C1000574D4F44453D310D0A000000332E204111
:100C2000542B4357444843500D0A000041542B4372
:100C300057444843503D312C310D0A00342E204397
:100C4000574A41500D0A0000474F542049500000B8
:100C500041542B43574A41503D225265646D6920EF
:100C60004E6F74652031322050726F222C226173D6
:100C7000646667313338220D0A000000352E2043A8
:100C8000495053544152540D0A000000434F4E4EF8
:100C90004543540041542B43495053544152543D11
:100CA00022544350222C226D717474732E68656334
:100CB0006C6F7564732E636F6D222C313838330D71
:100CC0000A000000362E204553503832363620496F
:100CD0006E6974204F4B0D0A0000000070B50D4680
:100CE0000146C8240B4801F097F80EE000F03CF8EC
:100CF00040B929460848FFF749FC18B1FFF7DAFE6A
:100D0000002070BD0A2000F0B1F8641EE4B2EDD2FC
:100D1000012070BDB0030020B000002030B5A7B0A6
:100D20000C460546FFF7C6FE224609A16846FFF7B6
:100D3000FBFA0BA16846FFF7D1FF002805D1642319
:100D400022462946074801F019F827B030BD0000B7
:100D500041542B43495053454E443D25640D0A00F0
:100D60003E000000B00300200648418831B182886F
:100D7000914205D10021418008467047012070470B
:100D80008180FBE70000002072B6FEE710B590F806
:100D900021100022022905D00421816380F820203F
:100DA000012010BD01680B6823F00E030B60016881
:100DB0000B6823F001030B6090F84030C46B0121F5
:100DC00001FA03F3636080F8211080F820201046B8
:100DD00010BD000010B590F821100024022903D0A6
:100DE0000421816301243DE001680A6822F00E02BB
:100DF0000A6001680A6822F001020A601A4A016862
:100E0000914201D1012121E0174A1432914201D1CE
:100E100010211BE0144A2832914201D1891515E0B6
:100E2000114A3C32914201D189140FE00E4A5032EE
:100E3000914202D14FF4803108E00B4A6432914272
:100E400002D14FF4801101E04FF08071064A083A58
:100E50005160012180F82110002180F82010416BA1
:100E600001B18847204610BD0800024070B5044615
:100E700000F008F90546601C02D0044800780444DC
:100E800000F000F9401BA042FAD370BD28000020FA
:100E90002DE9F84FDFF8B8910024A9F1040B23469F
:100EA0000F2709F1040AABF1040EC9E00125A540A2
:100EB0002A40AA427DD1674ED1F804C0ACEB0608A7
:100EC000B44532D014DCBCF1030F3AD009DCBCF1DC
:100ED000000F2AD0BCF1010F1CD0BCF1020F31D1A0
:100EE0001DE0BCF1110F17D0BCF1120F2AD119E08F
:100EF000B8F5881F19D006DCB8F5803F15D0B8F5D5
:100F0000801F1FD111E0B8F5001F0ED0B8F5041FE7
:100F100018D10AE0CB6815E0CB681B1D12E0CB6846
:100F200008330FE0CB680C330CE08B682BB1012B3E
:100F30004FF0080303D0456104E0042302E005619B
:100F400000E00023FF2A01D8064601E000F1040674
:100F50004FEA840501D9A5F12005D6F8008007FAEB
:100F600005FC28EA0C0803FA05F548EA0508C6F866
:100F700000804D68ED0062D5374DAE6946F0010640
:100F8000AE61AD6924F0030605F001050095334D0F
:100F900006EB050CDCF80850A607360F07FA06F832
:100FA00025EA0805DFF8B880404503D14FF0000876
:100FB00017E044E0DFF8AC80404502D14FF0010873
:100FC0000FE0DFF8A480404502D14FF0020808E0AE
:100FD000DFF89880404502D14FF0030801E04FF060
:100FE000040808FA06F848EA0508CCF808804D68B5
:100FF000D9F80060ED024D4601D5164300E0964356
:101000002E604D68DAF80060AD02554601D51643F2
:1010100000E096432E604D68DBF80060AD035D464E
:1010200001D5164300E096432E604D68DEF800605F
:10103000ED03754601D5164300E096432E60641C0F
:101040000D682A46E5407FF431AFBDE8F88F000017
:10105000080401400000111000100240000001408F
:1010600000080140000C0140001001400014014044
:101070008068084000D0012070470AB101617047C4
:101080000904FBE701488068704700002800002041
:10109000024881680278114481607047280000206E
:1010A000074810B5016841F010010160032000F00D
:1010B000A7F80F2000F006F800F050F8002010BD4F
:1010C0000020024030B50546204887B0C16941F094
:1010D0000101C161C06906A900F00100009001A8EA
:1010E00000F036F90498B8B100F052F94000184900
:1010F0004FF08042B0FBF1F11648491E026041609A
:1011000040F2E7320021C0E903218160816100F0F3
:1011100017FB040003D015E000F03AF9E7E70D48AB
:1011200000F03CFB04000DD11C2000F03BF8102D1A
:1011300007D2002229461C2000F042F8064805602C
:1011400000E0012407B0204630BD0000001002403E
:1011500040420F00400400202C0000200F4808B53A
:10116000816941F001018161816901F00101009112
:10117000C16941F08051C161C069002200F0805016
:1011800000900F21901E00F01BF80548416821F0E7
:10119000E06141F00071416008BD000000100240B4
:1011A00000000140002809DB00F01F0201219140EE
:1011B0004009800000F1E020C0F8001170470000F5
:1011C000F0B40E4B1B680C46C3F30223C3F10705B2
:1011D000042D00D90425191D072901D2002300E0A0
:1011E000DB1E012606FA05F1491E214099409E406A
:1011F000761E16403143F0BC01F011BD0CED00E04D
:10120000064900F0070208684FF6FF03184040EA5D
:101210000220034A10430860704700000CED00E014
:101220000000FA052DE9F0470F46050061D0434E56
:10123000306800F00700B84209D2306820F007009B
:1012400038433060306800F00700B84251D1286858
:101250003B4C810712D5400703D5606840F4E0603D
:1012600060602878000703D5606840F460506060D3
:101270006068A96820F0F000084360602878C00723
:1012800028D06868012810D02168022810D089076A
:1012900000292EDA616821F0030101436160FFF744
:1012A000F1FE804641F288390DE021688903EFE7BD
:1012B0008901EDE7FFF7E6FEA0EB0801494502D9F9
:1012C0000320BDE8F0876068696800F00C00B0EBAF
:1012D000810FEFD1306800F00700B8420BD93068B9
:1012E00020F0070038433060306800F00700B84253
:1012F00001D00120E5E72878400705D56068E96856
:1013000020F4E060084360602878000706D5606834
:10131000296920F4605040EAC100606000F058F88C
:101320006168084AC1F30311515CC840064908606E
:1013300006480068FFF7C6FE0020C2E70020024012
:1013400000100240F65C0008340000202C00002051
:101350000F2202600C4A536803F003034360536892
:1013600003F0F0038360536803F4E063C3605268E2
:101370004FF4E06303EAD20202610448006800F01F
:101380000700086070470000001002400020024083
:101390000448054900684968044AC1F30221515CC8
:1013A000C84070473400002000100240065D00086D
:1013B0000448054900684968044AC1F3C221515CE8
:1013C000C84070473400002000100240065D00084D
:1013D0000E4A51680E4801F00C03042B11D0082B63
:1013E0000FD10C48C1F38343C903C05C0AD55168CF
:1013F000084AC1F34041921E515C054A5043B0FB7C
:10140000F1F0704704494843704700000010024063
:1014100000127A00E65C000800093D002DE9F84F53
:10142000040070D02078C04DC00749D06868C0F370
:101430008100012807D06868C0F38100022809D123
:101440006868C00306D52868800339D5606800281D
:10145000E7D035E06068B0F5803F0BD010B1B0F553
:10146000A02F11D0286820F480302860286820F44C
:10147000802002E0286840F480302860606890B1E5
:10148000FFF700FE06460AE0286840F48020286046
:10149000F0E700BFFFF7F6FD801B642873D82868CB
:1014A0008003F7D50CE0FFF7EDFD064605E000BF31
:1014B000FFF7E8FD801B6428F0D828688003F7D484
:1014C00020789A4E80074FF001094FF0000839D577
:1014D000686810F00C0F07D06868C0F3810002281C
:1014E00009D16868C00306D42868800714D520692C
:1014F000012808D110E02069B0B1C6F80090FFF7CC
:10150000C1FD074605E00AE1FFF7BCFDC01B02284C
:10151000C4D828688007F7D52868616920F0F800EA
:1015200040EAC10028600DE0C6F80080FFF7AAFD80
:10153000074604E0FFF7A6FDC01B022823D8286851
:101540008007F7D4207800072CD57948A169D9B154
:10155000C0F80090FFF796FD074604E0FFF792FD04
:10156000C01B02280FD8686A8007F7D571484FF46E
:10157000FA510068B0FBF1F0009000BF0098411EE6
:101580000091FAD20EE080E0C0F80080FFF77AFD0B
:10159000074604E0FFF776FDC01B022875D8686A8D
:1015A0008007F7D42078400760D5E8690027C0009D
:1015B00008D4E86940F08050E861E869012700F04C
:1015C000805000905C480168C90513D401688346C7
:1015D00041F480710160FFF755FD824606E000BFCF
:1015E000FFF750FDA0EB0A0064284ED8DBF800009E
:1015F000C005F5D5E06801280AD008B1052813D048
:10160000286A20F001002862286A20F0040002E025
:10161000286A40F001002862E06841F2883B98B1F6
:10162000FFF730FD82460BE0286A40F00400286294
:10163000EEE700BFFFF726FDA0EB0A0159455AD897
:10164000286A8007F6D50CE0FFF71CFD824605E00E
:10165000FFF718FDA0EB0A0159454CD8286A80070E
:10166000F6D41FB1E86920F08050E861E06988B3E2
:101670006968C1F38101022944D00228C6F860805C
:1016800004D0FFF7FFFC044638E034E0FFF7FAFC33
:10169000074604E0FFF7F6FCC01B02282BD8286899
:1016A0008001F7D4206AB0F5803F05D16868A16851
:1016B00020F4003008436860D4E9080108436968F1
:1016C00021F4741108436860C6F86090FFF7DAFCF3
:1016D000044606E025E000BFFFF7D4FC001B02280B
:1016E00009D828688001F7D51BE000BFFFF7CAFCC6
:1016F000001B022802D90320BDE8F88F286880016A
:10170000F4D40EE00128F7D06868226A00F4803132
:10171000914204D1616A00F47010884201D0012026
:10172000EAE70020E8E70000001002400000424223
:10173000800442423400002000700040704770472F
:1017400010B5040003D094F83D0010B107E001206B
:1017500010BD002084F83C00204600F01EF8022056
:1017600084F83D00211D206801F09EF8012084F8D6
:10177000460084F83E0084F83F0084F8400084F876
:10178000410084F8420084F8430084F8440084F85F
:10179000450084F83D00002010BD704790F83D10D2
:1017A000012901D001207047022180F83D10016815
:1017B000CA6842F00102CA6000680B49884208D03A
:1017C000B0F1804F05D00949884202D008498842CB
:1017D00004D1816801F00701062903D0016841F0B6
:1017E0000101016000207047002C0140000400400E
:1017F00000080040704770B50446006801694FF06A
:101800000005C943890715D4C168C943890711D4A4
:10181000E91E016101202077206880698007204649
:1018200002D0FFF7E7FF04E000F098F8204600F050
:1018300096F8257720680169C943490717D4C1681C
:10184000C943490713D46FF00401016102202077D6
:101850002068806910F4407F204602D0FFF7CAFF5D
:1018600004E000F07BF8204600F079F82577206846
:101870000169C943090716D4C168C943090712D4CD
:101880006FF008010161042020772068C06980079B
:10189000204602D0FFF7AEFF04E000F05FF82046DC
:1018A00000F05DF8257720680169C943C90617D49F
:1018B000C168C943C90613D46FF010010161082043
:1018C00020772068C06910F4407F204602D0FFF7DF
:1018D00091FF04E000F042F8204600F040F8257740
:1018E00020680169C943C90708D1C168C943C9074C
:1018F00004D1891E0161204600F032F82068016998
:10190000C943090609D4C168C943090605D46FF063
:10191000800101612046FFF711FF20680169C9437A
:10192000490609D4C168C943490605D46FF040018E
:101930000161204600F01BF820680169C94389064F
:101940000BD4C168C943890607D46FF02001016137
:101950002046BDE87040FFF7F2BE70BD704770478B
:101960000068B0F1804F01D1FFF792BB704770471C
:1019700070477047F8B5016804460868CA684B6943
:1019800010F00F0F4FF0000559D003F0010602F4DC
:101990009077374365D0C10705D0D10503D5616C79
:1019A00041F001016164410705D5D90703D0616C9D
:1019B00041F002016164810705D5D90703D0616C4C
:1019C00041F004016164010707D502F020013143B1
:1019D00003D0616C41F008016164616C00293AD068
:1019E000800604D5900602D5204600F0E2FF20686C
:1019F0004069616CC0F38010090700D460B32046D1
:101A000000F0B0FF20684069400621D520681430FE
:101A100050E8001F21F0400140E80012002AF5D1F3
:101A2000E06BA8B16D494163E06BFFF7D3F9002883
:101A300011D0E06B416B01B0BDE8F0400847830670
:101A40000FD593060DD52046BDE8F84000F0B1BF94
:101A50002046FFF78EFFF8BD2046FFF78AFF65643A
:101A6000F8BD266B2023012E7CD1C6067AD5D6067A
:101A700078D508684868009048694FF0020640062B
:101A800040D5E16B086840680004000CE8D0A28DE6
:101A90008242E5D9E085886920282DD020680C3065
:101AA00050E8001F21F4807140E80012002AF5D1AF
:101AB0002068143050E8001F21F0010140E80012B6
:101AC000002AF5D12068143050E8001F21F04001B1
:101AD00040E80012002AF5D184F8423025632068DE
:101AE0000C3050E8001F21F0100140E80012002ADD
:101AF000F5D1E06BFFF74AF96663A08DE18D401ADE
:101B000081B22AE0A08DE18D401A81B2E08D0028DB
:101B1000A6D00029A4D022680C3252E8000F20F48D
:101B2000907042E80007002FF5D12068143050E88B
:101B3000002F22F0010240E80027002FF5D184F8A1
:101B40004230256320680C3050E8002F22F010024C
:101B500040E80023002BF5D166632046FFF708FF1D
:101B6000F8BDFFE705062BD5150629D594F84100E9
:101B70002128F5D1A068B0F5805F01D12069B0B10E
:101B8000206A411C2162216800784860E08C401E78
:101B90000004000CE084E3D12068C16821F08001DA
:101BA000C1602068C16841F04001C160D8E7206A87
:101BB0000088C0F308004860206A801C2062E5E7C6
:101BC0004006CDD55006CBD5CA68204622F040024B
:101BD000CA6084F8413000F01EF9C1E755290008B9
:101BE00070B5040004D094F84100002510B106E05F
:101BF000012070BD84F84050204600F023F82420D6
:101C000084F841002068C16821F40051C160204679
:101C100000F030FF2068016921F4904101612068E3
:101C2000416921F02A0141612068C16841F40051F5
:101C3000C1606564202084F8410084F84200656337
:101C4000002070BD30B585B000240094019402944A
:101C500003942E4D03682E4802210322AB4227D164
:101C6000C36943F40033C361C36903F400330493CD
:101C7000836943F0040383618069264D00F004000A
:101C800004900420CDE90001039269462846FFF73D
:101C9000FFF80820CDE90004694628460294FFF7C2
:101CA000F7F8002205212620FFF78AFA262029E0EE
:101CB000194DAB4228D1C36943F48023C361C36982
:101CC00003F480230493836943F0080383618069EC
:101CD000039200F0080004902815CDE900010F4D93
:101CE00069462846FFF7D4F8E814CDE900046946B0
:101CF00028460294FFF7CCF8002205212720FFF7A1
:101D00005FFA2720FFF74EFA05B030BD00440040CF
:101D1000001002400008014000480040000C014053
:101D200090F84230202B01D00220704721B11AB127
:101D30000023036300F0FABE012070470C4930B461
:101D4000884213D10B4800224188B1F5007F00D3AF
:101D50004280094C418803786354491C41800270D9
:101D600030BC012203490248FFF7DABF30BC70479C
:101D7000B003002000000020B00000202DE9F8434F
:101D8000044690F841001F4616460D46202802D012
:101D90000220BDE8F8837DB176B100206064212087
:101DA00084F84100FFF76EF9A6848046E684A068B7
:101DB000B0F5805F02D003E00120EAE7206910B1AE
:101DC0002E4600250EE000260CE08021204600F083
:101DD000C8FEA0B9AEB116F8010B21684860E08CCE
:101DE000401EE084E08C43464FF00002009700283C
:101DF000EBD14FF04001204600F0B3FE30B103209C
:101E0000C7E735F8020BC0F30800E6E7202084F8A6
:101E100041000020BDE7704770B504000D460AD0B0
:101E20000846FEF7C5FB82B229462046BDE8704051
:101E30006423FFF7A3BF70BDFEE7000010B54FF4A9
:101E400080710448FEF752FCBDE8104002A1014831
:101E5000FEF76ABAB00200207B226964223A22317E
:101E60003233222C22706172616D73223A7B224CD4
:101E70006564223A7B2276616C7565223A747275CC
:101E800065207D7D7D00000010B50446007B0128A3
:101E900002D12068FEF721FA002020606060A06077
:101EA000207310BD5FF0010200F07F030B70C009CA
:101EB00009D043F08003521C01F8013B042AF3DDF2
:101EC0004FF0FF307047104670472DE9F04104464F
:101ED000002500680F462E4610B10220207315E041
:101EE000012020730846FEF7C9F92060002808D0B9
:101EF000C4E9016702E0206846556D1CA068A8424D
:101F0000F9D8BDE8F081206846556D1CA068A8424C
:101F1000F9D866608842F4D22660F2E72DE9FF5FC7
:101F20009A46934600251046DDF844900E9F139C78
:101F3000FEF73EFB06B2BBF1000F1FD006F1110009
:101F40001FFA80F807B10225109868B145F0040522
:101F5000FEF72EFBC7B24846FEF72AFBC11901EB7C
:101F60000800001D1FFA80F80F9870B1012807D0F3
:101F7000022808D0022004B0BDE8F09F0120FAE753
:101F800045F00C0501E045F01405129808B145F044
:101F90002405009860B3019850B345F0C00700983D
:101FA000FEF706FB05460198FEF702FB291801EB38
:101FB0000800001D85B229462046FFF786FF2068ED
:101FC000C0B12946FEF792FBD4E90030411C102233
:101FD00061601A54D4E900010144681FFFF762FFF1
:101FE00000B2002808DA2046FFF74EFF0520C2E7BE
:101FF0000320C0E70420BEE7616823680844411C51
:10200000616000221A54D4E90030421C042162604D
:102010001954D4E90050421C4D2362602B54D4E97A
:102020000050421C626051232B54D4E90030451CFF
:10203000542265601A54D4E90050431C63602A544A
:10204000D4E90030421C62601954D4E90020411CDC
:1020500061601754D4E90030411C4FEA1A226160D4
:102060001A54D4E90030421C626003F800A0D4E99D
:102070000030411C320A61601A54D4E90020411C2E
:1020800061601654D4E90001084432465946FEF70F
:102090006BFA606830446060780736D5B9F1000F9C
:1020A00001D10FF2D8091098FEF782FA85B2D4E96F
:1020B0000030411C2A0A61601A54D4E90020411CF6
:1020C00061601554D4E9000108442A461099FEF7CE
:1020D0004BFA6068284460604846FEF769FA85B2AA
:1020E000D4E90030411C2A0A61601A54D4E9002066
:1020F000411C61601554D4E9000108442A46494650
:10210000FEF732FA606828446060380618D50098F7
:10211000FEF74EFA85B2D4E90030411C2A0A61600C
:102120001A54D4E90020411C61601554D4E900011F
:1021300008442A460099FEF717FA60682844606050
:10214000780618D50198FEF733FA85B2D4E9003045
:10215000411C2A0A61601A54D4E90020411C6160C4
:102160001554D4E9000108442A460199FEF7FCF908
:102170006068284460600020FDE600000000000068
:102180002DE9FF4F81B090464FF00006119C0F9A49
:102190009A465FEA000BB146314608D1012005B0EE
:1021A000BDE8F08F232816D02B2814D0761C029877
:1021B000805D0028F6D141F030070AB147F00107F1
:1021C00006EB0A050E98AD1C68B1012805D002285F
:1021D00006D00320E3E70220E1E747F0020701E031
:1021E00047F00407AD1CB8F1000F03D098F80000C9
:1021F000022807D0691D2046FFF767FE206850B30C
:10220000691D14E05FF0000018F80010401C7D29E3
:10221000FAD100F10409AAEB0900291A009120461D
:10222000C91CFFF752FE2068A8B10099C91CFEF72F
:102230005DFAD4E90020411C61601754D4E9000123
:1022400001442846FFF72EFE002806DA2046FFF755
:102250001BFE0520A3E70420A1E76168236808446A
:10226000411C320A61601A54D4E90020411C6160AB
:102270001654D4E90001084432460299FEF774F975
:102280006068304460600E9959B12368411C4FEA80
:102290001B2261601A54D4E90030421C626003F8CA
:1022A00000B0B8F1000F0ED098F800000228D4E971
:1022B0000001084409D052464146FEF798F961688A
:1022C00001EB0A006060002069E74A464146FEF7DC
:1022D0008EF9616801EB0900F4E7F0B504460020CF
:1022E00001235D05106012E0275C166807F07F0788
:1022F00007FB03661660265C360601D4401CF0BD61
:10230000DB01AB4202D36FF00100F0BD401C8842FC
:10231000EADB4FF0FF30F0BD4178022901D0012007
:102320007047817819B1012901D0FF207047C0782A
:102330007047000038B504460078FF210009421EAE
:102340000E2A01D3084638BD0328FCD10020009096
:102350006A460421601CFFF7C0FF20440099401C1E
:10236000022907D32278D20704D1028852BA921CDC
:102370008A4201D9FF2038BD04A1801CFEF706F96E
:1023800008B10F2038BD032038BD000024637265FA
:102390007100000010B50121114A084601F018F83B
:1023A000104C0F4A00212061903A0F4801F068F864
:1023B0000B4A20606C3A00210C4801F061F8084A91
:1023C0006060483A00210A4801F05AF8044AA060C7
:1023D000243A0021074801F053F8E06010BD0000E6
:1023E000D45C000808000020152900086D4400088E
:1023F000AD4500085D4100082DE9F04186B000249C
:1024000028480094019402940394816941F01001DA
:102410008161816901F010010491816941F020011D
:102420008161816901F020010491816941F0040119
:102430008161816901F004010491816941F0080121
:1024400081618069012200F00800174F5503049054
:1024500029463846FEF711FEDFF85080012203219D
:102460004046FEF70AFE0126CDE9005602256946E0
:102470003846CDE90245FEF70BFD0320CDE9000605
:1024800069464046CDE90245FEF702FDF020009086
:102490000748CDE9010569464046FEF7F9FC06B05C
:1024A000BDE8F0810010024000100140000801402A
:1024B000000011100C4810B50A4901604FF4E131D9
:1024C0004160002181600C22C160C0E90412816179
:1024D000C161FFF785FB002803D0BDE81040FEF77F
:1024E00053BC10BD00440040B00300200C4810B5A0
:1024F0000A4901604FF4E1314160002181600C2202
:10250000C160C0E904128161C161FFF769FB002865
:1025100003D0BDE81040FEF737BC10BD00480040B6
:10252000F8030020FEE7FEE730B5D5B000242BA06D
:10253000009051945294539401252A4B2AA22DA124
:10254000549406A8FDF7F0FE06A93748FFF764FC8F
:1025500051A8CDE904400120CDE900040302029412
:1025600003941EA21F4920A0FFF7D8FC30B12FA171
:102570002D48FFF751FC55B0284630BD529881B226
:102580005198FEF7CBFBFA20FEF7A2FA04001FD009
:10259000FFF7D0FE02281BD12046FFF7BDFE06281C
:1025A0001AD2DFE800F003090B0D0F1128A11E4815
:1025B000FFF732FC00250BE02AA106E031A104E080
:1025C00038A102E03FA100E046A11748FFF724FC34
:1025D00051A8FFF759FCCEE74AA1F6E75379737487
:1025E000656D0000405E00086E77386C43436A55A5
:1025F000637500004F6E654E65745F4465764C6987
:102600006E6B0D0A50524F49443A2025732C0954E1
:102610004F4B454E3A2025732C2044455649443AA9
:1026200025730D0A00000000F80300205741524EA8
:102630003A204D5154545F5061636B6574436F6E23
:102640006E656374204661696C65640D0A00000064
:10265000546970733A09C1ACBDD3B3C9B9A60D0AA8
:10266000000000005741524E3A09D0ADD2E9B0E621
:10267000B1BEB4EDCEF32020202020202020202049
:10268000200D0A005741524E3A09BFCDBBA7B6CB29
:102690004944CEDED0A7202020202020202020204A
:1026A000200D0A005741524E3A09B7FECEF1C6F747
:1026B000B2BBBFC9D3C3202020202020202020204F
:1026C000200D0A005741524E3A09D3C3BBA7C3FBA2
:1026D000BBF2C3DCC2EBB4EDCEF3202020202020DF
:1026E000200D0A005741524E3A09CEB4CADAC8A8A2
:1026F00028CDA8B3A3746F6B656EB4EDCEF329201B
:10270000200D0A004552523A09C6E4CBFBCEB4D69E
:10271000AAB4EDCEF320202020202020202020204D
:10272000200D0A0008B5C0208DF8000000208DF8AB
:10273000010002216846FEF7F1FA05A10848FFF7FB
:102740006BFBFEF7B7F9C820FEF790FB002008BD31
:1027500050494E47524551D2D1B7A2CBCD0D0A00B8
:10276000F803002070B5C8B000250C4606460B469D
:10277000024644954595469513A104A84795FDF753
:10278000D3FD04A91848FFF747FB2046FDF710FFCB
:10279000034644A80121CDE9021000952246019587
:1027A00031460A20FFF7ECFC28B110A10E48FFF7D4
:1027B00033FB48B070BD459881B24498FEF7AEFA3D
:1027C00044A8FFF761FBF4E75075626C69736820F9
:1027D000546F7069633A2025732C204D73673A203B
:1027E00025730D0A00000000F80300205741524EE7
:1027F0003A094D5154545F5061636B657450756272
:102800006C697368204661696C65640D0A0000009C
:1028100010B5502080F31188BFF34F8FBFF36F8F37
:1028200002F04EFB18B104494FF0805008600020C0
:1028300080F3118810BD000004ED00E030B58FB0CA
:1028400028216846FDF774FF14210AA8FDF770FFE0
:1028500001210804CDE9001000240294022504910E
:10286000CDE907504FF4E01009906846FEF7D6FD19
:1028700008B172B6FEE70F20CDE90A054FF480607B
:10288000CDE90C4002210AA80E94FEF7CBFC0028EB
:1028900001D072B6FEE70FB030BD70470148FEF7B9
:1028A000AABF000040040020F0B50268164B174C88
:1028B000174D4FF08047984205D0B84203D0A04250
:1028C00001D0A84203D122F070064A6832439842F0
:1028D00005D0B84203D0A04201D0A84203D122F4CF
:1028E0004074CA6822434C6922F08002224302608D
:1028F0008A68C2620A688262984201D109690163EA
:1029000001214161F0BD0000002C014000040040A5
:10291000000800400C4E0D4F0D4D00243C2000F0EF
:10292000C7FC204602F0F8FE32463B4602F008FFA4
:1029300001F02CFA641CE4B2642CC5E90601EDD365
:10294000012000F0B5FCE8E75D36C891BF15A03F57
:102950000800002010B5406A0021C185C184FFF73E
:1029600008F810BD01680C3151E8002F22F4907274
:1029700041E80023002BF5D10168143151E8002F04
:1029800022F0010241E80023002BF5D1016B01295F
:1029900009D101680C3151E8002F22F0100241E802
:1029A0000023002BF5D1202180F842100021016383
:1029B000704708B590F84210222901D0022008BDC6
:1029C00082684FF480539A4201D1016921B1816A32
:1029D0009A421BD04AB10AE00268816A5268C2F387
:1029E00008020A80816A891C08E0026972B10268E3
:1029F000526802F07F020A70816A491C8162C18DAF
:102A0000491E0904090CC18503D01BE00268526805
:102A1000F1E70168CA6822F02002CA600168CA684A
:102A200022F48072CA6001684A6922F001024A6198
:102A3000202180F8421000214163026B012A03D05B
:102A4000FFF77CF9002008BD016301680C3151E8F3
:102A5000002F22F0100241E80023002BF5D101687D
:102A60000A68D20602D50A6849680091818DFEF78E
:102A70007FFFE7E770B5044600680169E26821F46A
:102A80004051114301612169A0680843616908430D
:102A90002168CA6841F20C639A430243CA60206805
:102AA0004169A26921F44071114341611E492068C6
:102AB000884202D1FEF77CFC01E0FEF769FC00EBE6
:102AC000C00101EB0012606864218000B2FBF0F3EA
:102AD000B3FBF1F36FF018067343B2FBF0F5B2FBF2
:102AE000F0F605EB8305322303EB0515B5FBF1F595
:102AF000B6FBF1F605F0F00505EB0615B2FBF0F6B6
:102B0000B2FBF0F0B0FBF1F06FF01802504306EBAF
:102B1000800003EB0010B0FBF1F0216800F00F0023
:102B20002844886070BD00000038014081628285C1
:102B3000C28500214164222180F84210016921B13F
:102B40000168CA6842F48072CA6001684A6942F04A
:102B500001024A610068C16841F02001C1600020A3
:102B600070472DE9F041984617460E460446069DEB
:102B700027E0681C25D02DB1FEF784FAA0EB0800F1
:102B8000A8421ED920680C3050E8001F21F4D071F3
:102B900040E80012002AF5D12068143050E8001FE8
:102BA00021F0010140E80012002AF5D1202084F82C
:102BB000410084F84200002084F840000320BDE872
:102BC000F0812068006836EA000004D00020B84296
:102BD000CFD00020F3E70120F9E700000148FEF71D
:102BE000C9BE0000B00300200148FEF7C3BE0000CC
:102BF000F8030020FEE7490050EAC12018BF042076
:102C00004A0D18BF40F0010040F2FF72B2EB515F75
:102C100008BF40F00200012808BF052070470907DF
:102C2000090E002804DB00F1E02080F80014704752
:102C300000F00F0000F1E02080F8141D7047000044
:102C40002DE9F74F144694B00021C4E902111599FB
:102C5000079121F00045C9498D4206DC1599C4E968
:102C6000000117B00020BDE8F08FC549DFF814A3BC
:102C7000A9423CDD0799C44E0029C44FC44A1599A6
:102C8000534619DD02F066FE554506D0C14AC24BD7
:102C900002F060FEC4E900010AE04FF0D352BE4BDF
:102CA00002F058FE32463B4602F054FEC4E90001F1
:102CB00017B00120BDE8F08F02F0E0FA554506D0CC
:102CC000B44AB54B02F0DAFAC4E900010AE04FF069
:102CD000D352B14B02F0D2FA32463B4602F0CEFA62
:102CE000C4E9000117B04FF0FF30BDE8F08FAB49E9
:102CF000A942159978DB21F0004183468846A84A0D
:102D0000A84B02F01DFD0022A74B02F0B7FA02F01B
:102D1000BDFC099002F0E9FC06460F469C4A53466A
:102D200002F00EFD43465A4602F008FE80468A46EF
:102D3000984A994B3046394602F002FD2A0D01258A
:102D40000B924246534602F0F9FD032DC4E90001FF
:102D500039D00B98C1F30A51401A05EB45111139CE
:102D6000814230DA9148C346784400EB0510CDF833
:102D70000CA00C90D0E900233046394602F0E0FC6C
:102D800002460B46049106905846039902F0E2FD74
:102D900080468A4602460B465846039902F0DAFD01
:102DA000049B069A02F0D6FD83460C98039139469F
:102DB000D0E90223304602F0C3FC5A46039B02F0DE
:102DC000C9FD6D1CBDE707980028A2BF099817B080
:102DD000BDE8F08F616881F000416160099817B02B
:102DE0004042BDE8F08FFFE784461598C1F3130118
:102DF000C0F30A50A0F2F5304FEA601800F01F0649
:102E0000C6F12000139000200690079041F4801E28
:102E100005206D4676B1664A08EB00017A4452F807
:102E2000213002EB8101B3404A68139922FA01F183
:102E3000194305E05F4908EB0002794451F822107C
:102E4000A1FB0E27A1FB0C131A449A4234BF0123A5
:102E5000002303EB070A05EB8003D3E901B70F4416
:102E60008F4234BF0121002193448B4411B193451B
:102E700002D903E0934501D2012100E00021C3E91A
:102E800001B7514445F82010011EA0F10100C1DC3A
:102E90000298059F00F10050800F12900298DDE922
:102EA0000356800002F021FC834628460D9102F073
:102EB00033FC6FF01D0202F069FECDE90E013046D1
:102EC00002F02AFC6FF03D0202F060FE80468A4666
:102ED000384602F021FC6FF05D0202F057FE074613
:102EE00042465346119102F0C9F9DDE90E2302F082
:102EF000C5F95A460D9B02F0C1F900250E465A4607
:102F000028460D9B02F026FDDDE90E2302F022FD8E
:102F10004246534602F01EFD3A46119B02F00EFD5A
:102F2000DFF898A0244A534602F00AFC0746884678
:102F3000234A244B3146284602F002FC3A464346D7
:102F400002F09CF9074688464FF0A84253463146A6
:102F5000284602F0F5FB3A46434602F08FF9159AEF
:102F600012F0004F04D0129A81F0004152421292A6
:102F7000C4E90001129817B0BDE8F08FFB21E93FCA
:102F80007CD90240FB21F93F7370032E8A19A33BC1
:102F9000000040543163621A61B4D03DFB213941D5
:102FA00083C8C96D305FE43F0000E03FE42F0000BC
:102FB000602F0000422F0000182D4454FB21F93DE2
:102FC0003326A611460B113C2DE9FF4D21F0004898
:102FD00007460C46B8F1795F08DA02F057FB002883
:102FE00001BF0020324904B0BDE8F08D3A462346C7
:102FF0001046194602F0A4FB054602462D480E462F
:103000000B460621784400F05DF82A46334602F06C
:1030100097FBDDE9022382468B463846214602F0C3
:103020008FFB04460F4652465B462846314602F067
:1030300087FB22463B4602F08DFC07468A464FF04E
:10304000FF322846314602F0A1FD1B4A90450ADABC
:103050003A46534602F07EFC04B00022BDE8F04D33
:10306000134B02F06BBC154A4245A8BFA8F50015EA
:103070004FF00004B8BF124D22462B4602F06AFC06
:103080000646884622462B460020094902F062FC8B
:1030900004460D463A4653463046414602F05AFC35
:1030A00004B022462B46BDE8F04D02F047BC0000BC
:1030B0000000F03F182D00003333D33F0000E93FFC
:1030C0000000D23F2DE9F0414F1E00EBC70104463E
:1030D000D1E9000115461E4637F006020DD02A46FA
:1030E000334602F02DFB7F1E04EBC703D3E9002318
:1030F00002F0C4F837F00602F1D1022F25D0042FD8
:1031000013D0062F18BFBDE8F0812A46334602F0DF
:1031100017FBD4E90A2302F0B1F82A46334602F03D
:103120000FFBD4E9082302F0A9F82A46334602F03F
:1031300007FBD4E9062302F0A1F82A46334602F041
:10314000FFFAD4E9042302F099F82A46334602F044
:10315000F7FAD4E9022302F091F82A46334602F046
:10316000EFFAD4E90023BDE8F04102F087B800008F
:103170002DE9FF4D054621F0004084B00C46B0F12A
:10318000795F0BDA2846FFF736FD042808BF00F008
:103190006FF8284608B02146BDE8F08D2A460B4658
:1031A000104602F0CDFA06460F462A46234602F0A4
:1031B000C7FA804626488A4632463B46052178446F
:1031C000FFF780FF83461098029160B3214A224B9B
:1031D0004046514602F0B4FACDE900015A46404655
:1031E0005146029B02F0ACFA82468846DDE90601B0
:1031F0004FF0FF3202F0CAFC5246434602F0AAFBEF
:1032000032463B4602F09CFADDE9062302F0A2FBBF
:10321000DDE9002302F09EFB08B02A462346BDE804
:10322000F04D02F08BBB0B465A463046394602F051
:1032300087FA084A084B02F021F84246534602F04A
:103240007FFA08B02A462346BDE8F04D02F016B8D2
:10325000562C0000495555555555C5BF012202F061
:1032600095BC002213461046114602F0B7B8000084
:10327000024A0020110702F089BC000001FDFFFF97
:1032800030380A2801D20120704700207047FDF72E
:1032900007FFFFF7D3FAFFF7AFF8FFF727F9FFF7BC
:1032A00009F900F01FF8FFF775F800F037F8FEE7AE
:1032B00010B5EFF3058149B9EFF3108131B9084931
:1032C0000968022905D1EFF3118111B16FF00504EE
:1032D00003E0002408B100F00DFF204610BD0000FF
:1032E00088000020EFF3058058B9EFF3108040B953
:1032F00009490868022801D030B109E0EFF31180D4
:1033000030B16FF005007047012008600020704761
:103310004FF0FF30704700008800002010B5EFF339
:10332000058060B9EFF3108048B90B49086802289E
:1033300002D0012806D00BE0EFF3118040B16FF00E
:10334000050010BD0220086001F0B2F8002010BD99
:103350004FF0FF3010BD000088000020F8B50D468A
:103360000024211F4E1C00280ED000BFEFF3058261
:103370004AB9EFF3108232B9134A1268022A17D100
:10338000EFF31182A2B10DB10C461BE000216A4699
:10339000009101F0E5FB012813D1009890B10B4991
:1033A0004FF080500860BFF34F8FBFF36F8F09E07D
:1033B000294601F023FC012804D015B16FF0010467
:1033C00000E034462046F8BD8800002004ED00E00F
:1033D000F8B5144603460E464FF00005EFF305809E
:1033E000E8BBEFF31080D0BB24480068022802D16C
:1033F000EFF3118098BB93B39E423DD84CB1A068C7
:103400000028E06803D0502836D3012002E008B13C
:1034100032E00020012B05D010B31846A26801F05D
:103420003AF920E040B1032000900022114601202B
:10343000A36801F074F904E003220021012001F0E7
:103440004AF9050018D086B100231A46194601F042
:10345000DDF9012809D0284600F0FEFD00250BE02B
:10346000184601F0FBF8050006D00CB1216800E019
:103470000021284600F0DCFD2846F8BD8800002029
:10348000F0B585B04FEA01034FF00004EFF305817A
:103490000394A1BBEFF3108189BB2149096802297C
:1034A00002D1EFF3118151BB48B3802618218DF86A
:1034B000104004AD42B3176807B13D4697691FB18C
:1034C00039467F1E382F02D21779FF0702D000201D
:1034D00005B0F0BD576907B1BE08D2F808C0BCF10D
:1034E000000F0DD0D4685C2C18D312693AB137B1F3
:1034F0008DE806103246294601F0A3FC03900DE04A
:10350000D7685FB912694AB903AACDE90012B2B20D
:10351000294601F069FC012800D003940398D7E7FD
:10352000880000202DE9F041134C0F4605466669DE
:103530002068001D00F07AFC681C07D137B12168B3
:10354000BDE8F0410D48091D00F0C8BC20683544B5
:10355000B5424560216805D2A068BDE8F041091D6B
:1035600000F0A4BC6068091D00F0A0FC206B85423F
:1035700000D22563BDE8F0813800002078090020E2
:103580002DE9F041054600F0B5FC2D4C2069401CAA
:10359000206120682B4F10B1E06930B32BE025602B
:1035A0002069012827D1002606EB860007EB800062
:1035B00000F06EFC761C382EF6D3234800F068FC31
:1035C0002148143000F064FC1F48283000F060FCF3
:1035D0001D483C3000F05CFC1B48503000F058FCAB
:1035E000194860601430A06005E02068E96AC06A8C
:1035F000884200D82560E06A401CE0626864E86A9E
:10360000A169884200D9A06100EB800007EB80002F
:10361000291D00F063FC00F08DFCE06900280CD04F
:103620002068E96AC06A884207D208494FF0805092
:103630000860BFF34F8FBFF36F8FBDE8F0810000CC
:1036400038000020C80400202809002004ED00E014
:1036500038B500F04FFC104CA068C8B90F4800F016
:1036600017FC0E48143000F013FC0C482060143096
:1036700060600A4B00202833009003F150021021B3
:103680000A2001F04CF8A06010B105A100F0D0FCB8
:10369000BDE8384000F04EBC740000208C090020CA
:1036A000546D72510000000030B4026C0B46002AC9
:1036B0000BD0C1681144C1604468A14201D30168C4
:1036C000C16030BC1846FCF792BF30BC70472DE992
:1036D000F041856B174604460026026C82B1C7B1E3
:1036E000E068FCF784FFE168206C091AE160226859
:1036F000914202D26168081AE060022F16D017E0EA
:103700002068A8B9606801F03FFC064600206060B0
:103710000EE0A068FCF76BFF216CA0680844A06075
:103720006168884204D32068A06001E005B16D1E85
:103730006D1CA5633046BDE8F08110B5044690F8D5
:10374000590058B101280CD002280FD0502080F326
:103750001188BFF34F8FBFF36F8FFEE7206B00F030
:10376000FDFB2046BDE8104000F0F8BB10BD000096
:103770000F4842F21071420705D0C01D0C4A20F0DC
:103780000700821A891A0B4A00230144C2E9000388
:103790000839103A21F0070111604B600B600B1AD9
:1037A000C0E9001393604FF000405360D060704751
:1037B0005C1100209C000020144E154CA6F29C4782
:1037C0004FF08058DFF84C9012E000BF00F092FB01
:1037D000F068C568281D00F029FB2069401E2061A3
:1037E000E068401EE06000F0A5FB2846FFF7A5FF5B
:1037F000E0680028EAD138680128F9D9C9F80080C2
:10380000BFF34F8FBFF36F8FF2E700006409002012
:103810003800002004ED00E070B51D46049C51B155
:10382000C4F80020C4E90F010121204600F0AAFFDE
:1038300084F84C5070BD2460F4E72DE9F0470E4643
:10384000DDE909841746824691009946089DA52224
:10385000206BFCF743FF6FF00301206B01EB870146
:10386000084420F00707780707D0502080F311881C
:10387000BFF34F8FBFF36F8FFEE72218315C82F8E2
:103880003410315C11B1401C1028F6D3002684F8A6
:103890004360382D00D33725E562C4E91356201D57
:1038A00000F001FB04F1180000F0FDFA2461C5F1FD
:1038B00038006462A061666584F858604A465146E3
:1038C000384600F051FA2060B8F1000F01D0C8F876
:1038D0000040BDE8F087000030B5114900E0114616
:1038E0000A688242FBD34B685C18844203D140686B
:1038F00018444860084643681C18944209D1084C93
:10390000103C2468A24209D052681A4442600A68F6
:1039100012680260814200D0086030BD0460F9E79F
:103920009C00002070B5002441600B4D0061914265
:1039300006D8D11A8269914206D2011D686807E053
:103940009A4203D2994201D3012403E0011D286861
:1039500000F0ACFA204670BD7400002010B504469B
:1039600000F0C8FAA06B28B15FF0000400F0E2FAA2
:10397000204610BD0124F9E730B589B0304D55E03F
:103980000498002806DADDE90601059A90470498B4
:1039900000284BDB069C606910B1201D00F046FA40
:1039A00002A800F0B9F8024604980A283ED2DFE8DF
:1039B00000F00505053D263705053D260598A1695A
:1039C000034601442046FFF7ADFF00B3616A20467D
:1039D0008847E069012829D1002000900598A16955
:1039E000002342181946204601F014FC78B95020F3
:1039F00080F31188BFF34F8FBFF36F8FFEE70598F9
:103A0000A06128B1811813462046FFF78BFF0DE017
:103A1000502080F31188BFF34F8FBFF36F8FFEE705
:103A200094F82C0010B9204600F098FA002204A95E
:103A3000A86800F0F9FF0028A2D109B030BD00004D
:103A4000740000202DE9FC410F46054600F074FD8E
:103A500001A800F061F80446019818B101F048FB94
:103A6000BDE8FC81224EAFB170680068A8B30027A2
:103A7000291B3A46B06800F01BFB01F039FB002817
:103A8000EED11C494FF080500860BFF34F8FBFF359
:103A90006F8FE5E7A542EBD801F02AFB3068274697
:103AA000C068C468201D00F0C1F9E069012810D188
:103AB000A0692B4641193A462046FFF733FF40B133
:103AC00000200346014600902A46204601F0A2FB52
:103AD00020B1616A20468847C2E707E0502080F3A2
:103AE0001188BFF34F8FBFF36F8FFEE70127BFE74A
:103AF0007400002004ED00E006484168096829B11F
:103B00004168C968C9684968016370474FF0FF316F
:103B1000FAE700003800002070B5054601F0CAF948
:103B2000064E04463069844203D200F009F80120B1
:103B300000E0002028602046346170BD7400002041
:103B4000F8B5194D1FE0C068C4680668201D00F074
:103B50006DF9616A20468847E069012813D1A069A0
:103B60003044B04206D924616060211D286800F00D
:103B70009DF908E0002003460146009032462046A9
:103B800001F048FB38B1286801680029DBD1696879
:103B9000C5E90010F8BD502080F31188BFF34F8FA6
:103BA000BFF36F8FFEE7000074000020002101E0EA
:103BB000401C491C0278A52AFAD0C1F38F00704737
:103BC00008484068401C4FF0500080F3118804D032
:103BD000BFF34F8FBFF36F8FFEE7BFF34F8FBFF37E
:103BE0006F8FFEE7A4000020074C2068016841B1F8
:103BF000C0680021D0F80000FFF724FFFFF7BCFEEB
:103C0000F3E701210020F7E7740000202DE9F041DF
:103C1000044600F06FF994F9455004F1240609E0D8
:103C2000606A48B1304601F02BFA08B100F090FA12
:103C30006D1E6DB2002DF3DC4FF0FF3684F8456049
:103C400000F078F900F056F994F9445004F11007A7
:103C500009E0206948B1384601F012FA08B100F0D5
:103C600077FA6D1E6DB2002DF3DC84F84460BDE878
:103C7000F04100F05FB900002DE9F0410546002752
:103C800000F05AFC314E306808B9FFF771FDF0685A
:103C900005424BD1C5B3083568070ED005F00700C3
:103CA000C0F108000544680707D0502080F3118850
:103CB000BFF34F8FBFF36F8FFEE72DB37068854260
:103CC00034D82248103001460C6801E020460C46EA
:103CD0006168A94202D221680029F7D131688C427B
:103CE00024D007682168016060680837411B1029EB
:103CF0000FD96019420708D0502080F31188BFF314
:103D00004F8FBFF36F8FFEE710E041606560FFF7F4
:103D1000E3FD61687068401A7060B268904200D23A
:103D2000B060F06801430020C4E9000101F0E0F94F
:103D3000780707D0502080F31188BFF34F8FBFF36F
:103D40006F8FFEE73846BDE8F08100008C00002050
:103D50000449086818B10868026D521C02650868B9
:103D6000704700003800002010B5031F4FF080742A
:103D70001C601B1F21F001011960191F024B0B6011
:103D8000143940380A6010BDC13B000800B5254B0E
:103D900021F0004287B09A4203DC002213460092D1
:103DA0002BE0214B9A4208D140B94FF00100FCF7BB
:103DB00040FDFFF756FA07B000BD03DBFFF74EFAF0
:103DC00007B000BD02AAFEF73BFF10F003014FF061
:103DD00001000DD0012914D002291AD00DF1080CD0
:103DE0009CE80F00FFF7F0F807B081F0004100BD3C
:103DF0000DF1080C00909CE80F00FFF7B9F907B02F
:103E000000BD0DF1080C9CE80F00FFF7DDF807B0CE
:103E100000BD0DF1080C00909CE80F00FFF7A8F919
:103E2000E2E70000FB21E93F0000F07FD0E901322A
:103E300001699A60D0E901235A604A68824201D13F
:103E400082684A60002202610868401E08600868B3
:103E50007047000008B902480068006BFFF7A6BE73
:103E600038000020034B036003F15C0008608020F1
:103E700010607047A40A0020044B036003F15C004B
:103E800008604FF48070106070470000000D002043
:103E900000F108014FF0FF32C0E90112C160016179
:103EA00000210160704700210161704730B50B6847
:103EB0005A1C02D000F1080202E0026904E0224626
:103EC000546825689D42FAD953684B6099608A60AE
:103ED000516008610168491C016030BD42684A6058
:103EE00093688B6093685960916008610168491C10
:103EF00001607047502080F31188BFF34F8FBFF3EC
:103F00006F8F0A494868401C486001280CD1084856
:103F1000006810F0FF0F07D0502080F31188BFF326
:103F20004F8FBFF36F8FFEE770470000A4000020A3
:103F300004ED00E00849486828B1401E486001D1FE
:103F400080F311887047502080F31188BFF34F8FA2
:103F5000BFF36F8FFEE70000A400002070B50028BB
:103F600027D0144DA0F108046168E868014207D128
:103F7000502080F31188BFF34F8FBFF36F8FFEE7A0
:103F800022683AB1502080F31188BFF34F8FBFF3FE
:103F90006F8FFEE78143616000F0CEFA6068696868
:103FA000084468602046FFF797FCBDE8704001F0C8
:103FB0009FB870BD8C0000204FF0E020002101610F
:103FC000816105494FF47A720968B1FBF2F1491E2B
:103FD00041610721016170473400002010B5FCF7F2
:103FE00029F9114910280ED300F1E02090F8F003D0
:103FF0000A78904207D2502080F31188BFF34F8F88
:10400000BFF36F8FFEE709480068896800F4E0603D
:10401000884207D9502080F31188BFF34F8FBFF338
:104020006F8FFEE710BD0000A40000200CED00E043
:1040300010B5084B002200BF53F832401CB1521C8F
:10404000082AF9D310BD43F8321003EBC2014860CF
:1040500010BD00008804002010B504000AD000F054
:1040600013F894F8460000280CD12046BDE8104013
:10407000FFF774BF502080F31188BFF34F8FBFF359
:104080006F8FFEE710BD0000084A002102EBC1035C
:104090005B68834206D1002042F8310002EBC10187
:1040A00048607047491C0829F0D3704788040020F5
:1040B00070B515460E460446FFF71CFF94F94410F0
:1040C0000020491C01D184F8440094F94510491C92
:1040D00001D184F84500FFF72DFFA06B28B92A46CF
:1040E000314604F1240000F05DF92046BDE870403F
:1040F000FFF78CBD10B5020014D00F48806B38B1AB
:10410000502080F31188BFF34F8FBFF36F8FFEE70E
:1041100000F012FA00211046FFF704FA00F0E8FF61
:10412000002807D105494FF080500860BFF34F8F3A
:10413000BFF36F8F10BD00003800002004ED00E0D9
:1041400002498A6A0260496941607047380000206C
:1041500001490120486270473800002092B00020D9
:10416000FFF778FE4FF00009C8464D4651A155486B
:10417000FDF752FEFCF7DEFC4FF47A7B5846FCF765
:1041800075FE4FF4FA740EE02046FFF791F8002018
:10419000FFF760FE02464CA16846FCF7C5F8694689
:1041A0004848FDF739FEFEF7BFF90028ECD14BA1D6
:1041B0004448FDF731FE0020FFF74CFE02464BA1BC
:1041C0006846FCF7B1F869463E48FDF725FE012632
:1041D000FCF758FF109040F6B830FFF769F841F24D
:1041E000883A2FE047A13748FDF716FEFCF7A2FCFE
:1041F0004FF4FA60FCF73AFE0024052708E0641C3F
:10420000E4B243A12F48FDF707FE5846FFF750F8E8
:10421000FEF78AF908B1BC42F1D3BC420BD240A1EF
:104220002848FDF7F9FD4FF0000801264546FCF748
:1042300029FF109006E03DA12248FDF7EDFD504614
:10424000FFF736F8FCF71EFFA0EB080142F21070F2
:10425000814204D3FEF766FAFCF714FF8046FCF7B0
:1042600011FFA0EB090151451DD3FDF7E7FD3549CD
:104270003548FEF777FA6D1CEDB2FCF703FF109995
:10428000401A47F23051884201D330A102E03C2D60
:1042900004D332A10B48FDF7BFFD0026FCF70AFC52
:1042A000FCF7F0FE81466420FFF702F8002EC9D12A
:1042B00098E70000CDF8C2E7C1ACBDD3D6D00D0A57
:1042C00000000000F8030020C1ACBDD3D6D0D5BBA0
:1042D000CAA3D3E03A2025750D0A0000CDF8C2E745
:1042E000C1ACBDD3B3C9B9A60D0A0000C1ACBDD3E2
:1042F000B3C9B9A6BAF3D5BBCAA3D3E03A20257592
:104300000D0A0000D6D8C1ACD6D02E2E2E0D0A0034
:10431000D6D8C1ACB3A2CAD42E2E2E0D0A000000EE
:10432000D6D8C1ACB3C9B9A60D0A0000D6D8C1AC65
:10433000CAA7B0DCA3ACC9D4BAF3D6D8CAD40D0A84
:1043400000000000B0020020185C0008B6A8C6DA21
:10435000D6D8C1AC2E2E2E0D0A000000B7A2B2BCDA
:10436000D2ECB3A3A3ACB3A2CAD4D6D8C1AC2E2E80
:104370002E0D0A0010B50C4650B1094909681831D4
:10438000FFF794FD2046BDE810400121FFF7CAB8B1
:10439000502080F31188BFF34F8FBFF36F8FFEE77C
:1043A0003800002070B514460D4668B10A49096806
:1043B0001831FFF793FD0CB14FF0FF352146284629
:1043C000BDE87040FFF7AEB8502080F31188BFF30E
:1043D0004F8FBFF36F8FFEE73800002070B50400E9
:1043E0003ED0226DA2B1E06C884200D30146E06A63
:1043F000884235D0012A33D11A4D2A6894420FD110
:10440000502080F31188BFF34F8FBFF36F8FFEE70B
:10441000502080F31188BFF34F8FBFF36F8FFEE7FB
:10442000E162A269002A02DBC1F13801A1610E4EEE
:1044300000EB8000616906EB8000814210D1201DF5
:10444000FFF7F4FCE06AA969884200D9A86100EB93
:10445000800006EB8000211DBDE87040FFF73EBDE7
:1044600070BD000038000020C80400200E4E0D4C26
:10447000DFF838804FF0FF35771429462069FEF7C2
:104480006DFF50B902213046FCF7F2FD012804D13E
:10449000002239464046FCF7F0FD0120FEF708FFF8
:1044A000EBE7000008000020000801400010014078
:1044B00030B587B00024039405AA04A903A8049486
:1044C000FFF7D0FCDDE903010094CDE901100023E2
:1044D00015A11748059A00F0B4FC164D0028686332
:1044E0001FD000F067FE012809D0401C19D15020D0
:1044F00080F31188BFF34F8FBFF36F8FFEE750201B
:1045000080F31188BFF34F8FBFF36F8F4FF0FF30F1
:1045100028630120E8616C6107B0BDE8304000F01D
:1045200049B807B030BD000049444C4500000000C8
:10453000B9370008380000200248816B491C8163AC
:104540007047000038000020164810B5816B11B18B
:104550000121416210BD002141628169124A01E0DE
:10456000B9B1491E01EB810352F82330002BF7D07B
:1045700001EB810302EB830202F1080453685B68DC
:104580005360A34201D15B685360DA6802608161C5
:1045900010BD502080F31188BFF34F8FBFF36F8F92
:1045A000FEE7000038000020C80400200120FEF7CC
:1045B0007FFEFBE71CB5264908780190FF200870B4
:1045C00008788DF800009DF800009DF8002000F0AC
:1045D000F000904207D0502080F31188BFF34F8F36
:1045E000BFF36F8FFEE79DF800001A4B00F05000FC
:1045F00018700720986005E09DF8002052008DF8A3
:104600000020401E9DF800201206F5D49860032873
:1046100007D0502080F31188BFF34F8FBFF36F8F07
:10462000FEE74FF440709860019808700A480168EE
:1046300041F470010160016841F070410160FFF7D1
:10464000BBFC00205860FBF7BFFD00201CBD000034
:1046500000E400E0A400002020ED00E010B50C46CE
:1046600048B184420FD9502080F31188BFF34F8F97
:10467000BFF36F8FFEE7502080F31188BFF34F8F99
:10468000BFF36F8FFEE70222002100F024F800281C
:1046900000D0846310BD38B50C4648B184420FD9B0
:1046A000502080F31188BFF34F8FBFF36F8FFEE769
:1046B000502080F31188BFF34F8FBFF36F8FFEE759
:1046C0000221134600220091114600F028F800282C
:1046D00000D0846338BDF8B517460E46050014D0E7
:1046E000DEB105FB06F05030FFF7C6FA04000AD031
:1046F000002084F8460004F150023B46314628462B
:104700000094FFF789F82046F8BD502080F3118807
:10471000BFF34F8FBFF36F8FFEE70020E3E738B59D
:10472000049D18B153B1CAB181B120E0502080F38B
:104730001188BFF34F8FBFF36F8FFEE7502080F3D8
:104740001188BFF34F8FBFF36F8FFEE7502080F3C8
:104750001188BFF34F8FBFF36F8FFEE739B1502041
:1047600080F31188BFF34F8FBFF36F8FFEE75024A4
:104770001C46012384F846302B460094FFF74CF882
:10478000204638BD70B50D46040025D0FFF7B2FBBA
:10479000D4E90F20216802FB001161600021A163B0
:1047A0002168A1600A46D4E90F01401E00FB0121E7
:1047B000E16021464FF0FF3001F8440F487004F1EA
:1047C00010008DB1FFF764FB04F12400FFF760FBDC
:1047D000FFF7B0FB012070BD502080F31188BFF3BC
:1047E0004F8FBFF36F8FFEE721690029F0D000F0F3
:1047F00047FC0028ECD004494FF080500860BFF31C
:104800004F8FBFF36F8FE3E704ED00E02DE9FF4723
:1048100082B01D468A464FF00008040003D0BAF16A
:10482000000F08D011E0502080F31188BFF34F8FA4
:10483000BFF36F8FFEE7206C38B1502080F31188F2
:10484000BFF34F8FBFF36F8FFEE7022D0AD1E06BEE
:10485000012807D0502080F31188BFF34F8FBFF39A
:104860006F8FFEE700F018FB3F4F4FF000094FF04D
:10487000805648B9049838B1502080F31188BFF3AE
:104880004F8FBFF36F8FFEE7FFF734FBA06BE16B39
:10489000884207D3022D05D00498D0B1B8F1000F9B
:1048A0001AD01EE02A4651462046FEF710FF616AE4
:1048B00019B104F1240000F0E3FB20B13E60BFF326
:1048C0004F8FBFF36F8FFFF735FB012006B0BDE8B8
:1048D000F087FFF72FFB22E06846FFF731FC4FF02F
:1048E0000108FFF727FBFFF727FEFFF703FB94F90B
:1048F0004400401C01D184F8449094F94500401CC8
:1049000001D184F84590FFF715FB04A9684600F033
:1049100031FA30B12046FFF779F900F0E9FB0020C9
:10492000D4E7FFF7E7FAA06BE16B884213D1FFF7FA
:1049300001FB04F110000499FFF71CFD2046FFF76E
:1049400065F900F0D5FB00289ED13E60BFF34F8F84
:10495000BFF36F8F98E7FFF7EDFA2046FFF756F9A0
:1049600000F0C6FB90E7000004ED00E02DE9F04701
:104970001F4690468946040003D0B9F1000F08D0C5
:1049800011E0502080F31188BFF34F8FBFF36F8F7A
:10499000FEE7206C38B1502080F31188BFF34F8FB1
:1049A000BFF36F8FFEE7022F0AD1E06B012807D01B
:1049B000502080F31188BFF34F8FBFF36F8FFEE756
:1049C000FFF70CFB5020EFF3118680F31188BFF343
:1049D0004F8FBFF36F8FA06BE16B884206D3022F1E
:1049E00004D0002086F31188BDE8F08794F9455083
:1049F0003A4649462046FEF76AFE681C04D06D1C04
:104A000084F845500120EDE7606A0028FAD004F1EF
:104A1000240000F035FB0028F4D0B8F1000FF1D0ED
:104A20000121C8F80010EDE72DE9F747002683B013
:104A30008A46040003D0BAF1000F08D011E05020DC
:104A400080F31188BFF34F8FBFF36F8FFEE7206CA9
:104A500038B1502080F31188BFF34F8FBFF36F8FB1
:104A6000FEE700F019FADFF8F4804FF000094FF08C
:104A7000805748B9059838B1502080F31188BFF3AA
:104A80004F8FBFF36F8FFEE7FFF734FAA56BC5B109
:104A900051462046FEF708FE6D1EA563206950B101
:104AA00004F1100000F0ECFA28B1C8F80070BFF370
:104AB0004F8FBFF36F8FFFF73DFA012006B0BDE8BF
:104AC000F087059808B11EB106E0FFF733FA27E03A
:104AD0006846FFF735FB0126FFF72CFAFFF72CFDA0
:104AE000FFF708FA94F94400401C01D184F844907F
:104AF00094F94500401C01D184F84590FFF71AFA5B
:104B000005A9684600F036F9002820460AD0FFF7CC
:104B10007DF800F0EDFA2046FEF720FF0028B3D024
:104B20000020CBE7FEF71AFF90B104F124000599AD
:104B3000FFF720FC2046FFF769F800F0D9FA0028BB
:104B4000A2D1C8F80070BFF34F8FBFF36F8F9BE700
:104B50002046FFF75BF800F0CBFA95E704ED00E0A4
:104B60002DE9F04790468946040003D0B9F1000FC3
:104B700008D011E0502080F31188BFF34F8FBFF3AE
:104B80006F8FFEE7206C38B1502080F31188BFF39F
:104B90004F8FBFF36F8FFEE7FFF720FA5020EFF340
:104BA000118680F31188BFF34F8FBFF36F8FA76B10
:104BB000F7B194F9445049462046FEF775FD7F1E33
:104BC000A763681C04D06D1C84F84450012010E0D9
:104BD00020690028FAD004F1100000F051FA0028F2
:104BE000F4D0B8F1000FF1D00121C8F80010EDE7C2
:104BF000002086F31188BDE8F08700002DE9F3431B
:104C0000002683B00400354609D0206C78B15020CE
:104C100080F31188BFF34F8FBFF36F8FFEE75020F3
:104C200080F31188BFF34F8FBFF36F8FFEE700F063
:104C300033F9DFF83C814FF000094FF0805748B955
:104C4000049838B1502080F31188BFF34F8FBFF321
:104C50006F8FFEE7FFF74EF9A06BC8B1401EA0634F
:104C6000206810B9FFF774F86060206950B104F152
:104C7000100000F005FA28B1C8F80070BFF34F8F9C
:104C8000BFF36F8FFFF756F9012005B0BDE8F08341
:104C9000049808B166B10FE03DB1502080F311884F
:104CA000BFF34F8FBFF36F8FFEE7FFF743F95DE070
:104CB0006846FFF745FA0126FFF73CF9FFF73CFC91
:104CC000FFF718F994F94400401C01D184F844908E
:104CD00094F94500401C01D184F84590FFF72AF96A
:104CE00004A9684600F046F80028204612D0FEF7D6
:104CF0008DFF00F0FDF92046FEF730FE0028A9D018
:104D00009DB3FFF7F7F8606A50B3206B0068C0F1FD
:104D1000380126E0FEF722FEE0B1206838B9FFF73F
:104D2000E9F8606800F070F90546FFF703F904F14F
:104D300024000499FFF71EFB2046FEF767FF00F0F2
:104D4000D7F9002886D1C8F80070BFF34F8FBFF3A2
:104D50006F8F7FE72046FEF759FF00F0C9F979E72A
:104D600000216068FFF73AFB9FE7FFE700208CE730
:104D700004ED00E02DE9F0410C46050011D0C4B16E
:104D8000FFF7B8F8174B5A696E682068911B471CEB
:104D900017D02F689B6A9F4219D0964217D80124DA
:104DA00010E0502080F31188BFF34F8FBFF36F8F57
:104DB000FEE7502080F31188BFF34F8FBFF36F8F52
:104DC000FEE70024FFF7B6F82046BDE8F0818842F0
:104DD00005D9401A20602846FFF7B2F9F1E7002014
:104DE0002060DCE7380000202DE9FF5F8346DDE925
:104DF0000E87994616468A469000FEF73DFF05004D
:104E00001CD05C20FEF738FF040014D0002025637E
:104E100084F85900CDE90240CDE900874B4632467F
:104E200051465846FEF709FD2046FEF7A9FB012032
:104E300004B0BDE8F09F2846FFF790F84FF0FF3030
:104E4000F6E7F0B585B0DDE90B640A9DA6B1DCB1EB
:104E50005C2700972663022684F85960002604AF79
:104E6000CDE90246CDE90057FEF7E7FC2046FEF704
:104E700087FB049805B0F0BD502080F31188BFF384
:104E80004F8FBFF36F8FFEE7502080F31188BFF381
:104E90004F8FBFF36F8FFEE70548C16919B1806B73
:104EA00018B10020704701207047022070470000B1
:104EB0003800002001484069704700003800002099
:104EC0002DE9F0412E4C0027A06B40B1206A401C18
:104ED0002062606A00B101273846BDE8F08166694A
:104EE000761C666113D16068006838B1502080F389
:104EF0001188BFF34F8FBFF36F8FFEE76068A16823
:104F00006160A060A06A401CA062FEF7F5FD206B06
:104F1000DFF87080864209D36068006880B16068FD
:104F2000C068C568686886420DD220632068C06A80
:104F300000EB800158F821000128CAD90127C8E7F1
:104F40004FF0FF30F1E7281DFEF770FFA86A18B197
:104F500005F11800FEF76AFFE86AA169884200D9E6
:104F6000A06100EB800108EB8100291DFEF7B6FF70
:104F7000E86A2168C96A8842CED30127CCE70000DD
:104F800038000020C804002070B504004FF0000174
:104F900033D01B4D2868844207D0502080F31188FD
:104FA000BFF34F8FBFF36F8FFEE7206D38B1401E08
:104FB0002065E36CE26A9A421FD040B11DE05020A8
:104FC00080F31188BFF34F8FBFF36F8FFEE7201D73
:104FD000FEF72CFFE06CE062C0F13800A061E06AEF
:104FE000A969884200D9A861064900EB800001EB5D
:104FF0008000211DFEF772FF0121084670BD0000F0
:1050000038000020C804002070B504004FF00000F4
:105010002BD0194DE16A2A68D26A914226D2A06942
:10502000002804DB2868C06AC0F13800A061134E74
:1050300001EB8101606906EB8101884211D1201DDD
:10504000FEF7F4FE2868C06AE062A969884200D9C8
:10505000A86100EB800006EB8000211DFEF73EFFFB
:1050600002E02868C06AE062012070BDE16C2A6835
:10507000D26A9142F8D370BD38000020C8040020E5
:1050800070B5C068C46854B104F118000646FEF754
:10509000CDFE144DA86B50B13146134815E0502099
:1050A00080F31188BFF34F8FBFF36F8FFEE7201D92
:1050B000FEF7BCFEE06AA969884200D9A8610B49E5
:1050C00000EB800001EB8000211DFEF707FFE06A86
:1050D0002968C96A884202D90120686270BD00202F
:1050E00070BD00003800002050090020C8040020D6
:1050F0002DE9F0472C4D00242746A86B38B1FEF768
:10510000F9FEA86B401EA863A86B40B146E0502092
:1051100080F31188BFF34F8FBFF36F8FFEE72969CC
:10512000224E0120D1B3A6F5916980463068E0B1E6
:10513000F068C46804F11800FEF778FE201DFEF741
:1051400075FEE06AA969884200D9A86100EB800178
:1051500009EB8100211DFEF7C1FEE06A2968C96ADA
:105160008842E3D3C5F82480E0E70CB1FEF7C4FC25
:105170002C6A4CB14FEA0806FFF7A2FE00B16E623E
:10518000641EF9D100202862686A38B108490127F5
:1051900038070860BFF34F8FBFF36F8FFEF7CAFE6B
:1051A0003846BDE8F0870000380000205009002094
:1051B00004ED00E010B586B0FEF74AFA114CA06885
:1051C000B8B100200390049005AA04A903A8FEF733
:1051D00053FEDDE9032102208DE8070000230AA128
:1051E0000B48059AFFF72DFEE06010B106B00120D4
:1051F00010BD502080F31188BFF34F8FBFF36F8F26
:10520000FEE7000074000020546D722053766300A6
:10521000E93B00082DE9FF411E46134602000A9DA6
:105220004FF0000016D0144CA768002F0FD0CDE926
:1052300000130292062917DAFFF72EFE02284FF01C
:1052400000030FD000226946A068FFF7DFFA04B020
:10525000BDE8F081502080F31188BFF34F8FBFF37A
:105260006F8FFEE72A46EEE700233246694638464E
:10527000FFF77CFBEBE700007400002010B591EA1B
:10528000030F48BF83F0004300F16C83841A71EB75
:10529000030C05D2121943EB0C03001B61EB0C014C
:1052A000DFF824E14FEA1154A4EB135C1EEA430F2C
:1052B00018BF9EEA445F73D023EA0E03DCF1200E90
:1052C00021EA045143F4801332D322FA0CFE10EB8E
:1052D0000E0023FA0CFE41EB0E01CCF1200E03FA76
:1052E0000EFE10EB0E0051F10001B1F5801FCCF164
:1052F000200E32D201EB045112FA0EF2BDE810403A
:1053000058BF7047401C38BF5FEA420218BF704761
:10531000002814BF20F0010041F100014FEA4103D1
:1053200013F5001F38BF7047A1F1C04100F000BB6A
:10533000012A43EB0302ACF1200CDCF11F0E32BF5B
:105340004FF0000E23FA0CF310EB030041EB045175
:10535000B4EB115FD0D0A1EB045101F580114908E5
:105360005FEA300001EB04510ED350F1000038BF6A
:1053700012FA0EFE08D1BDE81040C9E7401C38BF44
:105380005FEA4202CAD1C3E7BDE810404FEA4103D9
:1053900013F5001F38BF7047A1F1C04100F0C8BA33
:1053A0009EEA445F08D011EA5E0FBDE8104004BFDA
:1053B00001F0004100207047BDE8104070B500F0DA
:1053C00069FA00BF64FBBE3E0000E0FF02494FF0F7
:1053D000000000F0A9BB00BF0000F87F2DE9C0412C
:1053E00030B4DFF8A0C23CEA111418BF3CEA131431
:1053F00000F0EC8081EA03051CEA111444EAD5743C
:1054000018BF1CEA131500F0C780A4EB05044FF089
:10541000004545EAC12145EAC32341EA505143EA28
:10542000525304F17F74994204F500344FEAC020CE
:105430004FEAC22208BF904200F09C804FEA1365F9
:105440000FF24016765D4FEA134506FB05F7C7F1EC
:10545000807706FB07F74FEAD737A7FB036876424A
:10546000C8F58038A7FB06CE38BFA8F1010807FBB6
:1054700008E64FF0000EA6FB028CE6FB03CEDCF143
:10548000000CCEF1004E38BFAEF1010EA6FB0C5859
:105490004FF000074FF00005E6FB0E87A1FB08C6A2
:1054A000A0FB07CE16EB0E0645F10005E1FB0765F4
:1054B00015F1E04E7EBFA4F580345FEA46066D41EB
:1054C00016F1800745F100054FEA17274FEA0666F7
:1054D00047EA0567A6F1DE46B6F1805F4FEA15257B
:1054E0001FD9384624F0010C05EBC471BCF1FE6FE6
:1054F00001EB0C1102D8F0BCBDE8008124425CBF76
:1055000001F5801E9EEAC47F02D4F0BCBDE8008194
:10551000244238D4F0BCA1F1C041BDE8004100F004
:1055200007BA4FEAD22242EA43524FEAD323A7FBFB
:1055300002864FEAD02040EA415007FB03661EEA8C
:105540000E0F4FEAD12105FB026658BFA6EB0056AD
:10555000B6EB00564FEA520E4EEAC37E18EB0E0E23
:1055600056EB530EBDD518EB02085E417F1C55F17A
:105570000005B6E74FF480154FF000074FF0000626
:105580004FF00008ADE7F0BC4FF0000001F1C04162
:1055900001F00041BDE8008111EA0C1F0CEA13156F
:1055A00000D00CE013EA0C1F00F025804FF0000043
:1055B000F0BC81EA030101F00041BDE80081F0BCCC
:1055C000BDE8004181EA030100F0B2B9F0BCBDE8DA
:1055D000004170B500F05EF9097EFC3E00F007B8AE
:1055E00081EA03014FF0000001F00041704781EAB9
:1055F000030100F09DB9F0BCBDE800414FF0000090
:1056000021497047FFFDFBF9F7F5F4F2F0EEEDEB01
:10561000E9E8E6E4E3E1E0DEDDDBDAD8D7D5D4D3B0
:10562000D1D0CFCDCCCBCAC8C7C6C5C4C2C1C0BFFC
:10563000BEBDBCBBBAB9B8B7B6B5B4B3B2B1B0AF02
:10564000AEADACABAAA9A8A8A7A6A5A4A3A3A2A1E6
:10565000A09F9F9E9D9C9C9B9A99999897979695A1
:1056600095949393929191908F8F8E8E8D8C8C8B3D
:105670008B8A8989888887878685858484838382C5
:10568000828181800000FF070000F87F4FEA41031C
:105690004FEA5353A3F58063D3F11E03C8BFD3F180
:1056A000210C0CDD4FF0004242EAC12242EA505286
:1056B00032FA03FC8CEAE17CACEBE1707047102B12
:1056C000C4BF0020704703F5787CBCF1FF3F04D0D5
:1056D0006FF0004282EA2100704770B500F0DAF8FE
:1056E0004992248000207047F2E710F0004248BF42
:1056F0004042B0FA80F310FA03F10AD0C3F11D035F
:1057000003F580634FEA415002EB035202EBD121D3
:1057100070474FF000007047B0FA80F310FA03F1C1
:105720000AD0C3F11D0303F580634FEA41504FEAED
:10573000035202EBD12170474FF000007047000088
:10574000DFF848C170B51CEA111E1EBF1CEA131514
:105750009EEA0C0F95EA0C0F00F06F8081EA0304BB
:1057600023EA4C134EEAD47E21EA4C1141F4801115
:1057700043F48013AE44A1FB024CA0FB0365AEF1E1
:105780007F7E361955EB0C05A1FB034C4CF1000351
:10579000A0FB021C16EB0C06654153F10003094205
:1057A00018BF46F0010613F4007F0BD14FEA033116
:1057B0004FEA0530340341EA155140EA16506FF0C4
:1057C00003020AE04FEAC3214FEAC520F40241EA8E
:1057D000555140EA56506FF0020202EB2E4201EBA7
:1057E000025585EACE710AD05FEA440C18BF24F056
:1057F000004450F1000041F1000120EAD47040F271
:10580000FE7C624500D270BDA84214BF4FF08044B8
:105810004FF04044002E08BF0024BEF1806FA8BFA7
:10582000A1F1C041BDE8704080F282804FF00000DD
:1058300001F1C04101F0004170479EEA0C0F0CEAF3
:10584000131518BF95EA0C0F06D04FF0000081EA3F
:10585000030E0EF0004170BD00F01CF88900013EFF
:1058600000F007B800F009B84FEA430C5FEA5C5C4F
:1058700008D081EA030100F05BB84FEA410C5FEA0F
:105880005C5CF6D14FF00000014970470000FF0753
:105890000000F87F0EF1020E2EF0030E5EF8046B8E
:1058A000364205D4012A43EB030515F5001F12D833
:1058B000012841EB010C1CF5001F0CD80ED14FEA5A
:1058C000D17C15F5001F0CEB4C0C0CF1020C08BF41
:1058D0004CEBD37C04E04FF0080C01E04FEAD37CA2
:1058E0000CEB4C0526FA05F606F00706B6F1040C9B
:1058F00006D20EEB860CBDE870404CF0010C604700
:10590000DFE80CF0090B02024FF000414FF00000FD
:10591000A1F5002170BD19461046012851EB010484
:1059200018BFD4F5001484BF002001F0004170BD01
:105930000808A0F500114FEA3101704791EA030F02
:1059400010B581F000413FF5A1AC83F0004300F0B9
:1059500009B8000010B591EA030F48BF83F0004377
:105960003FF594AC841A71EB030C07D212198CF03A
:10597000004C43EB0C03001B61EB0C01DFF8A4E1CE
:105980004FEA1154A4EB135C1EEA430F18BF9EEAC2
:10599000445F00F0B08023EA6E03524221EA0451D2
:1059A000C3EB6E0338BF5B1EDCF1200E25D322FA59
:1059B0000CFE10EB0E0043FA0CFE41EB0E01CCF195
:1059C000200E03FA0EFE10EB0E0051F10001CCF197
:1059D000200E29D412FA0EF201EB0451BDE810405A
:1059E00058BF7047401C1CBFB2F1004F70470028E1
:1059F0000CBF491C20F00100704712EB020E43EB74
:105A0000030218BF4FF0010E4EEA4202ACF1200C27
:105A1000DCF11E0E54D943FA0CFE10EB0E0051F1CE
:105A2000FF31CCF11E0ED5D50EF1010E12FA0EFE8D
:105A3000404141EB010101EB445C5FEA5C5C10D941
:105A400010EBDE7001EB045138BFBEF1004FBDE832
:105A5000104018BF704700280CBF491C20F00100FF
:105A6000704730D24FEAD42C11F5001124F40064B1
:105A70001BD0B1FA81F20B3AA41AA41ED2F1200372
:105A8000914030FA03F31943904001EBCC71002CA4
:105A900001EB0451BDE81040A8BF704701F1C041BF
:105AA0004FF0000001F000417047B0FA80F310FAA7
:105AB00003F100D110BDE41A173C4805C90AE4E718
:105AC00001EB045110BD491001EB0451BDE8104039
:105AD0004FEA300002E04FF0000170474A0008BF73
