:020000040800F2
:10000000C83800209D010008830E0008710D00080B
:10001000810E00082D020008C90F00080000000032
:1000200000000000000000000000000005010008C2
:100030002F0200080000000049010008850E00089A
:10004000B7010008B7010008B7010008B7010008B0
:10005000B7010008B7010008B7010008B7010008A0
:10006000B7010008B701000831020008B701000815
:10007000B7010008B7010008B7010008B701000880
:10008000B7010008B7010008B7010008B701000870
:10009000B7010008B7010008B701000859020008BD
:1000A000B7010008B7010008B7010008B701000850
:1000B000110F0008B7010008B7010008B7010008D8
:1000C000B7010008B7010008B7010008B701000830
:1000D000B7010008B7010008B7010008B701000820
:1000E000B7010008B7010008B7010008DFF810D019
:1000F00000F08AF80048004709100008AFF30080BC
:10010000C8380020224B19680868B0E8F00F80F367
:100110000988BFF36F8F4FF0000080F311884EF015
:100120000D0E70470000000006480068006880F36C
:10013000088862B661B6BFF34F8FBFF36F8F00DFE1
:1001400000BF00BF08ED00E0EFF30980BFF36F8F41
:100150000F4B1A6820E9F00F106008B54FF05000FF
:1001600080F31188BFF34F8FBFF36F8F01F098FFBB
:100170004FF0000080F31188BDE808401968086856
:10018000B0E8F00F80F30988BFF36F8F704700BFAE
:1001900024000020EFF305807047000006488047E8
:1001A00006480047FEE7FEE7FEE7FEE7FEE7FEE75C
:1001B000FEE7FEE7FEE7FEE70F0F0008ED00000890
:1001C00040EA01039B0703D009E008C9121F08C0D9
:1001D000042AFAD203E011F8013B00F8013B521E59
:1001E000F9D27047D2B201E000F8012B491EFBD2D0
:1001F00070470022F6E710B513460A460446194632
:10020000FFF7F0FF204610BD064C074D06E0E06802
:1002100040F0010394E8070098471034AC42F6D34D
:10022000FFF768FF1C2F00083C2F0008FEE770470F
:10023000074810B50168C90605D5102101600548B9
:10024000006800F0D7FFBDE81040102000F024B88F
:1002500014040140100000200C4810B50168890604
:1002600009D52021016040210160802101600848FA
:10027000006800F0BFFF202000F00EF8402000F0E2
:100280000BF8BDE81040802000F006B814040140CF
:100290001000002070470000044910B50A680242AF
:1002A00002D00860FFF7F6FF10BD00001404014003
:1002B0002DE9F84FDFF8B8910024A9F1040B23468B
:1002C0000F2709F1040AABF1040EC9E00125A5408E
:1002D0002A40AA427DD1674ED1F804C0ACEB060893
:1002E000B44532D014DCBCF1030F3AD009DCBCF1C8
:1002F000000F2AD0BCF1010F1CD0BCF1020F31D18C
:100300001DE0BCF1110F17D0BCF1120F2AD119E07A
:10031000B8F5881F19D006DCB8F5803F15D0B8F5C0
:10032000801F1FD111E0B8F5001F0ED0B8F5041FD3
:1003300018D10AE0CB6815E0CB681B1D12E0CB6832
:1003400008330FE0CB680C330CE08B682BB1012B2A
:100350004FF0080303D0456104E0042302E0056187
:1003600000E00023FF2A01D8064601E000F1040660
:100370004FEA840501D9A5F12005D6F8008007FAD7
:1003800005FC28EA0C0803FA05F548EA0508C6F852
:1003900000804D68ED0062D5374DAE6946F001062C
:1003A000AE61AD6924F0030605F001050095334DFB
:1003B00006EB050CDCF80850A607360F07FA06F81E
:1003C00025EA0805DFF8B880404503D14FF0000862
:1003D00017E044E0DFF8AC80404502D14FF001085F
:1003E0000FE0DFF8A480404502D14FF0020808E09A
:1003F000DFF89880404502D14FF0030801E04FF04C
:10040000040808FA06F848EA0508CCF808804D68A0
:10041000D9F80060ED024D4601D5164300E0964341
:100420002E604D68DAF80060AD02554601D51643DE
:1004300000E096432E604D68DBF80060AD035D463A
:1004400001D5164300E096432E604D68DEF800604B
:10045000ED03754601D5164300E096432E60641CFB
:100460000D682A46E5407FF431AFBDE8F88F000003
:10047000080401400000111000100240000001407B
:1004800000080140000C0140001001400014014030
:100490008068084000D0012070470AB101617047B0
:1004A0000904FBE701488068704700001400002041
:1004B000024881680278114481607047140000206E
:1004C000074810B5016841F010010160032000F0F9
:1004D000A7F80F2000F006F800F050F8002010BD3B
:1004E0000020024030B50546204887B0C16941F080
:1004F0000101C161C06906A900F00100009001A8D6
:1005000000F036F90498B8B100F052F940001849EB
:100510004FF08042B0FBF1F11648491E0260416085
:1005200040F2E7320021C0E903218160816100F0DF
:1005300007FB040003D015E000F03AF9E7E70D48A7
:1005400000F02CFB04000DD11C2000F03BF8102D16
:1005500007D2002229461C2000F042F80648056018
:1005600000E0012407B0204630BD0000001002402A
:1005700040420F009C000020180000200F4808B5E2
:10058000816941F001018161816901F001010091FE
:10059000C16941F08051C161C069002200F0805002
:1005A00000900F21901E00F01BF80548416821F0D3
:1005B000E06141F00071416008BD000000100240A0
:1005C00000000140002809DB00F01F0201219140DA
:1005D0004009800000F1E020C0F8001170470000E1
:1005E000F0B40E4B1B680C46C3F30223C3F107059E
:1005F000042D00D90425191D072901D2002300E08C
:10060000DB1E012606FA05F1491E214099409E4055
:10061000761E16403143F0BC00F0D7BC0CED00E074
:10062000064900F0070208684FF6FF03184040EA49
:100630000220034A10430860704700000CED00E000
:100640000000FA052DE9F0470F46050061D0434E42
:10065000306800F00700B84209D2306820F0070087
:1006600038433060306800F00700B84251D1286844
:100670003B4C810712D5400703D5606840F4E06029
:1006800060602878000703D5606840F460506060BF
:100690006068A96820F0F000084360602878C0070F
:1006A00028D06868012810D02168022810D0890756
:1006B00000292EDA616821F0030101436160FFF730
:1006C000F1FE804641F288390DE021688903EFE7A9
:1006D0008901EDE7FFF7E6FEA0EB0801494502D9E5
:1006E0000320BDE8F0876068696800F00C00B0EB9B
:1006F000810FEFD1306800F00700B8420BD93068A5
:1007000020F0070038433060306800F00700B8423E
:1007100001D00120E5E72878400705D56068E96841
:1007200020F4E060084360602878000706D5606820
:10073000296920F4605040EAC100606000F048F888
:100740006168084AC1F30311515CC840064908605A
:1007500006480068FFF7C6FE0020C2E700200240FE
:1007600000100240E22E00082000002018000020A7
:100770000F2202600C4A536803F00303436053687E
:1007800003F0F0038360536803F4E063C3605268CE
:100790004FF4E06303EAD20202610448006800F00B
:1007A000070008607047000000100240002002406F
:1007B0000448054900684968044AC1F30221515CB4
:1007C000C84070472000002000100240F22E0008B0
:1007D0000E4A51680E4801F00C03042B11D0082B6F
:1007E0000FD10C48C1F38343C903C05C0AD55168DB
:1007F000084AC1F34041921E515C054A5043B0FB88
:10080000F1F070470449484370470000001002406F
:1008100000127A00D22E000800093D002DE9F84FA1
:10082000040070D02078C04DC00749D06868C0F37C
:100830008100012807D06868C0F38100022809D12F
:100840006868C00306D52868800339D56068002829
:10085000E7D035E06068B0F5803F0BD010B1B0F55F
:10086000A02F11D0286820F480302860286820F458
:10087000802002E0286840F480302860606890B1F1
:10088000FFF710FE06460AE0286840F48020286042
:10089000F0E700BFFFF706FE801B642873D82868C6
:1008A0008003F7D50CE0FFF7FDFD064605E000BF2D
:1008B000FFF7F8FD801B6428F0D828688003F7D480
:1008C00020789A4E80074FF001094FF0000839D583
:1008D000686810F00C0F07D06868C0F38100022828
:1008E00009D16868C00306D42868800714D5206938
:1008F000012808D110E02069B0B1C6F80090FFF7D8
:10090000D1FD074605E00AE1FFF7CCFDC01B022838
:10091000C4D828688007F7D52868616920F0F800F6
:1009200040EAC10028600DE0C6F80080FFF7BAFD7C
:10093000074604E0FFF7B6FDC01B022823D828684D
:100940008007F7D4207800072CD57948A169D9B160
:10095000C0F80090FFF7A6FD074604E0FFF7A2FDF0
:10096000C01B02280FD8686A8007F7D571484FF47A
:10097000FA510068B0FBF1F0009000BF0098411EF2
:100980000091FAD20EE080E0C0F80080FFF78AFD07
:10099000074604E0FFF786FDC01B022875D8686A89
:1009A0008007F7D42078400760D5E8690027C000A9
:1009B00008D4E86940F08050E861E869012700F058
:1009C000805000905C480168C90513D401688346D3
:1009D00041F480710160FFF765FD824606E000BFCB
:1009E000FFF760FDA0EB0A0064284ED8DBF800009A
:1009F000C005F5D5E06801280AD008B1052813D054
:100A0000286A20F001002862286A20F0040002E031
:100A1000286A40F001002862E06841F2883B98B102
:100A2000FFF740FD82460BE0286A40F00400286290
:100A3000EEE700BFFFF736FDA0EB0A0159455AD893
:100A4000286A8007F6D50CE0FFF72CFD824605E00A
:100A5000FFF728FDA0EB0A0159454CD8286A80070A
:100A6000F6D41FB1E86920F08050E861E06988B3EE
:100A70006968C1F38101022944D00228C6F8608068
:100A800004D0FFF70FFD044638E034E0FFF70AFD1D
:100A9000074604E0FFF706FDC01B02282BD8286894
:100AA0008001F7D4206AB0F5803F05D16868A1685D
:100AB00020F4003008436860D4E9080108436968FD
:100AC00021F4741108436860C6F86090FFF7EAFCEF
:100AD000044606E025E000BFFFF7E4FC001B022807
:100AE00009D828688001F7D51BE000BFFFF7DAFCC2
:100AF000001B022802D90320BDE8F88F2868800176
:100B0000F4D40EE00128F7D06868226A00F480313E
:100B1000914204D1616A00F47010884201D0012032
:100B2000EAE70020E8E7000000100240000042422F
:100B3000800442422000002000700040704770474F
:100B400010B5040003D094F83D0010B107E0012077
:100B500010BD002084F83C00204600F01EF8022062
:100B600084F83D00211D206800F0D8F9012084F8A8
:100B7000460084F83E0084F83F0084F8400084F882
:100B8000410084F8420084F8430084F8440084F86B
:100B9000450084F83D00002010BD704790F83D10DE
:100BA000012901D001207047022180F83D10016821
:100BB000CA6842F00102CA6000680B49884208D046
:100BC000B0F1804F05D00949884202D008498842D7
:100BD00004D1816801F00701062903D0016841F0C2
:100BE0000101016000207047002C0140000400401A
:100BF00000080040704770B50446006801694FF076
:100C00000005C943890715D4C168C943890711D4B0
:100C1000E91E016101202077206880698007204655
:100C200002D0FFF7E7FF04E000F098F8204600F05C
:100C300096F8257720680169C943490717D4C16828
:100C4000C943490713D46FF00401016102202077E2
:100C50002068806910F4407F204602D0FFF7CAFF69
:100C600004E000F07BF8204600F079F82577206852
:100C70000169C943090716D4C168C943090712D4D9
:100C80006FF008010161042020772068C0698007A7
:100C9000204602D0FFF7AEFF04E000F05FF82046E8
:100CA00000F05DF8257720680169C943C90617D4AB
:100CB000C168C943C90613D46FF01001016108204F
:100CC00020772068C06910F4407F204602D0FFF7EB
:100CD00091FF04E000F042F8204600F040F825774C
:100CE00020680169C943C90708D1C168C943C90758
:100CF00004D1891E0161204600F032F820680169A4
:100D0000C943090609D4C168C943090605D46FF06F
:100D1000800101612046FFF711FF20680169C94386
:100D2000490609D4C168C943490605D46FF040019A
:100D30000161204600F01BF820680169C94389065B
:100D40000BD4C168C943890607D46FF02001016143
:100D50002046BDE87040FFF7F2BE70BD7047704797
:100D60000068B0F1804F01D1FFF7A2BB7047704718
:100D7000FEE7000010B501210A4A084600F0E2F93A
:100D8000094C084A00212061483A084800F06AFAF4
:100D9000044AA060243A0021054800F063FAE060AC
:100DA00010BD0000C02E000800000020890F0008C0
:100DB000751F00082DE9F04186B000242C480094EE
:100DC000019402940394816941F010018161816969
:100DD00001F010010491816941F020018161816974
:100DE00001F020010491816941F004018161806971
:100DF000012200F004001F4F550304902946384695
:100E0000FFF74BFBDFF8708001220F214046FFF710
:100E100044FB0126CDE90056022569463846CDE956
:100E20000245FFF745FA0F20CDE900066946404626
:100E3000CDE90245FFF73CFAF02000900F48CDE9DC
:100E4000010569464046FFF733FA002205210A20D2
:100E5000FFF7C6FB0A20FFF7B5FB0022052117208C
:100E6000FFF7BEFB1720FFF7ADFB06B0BDE8F08132
:100E70000010024000100140000801400000111065
:100E8000FEE7FEE710B5502080F31188BFF34F8FC7
:100E9000BFF36F8F01F00AFE18B104494FF0805084
:100EA0000860002080F3118810BD000004ED00E010
:100EB00030B58FB028216846FFF79BF914210AA8A6
:100EC000FFF797F901210804CDE9001000240294EE
:100ED00002250491CDE907504FF4E01009906846CF
:100EE000FFF79CFC08B172B6FEE70F20CDE90A05BA
:100EF0004FF48060CDE90C4002210AA80E94FFF760
:100F0000A1FB002801D072B6FEE70FB030BD7047DC
:100F10000148FFF770BE00009C000020F0B5026899
:100F2000164B174C174D4FF08047984205D0B842EA
:100F300003D0A04201D0A84203D122F070064A6833
:100F40003243984205D0B84203D0A04201D0A84213
:100F500003D122F44074CA6822434C6922F0800213
:100F6000224302608A68C2620A688262984201D1A2
:100F70000969016301214161F0BD0000002C0140BD
:100F800000040040000800400D4F0E4C4FF4005686
:100F90000A25608801280AD00A2804D0A0880A28D7
:100FA00001D06580A580012000F03CF8F1E7A08821
:100FB0000128F3D1002231463846FFF76EFAF0E7F8
:100FC0000010014000000020FEE70907090E00287C
:100FD00004DB00F1E02080F80014704700F00F00FF
:100FE00000F1E02080F8141D704702E008C8121FCD
:100FF00008C1002AFAD170477047002001E001C102
:10100000121F002AFBD17047FFF75AFAFFF750FF73
:10101000FFF7D0FE00F020F8FFF7ACFE00F038F844
:10102000FEE7000010B5EFF3058149B9EFF3108139
:1010300031B908490968022905D1EFF3118111B1CD
:101040006FF0050403E0002408B100F0E3FE204641
:1010500010BD000074000020EFF3058058B9EFF3D5
:10106000108040B909490868022801D030B109E070
:10107000EFF3118030B16FF0050070470120086078
:10108000002070474FF0FF307047000074000020D0
:1010900010B5EFF3058060B9EFF3108048B90B4944
:1010A0000868022802D0012806D00BE0EFF3118077
:1010B00040B16FF0050010BD0220086000F0A4FFF1
:1010C000002010BD4FF0FF3010BD00007400002064
:1010D000F8B50D460024211F4E1C00280ED000BF7D
:1010E000EFF305824AB9EFF3108232B9134A12685E
:1010F000022A17D1EFF31182A2B10DB10C461BE009
:1011000000216A46009101F021FB012813D10098CB
:1011100090B10B494FF080500860BFF34F8FBFF381
:101120006F8F09E0294601F05FFB012804D015B15B
:101130006FF0010400E034462046F8BD7400002042
:1011400004ED00E0F8B5144603460E464FF00005E6
:10115000EFF30580E8BBEFF31080D0BB24480068B4
:10116000022802D1EFF3118098BB93B39E423DD881
:101170004CB1A0680028E06803D0502836D3012085
:1011800002E008B132E00020012B05D010B3184670
:10119000A26801F028F820E040B10320009000226E
:1011A00011460120A36801F062F804E00322002147
:1011B000012001F038F8050018D086B100231A4646
:1011C000194601F0CBF8012809D0284600F0D4FDDB
:1011D00000250BE0184600F0E9FF050006D00CB131
:1011E000216800E00021284600F0B2FD2846F8BD45
:1011F0007400002038B50024E51E002804D000BF8C
:10120000EFF3058169B902E06FF0030423E0EFF327
:10121000108131B911490968022914D1EFF3118104
:1012200089B100210091694601F0A6F9012811D188
:10123000009880B10A494FF080500860BFF34F8F8B
:10124000BFF36F8F07E000231A46194601F086F8B6
:10125000012800D02C46204638BD00007400002034
:1012600004ED00E0F0B585B04FEA01034FF0000453
:10127000EFF305810394A1BBEFF3108189BB2149F2
:101280000968022902D1EFF3118151BB48B38026CE
:1012900018218DF8104004AD42B3176807B13D46E0
:1012A00097691FB139467F1E382F02D21779FF0781
:1012B00002D0002005B0F0BD576907B1BE08D2F8D2
:1012C00008C0BCF1000F0DD0D4685C2C18D3126993
:1012D0003AB137B18DE806103246294601F0A7FB36
:1012E00003900DE0D7685FB912694AB903AACDE946
:1012F0000012B2B2294601F06DFB012800D0039420
:101300000398D7E7740000202DE9F041134C0F46F5
:10131000054666692068001D00F020FC681C07D1A6
:1013200037B12168BDE8F0410D48091D00F066BCE9
:1013300020683544B5424560216805D2A068BDE803
:10134000F041091D00F042BC6068091D00F03EFC40
:10135000206B854200D22563BDE8F0812400002087
:10136000D40500202DE9F041054600F053FC2D4C3A
:101370002069401C206120682B4F10B1E06930B318
:101380002BE025602069012827D1002606EB860086
:1013900007EB800000F00CFC761C382EF6D32348B7
:1013A00000F006FC2148143000F002FC1F482830F1
:1013B00000F0FEFB1D483C3000F0FAFB1B485030AB
:1013C00000F0F6FB194860601430A06005E020686A
:1013D000E96AC06A884200D82560E06A401CE06281
:1013E0006864E86AA169884200D9A06100EB8000C6
:1013F00007EB8000291D00F001FC00F02BFCE069E8
:1014000000280CD02068E96AC06A884207D20849DF
:101410004FF080500860BFF34F8FBFF36F8FBDE870
:10142000F081000024000020240100208405002019
:1014300004ED00E038B500F0EDFB104CA068C8B931
:101440000F4800F0B5FB0E48143000F0B1FB0C481B
:101450002060143060600A4B00202833009003F1B4
:10146000500210210A2000F002FFA06010B105A177
:1014700000F06EFCBDE8384000F0ECBB60000020DE
:10148000E8050020546D72510000000030B4026C79
:101490000B46002A0BD0C1681144C1604468A142C8
:1014A00001D30168C16030BC1846FEF789BE30BC6C
:1014B00070472DE9F041856B174604460026026C03
:1014C00082B1C7B1E068FEF77BFEE168206C091AC3
:1014D000E1602268914202D26168081AE060022F3E
:1014E00016D017E02068A8B9606801F043FB0646F3
:1014F000002060600EE0A068FEF762FE216CA0682C
:101500000844A0606168884204D32068A06001E0BC
:1015100005B16D1E6D1CA5633046BDE8F08110B5A8
:10152000044690F8590058B101280CD002280FD079
:10153000502080F31188BFF34F8FBFF36F8FFEE70A
:10154000206B00F09BFB2046BDE8104000F096BBEE
:1015500010BD00000F4842F21071420705D0C01DB7
:101560000C4A20F00700821A891A0B4A0023014412
:10157000C2E900030839103A21F0070111604B60FD
:101580000B600B1AC0E9001393604FF000405360EA
:10159000D0607047B80D002088000020144E154C14
:1015A000A6F29C474FF08058DFF84C9012E000BF45
:1015B00000F030FBF068C568281D00F0CFFA206904
:1015C000401E2061E068401EE06000F043FB2846BA
:1015D000FFF7A5FFE0680028EAD138680128F9D9AB
:1015E000C9F80080BFF34F8FBFF36F8FF2E70000A1
:1015F000C00500202400002004ED00E070B51D4669
:10160000049C51B1C4F80020C4E90F010121204617
:1016100000F060FE84F84C5070BD2460F4E72DE9C2
:10162000F0470E46DDE90984174682469100994647
:10163000089DA522206BFEF7D5FD6FF00301206BFE
:1016400001EB8701084420F00707780707D05020F6
:1016500080F31188BFF34F8FBFF36F8FFEE722181F
:10166000315C82F83410315C11B1401C1028F6D383
:10167000002684F84360382D00D33725E562C4E99D
:101680001356201D00F09FFA04F1180000F09BFA99
:101690002461C5F138006462A061666584F8586011
:1016A0004A465146384600F047FA2060B8F1000F2C
:1016B00001D0C8F80040BDE8F087000030B51149FE
:1016C00000E011460A688242FBD34B685C188442F2
:1016D00003D1406818444860084643681C18944287
:1016E00009D1084C103C2468A24209D052681A441F
:1016F00042600A6812680260814200D0086030BD12
:101700000460F9E78800002070B5002441600B4DAB
:101710000061914206D8D11A8269914206D2011D18
:10172000686807E09A4203D2994201D3012403E09A
:10173000011D286800F04AFA204670BD60000020B4
:1017400010B5044600F066FAA06B28B15FF0000403
:1017500000F080FA204610BD0124F9E730B589B0C9
:10176000304D55E00498002806DADDE90601059AB7
:101770009047049800284BDB069C606910B1201D3F
:1017800000F0ECF902A800F0B9F8024604980A2823
:101790003ED2DFE800F00505053D263705053D266C
:1017A0000598A169034601442046FFF7ADFF00B349
:1017B000616A20468847E069012829D1002000900D
:1017C0000598A169002342181946204601F018FB2C
:1017D00078B9502080F31188BFF34F8FBFF36F8F1C
:1017E000FEE70598A06128B1811813462046FFF74F
:1017F0008BFF0DE0502080F31188BFF34F8FBFF3B4
:101800006F8FFEE794F82C0010B9204600F036FAEE
:10181000002204A9A86800F0FDFE0028A2D109B0AA
:1018200030BD0000600000202DE9FC410F46054658
:1018300000F02EFC01A800F061F80446019818B1F0
:1018400001F04CFABDE8FC81224EAFB1706800682F
:10185000A8B30027291B3A46B06800F0B9FA01F096
:101860003DFA0028EED11C494FF080500860BFF3CC
:101870004F8FBFF36F8FE5E7A542EBD801F02EFA4B
:1018800030682746C068C468201D00F067F9E06929
:10189000012810D1A0692B4641193A462046FFF78E
:1018A00033FF40B100200346014600902A462046FF
:1018B00001F0A6FA20B1616A20468847C2E707E036
:1018C000502080F31188BFF34F8FBFF36F8FFEE777
:1018D0000127BFE76000002004ED00E006484168F2
:1018E000096829B14168C968C968496801637047D6
:1018F0004FF0FF31FAE700002400002070B50546E4
:1019000001F0CEF8064E04463069844203D200F05E
:1019100009F8012000E0002028602046346170BDF5
:1019200060000020F8B5194D1FE0C068C468066863
:10193000201D00F013F9616A20468847E0690128FC
:1019400013D1A0693044B04206D924616060211DE2
:10195000286800F03BF908E00020034601460090AB
:101960003246204601F04CFA38B128680168002957
:10197000DBD16968C5E90010F8BD502080F31188FB
:10198000BFF34F8FBFF36F8FFEE7000060000020B2
:1019900008484068401C4FF0500080F3118804D084
:1019A000BFF34F8FBFF36F8FFEE7BFF34F8FBFF3D0
:1019B0006F8FFEE790000020074C2068016841B15E
:1019C000C0680021D0F80000FFF72EFFFFF7C6FE29
:1019D000F3E701210020F7E7600000202DE9F04146
:1019E000044600F017F994F9455004F1240609E083
:1019F000606A48B1304601F039F908B100F038FAB0
:101A00006D1E6DB2002DF3DC4FF0FF3684F845609B
:101A100000F020F900F0FEF894F9445004F11007AA
:101A200009E0206948B1384601F020F908B100F01A
:101A30001FFA6D1E6DB2002DF3DC84F84460BDE822
:101A4000F04100F007B900002DE9F04105460027FC
:101A500000F01EFB314E306808B9FFF77BFDF068DF
:101A600005424BD1C5B3083568070ED005F0070015
:101A7000C0F108000544680707D0502080F31188A2
:101A8000BFF34F8FBFF36F8FFEE72DB370688542B2
:101A900034D82248103001460C6801E020460C463C
:101AA0006168A94202D221680029F7D131688C42CD
:101AB00024D007682168016060680837411B10293D
:101AC0000FD96019420708D0502080F31188BFF366
:101AD0004F8FBFF36F8FFEE710E041606560FFF747
:101AE000EDFD61687068401A7060B268904200D283
:101AF000B060F06801430020C4E9000101F0EEF895
:101B0000780707D0502080F31188BFF34F8FBFF3C1
:101B10006F8FFEE73846BDE8F081000078000020B6
:101B20000449086818B10868026D521C026508680B
:101B3000704700002400002010B5031F4FF0807490
:101B40001C601B1F21F001011960191F024B0B6063
:101B5000143940380A6010BD91190008D0E90132EB
:101B600001699A60D0E901235A604A68824201D132
:101B700082684A60002202610868401E08600868A6
:101B800070470000034B036003F15C000860802095
:101B90001060704700070020044B036003F15C00F5
:101BA00008604FF480701060704700005C090020EE
:101BB00000F108014FF0FF32C0E90112C16001617C
:101BC00000210160704700210161704730B50B684A
:101BD0005A1C02D000F1080202E0026904E0224629
:101BE000546825689D42FAD953684B6099608A60B1
:101BF000516008610168491C016030BD42684A605B
:101C000093688B6093685960916008610168491C12
:101C100001607047502080F31188BFF34F8FBFF3EE
:101C20006F8F0A494868401C486001280CD1084859
:101C3000006810F0FF0F07D0502080F31188BFF329
:101C40004F8FBFF36F8FFEE77047000090000020BA
:101C500004ED00E00849486828B1401E486001D101
:101C600080F311887047502080F31188BFF34F8FA5
:101C7000BFF36F8FFEE700009000002070B50028D2
:101C800027D0144DA0F108046168E868014207D12B
:101C9000502080F31188BFF34F8FBFF36F8FFEE7A3
:101CA00022683AB1502080F31188BFF34F8FBFF301
:101CB0006F8FFEE78143616000F0EAF96068696850
:101CC000084468602046FFF7F9FCBDE8704001F069
:101CD00005B870BD780000204FF0E02000210161C0
:101CE000816105494FF47A720968B1FBF2F1491E2E
:101CF00041610721016170472000002010B5FEF707
:101D000049FA114910280ED300F1E02090F8F003B1
:101D10000A78904207D2502080F31188BFF34F8F8A
:101D2000BFF36F8FFEE709480068896800F4E06040
:101D3000884207D9502080F31188BFF34F8FBFF33B
:101D40006F8FFEE710BD0000900000200CED00E05A
:101D500010B5084B002200BF53F832401CB1521C92
:101D6000082AF9D310BD43F8321003EBC2014860D2
:101D700010BD0000E400002010B504000AD000F0FF
:101D800013F894F8460000280CD12046BDE8104016
:101D9000FFF774BF502080F31188BFF34F8FBFF35C
:101DA0006F8FFEE710BD0000084A002102EBC1035F
:101DB0005B68834206D1002042F8310002EBC1018A
:101DC00048607047491C0829F0D37047E4000020A0
:101DD00070B515460E460446FFF71CFF94F94410F3
:101DE0000020491C01D184F8440094F94510491C95
:101DF00001D184F84500FFF72DFFA06B28B92A46D2
:101E0000314604F1240000F051F82046BDE870404E
:101E1000FFF7E4BD10B5020014D00F48806B38B155
:101E2000502080F31188BFF34F8FBFF36F8FFEE711
:101E300000F02EF900211046FFF766FA00F04EFF81
:101E4000002807D105494FF080500860BFF34F8F3D
:101E5000BFF36F8F10BD00002400002004ED00E0F0
:101E600002498A6A02604969416070472400002083
:101E700001490120486270472400002010B50C463B
:101E800050B1094909681831FFF7A0FE2046BDE8A6
:101E900010400121FFF738BA502080F31188BFF3BA
:101EA0004F8FBFF36F8FFEE72400002070B51446FC
:101EB0000D4668B10A4909681831FFF79FFE0CB159
:101EC0004FF0FF3521462846BDE87040FFF71CBAA9
:101ED000502080F31188BFF34F8FBFF36F8FFEE761
:101EE0002400002070B504003ED0226DA2B1E06C49
:101EF000884200D30146E06A884235D0012A33D1B6
:101F00001A4D2A6894420FD1502080F31188BFF3F4
:101F10004F8FBFF36F8FFEE7502080F31188BFF320
:101F20004F8FBFF36F8FFEE7E162A269002A02DBE9
:101F3000C1F13801A1610E4E00EB8000616906EB32
:101F40008000814210D1201DFFF708FEE06AA969D8
:101F5000884200D9A86100EB800006EB8000211DBB
:101F6000BDE87040FFF74ABE70BD000024000020AD
:101F700024010020214886B0214ED0E90012CDE98D
:101F80000312D0E90210CDE900101E4C4FF0FF3AC9
:101F900051462069FFF79CF80028F9D100220F2153
:101FA0003046FEF77AFA0025A8460DF10C096F4677
:101FB00039F8151001223046FEF76FFA0120FFF7BD
:101FC00031F8404684F80080C0B237F8101030462F
:101FD000FEF75EFA01280DD02078401CC0B22070B8
:101FE0000428F1D360880A28D2D16D1CEDB2042DEB
:101FF000DED3CDE765802078A080F3E7682E000867
:10200000000801400000002030B587B00024039490
:1020100005AA04A903A80494FFF7B4FDDDE90301B0
:102020000094CDE90110002315A11748059A00F08E
:10203000FEFC164D002868631FD000F0B1FE012899
:1020400009D0401C19D1502080F31188BFF34F8F65
:10205000BFF36F8FFEE7502080F31188BFF34F8FDF
:10206000BFF36F8F4FF0FF3028630120E8616C6190
:1020700007B0BDE8304000F045B807B030BD000003
:1020800049444C45000000009D1500082400002034
:102090000248816B491C81637047000024000020C6
:1020A000164810B5816B11B10121416210BD0021AC
:1020B00041628169124A01E0B9B1491E01EB810315
:1020C00052F82330002BF7D001EB810302EB83029F
:1020D00002F1080453685B685360A34201D15B6856
:1020E0005360DA680260816110BD502080F311886E
:1020F000BFF34F8FBFF36F8FFEE700002400002077
:10210000240100201CB5264908780190FF200870A2
:1021100008788DF800009DF800009DF8002000F080
:10212000F000904207D0502080F31188BFF34F8F0A
:10213000BFF36F8FFEE79DF800001A4B00F05000D0
:1021400018700720986005E09DF8002052008DF877
:102150000020401E9DF800201206F5D49860032848
:1021600007D0502080F31188BFF34F8FBFF36F8FDC
:10217000FEE74FF440709860019808700A480168C3
:1021800041F470010160016841F070410160FFF7A6
:10219000A3FD00205860FDF7C7FF00201CBD000014
:1021A00000E400E09000002020ED00E010B50C46B7
:1021B00048B184420FD9502080F31188BFF34F8F6C
:1021C000BFF36F8FFEE7502080F31188BFF34F8F6E
:1021D000BFF36F8FFEE70222002100F024F80028F1
:1021E00000D0846310BD38B50C4648B184420FD985
:1021F000502080F31188BFF34F8FBFF36F8FFEE73E
:10220000502080F31188BFF34F8FBFF36F8FFEE72D
:102210000221134600220091114600F028F8002800
:1022200000D0846338BDF8B517460E46050014D0BB
:10223000DEB105FB06F05030FFF706FC04000AD0C3
:10224000002084F8460004F150023B4631462846FF
:102250000094FFF7D3F92046F8BD502080F3118891
:10226000BFF34F8FBFF36F8FFEE70020E3E738B572
:10227000049D18B153B1CAB181B120E0502080F360
:102280001188BFF34F8FBFF36F8FFEE7502080F3AD
:102290001188BFF34F8FBFF36F8FFEE7502080F39D
:1022A0001188BFF34F8FBFF36F8FFEE739B1502016
:1022B00080F31188BFF34F8FBFF36F8FFEE7502479
:1022C0001C46012384F846302B460094FFF796F90C
:1022D000204638BD70B50D46040025D0FFF79AFCA6
:1022E000D4E90F20216802FB001161600021A16385
:1022F0002168A1600A46D4E90F01401E00FB0121BC
:10230000E16021464FF0FF3001F8440F487004F1BE
:1023100010008DB1FFF74CFC04F12400FFF748FCDE
:10232000FFF798FC012070BD502080F31188BFF3A7
:102330004F8FBFF36F8FFEE721690029F0D000F0C7
:1023400095FC0028ECD004494FF080500860BFF3A2
:102350004F8FBFF36F8FE3E704ED00E02DE9FF47F8
:1023600082B01D468A464FF00008040003D0BAF13F
:10237000000F08D011E0502080F31188BFF34F8F79
:10238000BFF36F8FFEE7206C38B1502080F31188C7
:10239000BFF34F8FBFF36F8FFEE7022D0AD1E06BC3
:1023A000012807D0502080F31188BFF34F8FBFF36F
:1023B0006F8FFEE700F066FB3F4F4FF000094FF0D4
:1023C000805648B9049838B1502080F31188BFF383
:1023D0004F8FBFF36F8FFEE7FFF71CFCA06BE16B25
:1023E000884207D3022D05D00498D0B1B8F1000F70
:1023F0001AD01EE02A4651462046FFF75AF8616A75
:1024000019B104F1240000F031FC20B13E60BFF3AB
:102410004F8FBFF36F8FFFF71DFC012006B0BDE8A3
:10242000F087FFF717FC22E06846FFF719FD4FF031
:102430000108FFF70FFCFFF72BFEFFF7EBFB94F90A
:102440004400401C01D184F8449094F94500401C9C
:1024500001D184F84590FFF7FDFB04A9684600F020
:102460007FFA30B12046FFF7B9FA00F037FC0020C0
:10247000D4E7FFF7CFFBA06BE16B884213D1FFF7E6
:10248000E9FB04F110000499FFF7F8FC2046FFF780
:10249000A5FA00F023FC00289ED13E60BFF34F8FC9
:1024A000BFF36F8F98E7FFF7D5FB2046FFF796FA4B
:1024B00000F014FC90E7000004ED00E02DE9F04787
:1024C0001F4690468946040003D0B9F1000F08D09A
:1024D00011E0502080F31188BFF34F8FBFF36F8F4F
:1024E000FEE7206C38B1502080F31188BFF34F8F86
:1024F000BFF36F8FFEE7022F0AD1E06B012807D0F0
:10250000502080F31188BFF34F8FBFF36F8FFEE72A
:10251000FFF7F4FB5020EFF3118680F31188BFF32F
:102520004F8FBFF36F8FA06BE16B884206D3022FF2
:1025300004D0002086F31188BDE8F08794F9455057
:102540003A4649462046FEF7B4FF681C04D06D1C8D
:1025500084F845500120EDE7606A0028FAD004F1C4
:10256000240000F083FB0028F4D0B8F1000FF1D074
:102570000121C8F80010EDE770B50E46040009D03F
:10258000206C78B1502080F31188BFF34F8FBFF3D8
:102590006F8FFEE7502080F31188BFF34F8FBFF39A
:1025A0006F8FFEE7206848B9606838B1502080F32B
:1025B0001188BFF34F8FBFF36F8FFEE7FFF79EFBCE
:1025C0005020EFF3118580F31188BFF34F8FBFF3D5
:1025D0006F8FA16BE06B884218D994F94500491CB4
:1025E000A163411C04D0401C84F8450001200EE08A
:1025F000606A0028FAD004F1240000F037FB0028BC
:10260000F4D0002EF2D001203060EFE7002085F3F7
:10261000118870BD2DE9F747002683B08A46040073
:1026200003D0BAF1000F08D011E0502080F31188D8
:10263000BFF34F8FBFF36F8FFEE7206C38B1502090
:1026400080F31188BFF34F8FBFF36F8FFEE700F069
:1026500019FADFF8F4804FF000094FF0805748B9BD
:10266000059838B1502080F31188BFF34F8FBFF326
:102670006F8FFEE7FFF7CEFAA56BC5B15146204636
:10268000FEF704FF6D1EA563206950B104F1100030
:1026900000F0ECFA28B1C8F80070BFF34F8FBFF319
:1026A0006F8FFFF7D7FA012006B0BDE8F0870598D5
:1026B00008B11EB106E0FFF7CDFA27E06846FFF744
:1026C000CFFB0126FFF7C6FAFFF7E2FCFFF7A2FAFD
:1026D00094F94400401C01D184F8449094F94500D9
:1026E000401C01D184F84590FFF7B4FA05A968466B
:1026F00000F036F9002820460AD0FFF76FF900F005
:10270000EDFA2046FFF71CF80028B3D00020CBE7F5
:10271000FFF716F890B104F124000599FFF7AEFB1E
:102720002046FFF75BF900F0D9FA0028A2D1C8F8DB
:102730000070BFF34F8FBFF36F8F9BE72046FFF70B
:102740004DF900F0CBFA95E704ED00E02DE9F047F4
:1027500090468946040003D0B9F1000F08D011E07B
:10276000502080F31188BFF34F8FBFF36F8FFEE7C8
:10277000206C38B1502080F31188BFF34F8FBFF326
:102780006F8FFEE7FFF7BAFA5020EFF3118680F360
:102790001188BFF34F8FBFF36F8FA76BF7B194F919
:1027A000445049462046FEF771FE7F1EA763681C11
:1027B00004D06D1C84F84450012010E020690028EA
:1027C000FAD004F1100000F051FA0028F4D0B8F16A
:1027D000000FF1D00121C8F80010EDE7002086F3CA
:1027E0001188BDE8F08700002DE9F343002683B08F
:1027F0000400354609D0206C78B1502080F3118850
:10280000BFF34F8FBFF36F8FFEE7502080F3118827
:10281000BFF34F8FBFF36F8FFEE700F033F9DFF8A0
:102820003C814FF000094FF0805748B9049838B107
:10283000502080F31188BFF34F8FBFF36F8FFEE7F7
:10284000FFF7E8F9A06BC8B1401EA063206810B97B
:10285000FFF766F96060206950B104F1100000F0E4
:1028600005FA28B1C8F80070BFF34F8FBFF36F8F20
:10287000FFF7F0F9012005B0BDE8F083049808B136
:1028800066B10FE03DB1502080F31188BFF34F8F48
:10289000BFF36F8FFEE7FFF7DDF95DE06846FFF7F6
:1028A000DFFA0126FFF7D6F9FFF7F2FBFFF7B2F9DF
:1028B00094F94400401C01D184F8449094F94500F7
:1028C000401C01D184F84590FFF7C4F904A968467B
:1028D00000F046F80028204612D0FFF77FF800F0FD
:1028E000FDF92046FEF72CFF0028A9D09DB3FFF785
:1028F00091F9606A50B3206B0068C0F1380126E09E
:10290000FEF71EFFE0B1206838B9FFF783F9606871
:1029100000F070F90546FFF79DF904F124000499D1
:10292000FFF7ACFA2046FFF759F800F0D7F9002876
:1029300086D1C8F80070BFF34F8FBFF36F8F7FE76A
:102940002046FFF74BF800F0C9F979E700216068ED
:10295000FFF7C8FA9FE7FFE700208CE704ED00E0EF
:102960002DE9F0410C46050011D0C4B1FFF752F932
:10297000174B5A696E682068911B471C17D02F6847
:102980009B6A9F4219D0964217D8012410E050202C
:1029900080F31188BFF34F8FBFF36F8FFEE7502096
:1029A00080F31188BFF34F8FBFF36F8FFEE70024D2
:1029B000FFF750F92046BDE8F081884205D9401A5A
:1029C00020602846FFF74CFAF1E700202060DCE7A2
:1029D000240000202DE9FF5F8346DDE90E8799463C
:1029E00016468A469000FFF72FF805001CD05C20A1
:1029F000FFF72AF8040014D00020256384F859005A
:102A0000CDE90240CDE900874B4632465146584653
:102A1000FEF705FE2046FEF7A5FC012004B0BDE848
:102A2000F09F2846FFF72AF94FF0FF30F6E7F0B5A0
:102A300085B0DDE90B640A9DA6B1DCB15C27009787
:102A40002663022684F85960002604AFCDE90246C9
:102A5000CDE90057FEF7E3FD2046FEF783FC04981E
:102A600005B0F0BD502080F31188BFF34F8FBFF346
:102A70006F8FFEE7502080F31188BFF34F8FBFF3B5
:102A80006F8FFEE70548C16919B1806B18B100204E
:102A9000704701207047022070470000240000208A
:102AA0000148406970470000240000202DE9F041F2
:102AB0002E4C0027A06B40B1206A401C2062606A47
:102AC00000B101273846BDE8F0816669761C666171
:102AD00013D16068006838B1502080F31188BFF3CB
:102AE0004F8FBFF36F8FFEE76068A1686160A060E1
:102AF000A06A401CA062FEF7F1FE206BDFF8708038
:102B0000864209D36068006880B16068C068C568A3
:102B1000686886420DD220632068C06A00EB80019D
:102B200058F821000128CAD90127C8E74FF0FF3023
:102B3000F1E7281DFFF712F8A86A18B105F118008F
:102B4000FFF70CF8E86AA169884200D9A06100EBA0
:102B5000800108EB8100291DFFF750F8E86A216821
:102B6000C96A8842CED30127CCE7000024000020A8
:102B70002401002070B504004FF0000133D01B4D3C
:102B80002868844207D0502080F31188BFF34F8F0C
:102B9000BFF36F8FFEE7206D38B1401E2065E36CF8
:102BA000E26A9A421FD040B11DE0502080F31188A4
:102BB000BFF34F8FBFF36F8FFEE7201DFEF7CEFFF1
:102BC000E06CE062C0F13800A061E06AA969884267
:102BD00000D9A861064900EB800001EB8000211DAF
:102BE000FFF70CF80121084670BD0000240000200A
:102BF0002401002070B504004FF000002BD0194DC7
:102C0000E16A2A68D26A914226D2A069002804DBD0
:102C10002868C06AC0F13800A061134E01EB810141
:102C2000606906EB8101884211D1201DFEF796FFF5
:102C30002868C06AE062A969884200D9A86100EBEF
:102C4000800006EB8000211DFEF7D8FF02E0286817
:102C5000C06AE062012070BDE16C2A68D26A9142CC
:102C6000F8D370BD240000202401002070B5C06896
:102C7000C46854B104F118000646FEF76FFF144D06
:102C8000A86B50B13146134815E0502080F31188ED
:102C9000BFF34F8FBFF36F8FFEE7201DFEF75EFF80
:102CA000E06AA969884200D9A8610B4900EB80005D
:102CB00001EB8000211DFEF7A1FFE06A2968C96AC7
:102CC000884202D90120686270BD002070BD0000FA
:102CD00024000020AC050020240100202DE9F0474D
:102CE0002C4D00242746A86B38B1FEF793FFA86B44
:102CF000401EA863A86B40B146E0502080F31188C5
:102D0000BFF34F8FBFF36F8FFEE72969224E01207B
:102D1000D1B3A6F5916980463068E0B1F068C46827
:102D200004F11800FEF71AFF201DFEF717FFE06AF6
:102D3000A969884200D9A86100EB800109EB8100F4
:102D4000211DFEF75BFFE06A2968C96A8842E3D368
:102D5000C5F82480E0E70CB1FEF7C0FD2C6A4CB149
:102D60004FEA0806FFF7A2FE00B16E62641EF9D1B9
:102D700000202862686A38B10849012738070860CE
:102D8000BFF34F8FBFF36F8FFEF764FF3846BDE888
:102D9000F087000024000020AC05002004ED00E0D6
:102DA00010B586B0FEF746FB114CA068B8B1002004
:102DB0000390049005AA04A903A8FEF7EDFEDDE93F
:102DC000032102208DE8070000230AA10B48059A81
:102DD000FFF72DFEE06010B106B0012010BD5020BD
:102DE00080F31188BFF34F8FBFF36F8FFEE70000B2
:102DF00060000020546D722053766300B9190008FA
:102E00002DE9FF411E46134602000A9D4FF00000C7
:102E100016D0144CA768002F0FD0CDE900130292F2
:102E2000062917DAFFF72EFE02284FF000030FD015
:102E300000226946A068FFF791FA04B0BDE8F0816E
:102E4000502080F31188BFF34F8FBFF36F8FFEE7E1
:102E50002A46EEE70023324669463846FFF72EFB46
:102E6000EBE7000060000020010002000400080001
:102E70001000200040008000102F0008000000001B
:102E80000000000000000000000000000002000040
:102E9000200000000000000000000000082F0008D3
:102EA0000000000000000000000000000000000022
:102EB0000002000010000000000000000000000000
:102EC000FC2E0008000000000000000000000000D0
:102ED000010202030405060708090A0B0C0D0E0F78
:102EE00010100000000000000000010203040607AB
:102EF00008090000000001020304000062696E611D
:102F0000727953656D0000005363616E000000002C
:102F10005461736B5F6D61696E0000003C2F0008A7
:102F2000000000209C000000EA0F0008D82F0008D5
:102F30009C0000202C380000FA0F000800000A0056
:102F40000A00000000000000000000000000000077
:102F500001000000100000000000000000127A00D4
:102F60000000000000000000000000000000000061
:102F70000000000000000000000000000000000051
:102F80000000000000000000000000000000000041
:102F90000000000000000000000000000000000031
:102FA0000000000000000000000000000000000021
:102FB0000000000000000000000000000000000011
:102FC0000000000000000000000000000000000001
:082FD000AAAAAAAA0000000051
:04000005080000ED02
:00000001FF
