:020000040800F2
:1000000020540020F50200083327000823240008AC
:10001000312700085507000849300008000000009B
:100020000000000000000000000000003502000891
:10003000150800080000000091020008E12A0008ED
:100040000F0300080F0300080F0300080F03000848
:100050000F0300080F0300080F0300080F03000838
:100060000F0300080F0300080F0300080F03000828
:100070000F0300080F0300080F0300080F03000818
:100080000F0300080F0300080F0300080000000022
:100090000000000000000000000000000F03000846
:1000A0000F030008A52B00080F0300080F0300082A
:1000B0000F0300080F0300080F0300080F030008D8
:1000C0000F0300080F0300080F0300080F030008C8
:1000D0000F030008253000080F030008000000008F
:1000E0000F0300080F0300080F03000800000000C2
:1000F0000000000000000000000000000F030008E6
:10010000000000000F0300080F0300080F030008A1
:1001100000000000000000000000000000000000DF
:100120000F0300080F030008590700080F03000819
:100130000F030008000000000000000000000000A5
:100140000000000000000000000000000F03000895
:100150000F0300080F030008650700080F030008DD
:100160000F0300080F03000800000000000000005B
:10017000000000000000000000000000000000007F
:10018000000000000F030008000000000000000055
:100190000F03000800F002F800F03CF80AA090E815
:1001A000000C82448344AAF10107DA4501D100F032
:1001B00031F8AFF2090EBAE80F0013F0010F18BFC3
:1001C000FB1A43F001031847A8560000C856000068
:1001D000103A24BF78C878C1FAD8520724BF30C873
:1001E00030C144BF04680C60704700000023002445
:1001F00000250026103A28BF78C1FBD8520728BF37
:1002000030C148BF0B6070471FB504F080FF1FBDB1
:1002100010B510BD00F0D0F91146FFF7F5FF02F060
:1002200025FF00F0EEF903B4FFF7F2FF03BC00F086
:10023000F5F900002C4B19680868B0E8F04F80F31E
:100240000988BFF36F8F4FF0000080F3118870476B
:100250000000000008480068006880F308884FF03C
:10026000000080F3148862B661B6BFF34F8FBFF30E
:100270006F8F00DF00BF00BF08ED00E0DFF80C006B
:10028000016841F470010160704700BF88ED00E033
:10029000EFF30980BFF36F8F134B1A681EF0100F36
:1002A00008BF20ED108A20E9F04F106009B44FF02C
:1002B000500080F31188BFF34F8FBFF36F8F03F0AF
:1002C00031FF4FF0000080F3118809BC19680868FD
:1002D000B0E8F04F1EF0100F08BFB0EC108A80F3AA
:1002E0000988BFF36F8F704740000020EFF305804F
:1002F000704700000948804709480047FEE7FEE7CD
:10030000FEE7FEE7FEE7FEE7FEE7FEE7FEE7FEE7C5
:1003100004480549054A064B70470000952B000824
:1003200095010008204E002020540020205000207D
:100330002050002053EA020C00F069802DE9F04BB8
:100340004FF00006002B1FBFB3FA83F503FA05F444
:1003500024FA05F65E4012BF1643B2FA82F502FA9D
:1003600005F4C5F120051EBF22FA05FC44EA0C0481
:10037000203556EA044C4FEA144418BF641C4FF071
:1003800000084FF00009904271EB030C39D30029AB
:1003900019BFB1FA81F701FA07F6B0FA80F700FA4F
:1003A00007F6C7F120071EBF20FA07FC46EA0C0635
:1003B0002037B6FBF4FCA7EB0507103F07F01F0B37
:1003C000CBF120060CFA0BFB2CFA06F644BFB34621
:1003D0000026202FA4BF5E464FF0000B5BEA060C00
:1003E00008BF4FF0010B19EB0B09ABFB027C48EB8C
:1003F0000608C01B06FB02CC0BFB03CC71EB0C0107
:10040000C1E70B46024641464846BDE8F08B13B5AE
:100410004FF000004FF00001AFF30080BDE81C403A
:100420007047032A40F2308010F0030C00F0158072
:1004300011F8013BBCF1020F624498BF11F801CBE7
:1004400000F8013B38BF11F8013BA2F1040298BF4C
:1004500000F801CB38BF00F8013B11F0030300F0B6
:100460007980083AC0F0088051F8043B083A51F806
:1004700004CBA0E80810F5E7121D5CBF51F8043B5F
:1004800040F8043BAFF30080D20724BF11F8013BD2
:1004900011F801CB48BF11F8012B24BF00F8013B34
:1004A00000F801CB48BF00F8012B704702F0FF03B2
:1004B00043EA032242EA024200F002B84FF000028F
:1004C0000429C0F0128010F0030C00F01B80CCF166
:1004D000040CBCF1020F18BF00F8012BA8BF20F8D4
:1004E000022BA1EB0C0100F00DB85FEAC17C24BF28
:1004F00000F8012B00F8012B48BF00F8012B7047D2
:100500004FF0000200B5134694469646203922BFAC
:10051000A0E80C50A0E80C50B1F12001BFF4F7AFF7
:10052000090728BFA0E80C5048BF0CC05DF804EBD9
:10053000890028BF40F8042B08BF704748BF20F847
:10054000022B11F0804F18BF00F8012B7047704745
:100550007047704710B5203AC0F00B80B1E81850D2
:10056000203AA0E81850B1E81850A0E81850BFF49D
:10057000F5AF5FEA027C24BFB1E81850A0E818503C
:1005800044BF18C918C0BDE810405FEA827C24BF90
:1005900051F8043B40F8043B08BF7047D20728BF1E
:1005A00031F8023B48BF11F8012B28BF20F8023B6D
:1005B00048BF00F8012B7047754600F02BF8AE4697
:1005C00005006946534620F00700854618B020B55F
:1005D000FFF79EFEBDE820404FF000064FF00007F9
:1005E0004FF000084FF0000B21F00701AC46ACE8DB
:1005F000C009ACE8C009ACE8C009ACE8C0098D4648
:10060000704710B50446AFF300802046BDE81040A7
:10061000FFF709BE00487047C04D0020014918206F
:10062000ABBEFEE72600020070470000464910B549
:100630004A6822F440324A604A6843681A434A6072
:1006400001684A6822F480724A6001684A68036956
:1006500042EA03224A6001684A6822F040724A6016
:1006600001684A6883681A434A6001688A6822F40C
:1006700000628A6001688A68C3681A438A60816A76
:100680006FF07062D14201688A6822F070628A60FD
:1006900001688A680CD0836A1A438A6001688A6894
:1006A00022F040528A6001688A68C36A1A4301E0F6
:1006B00022F040528A6001688A6822F002028A6051
:1006C00001688A68037E42EA43028A6090F820103B
:1006D000002901684A680FD042F400624A6001684C
:1006E0004A6822F460424A6001684A68174C436ACB
:1006F00004EB43331A4301E022F400624A600168CC
:10070000CA6A22F47002CA620168CA6A838B104CFA
:1007100004EB03531A43CA6201688A6822F4007228
:100720008A6001688A6890F8303042EA43228A6021
:1007300001688A6822F480628A6001688A68406978
:1007400042EA8020886010BD0023014000E0FFFFE6
:100750000000F0FFFEE70000014800F07BBA000057
:10076000E4030020014800F075BA000044040020B2
:1007700001681823CAB2103AB2FBF3F2054B6FF3CB
:100780000901032A9B5CC36500D9091D81650846E0
:1007900070470000F857000810B5014600208B692B
:1007A0008A6A4FF0C07453B1B3F5005F15D072B1CF
:1007B000012A0CD0022A0AD0032A09D104E01AB176
:1007C000012A06D0022A03D1C96AC90100D5012035
:1007D00010BDC96AA142FAD010BD002AF7D0012A83
:1007E000F2D0022AF3D0032AF3D010BD30B504684A
:1007F000256825F480252560046863608368402BA4
:10080000036803D099600068C26030BD9A600068D8
:10081000C16030BD704772B6FEE7000078B50024B5
:10082000009490F83C20012A19D0012280F83C2045
:100830000A6807230568092A13D9EE680A3A02EB09
:10084000420293409E43EE600B788A680A3B03EBBA
:1008500043039A400368DD682A43DA6010E002200F
:1008600078BD2E6902EB420293409E432E610B78C5
:100870008A6803EB43039A4003681D692A431A619F
:100880004A681F23072A13D205686E6B521E02EBBB
:10089000820293409E436E630B790A885B1E92B27C
:1008A00003EB83039A4003685D6B2A435A6327E096
:1008B00005680D2A12D22E6BD21F02EB82029340E2
:1008C0009E432E630B790A88DB1F92B203EB8303EE
:1008D0009A4003681D6B2A431A6311E0EE6A0D3AD1
:1008E00002EB820293409E43EE620B790A880D3B35
:1008F00092B203EB83039A400368DD6A2A43DA620B
:10090000164B0568144A9D4206D10D68122D03D17D
:10091000556845F48005556005689D4218D10B68FF
:10092000102B01D0112B13D1536843F400035360F3
:10093000096810290CD10A490A4A0968B1FBF2F189
:1009400001EB8101490000E0491E00910029FBD123
:1009500080F83C40002078BD002301400020014089
:100960003C00002040420F000068C06C704770B52A
:1009700004004FF0000503D0206C002610B107E002
:10098000012070BD204600F01DF8666484F83C60CC
:10099000206CC00610D4206C20F4885040F0020077
:1009A00020642046FFF742FE6664206C20F00200BF
:1009B00040F00100206400E0012584F83C602846F6
:1009C00070BD000010B586B0044614216846FFF7DC
:1009D00097FD1149206888421CD110480021026807
:1009E00042F480720260006800F4807005900B4849
:1009F0001438026842F001020260006800F0010051
:100A00000590202000900320CDE9010169460448AB
:100A100000F0A4FA06B010BD0020014044380240A6
:100A2000000002402DE9F041044600680D4681684F
:100A30004FF0000749050BD58068C00508D5206C2C
:100A400040F02000206484F83C700120BDE8F08173
:100A500000F07AFB064613E0681C11D025B100F0C7
:100A600073FB801BA8420BD920680068800707D45D
:100A7000206C40F00400206484F83C700320E5E71B
:100A8000206800688007E7D521686FF012000860D1
:100A9000206C40F4007020642068816811F0405F91
:100AA00013D1217E89B9C16A11F4700F02D0806818
:100AB00040050AD4206C20F480702064206CC004AF
:100AC00003D4206C40F0010020640020BEE7000049
:100AD00018B50021009190F83C20012A07D001228E
:100AE00080F83C2002689368DB0702D011E0022006
:100AF00018BD936843F001039360244A244B1268A5
:100B0000B2FBF3F202EB420200E0521E0092002A16
:100B1000FBD102689368DB072ED0036C40F20164BE
:100B2000A34343F48073036453685B0505D5036CEA
:100B300023F4005343F480530364036CDB0404D5B3
:100B4000436C23F00603436400E0416480F83C10EA
:100B500010496FF02203136049680068C90602D08B
:100B60000D49884210D1816811F0405F0CD1816835
:100B700041F08041816007E0016C41F010010164A7
:100B8000416C41F001014164002018BD3C0000208F
:100B900040420F0000230140002001402DE9F041B8
:100BA0000446876D00F0D0FA064694F8350000251B
:100BB000022806D08020606584F834500120BDE80A
:100BC000F0812068016821F0160101602068416908
:100BD00021F080014161206C08B9A06C20B120682F
:100BE000016821F0080101602068016821F001011D
:100BF00001600CE000F0A8FA801B052807D920202E
:100C00006065032084F8350084F83450D7E7206805
:100C10000068C007EED194F85C103F208840B860AF
:100C2000012084F8350084F834500020C7E790F89C
:100C30003510022903D0802141650120704705212C
:100C400080F835100068016821F001010160002082
:100C5000704700002DE9F84304464FF00009CDF835
:100C6000009063484FF41651A56D0068B0FBF1F792
:100C70002E6894F85C10082000FA01F131420FD080
:100C800021680A6852070BD50A6822F004020A603C
:100C900094F85C108840A860606D40F001006065C9
:100CA00094F85C104FF0010808FA01F0304208D0C7
:100CB00021684969090604D5A860606D40F002000A
:100CC000606594F85C1004208840304208D02168A8
:100CD0000968890704D5A860606D40F0040060656C
:100CE00094F85C1010208840304218D021680968C0
:100CF000090714D5A86020680168490304D5006875
:100D0000000308D5A16C07E00168C90503D4016898
:100D100021F008010160216C09B12046884794F850
:100D20005C1020208840304231D021680968C90613
:100D30002DD5A86094F8350005282068016806D0F4
:100D4000490347D5006800031DD4616C1CE021F005
:100D5000160101602068416921F080014161206C29
:100D600008B9A06C20B12068016821F00801016079
:100D700094F85C103F208840A86084F8358084F89F
:100D80003490216D1FE0E16B09B120468847606D0A
:100D900000282BD0606DC00714D0052084F83500E2
:100DA0002068016821F0010101600098401C00905A
:100DB000B84203D820680068C007F6D184F83580AF
:100DC00084F83490E16C002910D001B02046BDE8D1
:100DD000F04308470168C905D5D4016821F0100126
:100DE000016084F8358084F83490CCE7BDE8F8835E
:100DF0003C0000202DE9F041044600F0A5F906462C
:100E00005CB1022084F83500002584F83450206855
:100E1000016821F0010101600DE00120BDE8F081D1
:100E200000F092F9801B052805D920206065032079
:100E300084F83500F2E720680068C007F0D1226826
:100E4000116820480140D4E901031843D4E903366E
:100E50003343184363691843A3691843E36918438C
:100E6000236A18430843616A042903D1D4E90B13A8
:100E700019430843106020684069666A20F0070142
:100E800030460E43012704280CD1A06A0643E06ACD
:100E900040B12046FFF780FC20B14020606584F817
:100EA0003570BAE7206846612046FFF761FC94F888
:100EB0005C203F2191408160656584F83570002099
:100EC000ACE700003F8010F02DE9F0410446866D4C
:100ED00090F83400002501280DD0012084F834005A
:100EE00094F835700020012F07D084F834000225D3
:100EF0002846BDE8F0810220FBE7022784F8357020
:100F000060652046FFF772FC94F85C103F20884033
:100F1000B0602068016841F016010160206C20B1CA
:100F20002068016841F0080101602068016841F013
:100F300001010160DCE7000070B5044600F004F92F
:100F40000546601C02D004480078044400F0FCF818
:100F5000401BA042FAD370BD300000202DE9F84FAD
:100F6000DFF8B8A10022012403254FF00F090AF190
:100F7000040BAAF1040E00BF0B6804FA02F633401A
:100F8000B34273D10F7907F00307012F01D0022F6D
:100F900016D187684FEA420805FA08FC27EA0C07D1
:100FA000D1F80CC00CFA08FC4CEA070CC0F808C0D9
:100FB0004768B7430E79C6F3001696403E43466035
:100FC0000E79F643B6070DD0C768560005FA06FC41
:100FD00027EA0C07D1F808C00CFA06FC4CEA070C0B
:100FE000C0F80CC00E7906F00306022E10D1D60808
:100FF00000EB8608D8F8206057074FEAD76C09FA4B
:101000000CF7BE430F6907FA0CF73743C8F8207096
:1010100006684FEA420C05FA0CF7BE430F7907F059
:10102000030707FA0CF7374307604E6816F4403F92
:101030006DD03B4E376847F480473760366822F002
:10104000030706F480460096364E07EB060CDCF8E4
:10105000086897073F0F09FA07F826EA0806DFF83D
:10106000C880404503D14FF000081EE04FE0DFF894
:10107000BC80404502D14FF0010816E0DFF8B08097
:10108000404502D14FF002080FE0DFF8A88040454C
:1010900002D14FF0030808E0DFF89C80404502D100
:1010A0004FF0040801E04FF0070808FA07F848EA93
:1010B0000608CCF80888DAF800605746D1F804C072
:1010C0009E435FEACC2C00D51E433E60DBF80060F7
:1010D0005F46D1F804C09E435FEA8C2C00D51E43C6
:1010E0003E60DEF800607746D1F804C09E435FEAB8
:1010F0008C3C00D51E433E60084F083F3E68D1F847
:1011000004C09E435FEACC3C00D51E433E60521CA7
:10111000102AFFF431AFBDE8F88F0000083C014011
:101120004438024000300140000002400004024008
:1011300000080240000C0240001002400AB1816128
:1011400070470904FBE70000014880687047000011
:1011500030000020024881680278114481607047A5
:10116000300000200B4810B5016841F400710160A7
:10117000016841F480610160016841F4807101609F
:10118000032000F099F80F2000F006F800F04AF86C
:10119000002010BD003C024030B505461C4887B019
:1011A0000024016841F400310160006806A900F4E0
:1011B0000030009001A800F0D3F900F001FA1549C1
:1011C000154AB0FBF1F11548491E026040F2E732C2
:1011D000C0E90324C0E90114846100F0D3FD0400D8
:1011E00012D10E4800F0FCFD04000DD1192000F0D2
:1011F00035F8102D07D200222946192000F03CF8BE
:101200000748056000E0012407B0204630BD00001B
:101210004438024040420F0000440140A404002032
:10122000340000200C4882B0016841F48041016024
:10123000006800F4804000900748001F016841F0FA
:10124000805101600068002200F0805000900F2162
:10125000901E02B000F010B844380240002809DBAC
:1012600000F01F02012191404009800000F1E020C0
:10127000C0F8001170470000F0B40E4B1B680C461C
:10128000C3F30223C3F10705042D00D90425191D5A
:10129000072901D2002300E0DB1E012606FA05F132
:1012A000491E214099409E40761E16403143F0BCB5
:1012B00001F0CBBE0CED00E0064900F00702086823
:1012C0004FF6FF03184040EA0220034A104308602B
:1012D000704700000CED00E00000FA052DE9F8432E
:1012E000044600684FF00109C1074FF0000601D124
:1012F000400727D5DFF81C81C8F86860FFF724FF96
:101300000746454D05E000BFFFF71EFFC01B022842
:1013100057D828680001F7D460688101207A41EA33
:1013200000703D4984310860C8F86890FFF70CFFF1
:10133000074604E0FFF708FFC01B022841D82868D1
:101340000001F7D52078800752D533484030016836
:1013500041F0805101600068304D00F080500090F5
:10136000286840F480702860FFF7EEFE074604E02E
:10137000FFF7EAFEC01B022823D82868C005F7D56E
:10138000254D7035286810F4407020D0A18901F4F3
:10139000407181421BD0286820F440712048C0F879
:1013A0000090066029602868C00710D0FFF7CCFEC7
:1013B000064641F2883707E0FFF7C6FE801BB842B9
:1013C00002D90320BDE8F88328688007F4D5E168D6
:1013D0001148C1F301220830032A12D0016821F418
:1013E000F81101602868A189C1F30B010843286046
:1013F0002078000703D50B49207CC1F8E0010020CC
:10140000E0E70268084B22F4F81219400A43026030
:10141000E8E700000000474200380240007000404A
:10142000400E474200104742FFFCFF0F2DE9F047F6
:101430000E46050065D0DFF81481D8F80000F7B239
:1014400000F00700B04207D288F80070D8F800001A
:1014500000F00700B04254D128683D4C810712D5F6
:10146000400703D5206840F4E0502060287800074A
:1014700003D5206840F4604020602068A96820F00F
:10148000F000084320602878C0072DD030496868F4
:101490000839012812D0022813D0032811D0096876
:1014A000890700292DDA216821F003010143216019
:1014B000FFF74AFE814641F2883A0EE00968890347
:1014C000EFE709688901ECE7FFF73EFEA0EB0901B1
:1014D000514502D90320BDE8F0872068696800F013
:1014E0000C00B0EB810FEFD1D8F80010404601F0AE
:1014F0000701B14207D90770006800F00700B04249
:1015000001D00120E7E72878400705D52068E96881
:1015100020F4E050084320602878000706D52068B2
:10152000296920F4604040EAC100206000F058F8CA
:101530002168084AC1F30311515CC840064908609C
:1015400006480068FFF728FE0020C4E7003C024080
:1015500008380240005800083C00002034000020F9
:101560000F2202600C4A136803F003034360136800
:1015700003F0F0038360136803F4E053C360126860
:101580004FF4E05303EAD20202610448006800F01D
:10159000070008607047000008380240003C024025
:1015A0000448054900680968044AC1F38221515C76
:1015B000C84070473C00002008380240105800081E
:1015C0000448054900680968044AC1F34231515C86
:1015D000C84070473C0000200838024010580008FE
:1015E000154810B5006810F00C02144813D04110D3
:1015F000042A0FD0082A0ED10F4C241F226823681A
:1016000002F03F025B0207D52068C0F38810A0FB00
:10161000010106E0084610BD2168C1F38811A1FB55
:1016200000010023FEF786FE2168C1F30141491C39
:101630004900B0FBF1F010BD083802400024F4006E
:101640002DE9F84F04006ED02078DFF84C93C007E6
:10165000A9F104054AD009F104000168C1F3810130
:10166000012908D00068C0F3810002280AD1D9F806
:101670000000400206D52868800337D5606800283E
:10168000E1D033E06068B0F5803F10D0B0F5A02F16
:10169000286810D020F480302860286820F480204A
:1016A00028606068A8B1FFF74FFD06460DE0286886
:1016B00040F48030F4E740F480202860F7E700BF72
:1016C000FFF742FD801B642873D828688003F7D594
:1016D0000CE0FFF739FD064605E000BFFFF734FDDB
:1016E000801B6428F0D828688003F7D42078DFF8BE
:1016F000AC8280074FF0000A3ED5A748001D016864
:1017000011F00C0F08D00068C0F3810002280BD143
:10171000D9F80000400207D42868800716D5E06891
:10172000012800D112E033E1E068B8B10120C8F827
:101730000000FFF709FD064605E000BFFFF704FDC6
:10174000801B0228C0D828688007F7D5286821693F
:1017500020F0F80040EAC10028600DE0C8F800A0C1
:10176000FFF7F2FC064604E0FFF7EEFC801B0228C0
:101770001FD828688007F7D42078000722D5864F25
:1017800087486169703771B101210160FFF7DCFCA6
:10179000064604E0FFF7D8FC801B022809D8386809
:1017A0008007F7D50EE0C0F800A0FFF7CDFC064695
:1017B00005E082E0FFF7C8FC801B02287DD838686E
:1017C0008007F7D42078400768D5DFF8CCB1002730
:1017D0000BF13C0BDBF80000C0000BD4DBF8001071
:1017E00041F08051CBF80010DBF80000012700F039
:1017F000805000906B4E3068C00510D4306840F4C3
:1018000080703060FFF7A0FC009005E0FFF79CFCC3
:101810000099401A022850D83068C005F6D55E4EAF
:10182000A0686C3601280FD00528306810D020F051
:1018300001003060306820F004003060A068B8B16A
:10184000FFF782FC00900FE0306840F00100F4E701
:1018500040F004003060F7E7FFF776FC0099411A8A
:1018600041F28830814266D830688007F4D50EE0B6
:10187000FFF76AFC009007E0FFF766FC0099411A49
:1018800041F28830814256D830688007F4D42FB1B5
:10189000DBF8001021F08051CBF80010A069C8B32C
:1018A0003D49091D0968C1F3810102294AD0022876
:1018B000504607D0C8F8600000E03CE0FFF744FC69
:1018C00004463BE04746C8F86000FFF73DFC06468B
:1018D00005E000BFFFF738FC801B02282BD82868E2
:1018E0008001F7D4D4E907010843A16A2E4A4908C8
:1018F00002EB0141626A41EA8211084394F82C101C
:1019000040EA0161C9F8001001203866FFF71CFCAD
:10191000044606E03EE000BFFFF716FC001B02286D
:1019200009D828688001F7D534E000BFFFF70CFC28
:10193000001B022802D90320BDE8F88F2868800127
:10194000F4D427E00128F7D0D9F80000E26900F4C8
:10195000800191421CD1226A00F03F01914217D1CF
:1019600047F6C071626A0140B1EB821F10D1A26AD2
:101970004FF0FF3300F4403103EB5202B1EB024F62
:1019800006D194F82C1000F07060B0EB016F01D01C
:101990000120D1E70020CFE7043802400000474291
:1019A000800E4742007000400000FFFF10B50400A9
:1019B00002D0607F10B106E0012010BD002020772A
:1019C000204600F041F8022060772068C168C943D2
:1019D000C90632D5CA214162216853204862204697
:1019E00001F02CF820BB20688168164A1140816004
:1019F0002168886862681043D4E904231A431043BD
:101A000088602168E068086120680169228941EAEC
:101A100002410161204601F035F848B921680A6C9D
:101A200022F480220A6421680A6CA3691A430A64BA
:101A30002268FF21516208B110BD002001216177A9
:101A400010BD0000BFFF8FFF10B586B00446142103
:101A50006846FEF755FD0949206888420CD10220EE
:101A60000090C00103906846FFF738FC08B1FEF70C
:101A7000D2FE03490120086006B010BD00280040D6
:101A80003C0E47422DE9F05F0446007F0B460128DB
:101A900047D04FF0010A84F81CA00220607720682C
:101AA000002680684FEA4060D2B3002800DBDE7079
:101AB00099781A78DD7841EA02415A78D869120299
:101AC00042EA8552114393F8202041EA026505431A
:101AD00058695F680543986921680743CA204862CE
:101AE000216853204862586A4FF0FF08B0F5807FA4
:101AF00020684FF47A7B816831D021F400718160D5
:101B00002068816821F4005181602068C16801F07B
:101B1000800161F42071C160FFF716FB814652E03D
:101B200002E00220BDE8F09F002800DBDE7018789C
:101B300000F078FF0204587800F074FF42EA0022B7
:101B4000987800F06FFF0243D87842EA805293F809
:101B5000200000F067FF42EA0065D869B7E721F48A
:101B6000807181602068816821F4805181602068E3
:101B7000C16801F0800161F4C071C160FFF7E4FA4F
:101B8000814605E0FFF7E0FAA0EB0900584513D8BD
:101B90002068C068C007F5D02068C5612068476428
:101BA0002068816841F4807119E000BFFFF7CCFA2A
:101BB000A0EB0900584506D92168C1F8248003200C
:101BC00060772677AEE72068C0688007EED520688A
:101BD0000562206887642068816841F40071816033
:101BE0002168C1F8248084F81DA02677002099E799
:101BF00070B50446007F0B46012819D001262677D0
:101C000002206077B2B19878D97840EA01455878D7
:101C10001978000240EA413005432168CA20486231
:101C2000216853204862204600F008FFD0B122E02E
:101C3000022070BD5878C10603D500F0EF000A30CD
:101C40005870D87800F0EEFE0204587800F0EAFEF2
:101C500042EA0022987800F0E5FE0243187842EA52
:101C60004035DAE70748054020684560204600F027
:101C700009FF00B966772268FF21516200212177B0
:101C800070BD00003FFFFF002DE9F0410446007FDA
:101C90000D46012823D04FF0010884F81C80022053
:101CA00060772068002780684FEA4060D2B1002842
:101CB00000DBEF70A878297840EA01466878E97877
:101CC000000240EA815006432168CA204862216828
:101CD00053204862204600F0B1FEB8B12CE002204B
:101CE000BDE8F081002800DBEF70287800F09AFE54
:101CF0000204687800F096FE42EA0022A87800F01C
:101D000091FE0243E87842EA8056DDE70D4806403E
:101D1000206806602068816821F480218160D5E90F
:101D20000301084321688A6810438860204600F058
:101D3000A9FE08B984F81D802268FF215162277727
:101D4000CEE700007F7F7F0070B504460B48216816
:101D5000C860FFF7F9F905464FF47A7607E000BF4F
:101D6000FFF7F2F9401BB04201D9032070BD206893
:101D7000C0688006F4D5002070BD00005F3F010000
:101D80007047704710B5040003D094F83D0010B1BF
:101D900007E0012010BD002084F83C00204600F040
:101DA0001EF8022084F83D00211D206800F000FF8D
:101DB000012084F8460084F83E0084F83F0084F84F
:101DC000400084F8410084F8420084F8430084F81D
:101DD000440084F8450084F83D00002010BD7047A1
:101DE00090F83D10012901D001207047022180F8B0
:101DF0003D100168CA6842F00102CA6000680E49DD
:101E000088420ED0B0F1804F0BD00C49884208D0E8
:101E10000B49884205D00B49884202D00A498842C2
:101E200004D1816801F00701062903D0016841F05F
:101E300001010160002070470000014000040040E3
:101E400000080040000C00400040014070472DE9B0
:101E5000F04104460068C66805694FF00007A9070D
:101E600013D5B10711D5F91E016101202077206833
:101E700080698007204602D0FFF7E8FF04E000F009
:101E80007EF8204600F07CF82777680716D57007A3
:101E900014D521686FF004000861022020772068C3
:101EA000806910F4407F204602D0FFF7CFFF04E0A6
:101EB00000F065F8204600F063F82777280715D56D
:101EC000300713D521686FF00800086104202077DF
:101ED0002068C0698007204602D0FFF7B7FF04E002
:101EE00000F04DF8204600F04BF82777E80616D5AD
:101EF000F00614D521686FF01000086108202077E3
:101F00002068C06910F4407F204602D0FFF79EFF92
:101F100004E000F034F8204600F032F82777E807B4
:101F200008D0F00706D021686FF001000861204654
:101F300000F028F8280608D5300606D521686FF08D
:101F4000800008612046FFF71BFF680608D5700671
:101F500006D521686FF040000861204600F01CF8AB
:101F6000A8060AD5B00608D521686FF020000861E0
:101F70002046BDE8F041FFF704BFBDE8F08170479F
:101F80007047000000680349884201D1FFF7E2B8BA
:101F90007047000000440140704738B5044690F88F
:101FA0004200202801D0022038BD51B14AB10120A1
:101FB000206300206063204600F0E4FF216B0129CC
:101FC00001D0012038BD21680A6849680091216864
:101FD0000C3151E8002F42F0100241E80023002BA1
:101FE000F5D138BD1CB50068124A904221D10020BD
:101FF0000090481E1F2805D80F48084410F8010C0F
:102000008DF804000D4800236A4601A9406802F0DB
:10201000A1FA202208490A48FFF7BFFF00980028CC
:1020200007D008494FF080500860BFF34F8FBFF3CF
:102030006F8F1CBD00100140B4020020040000207E
:102040009C03002004ED00E070470000F8B5016833
:1020500004460868CA684B6910F00F0F4FF000057E
:1020600059D003F0010602F49077374365D0C107D9
:1020700005D0D10503D5616C41F0010161644107D0
:1020800005D5D90703D0616C41F002016164810775
:1020900005D5D90703D0616C41F0040161640107E3
:1020A00007D502F02001314303D0616C41F00801F3
:1020B0006164616C00293AD0800604D5900602D58F
:1020C000204600F078FE20684069616CC0F3801003
:1020D000090700D460B3204600F038FE206840694C
:1020E000400621D52068143050E8001F21F040013F
:1020F00040E80012002AF5D1E06BA8B172490165F1
:10210000E06BFEF794FD002811D0E06B016D01B08B
:10211000BDE8F040084783060FD593060DD520464D
:10212000BDE8F84000F047BE2046FFF78DFFF8BD40
:102130002046FFF789FF6564F8BD266B2023012E3A
:102140007ED1C6067CD5D6067AD508684868009048
:1021500048694FF0020640064DD5E26B10684068B2
:102160004FF480770004000C3AD0A18D814237D91A
:10217000E085D069B8422DD020680C3050E8001FAF
:1021800021F4807140E80012002AF5D12068143053
:1021900050E8001F21F0010140E80012002AF5D1AB
:1021A0002068143050E8001F21F0400140E8001280
:1021B000002AF5D184F84230256320680C3050E8BD
:1021C000001F21F0100140E80012002AF5D1E06B59
:1021D000FEF7E4FC6663A08DE18D401A81B206E053
:1021E000A18D8142A8D1D069B842A5D166632046AD
:1021F000FFF7F8FEF8BDA08DE18D401A81B2E08DA9
:102200000028F7D00029F5D020680C3050E8002FC6
:1022100022F4907240E80027002FF5D12068143096
:1022200050E8002F22F0010240E80027002FF5D1EE
:1022300084F84230256320680C3050E8002F00E01D
:1022400006E022F0100240E80023002BF3D1CDE796
:1022500005062BD5150629D594F841002128C9D1AA
:10226000A068B0F5805F01D12069B0B1206A411C3F
:102270002162216800784860E08C401E0004000C58
:10228000E084B7D12068C16821F08001C160206876
:10229000C16841F04001C160F8BD206A0088C0F308
:1022A00008004860206A801C2062E5E74006F3D5FC
:1022B0005006F1D5CA68204622F04002CA6084F870
:1022C000413000F0ADF8F8BD512C000870B50400A5
:1022D00004D094F84100002510B106E0012070BD43
:1022E00084F84050204600F023F8242084F8410070
:1022F0002068C16821F40051C160204600F0BCFD97
:102300002068016921F4904101612068416921F050
:102310002A0141612068C16841F40051C1606564CF
:10232000202084F8410084F842006563002070BDDD
:102330002DE9F04387B0064614216846FEF7E0F821
:102340003149306888425BD130480024016841F04F
:1023500010010160006800F0100005902B4814384F
:10236000016841F0010101600068694600F0010068
:1023700005904FF4C06000900220CDE901040320D5
:102380000390072004902248FEF7E8FD224D2148E3
:102390004FF000672860C5E901744FF48068C5E913
:1023A00003486C614FF48039AC61C5E907492846A0
:1023B0006C62FEF71FFD08B1FEF72DFAF563AE6300
:1023C000154D144860357830E5E802074020A5E84F
:1023D0001101114845F814496030AC61C5E907495D
:1023E0006C62FEF707FD08B1FEF715FAB56300222F
:1023F00005212520AE63FEF73FFF2520FEF72EFFC7
:1024000007B0BDE8F08300000010014044380240EE
:102410000000024040640240E4030020704770471F
:102420007047FEE77FB5002414480094019402949D
:1024300011490394C0E9001484600461047680F8B3
:1024400020400F49C0E90A140125C561C46080F825
:1024500030404561FEF78BFA08B1FEF7DCF9052044
:10246000CDE90005694602940448FEF7D7F9002833
:1024700001D0FEF7D0F97FBD00200140D40200203A
:102480000100000F1A4808B50268002142F48002DA
:1024900002600068174A00F4800000901648C0E906
:1024A0000021802282609200C2605200C0E90421B3
:1024B00081610422C161C0E908120322C0E90A2136
:1024C0000163FEF797FC08B1FEF7A5F9002205218C
:1024D0003A20FEF7D1FE3A20FEF7C0FE0022052189
:1024E0004620FEF7C9FEBDE808404620FEF7B6BE0E
:1024F00030380240106402401C03002010B5012057
:1025000001F0D4FE1A4C606080B31A4A02211020F8
:1025100000F020FE174AE06118320221102000F07E
:1025200019FE144A2062B43A0021134800F03EFE1E
:10253000104AA060903A0021104800F037FE0D4A82
:10254000E0606C3A00210E4800F030FE094A20613C
:10255000483A00210B4800F029FE064A6061243AFF
:102560000021094800F022FEA06110BDFFE7FEE750
:102570000C000020C85700088D3E00088941000863
:102580008D3F0008D13E00086D3D00082DE9F04167
:1025900086B014216846FDF7B3FF23480025016883
:1025A00041F004010160016801F004010591016836
:1025B00041F080010160016801F08001059101682E
:1025C00041F001010160016801F00101059101681C
:1025D00041F0020101600068144F00F00200059014
:1025E000002284213846FEF7A9FDDFF844804FF42D
:1025F0004076002231464046FEF7A0FD84200124AB
:102600008DE83100694638460395FEF7A7FC0220A5
:10261000CDE90240CDE9006469464046FEF79EFCE4
:1026200006B0BDE8F08100003038024000080240EA
:102630000004024030B591B014210AA8FDF760FFF4
:102640000024282168460F94FDF75AFF27482649A1
:10265000C0E900147F218160FF21C0E903144461B7
:102660008461FFF7A3F908B1FEF7D5F88DF828408B
:102670008DF829408DF82A400D9400220AA91B48A4
:102680000E94FFF701FB08B1FEF7C5F801258DF8A0
:102690003C508DF83D508DF83E508DF83F40002263
:1026A0000FA91248FFF7A4FA08B1FEF7B4F88DF8A5
:1026B00000408DF8014004944FF480708DF8024082
:1026C0000194039409900594069407948DF8205082
:1026D000002269460548FFF7D5F9002801D0FEF72A
:1026E0009AF811B030BD0000002800407C030020A3
:1026F00010B50E4C0C480C2120604FF4E1306060A6
:102700000020A060E060C4E90401A061E06120460F
:10271000FFF7DCFD08B1FEF77EF82068C16841F0E4
:102720001001C16010BD0000001001409C0300209A
:10273000FEE7FEE770B500240021204600F0D6F841
:102740000025002000F05DF96D1CEDB2802DF8D35E
:10275000641CE4B2082CEFD370BD000010B5064C29
:10276000012211022046FEF7E9FC20460122BDE8C5
:1027700010405102FEF7E2BC000402402DE9F04790
:10278000144E002407464FF080084FF40079B51529
:1027900028FA04F23A4049463046FEF7CFFC0122BF
:1027A00029463046FEF7CAFC002229463046FEF78D
:1027B000C5FC641CE4B2082CEAD301222946304649
:1027C000FEF7BCFC29463046BDE8F0470022FEF784
:1027D000B5BC00000004024070B501220B4D54024C
:1027E00021462846FEF7AAFC012216023146284659
:1027F000FEF7A4FC002221462846FEF79FFC314646
:102800002846BDE870400022FEF798BC0004024054
:1028100070B50A4D4FF40074002221462846FEF799
:102820008DFC012211022846FEF788FC214628462D
:10283000BDE870400122FEF781BC000000040240A8
:1028400010B5C820FEF778FBFFF788FFAE2000F038
:10285000C7F8D52000F0C4F8802000F0C1F8A82007
:1028600000F0BEF83F2000F0BBF8D32000F0B8F82D
:10287000002000F0B5F8402000F0B2F8A12000F0F0
:10288000AFF8C82000F0ACF8DA2000F0A9F8122068
:1028900000F0A6F8812000F0A3F8CF2000F0A0F807
:1028A000D92000F09DF8F12000F09AF8DB2000F02C
:1028B00097F8302000F094F8A42000F091F8A620BA
:1028C00000F08EF88D2000F08BF8142000F088F8CE
:1028D000AF2000F085F8BDE81040FFF72BBF02469F
:1028E000012000E05043491EFCD2704710B50C4651
:1028F00040F0B00000F074F8102040EA141000F02E
:102900006FF804F00F00BDE8104000F069B8000057
:102910002DE9F0410746CE004000083E801E1546D6
:102920004FF0FF38F1B2C0B2FFF7E0FF11480024CA
:1029300000EB05152819A0F5805090F8000E00F066
:1029400060F8641CE4B2082CF4D308EB4700F1B241
:10295000C0B2FFF7CBFF00242819A0F5805090F8F3
:10296000080E00F04EF8641CE4B2082CF4D3BDE865
:10297000F0810000225100082DE9F04700241D4697
:102980001646884681460A2713E0291B0A20491E5D
:10299000FFF7A5FFB6FBF0F0B0FBF7F107FB110264
:1029A00008EB0400C1B248463032FFF7B1FF641CA7
:1029B000E4B2AC42E9D3BDE8F0872DE9F041154619
:1029C0000E460746002406E03019C1B23846FFF72C
:1029D0009FFF641CE4B22A5D002AF5D1BDE8F081B6
:1029E00010B50446FFF7F8FE7820FFF7C7FE002079
:1029F000FFF7C4FE2046FFF7C1FEBDE81040FFF719
:102A000007BF10B50446FFF7E7FE7820FFF7B6FED4
:102A10004020FFF7B3FE2046FFF7B0FEBDE81040B0
:102A2000FFF7F6BE002102E00A38C0B2491C0A28AE
:102A3000FAD2090740EA1160704700002DE9F04121
:102A4000044600680025C168490618D4C16841F0F1
:102A50008001C160FEF778FB06464FF47A780427C0
:102A600007E000BFFEF770FB801B404501D9677788
:102A700001252068C068400601D4002DF2D0284608
:102A8000BDE8F08170B5044600680025C16821F0FA
:102A90008001C16020688068800606D42046FFF768
:102AA00053F910B1042060770125284670BD00005D
:102AB00010B50948FEF70CF80A210748FDF7B2FFE8
:102AC000064C207018B10020608080B210BD024812
:102AD000FDF74AFFF8E70000D40200200C000020B8
:102AE00010B54FF0E020006901F07EFF012803D00F
:102AF000BDE8104001F0C4BB10BD000030B593B07C
:102B000030216846FDF7FCFC14210CA8FDF7F8FC09
:102B10001E480025016841F080510160006800F006
:102B2000805011901A48016821F4404141F400415D
:102B300001600068022400F44040119005200090DC
:102B40004FF480300190012002908005CDE90640CD
:102B500008AA0420482182E813000B906846FEF77B
:102B60006FFD08B172B6FEE70F20CDE90C0480209E
:102B70000E904001CDE90F0501210CA8FEF756FC8F
:102B8000002801D072B6FEE713B030BD40380240D5
:102B9000007000400248016841F470010160704714
:102BA00088ED00E00148FFF752B90000A4040020BE
:102BB000F0B502681F4B204C204D214E4FF0804C49
:102BC000984207D0604505D0A04203D0A84201D06A
:102BD000B04203D122F070074A683A43984210D0BD
:102BE00060450ED0A0420CD0A8420AD0B04208D016
:102BF000144CA04205D0144CA04202D0134CA04269
:102C000003D122F44074CA6822434C6922F0800246
:102C100022438C68C4620C688462984201D10969BD
:102C20000163016841F0040101600121416102601A
:102C3000F0BD00000000014000040040000800401A
:102C4000000C0040004001400044014000480140A9
:102C500010B5806B0021C185FFF7F6F910BD70B586
:102C6000846B2068406994F84110C0F3C0100025BF
:102C7000212904D118B1E584204600F08EF820689F
:102C8000406994F84210C0F38010222904D118B191
:102C9000E585204600F05AF8606C40F01000606452
:102CA0002046FFF7D1F970BD10B50146806B096869
:102CB00009684FF00002C9052ED4C28501680C31A5
:102CC00051E8003F23F4807341E80034002CF5D133
:102CD0000168143151E8003F23F0010341E800345A
:102CE000002CF5D10168143151E8003F23F0400376
:102CF00041E80034002CF5D1202180F84210016B0E
:102D0000012909D101680C3151E8003F23F010037B
:102D100041E80034002CF5D14263016B012902D057
:102D2000FFF77CFB10BD818DFFF75CF910BD10B57E
:102D3000806B01214163016B012902D0FFF76FFB1A
:102D400010BD818D4908FFF74DF910BD01680C31A8
:102D500051E8002F22F4907241E80023002BF5D1B6
:102D60000168143151E8002F22F0010241E80023EC
:102D7000002BF5D1016B012909D101680C3151E813
:102D8000002F22F0100241E80023002BF5D1202172
:102D900080F8421000210163704701680C3151E84E
:102DA000002F22F0C00241E80023002BF5D12021A2
:102DB00080F84110704708B590F84210222901D0E0
:102DC000022008BD82684FF480539A4201D1016904
:102DD00021B1816A9A421BD04AB10AE00268816A35
:102DE0005268C2F308020A80816A891C08E00269FD
:102DF00072B10268526802F07F020A70816A491C4F
:102E00008162C18D491E0904090CC18503D01BE0F4
:102E100002685268F1E70168CA6822F02002CA60BD
:102E20000168CA6822F48072CA6001684A6922F0A7
:102E300001024A61202180F8421000214163026BA7
:102E4000012A03D0FFF7EAFA002008BD01630168F8
:102E50000C3151E8002F22F0100241E80023002B32
:102E6000F5D101680A68D20602D50A68496800915E
:102E7000818DFFF7B7F8E7E770B504460068016990
:102E8000E26821F44051114301612169A068E269BF
:102E900008436169114308432168CA6849F20C6319
:102EA0009A430243CA6020684169A26921F44071D3
:102EB0001143416131492068884202D0304988423B
:102EC00002D1FEF77DFB01E0FEF76AFBE269002319
:102ED000192164253226B2F5004F626828D0A0FB84
:102EE0000101930F9200FDF725FA0146B0FBF5F0C2
:102EF0006FF01802504301EB800006EB0010B0FBAE
:102F0000F5F000F0F002B1FBF5F002EB0012B1FBBE
:102F1000F5F06FF01803584301EB800006EB00104A
:102F2000B0FBF5F000F00F0021681044886070BD20
:102F3000A0FB010192185B41FDF7FCF90146B0FBD3
:102F4000F5F00201B1FBF5F06FF01803584301EB07
:102F5000800006EBC000B0FBF5F000F0F80002EBDB
:102F60004002B1FBF5F0584301EB800006EBC000D6
:102F7000B0FBF5F000F00700D6E7000000100140BC
:102F80000014014038B58162044682850020134652
:102F90006064222284F84220E56B1F4AEA63E56BF5
:102FA0001E4A2A64E56B1E4AEA64E26B10650A4613
:102FB0002168E06B091DFDF787FF30B110206064C8
:102FC000202084F84200012038BD20680168406854
:102FD0000090206948B120680C3050E8001F41F48F
:102FE000807140E80012002AF5D12068143050E8C2
:102FF000001F41F0010140E80012002AF5D12068CD
:10300000143050E8001F41F0400140E80012002A4F
:10301000F5D1002038BD0000A92C00082F2D000894
:103020005F2C000810B50648FFF710F805484FF46C
:10303000FA720168BDE810400148FEF7AEBF00001B
:103040009C03002000000020FEE70907090E00286D
:1030500004DB00F1E02080F80014704700F00F005E
:1030600000F1E02080F8141D70470000FEF77AF8A8
:10307000FFF744FDFFF78AFAFFF704FAFFF7DAFAE1
:10308000FFF736FBFFF7CEF9FFF7DAFBFFF752FB4E
:10309000012280210D48FEF751F80022082103206B
:1030A00001F00FF90A4C002201212060052001F0F7
:1030B00008F96060202207490748FEF76EFF00F01C
:1030C0001BF8FFF71BFA00F029F8FEE700080240A2
:1030D00004000020B40200209C03002010B5EFF390
:1030E000058111B16FF0050403E0002408B100F080
:1030F0009FFE204610BD0000EFF3058010B16FF079
:10310000050070470448016811B14FF0FF30704767
:1031100001210160002070479000002010B5EFF3FE
:10312000058010B16FF0050010BD08480168012945
:1031300002D04FF0FF3010BD054A002182F8141D67
:103140000221016000F0A2FF002010BD90000020CD
:103150000BE000E0F8B514464FF00005EFF30582F0
:1031600012BB08B301B3A4B1D4E9023263B1502A4F
:103170001AD32269C2B1676900FB01F6B74213D3C3
:10318000009501F0BFF807E072B9226962B962697F
:1031900052B9002201F095F8050005D00CB1216864
:1031A00000E0002100F0ACFD2846F8BD2DE9FF410C
:1031B0004FEA01034FF00005EFF30581039549BB8A
:1031C00040B38027182100244AB3166806B134465C
:1031D00096691EB13146761E382E02D21679F60750
:1031E00003D0002004B0BDE8F081566906B1B708ED
:1031F000D2F808C0BCF1000F0DD0D5685C2D18D3F3
:1032000012693AB136B18DE806103A46214601F00E
:10321000C0FB03900DE0D6685EB912694AB903AAF3
:10322000CDE90012BAB2214601F086FB012800D098
:1032300003950398D6E700002DE9F041134C0F46A3
:103240000546E6682068001D00F05CFC681C07D19C
:1032500037B12168BDE8F0410D48091D00F0A2BC5E
:1032600020683544B5424560216805D2A06BBDE8B1
:10327000F041091D00F07EBC606B091D00F07AFC76
:10328000A06A854200D2A562BDE8F081400000201E
:10329000DC0900202DE9F041054600F08FFC2D4CA3
:1032A000A068401CA06020682B4F10B1606930B34B
:1032B0002BE02560A068012827D1002606EB8600B8
:1032C00007EB800000F048FC761C382EF6D323482C
:1032D00000F042FC2148143000F03EFC1F4828302A
:1032E00000F03AFC1D483C3000F036FC1B485030E2
:1032F00000F032FC194860631430A06305E02068D8
:10330000E96AC06A884200D82560606A401C606231
:103310006864E86A2169884200D9206100EB800076
:1033200007EB8000291D00F03DFC00F067FC6069A0
:1033300000280CD02068E96AC06A884207D2084990
:103340004FF080500860BFF34F8FBFF36F8FBDE821
:10335000F0810000400000202C0500208C09002096
:1033600004ED00E038B500F029FC104C2068C8B925
:103370000F4800F0F1FB0E48143000F0EDFB0C4854
:10338000E060143020610A4B0020F03B009003F114
:10339000500210210A2000F0B5FF206010B105A1F5
:1033A00000F0AEFCBDE8384000F028BC7C000020F6
:1033B000E00A0020546D72510000000030B4026C2D
:1033C0000B46002A0BD0C1681144C1608468A14239
:1033D00001D30168C16030BC1846FDF722B830BC8B
:1033E00070472DE9F041856B174604460026026CB4
:1033F00082B1C7B1E068FDF714F8E168206C091AE2
:10340000E1602268914202D2A168081AE060022FAE
:1034100016D017E02068A8B9A06801F05DFB064649
:103420000020A0600EE06068FCF7FBFF216C606884
:1034300008446060A168884204D32068606001E0AD
:1034400005B16D1E6D1CA5633046BDE8F08110B559
:10345000044690F8590058B101280CD002280FD02A
:10346000502080F31188BFF34F8FBFF36F8FFEE7BB
:10347000206B00F0D7FB2046BDE8104000F0D2BB27
:1034800010BD000010484FF47051420706D0C01D17
:103490000D4920F00700411AC1F570510B4A002375
:1034A0000144C2E900030839183A21F0070111600C
:1034B0004B600B600B1AC0E9001393604FF00040A3
:1034C0005360506170470000C0110020AC00002024
:1034D000144E154CA6F29C474FF08058DFF84C90E4
:1034E00012E000BF00F06AFBF068C568281D00F01C
:1034F00009FBA068401EA0606068401E606000F08C
:103500007DFB2846FFF7A3FF60680028EAD13868F2
:103510000128F9D9C9F80080BFF34F8FBFF36F8F2F
:10352000F2E70000C80900204000002004ED00E0A0
:10353000002807D00021816001600B460A46C16067
:1035400000F058BF7047000070B51D46049C51B193
:10355000C4F80020C4E90F010121204600F006FF55
:1035600084F84C5070BD2460F4E700002DE9F05F52
:103570008846DDE90B941546834691009A460A9EDB
:10358000A522206BFCF792FF6FF00301206B01EB8B
:103590008501084420F00707780707D0502080F302
:1035A0001188BFF34F8FBFF36F8FFEE70025B8F18F
:1035B000000F0FD05FF00000221818F8001082F8FA
:1035C000341018F8001011B1401C1028F4D384F8FE
:1035D000435001E084F83450382E00D33726E66299
:1035E000C4E91365201D00F0C2FA04F1180000F0D0
:1035F000BEFA2461C6F138006462A061656584F892
:10360000585052465946384600F066FA2060B9F1E3
:10361000000F01D0C9F80040BDE8F09F30B5114956
:1036200000E011460A688242FBD34B685C18844272
:1036300003D1406818444860084643681C18944207
:1036400009D1084C183C2468A24209D052681A4497
:1036500042600A6812680260814200D0086030BD92
:103660000460F9E7AC00002070B5002441600B4D08
:103670000061914206D8D11A8269914206D2011D99
:10368000286907E09A4203D2994201D3012403E05A
:10369000011DE86800F06EFA204670BD7C00002035
:1036A00010B5044600F08AFAA06B28B15FF0000460
:1036B00000F0A4FA204610BD0124F9E730B589B026
:1036C0003C4D6EE00498002806DADDE90601059A13
:1036D00090470498002864DB069C606910B1201DA7
:1036E00000F010FA03A800F0D7F8024604980A2860
:1036F00057D2DFE800F00505052D334A05052D33C7
:1037000094F8280040F0010084F828000599A06989
:10371000059B01442046FFF7A7FF68B3216A2046B6
:10372000884794F8280040073BD500200090059872
:10373000A169002342181946204601F013FBD8B9AD
:10374000502080F31188BFF34F8FBFF36F8FFEE7D8
:1037500014F8280F20F00100207022E094F82800CF
:1037600040F0010084F828000598A06128B1811874
:1037700013462046FFF778FF13E0502080F31188AE
:10378000BFF34F8FBFF36F8FFEE794F828008107D8
:1037900003D4204600F046FA03E020F0010084F84C
:1037A0002800002204A9286800F034FF002889D1ED
:1037B00009B030BD7C0000202DE9FC410F460546D4
:1037C00000F0A8FC01A800F067F80446019818B1C1
:1037D00001F036FABDE8FC81254EAFB130690068D2
:1037E000D0B30027291B3A46306800F09DFA01F05B
:1037F00027FA0028EED11F494FF080500860BFF330
:103800004F8FBFF36F8FE5E7A542EBD801F018FAB1
:10381000F0682746C068C468201D00F073F994F86A
:103820002800410719D5A0692B4641193A46204680
:10383000FFF71AFFA8B100200346014600902A4670
:10384000204601F08FFA60B9502080F31188BFF351
:103850004F8FBFF36F8FFEE707E020F0010084F881
:103860002800216A20468847B4E70127BAE700000C
:103870007C00002004ED00E00648416B096829B196
:10388000416BC968C9684968816270474FF0FF3170
:10389000FAE700004000002070B5054601F0B2F8DC
:1038A000064E0446B068844203D200F009F80120B5
:1038B00000E0002028602046B46070BD7C0000203D
:1038C000F8B5194D20E0C068C4680668201D00F0F6
:1038D00019F9216A2046884794F82800400713D533
:1038E000A0693044B04206D924616060211DE868B7
:1038F00000F040F908E000200346014600903246FF
:10390000204601F02FFA38B1E86801680029DAD1C1
:103910002969C5E90310F8BD502080F31188BFF371
:103920004F8FBFF36F8FFEE77C0000200848406890
:10393000401C4FF0500080F3118804D0BFF34F8F2C
:10394000BFF36F8FFEE7BFF34F8FBFF36F8FFEE7BD
:10395000B4000020074CE068016841B1C068002154
:10396000D0F80000FFF728FFFFF7A8FEF3E70121DA
:103970000020F7E77C0000202DE9F041044600F02C
:103980001DF994F9455004F1240609E0606A48B134
:10399000304601F01DF908B100F0F2FA6D1E6DB26B
:1039A000002DF3DC4FF0FF3684F8456000F026F977
:1039B00000F004F994F9445004F1100709E020697B
:1039C00048B1384601F004F908B100F0D9FA6D1E8B
:1039D0006DB2002DF3DC84F84460BDE8F04100F0E6
:1039E0000DB900002DE9F0410546002700F092FBDB
:1039F000324E306808B9FFF745FD706905424ED177
:103A0000C5B3083568070ED005F00700C0F10800FF
:103A10000544680707D0502080F31188BFF34F8F0B
:103A2000BFF36F8FFEE72DB37068854237D8234808
:103A3000183001460C6801E020460C466168A94236
:103A400002D221680029F7D131688C4227D007685B
:103A50002168016060680837411B10290FD960197F
:103A6000420708D0502080F31188BFF34F8FBFF377
:103A70006F8FFEE713E041606560FFF7CFFD61687F
:103A80007068401A7060B268904200D2B06070698D
:103A900001430020C4E90001F068401CF06001F01F
:103AA000CFF8780707D0502080F31188BFF34F8FED
:103AB000BFF36F8FFEE73846BDE8F0819400002029
:103AC0000449086818B10868026D521C026508684C
:103AD000704700004000002010B5031F4FF08074B5
:103AE0001C601B1F21F001011960191F044B0B60A2
:103AF00014390A60091F6FF0020244380A6010BDD1
:103B00002D390008D0E9013201699A60D0E901231A
:103B10005A604A68824201D182684A60002202618A
:103B20000868401E0860086870470000034B036087
:103B300003F15C000860802010607047080B0020D3
:103B4000044B036003F15C0008604FF48070106068
:103B500070470000640D002000F108014FF0FF32B3
:103B6000C0E90112C16001610021016070470021BC
:103B70000161704730B50B685A1C02D000F1080291
:103B800002E0026904E02246546825689D42FAD9A1
:103B900053684B6099608A60516008610168491CF4
:103BA000016030BD42684A6093688B6093685960D9
:103BB000916008610168491C01607047502080F3E2
:103BC0001188BFF34F8FBFF36F8F0A494868401CBD
:103BD000486001280CD10848006810F0FF0F07D09A
:103BE000502080F31188BFF34F8FBFF36F8FFEE734
:103BF00070470000B400002004ED00E00849486868
:103C000028B1401E486001D180F3118870475020D0
:103C100080F31188BFF34F8FBFF36F8FFEE7000073
:103C2000B400002070B500282AD0164DA0F1080479
:103C300060686969084207D1502080F31188BFF39A
:103C40004F8FBFF36F8FFEE722683AB1502080F3A9
:103C50001188BFF34F8FBFF36F8FFEE7884360601B
:103C600000F058FA60686968084468602046FFF709
:103C7000D5FC2869401C2861BDE8704000F0E0BF19
:103C800070BD0000940000204FF0E0200021016191
:103C9000816105494FF47A720968B1FBF2F1491E5E
:103CA00041610721016170473C00002010B5FCF71D
:103CB0001DFB114910280ED300F1E02090F8F0030D
:103CC0000A78904207D2502080F31188BFF34F8FBB
:103CD000BFF36F8FFEE709480068896800F4E06071
:103CE000884207D9502080F31188BFF34F8FBFF36C
:103CF0006F8FFEE710BD0000B40000200CED00E067
:103D000010B5084B002200BF53F832401CB1521CC2
:103D1000082AF9D310BD43F8321003EBC201486002
:103D200010BD0000EC04002070B515460E46044698
:103D3000FFF744FF94F944100020491C01D184F896
:103D4000440094F94510491C01D184F84500FFF75F
:103D500055FFA06B28B92A46314604F1240000F033
:103D600031F92046BDE87040FFF706BE08B50121D5
:103D700021A20846FEF721FE22A201210220FEF721
:103D80001CFE244C244D32226946206800F042FC7F
:103D900001282DD19DF80000612810D10A21686802
:103DA00000F0D4FC01280AD11CA206210420FEF751
:103DB00004FE00231A461946686800F01BFB9DF8B4
:103DC0000000622810D10A21686800F0BFFC0128B9
:103DD0000AD114A206210420FEF7EFFD00231A46A3
:103DE0001946686800F006FB20211048FCF766FBC6
:103DF0000A20FFF773F9C6E7414456616C75653ACE
:103E000000000000566F6C746167653A302E3030E8
:103E100056000000080000200C0000204F50454EC6
:103E2000212100002020202020200000B4020020BA
:103E300010B5020014D00F48006B38B1502080F349
:103E40001188BFF34F8FBFF36F8FFEE700F062F969
:103E500000211046FFF7F0F900F0F2FE002807D12C
:103E600005494FF080500860BFF34F8FBFF36F8F4D
:103E700010BD00004000002004ED00E002490A6A85
:103E80000260C96841607047400000200F4C012269
:103E900004212046FDF752F941F28830FFF71EF960
:103EA000002204212046FDF749F900228021204606
:103EB000FDF744F96420FFF711F901228021204623
:103EC000FDF73CF96420FFF709F9EEE7000802402E
:103ED000264D2DED028B00BFFEF7EAFD044664215E
:103EE000686800F033FC01283CD1042322460921F4
:103EF000FEF742FD00EE104A9FED1D1AF8EE400A53
:103F000080EE810A10EE100A01F090F89FED191B67
:103F100053EC112B00F08CFF00F058FF08EE100A54
:103F200001230921BCEEC80A022010EE102AFEF778
:103F300023FD9FED120A6421022328EE000ABCEE45
:103F4000C00A10EE100A80B2B0FBF1F201FB1202BF
:103F50000B211846FEF710FD00231A461946686823
:103F600000F048FA3220FFF7B9F8B5E70C0000205E
:103F700000F07F456666666666660A400000C842D5
:103F800001490120C8617047400000200120FFF76F
:103F9000A5F8FBE710B50C4650B10949096818317E
:103FA000FFF7E8FD2046BDE810400121FFF744B9C6
:103FB000502080F31188BFF34F8FBFF36F8FFEE760
:103FC0004000002070B514460D4668B10A490968E2
:103FD0001831FFF7E7FD0CB14FF0FF3521462846B9
:103FE000BDE87040FFF728B9502080F31188BFF377
:103FF0004F8FBFF36F8FFEE74000002070B50400C5
:104000003ED0226DA2B1E06C884200D30146E06A46
:10401000884235D0012A33D11A4D2A6894420FD1F3
:10402000502080F31188BFF34F8FBFF36F8FFEE7EF
:10403000502080F31188BFF34F8FBFF36F8FFEE7DF
:10404000E162A269002A02DBC1F13801A1610E4ED2
:1040500000EB8000616906EB8000814210D1201DD9
:10406000FFF750FDE06A2969884200D9286100EB1A
:10407000800006EB8000211DBDE87040FFF792BD77
:1040800070BD0000400000202C05002030B587B036
:104090000024039405AA04A903A80494FFF746FD8D
:1040A000DDE903010094CDE90110002315A11748B3
:1040B000059A00F06EFC164D0028E8621FD000F053
:1040C00021FE012809D0401C19D1502080F311880D
:1040D000BFF34F8FBFF36F8FFEE7502080F311883F
:1040E000BFF34F8FBFF36F8F4FF0FF30A8620120F7
:1040F0006861EC6007B0BDE8304000F047B807B039
:1041000030BD000049444C4500000000D134000897
:10411000400000200248016B491C01637047000009
:1041200040000020164810B5016B11B10121C1619A
:1041300010BD0021C1610169124A01E0B9B1491EF7
:1041400001EB810352F82330002BF7D001EB810300
:1041500002EB830202F1080453685B685360A342D8
:1041600001D15B685360DA680260016110BD5020C4
:1041700080F31188BFF34F8FBFF36F8FFEE700000E
:10418000400000202C050020FEE700001CB5374849
:104190000168374A914207D1502080F31188BFF35C
:1041A0004F8FBFF36F8FFEE700683149491E884289
:1041B00007D1502080F31188BFF34F8FBFF36F8F6B
:1041C000FEE72C4908780190FF20087008788DF8E8
:1041D00000009DF800009DF8002000F0F0009042E3
:1041E00007D0502080F31188BFF34F8FBFF36F8F3C
:1041F000FEE79DF80000204C00F0500020700720E2
:10420000A06005E09DF8002052008DF80020401EBF
:104210009DF800201206F5D4A060032807D0502096
:1042200080F31188BFF34F8FBFF36F8FFEE74FF41A
:104230004070A060019808700C482030016841F47B
:1042400070010160016841F070410160FFF71CFDE1
:1042500000206060FCF712F80848016841F0404116
:104260000160FBF7F7FF00201CBD000000ED00E03F
:1042700071C20F4100E400E0B400002034EF00E020
:1042800010B5502080F31188BFF34F8FBFF36F8FAD
:1042900000F0BEFB18B104494FF0805008600020C8
:1042A00080F3118810BD000004ED00E010B5024657
:1042B0000021012000F005F80446FFF739F92046F7
:1042C00010BDF8B517460E46050013D005FB06F0E5
:1042D0005030FFF787FB04000AD0002084F8460026
:1042E00004F150023B46314628460094FFF72CF972
:1042F0002046F8BD502080F31188BFF34F8FBFF3E5
:104300006F8FFEE738B5049D18B153B1CAB181B1C2
:1043100020E0502080F31188BFF34F8FBFF36F8FE1
:10432000FEE7502080F31188BFF34F8FBFF36F8FEC
:10433000FEE7502080F31188BFF34F8FBFF36F8FDC
:10434000FEE739B1502080F31188BFF34F8FBFF3E0
:104350006F8FFEE750241C46012384F846302B461D
:104360000094FFF7F1F8204638BD000070B50D4607
:10437000040025D0FFF722FCD4E90F20216802FBBE
:104380000011A1600021A163216861600A46D4E99F
:104390000F01401E00FB0121E16021464FF0FF307C
:1043A00001F8440F487004F110008DB1FFF7D4FB01
:1043B00004F12400FFF7D0FBFFF720FC012070BDC3
:1043C000502080F31188BFF34F8FBFF36F8FFEE74C
:1043D00021690029F0D000F0FBFB0028ECD0044953
:1043E0004FF080500860BFF34F8FBFF36F8FE3E74C
:1043F00004ED00E02DE9FF4782B01D468A464FF0EC
:104400000008040003D0BAF1000F08D011E05020DA
:1044100080F31188BFF34F8FBFF36F8FFEE7206CDF
:1044200038B1502080F31188BFF34F8FBFF36F8FE7
:10443000FEE7022D0AD1E06B012807D0502080F35F
:104440001188BFF34F8FBFF36F8FFEE700F0CCFAF8
:104450003F4F4FF000094FF0805648B9049838B1EB
:10446000502080F31188BFF34F8FBFF36F8FFEE7AB
:10447000FFF7A4FBA06BE16B884207D3022D05D0A8
:104480000498D0B1B8F1000F1AD01EE02A46514668
:104490002046FEF7A6FF616A19B104F1240000F07E
:1044A00097FB20B13E60BFF34F8FBFF36F8FFFF7D5
:1044B000A5FB012006B0BDE8F087FFF79FFB22E0D7
:1044C0006846FFF7DBFC4FF00108FFF797FBFFF7AB
:1044D00021FEFFF773FB94F94400401C01D184F8DE
:1044E000449094F94500401C01D184F84590FFF7B1
:1044F00085FB04A9684600F0E5F930B12046FFF7D6
:104500003BFA00F09DFB0020D4E7FFF757FBA06BC0
:10451000E16B884213D1FFF771FB04F1100004999D
:10452000FFF738FD2046FFF727FA00F089FB002847
:104530009ED13E60BFF34F8FBFF36F8F98E7FFF7B9
:104540005DFB2046FFF718FA00F07AFB90E70000C9
:1045500004ED00E02DE9F0471F469046894604002F
:1045600003D0B9F1000F08D011E0502080F311887A
:10457000BFF34F8FBFF36F8FFEE7206C38B1502031
:1045800080F31188BFF34F8FBFF36F8FFEE7022FC9
:104590000AD1E06B012807D0502080F31188BFF3C7
:1045A0004F8FBFF36F8FFEE7FFF780FB5020EFF3D5
:1045B000118680F31188BFF34F8FBFF36F8FA06B0D
:1045C000E16B884206D3022F04D0002086F31188C5
:1045D000BDE8F08794F94550A06B3A46494620461D
:1045E000FEF7FFFE681C04D06D1C84F845500120C6
:1045F000ECE7606A0028FAD004F1240000F0E8FA41
:104600000028F4D0B8F1000FF1D00121C8F8001053
:10461000EDE700002DE9F747002683B08A46040045
:1046200003D0BAF1000F08D011E0502080F31188B8
:10463000BFF34F8FBFF36F8FFEE7206C38B1502070
:1046400080F31188BFF34F8FBFF36F8FFEE700F049
:10465000CBF9DFF8F4804FF000094FF0805748B9EC
:10466000059838B1502080F31188BFF34F8FBFF306
:104670006F8FFEE7FFF7A2FAA56BC5B15146204642
:10468000FEF79CFE6D1EA563206950B104F1100079
:1046900000F09EFA28B1C8F80070BFF34F8FBFF347
:1046A0006F8FFFF7ABFA012006B0BDE8F0870598E1
:1046B00008B11EB106E0FFF7A1FA27E06846FFF750
:1046C000DDFB0126FFF79AFAFFF724FDFFF776FAE4
:1046D00094F94400401C01D184F8449094F94500B9
:1046E000401C01D184F84590FFF788FA05A9684677
:1046F00000F0E8F8002820460AD0FFF73DF900F066
:104700009FFA2046FEF7CCFF0028B3D00020CBE76D
:10471000FEF7C6FF90B104F124000599FFF73AFCBB
:104720002046FFF729F900F08BFA0028A2D1C8F83B
:104730000070BFF34F8FBFF36F8F9BE72046FFF7EB
:104740001BF900F07DFA95E704ED00E02DE9F34355
:10475000002683B00400354609D0206C78B1502083
:1047600080F31188BFF34F8FBFF36F8FFEE75020A8
:1047700080F31188BFF34F8FBFF36F8FFEE700F018
:1047800033F9DFF83C814FF000094FF0805748B90A
:10479000049838B1502080F31188BFF34F8FBFF3D6
:1047A0006F8FFEE7FFF70AFAA06BC8B1401EA06347
:1047B000206810B9FFF784F9A060206950B104F1B6
:1047C000100000F005FA28B1C8F80070BFF34F8F51
:1047D000BFF36F8FFFF712FA012005B0BDE8F08339
:1047E000049808B166B10FE03DB1502080F3118804
:1047F000BFF34F8FBFF36F8FFEE7FFF7FFF95DE069
:104800006846FFF73BFB0126FFF7F8F9FFF782FC4C
:10481000FFF7D4F994F94400401C01D184F8449086
:1048200094F94500401C01D184F84590FFF7E6F962
:1048300004A9684600F046F80028204612D0FFF789
:104840009BF800F0FDF92046FEF72AFF0028A9D0CA
:104850009DB3FFF7B3F9606A50B3206B0068C0F1F5
:10486000380126E0FEF71CFFE0B1206838B9FFF7F9
:10487000A5F9A06800F070F90546FFF7BFF904F14B
:1048800024000499FFF786FB2046FFF775F800F037
:10489000D7F9002886D1C8F80070BFF34F8FBFF357
:1048A0006F8F7FE72046FFF767F800F0C9F979E7D7
:1048B0000021A068FFF7A2FB9FE7FFE700208CE73D
:1048C00004ED00E02DE9F0410C46050011D0C4B123
:1048D000FFF774F9174BDA686E682068911B471C64
:1048E00017D02F681B6A9F4219D0964217D801240F
:1048F00010E0502080F31188BFF34F8FBFF36F8F0C
:10490000FEE7502080F31188BFF34F8FBFF36F8F06
:10491000FEE70024FFF772F92046BDE8F0818842E7
:1049200005D9401A20602846FFF7A8FAF1E70020D1
:104930002060DCE7400000202DE9FF5F8346DDE9D1
:104940000E87994616468A469000FFF74BF80500F9
:104950001CD05C20FFF746F8040014D0002025632B
:1049600084F85900CDE90240CDE900874B46324634
:1049700051465846FEF7FAFD2046FEF78BFC012013
:1049800004B0BDE8F09F2846FFF74CF94FF0FF3028
:10499000F6E7F0B585B0DDE90B640A9DA6B1DCB1A0
:1049A0005C2700972663022684F85960002604AF2E
:1049B000CDE90246CDE90057FEF7D8FD2046FEF7C7
:1049C00069FC049805B0F0BD502080F31188BFF356
:1049D0004F8FBFF36F8FFEE7502080F31188BFF336
:1049E0004F8FBFF36F8FFEE70548416919B1006B28
:1049F00018B1002070470120704702207047000066
:104A0000400000200148C0687047000040000020BE
:104A10002DE9F0412E4C0027206B28B1A069401CE5
:104A2000A0613846BDE8F081E668761CE66013D1E7
:104A3000606B006838B1502080F31188BFF34F8F4E
:104A4000BFF36F8FFEE7606BA16B6163A063206AA9
:104A5000401C2062FEF710FFA06ADFF878808642D3
:104A600009D3606B0068A0B1606BC068C5686868F6
:104A7000864211D2A0622068C06A00EB800158F81B
:104A80002100012800D90127E0690028C9D00127A9
:104A9000C7E74FF0FF30EDE7281DFFF733F8A86AAE
:104AA00018B105F11800FFF72DF8E86A216988426E
:104AB00000D9206100EB800108EB8100291DFFF780
:104AC00071F8E86A2168C96A8842CAD30127C8E731
:104AD000400000202C05002070B504004FF00001BC
:104AE00033D01B4D2868844207D0502080F31188B2
:104AF000BFF34F8FBFF36F8FFEE7206D38B1401EBD
:104B00002065E36CE26A9A421FD040B11DE050205C
:104B100080F31188BFF34F8FBFF36F8FFEE7201D27
:104B2000FEF7F0FFE06CE062C0F13800A061E06ADF
:104B30002969884200D92861064900EB800001EB11
:104B40008000211DFFF72EF80121084670BD0000EE
:104B5000400000202C05002070B504004FF000003C
:104B60002BD0194DE16A2A68D26A914226D2A069F7
:104B7000002804DB2868C06AC0F13800A061134E29
:104B800001EB8101606906EB8101884211D1201D92
:104B9000FEF7B8FF2868C06AE0622969884200D938
:104BA000286100EB800006EB8000211DFEF7FAFF74
:104BB00002E02868C06AE062012070BDE16C2A68EA
:104BC000D26A9142F8D370BD400000202C0500202D
:104BD00070B5C068C46854B104F118000646FEF709
:104BE00091FF144D286B50B13146134815E0502009
:104BF00080F31188BFF34F8FBFF36F8FFEE7201D47
:104C0000FEF780FFE06A2969884200D928610B49D4
:104C100000EB800001EB8000211DFEF7C3FFE06A7E
:104C20002968C96A884202D90120E86170BD002064
:104C300070BD000040000020B40900202C050020B9
:104C40002DE9F0472C4D00242746286B38B1FEF79C
:104C5000B5FF286B401E2863286B40B146E050200A
:104C600080F31188BFF34F8FBFF36F8FFEE7A96802
:104C7000224E0120D1B3A6F5916980463068E0B19B
:104C8000F068C46804F11800FEF73CFF201DFEF731
:104C900039FFE06A2969884200D9286100EB800168
:104CA00009EB8100211DFEF77DFFE06A2968C96AD2
:104CB0008842E3D3C5F81C80E0E70CB1FEF7DCFDC9
:104CC000AC694CB14FEA0806FFF7A2FE00B1EE61F5
:104CD000641EF9D10020A861E86938B108490127AC
:104CE00038070860BFF34F8FBFF36F8FFEF786FF63
:104CF0003846BDE8F087000040000020B4090020DD
:104D000004ED00E010B586B0FEF72CFB114C2068D6
:104D1000B8B100200390049005AA04A903A8FEF7E7
:104D20000FFFDDE9032102208DE8070000230AA11F
:104D30000B48059AFFF72DFE606010B106B0012008
:104D400010BD502080F31188BFF34F8FBFF36F8FDA
:104D5000FEE700007C000020546D72205376630053
:104D6000553900082DE9FF411E46134602000A9DF1
:104D70004FF0000016D0144C2768002F0FD0CDE95B
:104D800000130292062917DAFFF72EFE02284FF0D1
:104D900000030FD0002269462068FFF72BFB04B008
:104DA000BDE8F081502080F31188BFF34F8FBFF32F
:104DB0006F8FFEE72A46EEE7002332466946384603
:104DC000FFF7C8FBEBE700007C00002021F0004269
:104DD000A2F16052B2F5801F01F0004328BFD2F16A
:104DE0007F6C0BD95FEA001C43EAC20242EB5070B1
:104DF00018BF704728BF20F001007047B2F5801F30
:104E0000BCBF184670474FEA410C1CF5001F02D288
:104E1000084600F081B970B500F0B4F800000089D0
:104E2000FFF7F6BF4FF00040A0F58000704700008C
:104E3000DFF848C170B51CEA111E1EBF1CEA13152D
:104E40009EEA0C0F95EA0C0F00F06F8081EA0304D4
:104E500023EA4C134EEAD47E21EA4C1141F480112E
:104E600043F48013AE44A1FB024CA0FB0365AEF1FA
:104E70007F7E361955EB0C05A1FB034C4CF100036A
:104E8000A0FB021C16EB0C06654153F1000309421E
:104E900018BF46F0010613F4007F0BD14FEA03312F
:104EA0004FEA0530340341EA155140EA16506FF0DD
:104EB00003020AE04FEAC3214FEAC520F40241EAA7
:104EC000555140EA56506FF0020202EB2E4201EBC0
:104ED000025585EACE710AD05FEA440C18BF24F06F
:104EE000004450F1000041F1000120EAD47040F28A
:104EF000FE7C624500D270BDA84214BF4FF08044D2
:104F00004FF04044002E08BF0024BEF1806FA8BFC0
:104F1000A1F1C041BDE8704080F282804FF00000F6
:104F200001F1C04101F0004170479EEA0C0F0CEA0C
:104F3000131518BF95EA0C0F06D04FF0000081EA58
:104F4000030E0EF0004170BD00F01CF88900013E18
:104F500000F007B800F009B84FEA430C5FEA5C5C68
:104F600008D081EA030100F05BB84FEA410C5FEA28
:104F70005C5CF6D14FF00000014970470000FF076C
:104F80000000F87F0EF1020E2EF0030E5EF8046BA7
:104F9000364205D4012A43EB030515F5001F12D84C
:104FA000012841EB010C1CF5001F0CD80ED14FEA73
:104FB000D17C15F5001F0CEB4C0C0CF1020C08BF5A
:104FC0004CEBD37C04E04FF0080C01E04FEAD37CBB
:104FD0000CEB4C0526FA05F606F00706B6F1040CB4
:104FE00006D20EEB860CBDE870404CF0010C604719
:104FF000DFE80CF0090B02024FF000414FF0000017
:10500000A1F5002170BD19461046012851EB01049D
:1050100018BFD4F5001484BF002001F0004170BD1A
:105020000808A0F500114FEA3101704743004FEA2C
:10503000D30C4FEA3C0C43401FBF40070CF16051BA
:1050400013F0FE4F70471CF0006F03D100200CF0EE
:10505000004170470CF0004343EA507010B540EA3D
:10506000CC0000F00EF800BF000000924FEA0001F3
:10507000FFF7D6BF4FF000414FF00000A1F500212F
:1050800070470EF1020E2EF0030E5EF8044B244220
:1050900004D44FEA4102B2F17F4F11D84FEA4003E6
:1050A000B3F17F4F0CD80ED14FEAD07CB2F17F4FD5
:1050B0000CEB4C0C0CF1020C08BF4CEBD17C04E067
:1050C0004FF0080C01E04FEAD17C0CEB4C0324FAC2
:1050D00003F404F00704B4F1040C06D20EEB840CC4
:1050E000BDE810404CF0010C6047DFE80CF0070809
:1050F00002024FF00040A0F5800010BD08464200BB
:1051000018BFD2F1807288BF00F0004010BD4FF090
:105110004070E1EE100A7047FF2141EAD050C0050F
:1051200070470000000000000000000000000000C8
:105130000000000000F80000000000000033300014
:10514000000000100C06100C06000000000000001B
:10515000000040C07840C0784000043F04043F0491
:105160000400007088FC08300000001820FF211E99
:105170000000F008F000E018000000211C031E21D0
:105180001E0000F00888700000001E21232419274B
:10519000211010160E0000000000000000000000AA
:1051A0000000000000E018040200000000071820C2
:1051B000400000020418E000000000402018070032
:1051C0000000404080F0804040000202010F0102D8
:1051D0000200000000F0000000000101011F0101B9
:1051E0000100000000000000000080B0700000001E
:1051F00000000000000000000000000101010101AA
:10520000010100000000000000000030300000003C
:105210000000000000008060180400601806010013
:10522000000000E010080810E000000F102020101F
:105230000F00001010F8000000000020203F202088
:10524000000000700808088870000030282422211F
:1052500030000030088888483000001820202011D5
:105260000E000000C02010F8000000070424243FB6
:10527000240000F80888880808000019212020115F
:105280000E0000E0108888180000000F1120201187
:105290000E0000380808C83808000000003F000071
:1052A00000000070880808887000001C222121225C
:1052B0001C0000E010080810E0000000312222115C
:1052C0000F00000000C0C0000000000000303000EF
:1052D000000000000080000000000000806000006E
:1052E00000000000804020100800000102040810A7
:1052F00020004040404040404000040404040404B6
:105300000400000810204080000000201008040263
:105310000100007048080808F00000000030360165
:105320000000C030C828E810E00007182724231424
:105330000B000000C038E0000000203C23020227E0
:10534000382008F8888888700000203F202020112D
:105350000E00C03008080808380007182020201068
:10536000080008F808080810E000203F202020105E
:105370000F0008F88888E8081000203F202023202C
:10538000180008F88888E8081000203F2000030073
:105390000000C03008080838000007182020221E2E
:1053A000020008F808000008F808203F2101012148
:1053B0003F20000808F8080800000020203F2020B7
:1053C000000000000808F8080800C08080807F0006
:1053D000000008F888C028180800203F200126385F
:1053E000200008F8080000000000203F20202020B6
:1053F000300008F8F800F8F80800203F003F003FB0
:10540000200008F830C00008F808203F20000718E6
:105410003F00E01008080810E0000F1020202010C6
:105420000F0008F808080808F000203F21010101DA
:105430000000E01008080810E0000F18242438507D
:105440004F0008F8888888887000203F2000030CEF
:1054500030200070880808083800003820212122F8
:105460001C00180808F8080818000000203F200059
:10547000000008F808000008F808001F202020207D
:105480001F000878880000C83808000007380E019F
:105490000000F80800F80008F800033C0700073C8B
:1054A0000300081868808068180820302C03032C3B
:1054B00030200838C800C83808000000203F20000D
:1054C000000010080808C8380800203826212020CD
:1054D0001800000000FE020202000000007F4040B1
:1054E0004000000C30C00000000000000001063841
:1054F000C00000020202FE000000004040407F00A9
:10550000000000000402020204000000000000008D
:10551000000000000000000000008080808080808B
:105520008080000202040000000000000000000073
:1055300000000000808080800000001924222222C8
:105540003F2008F8008080000000003F112020115B
:105550000E000000008080800000000E112020203E
:105560001100000000808088F800000E112020103B
:105570003F200000808080800000001F2222222225
:105580001300008080F0888888180020203F2020A9
:1055900000000000808080808000006B94949493D1
:1055A000600008F8008080800000203F210000207B
:1055B0003F2000809898000000000020203F20201D
:1055C0000000000000809898000000C08080807F6C
:1055D000000008F8000080808000203F24022D3069
:1055E0002000000808F8000000000020203F2020D4
:1055F00000008080808080808000203F20003F204D
:10560000003F8080008080800000203F210000203B
:105610003F200000808080800000001F202020208C
:105620001F00808000808000000080FFA1202011EA
:105630000E000000008080808000000E112020A05D
:10564000FF80808080008080800020203F2120001B
:105650000100000080808080800000332424242406
:105660001900008080E0808000000000001F2020E2
:1056700000008080000000808000001F202020109B
:105680003F20808080000080808000010E3008066E
:10569000010080800080008080800F300C030C307F
:1056A0000F0000808000808080000020312E0E31AD
:1056B0002000808080000080808080818E701806AD
:1056C000010000808080808080000021302C222119
:1056D000300000000000807C020200000000003F5B
:1056E000404000000000FF00000000000000FF003C
:1056F00000000002027C800000000040403F0000EB
:105700000000000601010202040400000000000085
:1057100000000000445800080000000000000000E5
:10572000000000000000000000020000180000005F
:1057300000000000000000006858000800000000A1
:105740000000000000000000000000000002000057
:105750000800000000000000000000005058000891
:105760000000000000000000000000000000000039
:10577000000200000800000000000000000000001F
:105780003858000800000000000000000000000081
:1057900000000000000200000800000000000000FF
:1057A000000000005C58000800000000000000003D
:1057B00000000000000000000002000008000000DF
:1057C0000000000000000000185800080000000061
:1057D00000000000000000000000000000000000C9
:1057E0002858000800000000000000000000000031
:1057F0000000000000000000000610160006101651
:105800000000000000000000010203040607080970
:105810000000000001020304757361727452784D38
:105820007367517565756500426C7565746565745F
:1058300068517565756500004C69676874436865F3
:10584000636B00004C454473746172740000000087
:105850004F4C454473686F7700000000426C7565DB
:10586000746F6F7468527800757361727452780047
:105870009058000800000020C0000000D00100087F
:1058800050590008C000002060530000EC010008DF
:10589000C000002000000000000000000000000028
:1058A00000000000000000000000000000000000F8
:1058B00000000000000000000000000000000000E8
:1058C0000100000010000000000000000024F400AF
:1058D00000000000000000000000000000000000C8
:1058E00000000000000000000000000000000000B8
:1058F00000000000000000000000000000000000A8
:105900000000000000000000000000000000000097
:105910000000000000000000000000000000000087
:105920000000000000000000000000000000000077
:105930000000000000000000000000000000000067
:105940000000000000000000AAAAAAAA00000000AF
:040000050800019559
:00000001FF
